{
	"SimpleSwap_flattened.sol": {
		"SimpleSwap": {
			"abi": [
				{
					"inputs": [
						{
							"internalType": "address",
							"name": "tokenA",
							"type": "address"
						},
						{
							"internalType": "address",
							"name": "tokenB",
							"type": "address"
						},
						{
							"internalType": "uint256",
							"name": "amountADesired",
							"type": "uint256"
						},
						{
							"internalType": "uint256",
							"name": "amountBDesired",
							"type": "uint256"
						},
						{
							"internalType": "uint256",
							"name": "amountAMin",
							"type": "uint256"
						},
						{
							"internalType": "uint256",
							"name": "amountBMin",
							"type": "uint256"
						},
						{
							"internalType": "address",
							"name": "to",
							"type": "address"
						},
						{
							"internalType": "uint256",
							"name": "deadline",
							"type": "uint256"
						}
					],
					"name": "addLiquidity",
					"outputs": [
						{
							"internalType": "uint256",
							"name": "amountA",
							"type": "uint256"
						},
						{
							"internalType": "uint256",
							"name": "amountB",
							"type": "uint256"
						},
						{
							"internalType": "uint256",
							"name": "liquidity",
							"type": "uint256"
						}
					],
					"stateMutability": "nonpayable",
					"type": "function"
				},
				{
					"inputs": [
						{
							"internalType": "uint256",
							"name": "amountIn",
							"type": "uint256"
						},
						{
							"internalType": "uint256",
							"name": "reserveIn",
							"type": "uint256"
						},
						{
							"internalType": "uint256",
							"name": "reserveOut",
							"type": "uint256"
						}
					],
					"name": "getAmountOut",
					"outputs": [
						{
							"internalType": "uint256",
							"name": "amountOut",
							"type": "uint256"
						}
					],
					"stateMutability": "pure",
					"type": "function"
				},
				{
					"inputs": [
						{
							"internalType": "address",
							"name": "tokenA",
							"type": "address"
						},
						{
							"internalType": "address",
							"name": "tokenB",
							"type": "address"
						}
					],
					"name": "getPrice",
					"outputs": [
						{
							"internalType": "uint256",
							"name": "price",
							"type": "uint256"
						}
					],
					"stateMutability": "view",
					"type": "function"
				},
				{
					"inputs": [
						{
							"internalType": "address",
							"name": "",
							"type": "address"
						},
						{
							"internalType": "address",
							"name": "",
							"type": "address"
						}
					],
					"name": "pairs",
					"outputs": [
						{
							"internalType": "uint256",
							"name": "reserveA",
							"type": "uint256"
						},
						{
							"internalType": "uint256",
							"name": "reserveB",
							"type": "uint256"
						},
						{
							"internalType": "contract LiquidityToken",
							"name": "liquidityToken",
							"type": "address"
						}
					],
					"stateMutability": "view",
					"type": "function"
				},
				{
					"inputs": [
						{
							"internalType": "address",
							"name": "tokenA",
							"type": "address"
						},
						{
							"internalType": "address",
							"name": "tokenB",
							"type": "address"
						},
						{
							"internalType": "uint256",
							"name": "liquidity",
							"type": "uint256"
						},
						{
							"internalType": "uint256",
							"name": "amountAMin",
							"type": "uint256"
						},
						{
							"internalType": "uint256",
							"name": "amountBMin",
							"type": "uint256"
						},
						{
							"internalType": "address",
							"name": "to",
							"type": "address"
						},
						{
							"internalType": "uint256",
							"name": "deadline",
							"type": "uint256"
						}
					],
					"name": "removeLiquidity",
					"outputs": [
						{
							"internalType": "uint256",
							"name": "amountA",
							"type": "uint256"
						},
						{
							"internalType": "uint256",
							"name": "amountB",
							"type": "uint256"
						}
					],
					"stateMutability": "nonpayable",
					"type": "function"
				},
				{
					"inputs": [
						{
							"internalType": "uint256",
							"name": "amountIn",
							"type": "uint256"
						},
						{
							"internalType": "uint256",
							"name": "amountOutMin",
							"type": "uint256"
						},
						{
							"internalType": "address[]",
							"name": "path",
							"type": "address[]"
						},
						{
							"internalType": "address",
							"name": "to",
							"type": "address"
						},
						{
							"internalType": "uint256",
							"name": "deadline",
							"type": "uint256"
						}
					],
					"name": "swapExactTokensForTokens",
					"outputs": [
						{
							"internalType": "uint256[]",
							"name": "amounts",
							"type": "uint256[]"
						}
					],
					"stateMutability": "nonpayable",
					"type": "function"
				}
			],
			"devdoc": {
				"kind": "dev",
				"methods": {},
				"title": "SimpleSwap - Basic AMM similar to Uniswap V2",
				"version": 1
			},
			"evm": {
				"assembly": "    /* \"SimpleSwap_flattened.sol\":22510:27856  contract SimpleSwap {... */\n  mstore(0x40, 0x80)\n  callvalue\n  dup1\n  iszero\n  tag_1\n  jumpi\n  revert(0x00, 0x00)\ntag_1:\n  pop\n  dataSize(sub_0)\n  dup1\n  dataOffset(sub_0)\n  0x00\n  codecopy\n  0x00\n  return\nstop\n\nsub_0: assembly {\n        /* \"SimpleSwap_flattened.sol\":22510:27856  contract SimpleSwap {... */\n      mstore(0x40, 0x80)\n      callvalue\n      dup1\n      iszero\n      tag_1\n      jumpi\n      revert(0x00, 0x00)\n    tag_1:\n      pop\n      jumpi(tag_2, lt(calldatasize, 0x04))\n      shr(0xe0, calldataload(0x00))\n      dup1\n      0x054d50d4\n      eq\n      tag_3\n      jumpi\n      dup1\n      0x38ed1739\n      eq\n      tag_4\n      jumpi\n      dup1\n      0x69454b86\n      eq\n      tag_5\n      jumpi\n      dup1\n      0xac41865a\n      eq\n      tag_6\n      jumpi\n      dup1\n      0xbaa2abde\n      eq\n      tag_7\n      jumpi\n      dup1\n      0xe8e33700\n      eq\n      tag_8\n      jumpi\n    tag_2:\n      revert(0x00, 0x00)\n        /* \"SimpleSwap_flattened.sol\":27105:27556  function getAmountOut(uint amountIn, uint reserveIn, uint reserveOut) public pure returns (uint amountOut) {... */\n    tag_3:\n      tag_9\n      0x04\n      dup1\n      calldatasize\n      sub\n      dup2\n      add\n      swap1\n      tag_10\n      swap2\n      swap1\n      tag_11\n      jump\t// in\n    tag_10:\n      tag_12\n      jump\t// in\n    tag_9:\n      mload(0x40)\n      tag_13\n      swap2\n      swap1\n      tag_14\n      jump\t// in\n    tag_13:\n      mload(0x40)\n      dup1\n      swap2\n      sub\n      swap1\n      return\n        /* \"SimpleSwap_flattened.sol\":25749:26813  function swapExactTokensForTokens(... */\n    tag_4:\n      tag_15\n      0x04\n      dup1\n      calldatasize\n      sub\n      dup2\n      add\n      swap1\n      tag_16\n      swap2\n      swap1\n      tag_17\n      jump\t// in\n    tag_16:\n      tag_18\n      jump\t// in\n    tag_15:\n      mload(0x40)\n      tag_19\n      swap2\n      swap1\n      tag_20\n      jump\t// in\n    tag_19:\n      mload(0x40)\n      dup1\n      swap2\n      sub\n      swap1\n      return\n        /* \"SimpleSwap_flattened.sol\":22646:22703  mapping(address => mapping(address => Pair)) public pairs */\n    tag_5:\n      tag_21\n      0x04\n      dup1\n      calldatasize\n      sub\n      dup2\n      add\n      swap1\n      tag_22\n      swap2\n      swap1\n      tag_23\n      jump\t// in\n    tag_22:\n      tag_24\n      jump\t// in\n    tag_21:\n      mload(0x40)\n      tag_25\n      swap4\n      swap3\n      swap2\n      swap1\n      tag_26\n      jump\t// in\n    tag_25:\n      mload(0x40)\n      dup1\n      swap2\n      sub\n      swap1\n      return\n        /* \"SimpleSwap_flattened.sol\":26819:27099  function getPrice(address tokenA, address tokenB) external view returns (uint price) {... */\n    tag_6:\n      tag_27\n      0x04\n      dup1\n      calldatasize\n      sub\n      dup2\n      add\n      swap1\n      tag_28\n      swap2\n      swap1\n      tag_23\n      jump\t// in\n    tag_28:\n      tag_29\n      jump\t// in\n    tag_27:\n      mload(0x40)\n      tag_30\n      swap2\n      swap1\n      tag_14\n      jump\t// in\n    tag_30:\n      mload(0x40)\n      dup1\n      swap2\n      sub\n      swap1\n      return\n        /* \"SimpleSwap_flattened.sol\":24652:25743  function removeLiquidity(... */\n    tag_7:\n      tag_31\n      0x04\n      dup1\n      calldatasize\n      sub\n      dup2\n      add\n      swap1\n      tag_32\n      swap2\n      swap1\n      tag_33\n      jump\t// in\n    tag_32:\n      tag_34\n      jump\t// in\n    tag_31:\n      mload(0x40)\n      tag_35\n      swap3\n      swap2\n      swap1\n      tag_36\n      jump\t// in\n    tag_35:\n      mload(0x40)\n      dup1\n      swap2\n      sub\n      swap1\n      return\n        /* \"SimpleSwap_flattened.sol\":22710:24646  function addLiquidity(... */\n    tag_8:\n      tag_37\n      0x04\n      dup1\n      calldatasize\n      sub\n      dup2\n      add\n      swap1\n      tag_38\n      swap2\n      swap1\n      tag_39\n      jump\t// in\n    tag_38:\n      tag_40\n      jump\t// in\n    tag_37:\n      mload(0x40)\n      tag_41\n      swap4\n      swap3\n      swap2\n      swap1\n      tag_42\n      jump\t// in\n    tag_41:\n      mload(0x40)\n      dup1\n      swap2\n      sub\n      swap1\n      return\n        /* \"SimpleSwap_flattened.sol\":27105:27556  function getAmountOut(uint amountIn, uint reserveIn, uint reserveOut) public pure returns (uint amountOut) {... */\n    tag_12:\n        /* \"SimpleSwap_flattened.sol\":27196:27210  uint amountOut */\n      0x00\n        /* \"SimpleSwap_flattened.sol\":27241:27242  0 */\n      0x00\n        /* \"SimpleSwap_flattened.sol\":27230:27238  amountIn */\n      dup5\n        /* \"SimpleSwap_flattened.sol\":27230:27242  amountIn > 0 */\n      gt\n        /* \"SimpleSwap_flattened.sol\":27222:27268  require(amountIn > 0, \"Amount in must be > 0\") */\n      tag_44\n      jumpi\n      mload(0x40)\n      0x08c379a000000000000000000000000000000000000000000000000000000000\n      dup2\n      mstore\n      0x04\n      add\n      tag_45\n      swap1\n      tag_46\n      jump\t// in\n    tag_45:\n      mload(0x40)\n      dup1\n      swap2\n      sub\n      swap1\n      revert\n    tag_44:\n        /* \"SimpleSwap_flattened.sol\":27298:27299  0 */\n      0x00\n        /* \"SimpleSwap_flattened.sol\":27286:27295  reserveIn */\n      dup4\n        /* \"SimpleSwap_flattened.sol\":27286:27299  reserveIn > 0 */\n      gt\n        /* \"SimpleSwap_flattened.sol\":27286:27317  reserveIn > 0 && reserveOut > 0 */\n      dup1\n      iszero\n      tag_47\n      jumpi\n      pop\n        /* \"SimpleSwap_flattened.sol\":27316:27317  0 */\n      0x00\n        /* \"SimpleSwap_flattened.sol\":27303:27313  reserveOut */\n      dup3\n        /* \"SimpleSwap_flattened.sol\":27303:27317  reserveOut > 0 */\n      gt\n        /* \"SimpleSwap_flattened.sol\":27286:27317  reserveIn > 0 && reserveOut > 0 */\n    tag_47:\n        /* \"SimpleSwap_flattened.sol\":27278:27338  require(reserveIn > 0 && reserveOut > 0, \"Invalid reserves\") */\n      tag_48\n      jumpi\n      mload(0x40)\n      0x08c379a000000000000000000000000000000000000000000000000000000000\n      dup2\n      mstore\n      0x04\n      add\n      tag_49\n      swap1\n      tag_50\n      jump\t// in\n    tag_49:\n      mload(0x40)\n      dup1\n      swap2\n      sub\n      swap1\n      revert\n    tag_48:\n        /* \"SimpleSwap_flattened.sol\":27349:27369  uint amountInWithFee */\n      0x00\n        /* \"SimpleSwap_flattened.sol\":27383:27386  997 */\n      0x03e5\n        /* \"SimpleSwap_flattened.sol\":27372:27380  amountIn */\n      dup6\n        /* \"SimpleSwap_flattened.sol\":27372:27386  amountIn * 997 */\n      tag_51\n      swap2\n      swap1\n      tag_52\n      jump\t// in\n    tag_51:\n        /* \"SimpleSwap_flattened.sol\":27349:27386  uint amountInWithFee = amountIn * 997 */\n      swap1\n      pop\n        /* \"SimpleSwap_flattened.sol\":27396:27410  uint numerator */\n      0x00\n        /* \"SimpleSwap_flattened.sol\":27431:27441  reserveOut */\n      dup4\n        /* \"SimpleSwap_flattened.sol\":27413:27428  amountInWithFee */\n      dup3\n        /* \"SimpleSwap_flattened.sol\":27413:27441  amountInWithFee * reserveOut */\n      tag_53\n      swap2\n      swap1\n      tag_52\n      jump\t// in\n    tag_53:\n        /* \"SimpleSwap_flattened.sol\":27396:27441  uint numerator = amountInWithFee * reserveOut */\n      swap1\n      pop\n        /* \"SimpleSwap_flattened.sol\":27451:27467  uint denominator */\n      0x00\n        /* \"SimpleSwap_flattened.sol\":27489:27504  amountInWithFee */\n      dup3\n        /* \"SimpleSwap_flattened.sol\":27482:27486  1000 */\n      0x03e8\n        /* \"SimpleSwap_flattened.sol\":27470:27479  reserveIn */\n      dup8\n        /* \"SimpleSwap_flattened.sol\":27470:27486  reserveIn * 1000 */\n      tag_54\n      swap2\n      swap1\n      tag_52\n      jump\t// in\n    tag_54:\n        /* \"SimpleSwap_flattened.sol\":27470:27504  reserveIn * 1000 + amountInWithFee */\n      tag_55\n      swap2\n      swap1\n      tag_56\n      jump\t// in\n    tag_55:\n        /* \"SimpleSwap_flattened.sol\":27451:27504  uint denominator = reserveIn * 1000 + amountInWithFee */\n      swap1\n      pop\n        /* \"SimpleSwap_flattened.sol\":27538:27549  denominator */\n      dup1\n        /* \"SimpleSwap_flattened.sol\":27526:27535  numerator */\n      dup3\n        /* \"SimpleSwap_flattened.sol\":27526:27549  numerator / denominator */\n      tag_57\n      swap2\n      swap1\n      tag_58\n      jump\t// in\n    tag_57:\n        /* \"SimpleSwap_flattened.sol\":27514:27549  amountOut = numerator / denominator */\n      swap4\n      pop\n        /* \"SimpleSwap_flattened.sol\":27212:27556  {... */\n      pop\n      pop\n      pop\n        /* \"SimpleSwap_flattened.sol\":27105:27556  function getAmountOut(uint amountIn, uint reserveIn, uint reserveOut) public pure returns (uint amountOut) {... */\n      swap4\n      swap3\n      pop\n      pop\n      pop\n      jump\t// out\n        /* \"SimpleSwap_flattened.sol\":25749:26813  function swapExactTokensForTokens(... */\n    tag_18:\n        /* \"SimpleSwap_flattened.sol\":25933:25954  uint[] memory amounts */\n      0x60\n        /* \"SimpleSwap_flattened.sol\":25989:25990  2 */\n      0x02\n        /* \"SimpleSwap_flattened.sol\":25974:25978  path */\n      dup6\n      dup6\n        /* \"SimpleSwap_flattened.sol\":25974:25985  path.length */\n      swap1\n      pop\n        /* \"SimpleSwap_flattened.sol\":25974:25990  path.length == 2 */\n      eq\n        /* \"SimpleSwap_flattened.sol\":25966:26022  require(path.length == 2, \"Only 2-token path supported\") */\n      tag_60\n      jumpi\n      mload(0x40)\n      0x08c379a000000000000000000000000000000000000000000000000000000000\n      dup2\n      mstore\n      0x04\n      add\n      tag_61\n      swap1\n      tag_62\n      jump\t// in\n    tag_61:\n      mload(0x40)\n      dup1\n      swap2\n      sub\n      swap1\n      revert\n    tag_60:\n        /* \"SimpleSwap_flattened.sol\":26059:26067  deadline */\n      dup2\n        /* \"SimpleSwap_flattened.sol\":26040:26055  block.timestamp */\n      timestamp\n        /* \"SimpleSwap_flattened.sol\":26040:26067  block.timestamp <= deadline */\n      gt\n      iszero\n        /* \"SimpleSwap_flattened.sol\":26032:26091  require(block.timestamp <= deadline, \"Transaction expired\") */\n      tag_63\n      jumpi\n      mload(0x40)\n      0x08c379a000000000000000000000000000000000000000000000000000000000\n      dup2\n      mstore\n      0x04\n      add\n      tag_64\n      swap1\n      tag_65\n      jump\t// in\n    tag_64:\n      mload(0x40)\n      dup1\n      swap2\n      sub\n      swap1\n      revert\n    tag_63:\n        /* \"SimpleSwap_flattened.sol\":26102:26117  address tokenIn */\n      0x00\n        /* \"SimpleSwap_flattened.sol\":26120:26124  path */\n      dup6\n      dup6\n        /* \"SimpleSwap_flattened.sol\":26125:26126  0 */\n      0x00\n        /* \"SimpleSwap_flattened.sol\":26120:26127  path[0] */\n      dup2\n      dup2\n      lt\n      tag_66\n      jumpi\n      tag_67\n      tag_68\n      jump\t// in\n    tag_67:\n    tag_66:\n      swap1\n      pop\n      0x20\n      mul\n      add\n      0x20\n      dup2\n      add\n      swap1\n      tag_69\n      swap2\n      swap1\n      tag_70\n      jump\t// in\n    tag_69:\n        /* \"SimpleSwap_flattened.sol\":26102:26127  address tokenIn = path[0] */\n      swap1\n      pop\n        /* \"SimpleSwap_flattened.sol\":26137:26153  address tokenOut */\n      0x00\n        /* \"SimpleSwap_flattened.sol\":26156:26160  path */\n      dup7\n      dup7\n        /* \"SimpleSwap_flattened.sol\":26161:26162  1 */\n      0x01\n        /* \"SimpleSwap_flattened.sol\":26156:26163  path[1] */\n      dup2\n      dup2\n      lt\n      tag_71\n      jumpi\n      tag_72\n      tag_68\n      jump\t// in\n    tag_72:\n    tag_71:\n      swap1\n      pop\n      0x20\n      mul\n      add\n      0x20\n      dup2\n      add\n      swap1\n      tag_73\n      swap2\n      swap1\n      tag_70\n      jump\t// in\n    tag_73:\n        /* \"SimpleSwap_flattened.sol\":26137:26163  address tokenOut = path[1] */\n      swap1\n      pop\n        /* \"SimpleSwap_flattened.sol\":26174:26191  Pair storage pair */\n      0x00\n        /* \"SimpleSwap_flattened.sol\":26194:26199  pairs */\n      0x00\n        /* \"SimpleSwap_flattened.sol\":26194:26208  pairs[tokenIn] */\n      0x00\n        /* \"SimpleSwap_flattened.sol\":26200:26207  tokenIn */\n      dup5\n        /* \"SimpleSwap_flattened.sol\":26194:26208  pairs[tokenIn] */\n      0xffffffffffffffffffffffffffffffffffffffff\n      and\n      0xffffffffffffffffffffffffffffffffffffffff\n      and\n      dup2\n      mstore\n      0x20\n      add\n      swap1\n      dup2\n      mstore\n      0x20\n      add\n      0x00\n      keccak256\n        /* \"SimpleSwap_flattened.sol\":26194:26218  pairs[tokenIn][tokenOut] */\n      0x00\n        /* \"SimpleSwap_flattened.sol\":26209:26217  tokenOut */\n      dup4\n        /* \"SimpleSwap_flattened.sol\":26194:26218  pairs[tokenIn][tokenOut] */\n      0xffffffffffffffffffffffffffffffffffffffff\n      and\n      0xffffffffffffffffffffffffffffffffffffffff\n      and\n      dup2\n      mstore\n      0x20\n      add\n      swap1\n      dup2\n      mstore\n      0x20\n      add\n      0x00\n      keccak256\n        /* \"SimpleSwap_flattened.sol\":26174:26218  Pair storage pair = pairs[tokenIn][tokenOut] */\n      swap1\n      pop\n        /* \"SimpleSwap_flattened.sol\":26276:26277  0 */\n      0x00\n        /* \"SimpleSwap_flattened.sol\":26236:26278  address(pair.liquidityToken) != address(0) */\n      0xffffffffffffffffffffffffffffffffffffffff\n      and\n        /* \"SimpleSwap_flattened.sol\":26244:26248  pair */\n      dup2\n        /* \"SimpleSwap_flattened.sol\":26244:26263  pair.liquidityToken */\n      0x02\n      add\n      0x00\n      swap1\n      sload\n      swap1\n      0x0100\n      exp\n      swap1\n      div\n      0xffffffffffffffffffffffffffffffffffffffff\n      and\n        /* \"SimpleSwap_flattened.sol\":26236:26278  address(pair.liquidityToken) != address(0) */\n      0xffffffffffffffffffffffffffffffffffffffff\n      and\n      sub\n        /* \"SimpleSwap_flattened.sol\":26228:26302  require(address(pair.liquidityToken) != address(0), \"Pair does not exist\") */\n      tag_74\n      jumpi\n      mload(0x40)\n      0x08c379a000000000000000000000000000000000000000000000000000000000\n      dup2\n      mstore\n      0x04\n      add\n      tag_75\n      swap1\n      tag_76\n      jump\t// in\n    tag_75:\n      mload(0x40)\n      dup1\n      swap2\n      sub\n      swap1\n      revert\n    tag_74:\n        /* \"SimpleSwap_flattened.sol\":26328:26335  tokenIn */\n      dup3\n        /* \"SimpleSwap_flattened.sol\":26321:26349  IERC20(tokenIn).transferFrom */\n      0xffffffffffffffffffffffffffffffffffffffff\n      and\n      0x23b872dd\n        /* \"SimpleSwap_flattened.sol\":26350:26360  msg.sender */\n      caller\n        /* \"SimpleSwap_flattened.sol\":26370:26374  this */\n      address\n        /* \"SimpleSwap_flattened.sol\":26377:26385  amountIn */\n      dup14\n        /* \"SimpleSwap_flattened.sol\":26321:26386  IERC20(tokenIn).transferFrom(msg.sender, address(this), amountIn) */\n      mload(0x40)\n      dup5\n      0xffffffff\n      and\n      0xe0\n      shl\n      dup2\n      mstore\n      0x04\n      add\n      tag_77\n      swap4\n      swap3\n      swap2\n      swap1\n      tag_78\n      jump\t// in\n    tag_77:\n      0x20\n      mload(0x40)\n      dup1\n      dup4\n      sub\n      dup2\n      0x00\n      dup8\n      gas\n      call\n      iszero\n      dup1\n      iszero\n      tag_80\n      jumpi\n      returndatacopy(0x00, 0x00, returndatasize)\n      revert(0x00, returndatasize)\n    tag_80:\n      pop\n      pop\n      pop\n      pop\n      mload(0x40)\n      returndatasize\n      not(0x1f)\n      0x1f\n      dup3\n      add\n      and\n      dup3\n      add\n      dup1\n      0x40\n      mstore\n      pop\n      dup2\n      add\n      swap1\n      tag_81\n      swap2\n      swap1\n      tag_82\n      jump\t// in\n    tag_81:\n        /* \"SimpleSwap_flattened.sol\":26313:26409  require(IERC20(tokenIn).transferFrom(msg.sender, address(this), amountIn), \"Transfer in failed\") */\n      tag_83\n      jumpi\n      mload(0x40)\n      0x08c379a000000000000000000000000000000000000000000000000000000000\n      dup2\n      mstore\n      0x04\n      add\n      tag_84\n      swap1\n      tag_85\n      jump\t// in\n    tag_84:\n      mload(0x40)\n      dup1\n      swap2\n      sub\n      swap1\n      revert\n    tag_83:\n        /* \"SimpleSwap_flattened.sol\":26420:26434  uint amountOut */\n      0x00\n        /* \"SimpleSwap_flattened.sol\":26437:26489  getAmountOut(amountIn, pair.reserveA, pair.reserveB) */\n      tag_86\n        /* \"SimpleSwap_flattened.sol\":26450:26458  amountIn */\n      dup12\n        /* \"SimpleSwap_flattened.sol\":26460:26464  pair */\n      dup4\n        /* \"SimpleSwap_flattened.sol\":26460:26473  pair.reserveA */\n      0x00\n      add\n      sload\n        /* \"SimpleSwap_flattened.sol\":26475:26479  pair */\n      dup5\n        /* \"SimpleSwap_flattened.sol\":26475:26488  pair.reserveB */\n      0x01\n      add\n      sload\n        /* \"SimpleSwap_flattened.sol\":26437:26449  getAmountOut */\n      tag_12\n        /* \"SimpleSwap_flattened.sol\":26437:26489  getAmountOut(amountIn, pair.reserveA, pair.reserveB) */\n      jump\t// in\n    tag_86:\n        /* \"SimpleSwap_flattened.sol\":26420:26489  uint amountOut = getAmountOut(amountIn, pair.reserveA, pair.reserveB) */\n      swap1\n      pop\n        /* \"SimpleSwap_flattened.sol\":26520:26532  amountOutMin */\n      dup10\n        /* \"SimpleSwap_flattened.sol\":26507:26516  amountOut */\n      dup2\n        /* \"SimpleSwap_flattened.sol\":26507:26532  amountOut >= amountOutMin */\n      lt\n      iszero\n        /* \"SimpleSwap_flattened.sol\":26499:26554  require(amountOut >= amountOutMin, \"Slippage too high\") */\n      tag_87\n      jumpi\n      mload(0x40)\n      0x08c379a000000000000000000000000000000000000000000000000000000000\n      dup2\n      mstore\n      0x04\n      add\n      tag_88\n      swap1\n      tag_89\n      jump\t// in\n    tag_88:\n      mload(0x40)\n      dup1\n      swap2\n      sub\n      swap1\n      revert\n    tag_87:\n        /* \"SimpleSwap_flattened.sol\":26582:26590  amountIn */\n      dup11\n        /* \"SimpleSwap_flattened.sol\":26565:26569  pair */\n      dup3\n        /* \"SimpleSwap_flattened.sol\":26565:26578  pair.reserveA */\n      0x00\n      add\n      0x00\n        /* \"SimpleSwap_flattened.sol\":26565:26590  pair.reserveA += amountIn */\n      dup3\n      dup3\n      sload\n      tag_90\n      swap2\n      swap1\n      tag_56\n      jump\t// in\n    tag_90:\n      swap3\n      pop\n      pop\n      dup2\n      swap1\n      sstore\n      pop\n        /* \"SimpleSwap_flattened.sol\":26617:26626  amountOut */\n      dup1\n        /* \"SimpleSwap_flattened.sol\":26600:26604  pair */\n      dup3\n        /* \"SimpleSwap_flattened.sol\":26600:26613  pair.reserveB */\n      0x01\n      add\n      0x00\n        /* \"SimpleSwap_flattened.sol\":26600:26626  pair.reserveB -= amountOut */\n      dup3\n      dup3\n      sload\n      tag_91\n      swap2\n      swap1\n      tag_92\n      jump\t// in\n    tag_91:\n      swap3\n      pop\n      pop\n      dup2\n      swap1\n      sstore\n      pop\n        /* \"SimpleSwap_flattened.sol\":26652:26660  tokenOut */\n      dup3\n        /* \"SimpleSwap_flattened.sol\":26645:26670  IERC20(tokenOut).transfer */\n      0xffffffffffffffffffffffffffffffffffffffff\n      and\n      0xa9059cbb\n        /* \"SimpleSwap_flattened.sol\":26671:26673  to */\n      dup9\n        /* \"SimpleSwap_flattened.sol\":26675:26684  amountOut */\n      dup4\n        /* \"SimpleSwap_flattened.sol\":26645:26685  IERC20(tokenOut).transfer(to, amountOut) */\n      mload(0x40)\n      dup4\n      0xffffffff\n      and\n      0xe0\n      shl\n      dup2\n      mstore\n      0x04\n      add\n      tag_93\n      swap3\n      swap2\n      swap1\n      tag_94\n      jump\t// in\n    tag_93:\n      0x20\n      mload(0x40)\n      dup1\n      dup4\n      sub\n      dup2\n      0x00\n      dup8\n      gas\n      call\n      iszero\n      dup1\n      iszero\n      tag_96\n      jumpi\n      returndatacopy(0x00, 0x00, returndatasize)\n      revert(0x00, returndatasize)\n    tag_96:\n      pop\n      pop\n      pop\n      pop\n      mload(0x40)\n      returndatasize\n      not(0x1f)\n      0x1f\n      dup3\n      add\n      and\n      dup3\n      add\n      dup1\n      0x40\n      mstore\n      pop\n      dup2\n      add\n      swap1\n      tag_97\n      swap2\n      swap1\n      tag_82\n      jump\t// in\n    tag_97:\n        /* \"SimpleSwap_flattened.sol\":26637:26709  require(IERC20(tokenOut).transfer(to, amountOut), \"Transfer out failed\") */\n      tag_98\n      jumpi\n      mload(0x40)\n      0x08c379a000000000000000000000000000000000000000000000000000000000\n      dup2\n      mstore\n      0x04\n      add\n      tag_99\n      swap1\n      tag_100\n      jump\t// in\n    tag_99:\n      mload(0x40)\n      dup1\n      swap2\n      sub\n      swap1\n      revert\n    tag_98:\n        /* \"SimpleSwap_flattened.sol\":26741:26742  2 */\n      0x02\n        /* \"SimpleSwap_flattened.sol\":26730:26743  new uint[](2) */\n      0xffffffffffffffff\n      dup2\n      gt\n      iszero\n      tag_101\n      jumpi\n      tag_102\n      tag_103\n      jump\t// in\n    tag_102:\n    tag_101:\n      mload(0x40)\n      swap1\n      dup1\n      dup3\n      mstore\n      dup1\n      0x20\n      mul\n      0x20\n      add\n      dup3\n      add\n      0x40\n      mstore\n      dup1\n      iszero\n      tag_104\n      jumpi\n      dup2\n      0x20\n      add\n      0x20\n      dup3\n      mul\n      dup1\n      calldatasize\n      dup4\n      calldatacopy\n      dup1\n      dup3\n      add\n      swap2\n      pop\n      pop\n      swap1\n      pop\n    tag_104:\n      pop\n        /* \"SimpleSwap_flattened.sol\":26720:26743  amounts = new uint[](2) */\n      swap5\n      pop\n        /* \"SimpleSwap_flattened.sol\":26766:26774  amountIn */\n      dup11\n        /* \"SimpleSwap_flattened.sol\":26753:26760  amounts */\n      dup6\n        /* \"SimpleSwap_flattened.sol\":26761:26762  0 */\n      0x00\n        /* \"SimpleSwap_flattened.sol\":26753:26763  amounts[0] */\n      dup2\n      mload\n      dup2\n      lt\n      tag_105\n      jumpi\n      tag_106\n      tag_68\n      jump\t// in\n    tag_106:\n    tag_105:\n      0x20\n      mul\n      0x20\n      add\n      add\n        /* \"SimpleSwap_flattened.sol\":26753:26774  amounts[0] = amountIn */\n      dup2\n      dup2\n      mstore\n      pop\n      pop\n        /* \"SimpleSwap_flattened.sol\":26797:26806  amountOut */\n      dup1\n        /* \"SimpleSwap_flattened.sol\":26784:26791  amounts */\n      dup6\n        /* \"SimpleSwap_flattened.sol\":26792:26793  1 */\n      0x01\n        /* \"SimpleSwap_flattened.sol\":26784:26794  amounts[1] */\n      dup2\n      mload\n      dup2\n      lt\n      tag_107\n      jumpi\n      tag_108\n      tag_68\n      jump\t// in\n    tag_108:\n    tag_107:\n      0x20\n      mul\n      0x20\n      add\n      add\n        /* \"SimpleSwap_flattened.sol\":26784:26806  amounts[1] = amountOut */\n      dup2\n      dup2\n      mstore\n      pop\n      pop\n        /* \"SimpleSwap_flattened.sol\":25956:26813  {... */\n      pop\n      pop\n      pop\n      pop\n        /* \"SimpleSwap_flattened.sol\":25749:26813  function swapExactTokensForTokens(... */\n      swap7\n      swap6\n      pop\n      pop\n      pop\n      pop\n      pop\n      pop\n      jump\t// out\n        /* \"SimpleSwap_flattened.sol\":22646:22703  mapping(address => mapping(address => Pair)) public pairs */\n    tag_24:\n      mstore(0x20, 0x00)\n      dup2\n      0x00\n      mstore\n      mstore(0x20, keccak256(0x00, 0x40))\n      dup1\n      0x00\n      mstore\n      keccak256(0x00, 0x40)\n      0x00\n      swap2\n      pop\n      swap2\n      pop\n      pop\n      dup1\n      0x00\n      add\n      sload\n      swap1\n      dup1\n      0x01\n      add\n      sload\n      swap1\n      dup1\n      0x02\n      add\n      0x00\n      swap1\n      sload\n      swap1\n      0x0100\n      exp\n      swap1\n      div\n      0xffffffffffffffffffffffffffffffffffffffff\n      and\n      swap1\n      pop\n      dup4\n      jump\t// out\n        /* \"SimpleSwap_flattened.sol\":26819:27099  function getPrice(address tokenA, address tokenB) external view returns (uint price) {... */\n    tag_29:\n        /* \"SimpleSwap_flattened.sol\":26892:26902  uint price */\n      0x00\n        /* \"SimpleSwap_flattened.sol\":26914:26931  Pair storage pair */\n      0x00\n        /* \"SimpleSwap_flattened.sol\":26934:26939  pairs */\n      0x00\n        /* \"SimpleSwap_flattened.sol\":26934:26947  pairs[tokenA] */\n      0x00\n        /* \"SimpleSwap_flattened.sol\":26940:26946  tokenA */\n      dup6\n        /* \"SimpleSwap_flattened.sol\":26934:26947  pairs[tokenA] */\n      0xffffffffffffffffffffffffffffffffffffffff\n      and\n      0xffffffffffffffffffffffffffffffffffffffff\n      and\n      dup2\n      mstore\n      0x20\n      add\n      swap1\n      dup2\n      mstore\n      0x20\n      add\n      0x00\n      keccak256\n        /* \"SimpleSwap_flattened.sol\":26934:26955  pairs[tokenA][tokenB] */\n      0x00\n        /* \"SimpleSwap_flattened.sol\":26948:26954  tokenB */\n      dup5\n        /* \"SimpleSwap_flattened.sol\":26934:26955  pairs[tokenA][tokenB] */\n      0xffffffffffffffffffffffffffffffffffffffff\n      and\n      0xffffffffffffffffffffffffffffffffffffffff\n      and\n      dup2\n      mstore\n      0x20\n      add\n      swap1\n      dup2\n      mstore\n      0x20\n      add\n      0x00\n      keccak256\n        /* \"SimpleSwap_flattened.sol\":26914:26955  Pair storage pair = pairs[tokenA][tokenB] */\n      swap1\n      pop\n        /* \"SimpleSwap_flattened.sol\":26989:26990  0 */\n      0x00\n        /* \"SimpleSwap_flattened.sol\":26973:26977  pair */\n      dup2\n        /* \"SimpleSwap_flattened.sol\":26973:26986  pair.reserveA */\n      0x00\n      add\n      sload\n        /* \"SimpleSwap_flattened.sol\":26973:26990  pair.reserveA > 0 */\n      gt\n        /* \"SimpleSwap_flattened.sol\":26973:27011  pair.reserveA > 0 && pair.reserveB > 0 */\n      dup1\n      iszero\n      tag_110\n      jumpi\n      pop\n        /* \"SimpleSwap_flattened.sol\":27010:27011  0 */\n      0x00\n        /* \"SimpleSwap_flattened.sol\":26994:26998  pair */\n      dup2\n        /* \"SimpleSwap_flattened.sol\":26994:27007  pair.reserveB */\n      0x01\n      add\n      sload\n        /* \"SimpleSwap_flattened.sol\":26994:27011  pair.reserveB > 0 */\n      gt\n        /* \"SimpleSwap_flattened.sol\":26973:27011  pair.reserveA > 0 && pair.reserveB > 0 */\n    tag_110:\n        /* \"SimpleSwap_flattened.sol\":26965:27037  require(pair.reserveA > 0 && pair.reserveB > 0, \"Insufficient reserves\") */\n      tag_111\n      jumpi\n      mload(0x40)\n      0x08c379a000000000000000000000000000000000000000000000000000000000\n      dup2\n      mstore\n      0x04\n      add\n      tag_112\n      swap1\n      tag_113\n      jump\t// in\n    tag_112:\n      mload(0x40)\n      dup1\n      swap2\n      sub\n      swap1\n      revert\n    tag_111:\n        /* \"SimpleSwap_flattened.sol\":27079:27083  pair */\n      dup1\n        /* \"SimpleSwap_flattened.sol\":27079:27092  pair.reserveA */\n      0x00\n      add\n      sload\n        /* \"SimpleSwap_flattened.sol\":27071:27075  1e18 */\n      0x0de0b6b3a7640000\n        /* \"SimpleSwap_flattened.sol\":27055:27059  pair */\n      dup3\n        /* \"SimpleSwap_flattened.sol\":27055:27068  pair.reserveB */\n      0x01\n      add\n      sload\n        /* \"SimpleSwap_flattened.sol\":27055:27075  pair.reserveB * 1e18 */\n      tag_114\n      swap2\n      swap1\n      tag_52\n      jump\t// in\n    tag_114:\n        /* \"SimpleSwap_flattened.sol\":27054:27092  (pair.reserveB * 1e18) / pair.reserveA */\n      tag_115\n      swap2\n      swap1\n      tag_58\n      jump\t// in\n    tag_115:\n        /* \"SimpleSwap_flattened.sol\":27047:27092  return (pair.reserveB * 1e18) / pair.reserveA */\n      swap2\n      pop\n      pop\n        /* \"SimpleSwap_flattened.sol\":26819:27099  function getPrice(address tokenA, address tokenB) external view returns (uint price) {... */\n      swap3\n      swap2\n      pop\n      pop\n      jump\t// out\n        /* \"SimpleSwap_flattened.sol\":24652:25743  function removeLiquidity(... */\n    tag_34:\n        /* \"SimpleSwap_flattened.sol\":24866:24878  uint amountA */\n      0x00\n        /* \"SimpleSwap_flattened.sol\":24880:24892  uint amountB */\n      0x00\n        /* \"SimpleSwap_flattened.sol\":24931:24939  deadline */\n      dup3\n        /* \"SimpleSwap_flattened.sol\":24912:24927  block.timestamp */\n      timestamp\n        /* \"SimpleSwap_flattened.sol\":24912:24939  block.timestamp <= deadline */\n      gt\n      iszero\n        /* \"SimpleSwap_flattened.sol\":24904:24963  require(block.timestamp <= deadline, \"Transaction expired\") */\n      tag_117\n      jumpi\n      mload(0x40)\n      0x08c379a000000000000000000000000000000000000000000000000000000000\n      dup2\n      mstore\n      0x04\n      add\n      tag_118\n      swap1\n      tag_65\n      jump\t// in\n    tag_118:\n      mload(0x40)\n      dup1\n      swap2\n      sub\n      swap1\n      revert\n    tag_117:\n        /* \"SimpleSwap_flattened.sol\":24974:24991  Pair storage pair */\n      0x00\n        /* \"SimpleSwap_flattened.sol\":24994:24999  pairs */\n      0x00\n        /* \"SimpleSwap_flattened.sol\":24994:25007  pairs[tokenA] */\n      0x00\n        /* \"SimpleSwap_flattened.sol\":25000:25006  tokenA */\n      dup12\n        /* \"SimpleSwap_flattened.sol\":24994:25007  pairs[tokenA] */\n      0xffffffffffffffffffffffffffffffffffffffff\n      and\n      0xffffffffffffffffffffffffffffffffffffffff\n      and\n      dup2\n      mstore\n      0x20\n      add\n      swap1\n      dup2\n      mstore\n      0x20\n      add\n      0x00\n      keccak256\n        /* \"SimpleSwap_flattened.sol\":24994:25015  pairs[tokenA][tokenB] */\n      0x00\n        /* \"SimpleSwap_flattened.sol\":25008:25014  tokenB */\n      dup11\n        /* \"SimpleSwap_flattened.sol\":24994:25015  pairs[tokenA][tokenB] */\n      0xffffffffffffffffffffffffffffffffffffffff\n      and\n      0xffffffffffffffffffffffffffffffffffffffff\n      and\n      dup2\n      mstore\n      0x20\n      add\n      swap1\n      dup2\n      mstore\n      0x20\n      add\n      0x00\n      keccak256\n        /* \"SimpleSwap_flattened.sol\":24974:25015  Pair storage pair = pairs[tokenA][tokenB] */\n      swap1\n      pop\n        /* \"SimpleSwap_flattened.sol\":25073:25074  0 */\n      0x00\n        /* \"SimpleSwap_flattened.sol\":25033:25075  address(pair.liquidityToken) != address(0) */\n      0xffffffffffffffffffffffffffffffffffffffff\n      and\n        /* \"SimpleSwap_flattened.sol\":25041:25045  pair */\n      dup2\n        /* \"SimpleSwap_flattened.sol\":25041:25060  pair.liquidityToken */\n      0x02\n      add\n      0x00\n      swap1\n      sload\n      swap1\n      0x0100\n      exp\n      swap1\n      div\n      0xffffffffffffffffffffffffffffffffffffffff\n      and\n        /* \"SimpleSwap_flattened.sol\":25033:25075  address(pair.liquidityToken) != address(0) */\n      0xffffffffffffffffffffffffffffffffffffffff\n      and\n      sub\n        /* \"SimpleSwap_flattened.sol\":25025:25099  require(address(pair.liquidityToken) != address(0), \"Pair does not exist\") */\n      tag_119\n      jumpi\n      mload(0x40)\n      0x08c379a000000000000000000000000000000000000000000000000000000000\n      dup2\n      mstore\n      0x04\n      add\n      tag_120\n      swap1\n      tag_76\n      jump\t// in\n    tag_120:\n      mload(0x40)\n      dup1\n      swap2\n      sub\n      swap1\n      revert\n    tag_119:\n        /* \"SimpleSwap_flattened.sol\":25110:25114  pair */\n      dup1\n        /* \"SimpleSwap_flattened.sol\":25110:25129  pair.liquidityToken */\n      0x02\n      add\n      0x00\n      swap1\n      sload\n      swap1\n      0x0100\n      exp\n      swap1\n      div\n      0xffffffffffffffffffffffffffffffffffffffff\n      and\n        /* \"SimpleSwap_flattened.sol\":25110:25134  pair.liquidityToken.burn */\n      0xffffffffffffffffffffffffffffffffffffffff\n      and\n      0x9dc29fac\n        /* \"SimpleSwap_flattened.sol\":25135:25145  msg.sender */\n      caller\n        /* \"SimpleSwap_flattened.sol\":25147:25156  liquidity */\n      dup11\n        /* \"SimpleSwap_flattened.sol\":25110:25157  pair.liquidityToken.burn(msg.sender, liquidity) */\n      mload(0x40)\n      dup4\n      0xffffffff\n      and\n      0xe0\n      shl\n      dup2\n      mstore\n      0x04\n      add\n      tag_121\n      swap3\n      swap2\n      swap1\n      tag_94\n      jump\t// in\n    tag_121:\n      0x00\n      mload(0x40)\n      dup1\n      dup4\n      sub\n      dup2\n      0x00\n      dup8\n      dup1\n      extcodesize\n      iszero\n      dup1\n      iszero\n      tag_122\n      jumpi\n      revert(0x00, 0x00)\n    tag_122:\n      pop\n      gas\n      call\n      iszero\n      dup1\n      iszero\n      tag_124\n      jumpi\n      returndatacopy(0x00, 0x00, returndatasize)\n      revert(0x00, returndatasize)\n    tag_124:\n      pop\n      pop\n      pop\n      pop\n        /* \"SimpleSwap_flattened.sol\":25168:25187  uint totalLiquidity */\n      0x00\n        /* \"SimpleSwap_flattened.sol\":25190:25194  pair */\n      dup2\n        /* \"SimpleSwap_flattened.sol\":25190:25209  pair.liquidityToken */\n      0x02\n      add\n      0x00\n      swap1\n      sload\n      swap1\n      0x0100\n      exp\n      swap1\n      div\n      0xffffffffffffffffffffffffffffffffffffffff\n      and\n        /* \"SimpleSwap_flattened.sol\":25190:25221  pair.liquidityToken.totalSupply */\n      0xffffffffffffffffffffffffffffffffffffffff\n      and\n      0x18160ddd\n        /* \"SimpleSwap_flattened.sol\":25190:25223  pair.liquidityToken.totalSupply() */\n      mload(0x40)\n      dup2\n      0xffffffff\n      and\n      0xe0\n      shl\n      dup2\n      mstore\n      0x04\n      add\n      0x20\n      mload(0x40)\n      dup1\n      dup4\n      sub\n      dup2\n      dup7\n      gas\n      staticcall\n      iszero\n      dup1\n      iszero\n      tag_126\n      jumpi\n      returndatacopy(0x00, 0x00, returndatasize)\n      revert(0x00, returndatasize)\n    tag_126:\n      pop\n      pop\n      pop\n      pop\n      mload(0x40)\n      returndatasize\n      not(0x1f)\n      0x1f\n      dup3\n      add\n      and\n      dup3\n      add\n      dup1\n      0x40\n      mstore\n      pop\n      dup2\n      add\n      swap1\n      tag_127\n      swap2\n      swap1\n      tag_128\n      jump\t// in\n    tag_127:\n        /* \"SimpleSwap_flattened.sol\":25168:25223  uint totalLiquidity = pair.liquidityToken.totalSupply() */\n      swap1\n      pop\n        /* \"SimpleSwap_flattened.sol\":25273:25287  totalLiquidity */\n      dup1\n        /* \"SimpleSwap_flattened.sol\":25260:25269  liquidity */\n      dup10\n        /* \"SimpleSwap_flattened.sol\":25244:25248  pair */\n      dup4\n        /* \"SimpleSwap_flattened.sol\":25244:25257  pair.reserveA */\n      0x00\n      add\n      sload\n        /* \"SimpleSwap_flattened.sol\":25244:25269  pair.reserveA * liquidity */\n      tag_129\n      swap2\n      swap1\n      tag_52\n      jump\t// in\n    tag_129:\n        /* \"SimpleSwap_flattened.sol\":25243:25287  (pair.reserveA * liquidity) / totalLiquidity */\n      tag_130\n      swap2\n      swap1\n      tag_58\n      jump\t// in\n    tag_130:\n        /* \"SimpleSwap_flattened.sol\":25233:25287  amountA = (pair.reserveA * liquidity) / totalLiquidity */\n      swap4\n      pop\n        /* \"SimpleSwap_flattened.sol\":25337:25351  totalLiquidity */\n      dup1\n        /* \"SimpleSwap_flattened.sol\":25324:25333  liquidity */\n      dup10\n        /* \"SimpleSwap_flattened.sol\":25308:25312  pair */\n      dup4\n        /* \"SimpleSwap_flattened.sol\":25308:25321  pair.reserveB */\n      0x01\n      add\n      sload\n        /* \"SimpleSwap_flattened.sol\":25308:25333  pair.reserveB * liquidity */\n      tag_131\n      swap2\n      swap1\n      tag_52\n      jump\t// in\n    tag_131:\n        /* \"SimpleSwap_flattened.sol\":25307:25351  (pair.reserveB * liquidity) / totalLiquidity */\n      tag_132\n      swap2\n      swap1\n      tag_58\n      jump\t// in\n    tag_132:\n        /* \"SimpleSwap_flattened.sol\":25297:25351  amountB = (pair.reserveB * liquidity) / totalLiquidity */\n      swap3\n      pop\n        /* \"SimpleSwap_flattened.sol\":25381:25391  amountAMin */\n      dup8\n        /* \"SimpleSwap_flattened.sol\":25370:25377  amountA */\n      dup5\n        /* \"SimpleSwap_flattened.sol\":25370:25391  amountA >= amountAMin */\n      lt\n      iszero\n        /* \"SimpleSwap_flattened.sol\":25362:25415  require(amountA >= amountAMin, \"Slippage too high A\") */\n      tag_133\n      jumpi\n      mload(0x40)\n      0x08c379a000000000000000000000000000000000000000000000000000000000\n      dup2\n      mstore\n      0x04\n      add\n      tag_134\n      swap1\n      tag_135\n      jump\t// in\n    tag_134:\n      mload(0x40)\n      dup1\n      swap2\n      sub\n      swap1\n      revert\n    tag_133:\n        /* \"SimpleSwap_flattened.sol\":25444:25454  amountBMin */\n      dup7\n        /* \"SimpleSwap_flattened.sol\":25433:25440  amountB */\n      dup4\n        /* \"SimpleSwap_flattened.sol\":25433:25454  amountB >= amountBMin */\n      lt\n      iszero\n        /* \"SimpleSwap_flattened.sol\":25425:25478  require(amountB >= amountBMin, \"Slippage too high B\") */\n      tag_136\n      jumpi\n      mload(0x40)\n      0x08c379a000000000000000000000000000000000000000000000000000000000\n      dup2\n      mstore\n      0x04\n      add\n      tag_137\n      swap1\n      tag_138\n      jump\t// in\n    tag_137:\n      mload(0x40)\n      dup1\n      swap2\n      sub\n      swap1\n      revert\n    tag_136:\n        /* \"SimpleSwap_flattened.sol\":25506:25513  amountA */\n      dup4\n        /* \"SimpleSwap_flattened.sol\":25489:25493  pair */\n      dup3\n        /* \"SimpleSwap_flattened.sol\":25489:25502  pair.reserveA */\n      0x00\n      add\n      0x00\n        /* \"SimpleSwap_flattened.sol\":25489:25513  pair.reserveA -= amountA */\n      dup3\n      dup3\n      sload\n      tag_139\n      swap2\n      swap1\n      tag_92\n      jump\t// in\n    tag_139:\n      swap3\n      pop\n      pop\n      dup2\n      swap1\n      sstore\n      pop\n        /* \"SimpleSwap_flattened.sol\":25540:25547  amountB */\n      dup3\n        /* \"SimpleSwap_flattened.sol\":25523:25527  pair */\n      dup3\n        /* \"SimpleSwap_flattened.sol\":25523:25536  pair.reserveB */\n      0x01\n      add\n      0x00\n        /* \"SimpleSwap_flattened.sol\":25523:25547  pair.reserveB -= amountB */\n      dup3\n      dup3\n      sload\n      tag_140\n      swap2\n      swap1\n      tag_92\n      jump\t// in\n    tag_140:\n      swap3\n      pop\n      pop\n      dup2\n      swap1\n      sstore\n      pop\n        /* \"SimpleSwap_flattened.sol\":25573:25579  tokenA */\n      dup11\n        /* \"SimpleSwap_flattened.sol\":25566:25589  IERC20(tokenA).transfer */\n      0xffffffffffffffffffffffffffffffffffffffff\n      and\n      0xa9059cbb\n        /* \"SimpleSwap_flattened.sol\":25590:25592  to */\n      dup8\n        /* \"SimpleSwap_flattened.sol\":25594:25601  amountA */\n      dup7\n        /* \"SimpleSwap_flattened.sol\":25566:25602  IERC20(tokenA).transfer(to, amountA) */\n      mload(0x40)\n      dup4\n      0xffffffff\n      and\n      0xe0\n      shl\n      dup2\n      mstore\n      0x04\n      add\n      tag_141\n      swap3\n      swap2\n      swap1\n      tag_94\n      jump\t// in\n    tag_141:\n      0x20\n      mload(0x40)\n      dup1\n      dup4\n      sub\n      dup2\n      0x00\n      dup8\n      gas\n      call\n      iszero\n      dup1\n      iszero\n      tag_143\n      jumpi\n      returndatacopy(0x00, 0x00, returndatasize)\n      revert(0x00, returndatasize)\n    tag_143:\n      pop\n      pop\n      pop\n      pop\n      mload(0x40)\n      returndatasize\n      not(0x1f)\n      0x1f\n      dup3\n      add\n      and\n      dup3\n      add\n      dup1\n      0x40\n      mstore\n      pop\n      dup2\n      add\n      swap1\n      tag_144\n      swap2\n      swap1\n      tag_82\n      jump\t// in\n    tag_144:\n        /* \"SimpleSwap_flattened.sol\":25558:25624  require(IERC20(tokenA).transfer(to, amountA), \"Transfer A failed\") */\n      tag_145\n      jumpi\n      mload(0x40)\n      0x08c379a000000000000000000000000000000000000000000000000000000000\n      dup2\n      mstore\n      0x04\n      add\n      tag_146\n      swap1\n      tag_147\n      jump\t// in\n    tag_146:\n      mload(0x40)\n      dup1\n      swap2\n      sub\n      swap1\n      revert\n    tag_145:\n        /* \"SimpleSwap_flattened.sol\":25649:25655  tokenB */\n      dup10\n        /* \"SimpleSwap_flattened.sol\":25642:25665  IERC20(tokenB).transfer */\n      0xffffffffffffffffffffffffffffffffffffffff\n      and\n      0xa9059cbb\n        /* \"SimpleSwap_flattened.sol\":25666:25668  to */\n      dup8\n        /* \"SimpleSwap_flattened.sol\":25670:25677  amountB */\n      dup6\n        /* \"SimpleSwap_flattened.sol\":25642:25678  IERC20(tokenB).transfer(to, amountB) */\n      mload(0x40)\n      dup4\n      0xffffffff\n      and\n      0xe0\n      shl\n      dup2\n      mstore\n      0x04\n      add\n      tag_148\n      swap3\n      swap2\n      swap1\n      tag_94\n      jump\t// in\n    tag_148:\n      0x20\n      mload(0x40)\n      dup1\n      dup4\n      sub\n      dup2\n      0x00\n      dup8\n      gas\n      call\n      iszero\n      dup1\n      iszero\n      tag_150\n      jumpi\n      returndatacopy(0x00, 0x00, returndatasize)\n      revert(0x00, returndatasize)\n    tag_150:\n      pop\n      pop\n      pop\n      pop\n      mload(0x40)\n      returndatasize\n      not(0x1f)\n      0x1f\n      dup3\n      add\n      and\n      dup3\n      add\n      dup1\n      0x40\n      mstore\n      pop\n      dup2\n      add\n      swap1\n      tag_151\n      swap2\n      swap1\n      tag_82\n      jump\t// in\n    tag_151:\n        /* \"SimpleSwap_flattened.sol\":25634:25700  require(IERC20(tokenB).transfer(to, amountB), \"Transfer B failed\") */\n      tag_152\n      jumpi\n      mload(0x40)\n      0x08c379a000000000000000000000000000000000000000000000000000000000\n      dup2\n      mstore\n      0x04\n      add\n      tag_153\n      swap1\n      tag_154\n      jump\t// in\n    tag_153:\n      mload(0x40)\n      dup1\n      swap2\n      sub\n      swap1\n      revert\n    tag_152:\n        /* \"SimpleSwap_flattened.sol\":25711:25736  return (amountA, amountB) */\n      pop\n      pop\n        /* \"SimpleSwap_flattened.sol\":24652:25743  function removeLiquidity(... */\n      swap8\n      pop\n      swap8\n      swap6\n      pop\n      pop\n      pop\n      pop\n      pop\n      pop\n      jump\t// out\n        /* \"SimpleSwap_flattened.sol\":22710:24646  function addLiquidity(... */\n    tag_40:\n        /* \"SimpleSwap_flattened.sol\":22955:22967  uint amountA */\n      0x00\n        /* \"SimpleSwap_flattened.sol\":22969:22981  uint amountB */\n      0x00\n        /* \"SimpleSwap_flattened.sol\":22983:22997  uint liquidity */\n      0x00\n        /* \"SimpleSwap_flattened.sol\":23036:23044  deadline */\n      dup4\n        /* \"SimpleSwap_flattened.sol\":23017:23032  block.timestamp */\n      timestamp\n        /* \"SimpleSwap_flattened.sol\":23017:23044  block.timestamp <= deadline */\n      gt\n      iszero\n        /* \"SimpleSwap_flattened.sol\":23009:23068  require(block.timestamp <= deadline, \"Transaction expired\") */\n      tag_156\n      jumpi\n      mload(0x40)\n      0x08c379a000000000000000000000000000000000000000000000000000000000\n      dup2\n      mstore\n      0x04\n      add\n      tag_157\n      swap1\n      tag_65\n      jump\t// in\n    tag_157:\n      mload(0x40)\n      dup1\n      swap2\n      sub\n      swap1\n      revert\n    tag_156:\n        /* \"SimpleSwap_flattened.sol\":23096:23102  tokenB */\n      dup10\n        /* \"SimpleSwap_flattened.sol\":23086:23102  tokenA != tokenB */\n      0xffffffffffffffffffffffffffffffffffffffff\n      and\n        /* \"SimpleSwap_flattened.sol\":23086:23092  tokenA */\n      dup12\n        /* \"SimpleSwap_flattened.sol\":23086:23102  tokenA != tokenB */\n      0xffffffffffffffffffffffffffffffffffffffff\n      and\n      sub\n        /* \"SimpleSwap_flattened.sol\":23078:23125  require(tokenA != tokenB, \"Tokens must differ\") */\n      tag_158\n      jumpi\n      mload(0x40)\n      0x08c379a000000000000000000000000000000000000000000000000000000000\n      dup2\n      mstore\n      0x04\n      add\n      tag_159\n      swap1\n      tag_160\n      jump\t// in\n    tag_159:\n      mload(0x40)\n      dup1\n      swap2\n      sub\n      swap1\n      revert\n    tag_158:\n        /* \"SimpleSwap_flattened.sol\":23161:23162  0 */\n      0x00\n        /* \"SimpleSwap_flattened.sol\":23143:23163  tokenA != address(0) */\n      0xffffffffffffffffffffffffffffffffffffffff\n      and\n        /* \"SimpleSwap_flattened.sol\":23143:23149  tokenA */\n      dup12\n        /* \"SimpleSwap_flattened.sol\":23143:23163  tokenA != address(0) */\n      0xffffffffffffffffffffffffffffffffffffffff\n      and\n      eq\n      iszero\n        /* \"SimpleSwap_flattened.sol\":23143:23187  tokenA != address(0) && tokenB != address(0) */\n      dup1\n      iszero\n      tag_161\n      jumpi\n      pop\n        /* \"SimpleSwap_flattened.sol\":23185:23186  0 */\n      0x00\n        /* \"SimpleSwap_flattened.sol\":23167:23187  tokenB != address(0) */\n      0xffffffffffffffffffffffffffffffffffffffff\n      and\n        /* \"SimpleSwap_flattened.sol\":23167:23173  tokenB */\n      dup11\n        /* \"SimpleSwap_flattened.sol\":23167:23187  tokenB != address(0) */\n      0xffffffffffffffffffffffffffffffffffffffff\n      and\n      eq\n      iszero\n        /* \"SimpleSwap_flattened.sol\":23143:23187  tokenA != address(0) && tokenB != address(0) */\n    tag_161:\n        /* \"SimpleSwap_flattened.sol\":23135:23209  require(tokenA != address(0) && tokenB != address(0), \"Invalid addresses\") */\n      tag_162\n      jumpi\n      mload(0x40)\n      0x08c379a000000000000000000000000000000000000000000000000000000000\n      dup2\n      mstore\n      0x04\n      add\n      tag_163\n      swap1\n      tag_164\n      jump\t// in\n    tag_163:\n      mload(0x40)\n      dup1\n      swap2\n      sub\n      swap1\n      revert\n    tag_162:\n        /* \"SimpleSwap_flattened.sol\":23220:23237  Pair storage pair */\n      0x00\n        /* \"SimpleSwap_flattened.sol\":23240:23245  pairs */\n      0x00\n        /* \"SimpleSwap_flattened.sol\":23240:23253  pairs[tokenA] */\n      0x00\n        /* \"SimpleSwap_flattened.sol\":23246:23252  tokenA */\n      dup14\n        /* \"SimpleSwap_flattened.sol\":23240:23253  pairs[tokenA] */\n      0xffffffffffffffffffffffffffffffffffffffff\n      and\n      0xffffffffffffffffffffffffffffffffffffffff\n      and\n      dup2\n      mstore\n      0x20\n      add\n      swap1\n      dup2\n      mstore\n      0x20\n      add\n      0x00\n      keccak256\n        /* \"SimpleSwap_flattened.sol\":23240:23261  pairs[tokenA][tokenB] */\n      0x00\n        /* \"SimpleSwap_flattened.sol\":23254:23260  tokenB */\n      dup13\n        /* \"SimpleSwap_flattened.sol\":23240:23261  pairs[tokenA][tokenB] */\n      0xffffffffffffffffffffffffffffffffffffffff\n      and\n      0xffffffffffffffffffffffffffffffffffffffff\n      and\n      dup2\n      mstore\n      0x20\n      add\n      swap1\n      dup2\n      mstore\n      0x20\n      add\n      0x00\n      keccak256\n        /* \"SimpleSwap_flattened.sol\":23220:23261  Pair storage pair = pairs[tokenA][tokenB] */\n      swap1\n      pop\n        /* \"SimpleSwap_flattened.sol\":23316:23317  0 */\n      0x00\n        /* \"SimpleSwap_flattened.sol\":23276:23318  address(pair.liquidityToken) == address(0) */\n      0xffffffffffffffffffffffffffffffffffffffff\n      and\n        /* \"SimpleSwap_flattened.sol\":23284:23288  pair */\n      dup2\n        /* \"SimpleSwap_flattened.sol\":23284:23303  pair.liquidityToken */\n      0x02\n      add\n      0x00\n      swap1\n      sload\n      swap1\n      0x0100\n      exp\n      swap1\n      div\n      0xffffffffffffffffffffffffffffffffffffffff\n      and\n        /* \"SimpleSwap_flattened.sol\":23276:23318  address(pair.liquidityToken) == address(0) */\n      0xffffffffffffffffffffffffffffffffffffffff\n      and\n      sub\n        /* \"SimpleSwap_flattened.sol\":23272:23387  if (address(pair.liquidityToken) == address(0)) {... */\n      tag_165\n      jumpi\n        /* \"SimpleSwap_flattened.sol\":23356:23376  new LiquidityToken() */\n      mload(0x40)\n      tag_166\n      swap1\n      tag_167\n      jump\t// in\n    tag_166:\n      mload(0x40)\n      dup1\n      swap2\n      sub\n      swap1\n      0x00\n      create\n      dup1\n      iszero\n      dup1\n      iszero\n      tag_168\n      jumpi\n      returndatacopy(0x00, 0x00, returndatasize)\n      revert(0x00, returndatasize)\n    tag_168:\n      pop\n        /* \"SimpleSwap_flattened.sol\":23334:23338  pair */\n      dup2\n        /* \"SimpleSwap_flattened.sol\":23334:23353  pair.liquidityToken */\n      0x02\n      add\n      0x00\n        /* \"SimpleSwap_flattened.sol\":23334:23376  pair.liquidityToken = new LiquidityToken() */\n      0x0100\n      exp\n      dup2\n      sload\n      dup2\n      0xffffffffffffffffffffffffffffffffffffffff\n      mul\n      not\n      and\n      swap1\n      dup4\n      0xffffffffffffffffffffffffffffffffffffffff\n      and\n      mul\n      or\n      swap1\n      sstore\n      pop\n        /* \"SimpleSwap_flattened.sol\":23272:23387  if (address(pair.liquidityToken) == address(0)) {... */\n    tag_165:\n        /* \"SimpleSwap_flattened.sol\":23418:23419  0 */\n      0x00\n        /* \"SimpleSwap_flattened.sol\":23401:23405  pair */\n      dup2\n        /* \"SimpleSwap_flattened.sol\":23401:23414  pair.reserveA */\n      0x00\n      add\n      sload\n        /* \"SimpleSwap_flattened.sol\":23401:23419  pair.reserveA == 0 */\n      eq\n        /* \"SimpleSwap_flattened.sol\":23401:23441  pair.reserveA == 0 && pair.reserveB == 0 */\n      dup1\n      iszero\n      tag_169\n      jumpi\n      pop\n        /* \"SimpleSwap_flattened.sol\":23440:23441  0 */\n      0x00\n        /* \"SimpleSwap_flattened.sol\":23423:23427  pair */\n      dup2\n        /* \"SimpleSwap_flattened.sol\":23423:23436  pair.reserveB */\n      0x01\n      add\n      sload\n        /* \"SimpleSwap_flattened.sol\":23423:23441  pair.reserveB == 0 */\n      eq\n        /* \"SimpleSwap_flattened.sol\":23401:23441  pair.reserveA == 0 && pair.reserveB == 0 */\n    tag_169:\n        /* \"SimpleSwap_flattened.sol\":23397:24212  if (pair.reserveA == 0 && pair.reserveB == 0) {... */\n      iszero\n      tag_170\n      jumpi\n        /* \"SimpleSwap_flattened.sol\":23467:23481  amountADesired */\n      dup10\n        /* \"SimpleSwap_flattened.sol\":23457:23481  amountA = amountADesired */\n      swap4\n      pop\n        /* \"SimpleSwap_flattened.sol\":23505:23519  amountBDesired */\n      dup9\n        /* \"SimpleSwap_flattened.sol\":23495:23519  amountB = amountBDesired */\n      swap3\n      pop\n        /* \"SimpleSwap_flattened.sol\":23397:24212  if (pair.reserveA == 0 && pair.reserveB == 0) {... */\n      jump(tag_171)\n    tag_170:\n        /* \"SimpleSwap_flattened.sol\":23550:23569  uint amountBOptimal */\n      0x00\n        /* \"SimpleSwap_flattened.sol\":23607:23611  pair */\n      dup2\n        /* \"SimpleSwap_flattened.sol\":23607:23620  pair.reserveA */\n      0x00\n      add\n      sload\n        /* \"SimpleSwap_flattened.sol\":23590:23594  pair */\n      dup3\n        /* \"SimpleSwap_flattened.sol\":23590:23603  pair.reserveB */\n      0x01\n      add\n      sload\n        /* \"SimpleSwap_flattened.sol\":23573:23587  amountADesired */\n      dup13\n        /* \"SimpleSwap_flattened.sol\":23573:23603  amountADesired * pair.reserveB */\n      tag_172\n      swap2\n      swap1\n      tag_52\n      jump\t// in\n    tag_172:\n        /* \"SimpleSwap_flattened.sol\":23572:23620  (amountADesired * pair.reserveB) / pair.reserveA */\n      tag_173\n      swap2\n      swap1\n      tag_58\n      jump\t// in\n    tag_173:\n        /* \"SimpleSwap_flattened.sol\":23550:23620  uint amountBOptimal = (amountADesired * pair.reserveB) / pair.reserveA */\n      swap1\n      pop\n        /* \"SimpleSwap_flattened.sol\":23656:23670  amountBDesired */\n      dup10\n        /* \"SimpleSwap_flattened.sol\":23638:23652  amountBOptimal */\n      dup2\n        /* \"SimpleSwap_flattened.sol\":23638:23670  amountBOptimal <= amountBDesired */\n      gt\n        /* \"SimpleSwap_flattened.sol\":23634:24202  if (amountBOptimal <= amountBDesired) {... */\n      tag_174\n      jumpi\n        /* \"SimpleSwap_flattened.sol\":23716:23726  amountBMin */\n      dup8\n        /* \"SimpleSwap_flattened.sol\":23698:23712  amountBOptimal */\n      dup2\n        /* \"SimpleSwap_flattened.sol\":23698:23726  amountBOptimal >= amountBMin */\n      lt\n      iszero\n        /* \"SimpleSwap_flattened.sol\":23690:23750  require(amountBOptimal >= amountBMin, \"Slippage too high B\") */\n      tag_175\n      jumpi\n      mload(0x40)\n      0x08c379a000000000000000000000000000000000000000000000000000000000\n      dup2\n      mstore\n      0x04\n      add\n      tag_176\n      swap1\n      tag_138\n      jump\t// in\n    tag_176:\n      mload(0x40)\n      dup1\n      swap2\n      sub\n      swap1\n      revert\n    tag_175:\n        /* \"SimpleSwap_flattened.sol\":23778:23792  amountADesired */\n      dup11\n        /* \"SimpleSwap_flattened.sol\":23768:23792  amountA = amountADesired */\n      swap5\n      pop\n        /* \"SimpleSwap_flattened.sol\":23820:23834  amountBOptimal */\n      dup1\n        /* \"SimpleSwap_flattened.sol\":23810:23834  amountB = amountBOptimal */\n      swap4\n      pop\n        /* \"SimpleSwap_flattened.sol\":23634:24202  if (amountBOptimal <= amountBDesired) {... */\n      jump(tag_177)\n    tag_174:\n        /* \"SimpleSwap_flattened.sol\":23873:23892  uint amountAOptimal */\n      0x00\n        /* \"SimpleSwap_flattened.sol\":23930:23934  pair */\n      dup3\n        /* \"SimpleSwap_flattened.sol\":23930:23943  pair.reserveB */\n      0x01\n      add\n      sload\n        /* \"SimpleSwap_flattened.sol\":23913:23917  pair */\n      dup4\n        /* \"SimpleSwap_flattened.sol\":23913:23926  pair.reserveA */\n      0x00\n      add\n      sload\n        /* \"SimpleSwap_flattened.sol\":23896:23910  amountBDesired */\n      dup13\n        /* \"SimpleSwap_flattened.sol\":23896:23926  amountBDesired * pair.reserveA */\n      tag_178\n      swap2\n      swap1\n      tag_52\n      jump\t// in\n    tag_178:\n        /* \"SimpleSwap_flattened.sol\":23895:23943  (amountBDesired * pair.reserveA) / pair.reserveB */\n      tag_179\n      swap2\n      swap1\n      tag_58\n      jump\t// in\n    tag_179:\n        /* \"SimpleSwap_flattened.sol\":23873:23943  uint amountAOptimal = (amountBDesired * pair.reserveA) / pair.reserveB */\n      swap1\n      pop\n        /* \"SimpleSwap_flattened.sol\":23987:24001  amountADesired */\n      dup12\n        /* \"SimpleSwap_flattened.sol\":23969:23983  amountAOptimal */\n      dup2\n        /* \"SimpleSwap_flattened.sol\":23969:24001  amountAOptimal <= amountADesired */\n      gt\n      iszero\n        /* \"SimpleSwap_flattened.sol\":23961:24025  require(amountAOptimal <= amountADesired, \"Slippage too high A\") */\n      tag_180\n      jumpi\n      mload(0x40)\n      0x08c379a000000000000000000000000000000000000000000000000000000000\n      dup2\n      mstore\n      0x04\n      add\n      tag_181\n      swap1\n      tag_135\n      jump\t// in\n    tag_181:\n      mload(0x40)\n      dup1\n      swap2\n      sub\n      swap1\n      revert\n    tag_180:\n        /* \"SimpleSwap_flattened.sol\":24069:24079  amountAMin */\n      dup10\n        /* \"SimpleSwap_flattened.sol\":24051:24065  amountAOptimal */\n      dup2\n        /* \"SimpleSwap_flattened.sol\":24051:24079  amountAOptimal >= amountAMin */\n      lt\n      iszero\n        /* \"SimpleSwap_flattened.sol\":24043:24103  require(amountAOptimal >= amountAMin, \"Slippage too high A\") */\n      tag_182\n      jumpi\n      mload(0x40)\n      0x08c379a000000000000000000000000000000000000000000000000000000000\n      dup2\n      mstore\n      0x04\n      add\n      tag_183\n      swap1\n      tag_135\n      jump\t// in\n    tag_183:\n      mload(0x40)\n      dup1\n      swap2\n      sub\n      swap1\n      revert\n    tag_182:\n        /* \"SimpleSwap_flattened.sol\":24131:24145  amountAOptimal */\n      dup1\n        /* \"SimpleSwap_flattened.sol\":24121:24145  amountA = amountAOptimal */\n      swap6\n      pop\n        /* \"SimpleSwap_flattened.sol\":24173:24187  amountBDesired */\n      dup11\n        /* \"SimpleSwap_flattened.sol\":24163:24187  amountB = amountBDesired */\n      swap5\n      pop\n        /* \"SimpleSwap_flattened.sol\":23855:24202  {... */\n      pop\n        /* \"SimpleSwap_flattened.sol\":23634:24202  if (amountBOptimal <= amountBDesired) {... */\n    tag_177:\n        /* \"SimpleSwap_flattened.sol\":23536:24212  {... */\n      pop\n        /* \"SimpleSwap_flattened.sol\":23397:24212  if (pair.reserveA == 0 && pair.reserveB == 0) {... */\n    tag_171:\n        /* \"SimpleSwap_flattened.sol\":24237:24243  tokenA */\n      dup12\n        /* \"SimpleSwap_flattened.sol\":24230:24257  IERC20(tokenA).transferFrom */\n      0xffffffffffffffffffffffffffffffffffffffff\n      and\n      0x23b872dd\n        /* \"SimpleSwap_flattened.sol\":24258:24268  msg.sender */\n      caller\n        /* \"SimpleSwap_flattened.sol\":24278:24282  this */\n      address\n        /* \"SimpleSwap_flattened.sol\":24285:24292  amountA */\n      dup8\n        /* \"SimpleSwap_flattened.sol\":24230:24293  IERC20(tokenA).transferFrom(msg.sender, address(this), amountA) */\n      mload(0x40)\n      dup5\n      0xffffffff\n      and\n      0xe0\n      shl\n      dup2\n      mstore\n      0x04\n      add\n      tag_184\n      swap4\n      swap3\n      swap2\n      swap1\n      tag_78\n      jump\t// in\n    tag_184:\n      0x20\n      mload(0x40)\n      dup1\n      dup4\n      sub\n      dup2\n      0x00\n      dup8\n      gas\n      call\n      iszero\n      dup1\n      iszero\n      tag_186\n      jumpi\n      returndatacopy(0x00, 0x00, returndatasize)\n      revert(0x00, returndatasize)\n    tag_186:\n      pop\n      pop\n      pop\n      pop\n      mload(0x40)\n      returndatasize\n      not(0x1f)\n      0x1f\n      dup3\n      add\n      and\n      dup3\n      add\n      dup1\n      0x40\n      mstore\n      pop\n      dup2\n      add\n      swap1\n      tag_187\n      swap2\n      swap1\n      tag_82\n      jump\t// in\n    tag_187:\n        /* \"SimpleSwap_flattened.sol\":24222:24320  require(IERC20(tokenA).transferFrom(msg.sender, address(this), amountA), \"Transfer tokenA failed\") */\n      tag_188\n      jumpi\n      mload(0x40)\n      0x08c379a000000000000000000000000000000000000000000000000000000000\n      dup2\n      mstore\n      0x04\n      add\n      tag_189\n      swap1\n      tag_190\n      jump\t// in\n    tag_189:\n      mload(0x40)\n      dup1\n      swap2\n      sub\n      swap1\n      revert\n    tag_188:\n        /* \"SimpleSwap_flattened.sol\":24345:24351  tokenB */\n      dup11\n        /* \"SimpleSwap_flattened.sol\":24338:24365  IERC20(tokenB).transferFrom */\n      0xffffffffffffffffffffffffffffffffffffffff\n      and\n      0x23b872dd\n        /* \"SimpleSwap_flattened.sol\":24366:24376  msg.sender */\n      caller\n        /* \"SimpleSwap_flattened.sol\":24386:24390  this */\n      address\n        /* \"SimpleSwap_flattened.sol\":24393:24400  amountB */\n      dup7\n        /* \"SimpleSwap_flattened.sol\":24338:24401  IERC20(tokenB).transferFrom(msg.sender, address(this), amountB) */\n      mload(0x40)\n      dup5\n      0xffffffff\n      and\n      0xe0\n      shl\n      dup2\n      mstore\n      0x04\n      add\n      tag_191\n      swap4\n      swap3\n      swap2\n      swap1\n      tag_78\n      jump\t// in\n    tag_191:\n      0x20\n      mload(0x40)\n      dup1\n      dup4\n      sub\n      dup2\n      0x00\n      dup8\n      gas\n      call\n      iszero\n      dup1\n      iszero\n      tag_193\n      jumpi\n      returndatacopy(0x00, 0x00, returndatasize)\n      revert(0x00, returndatasize)\n    tag_193:\n      pop\n      pop\n      pop\n      pop\n      mload(0x40)\n      returndatasize\n      not(0x1f)\n      0x1f\n      dup3\n      add\n      and\n      dup3\n      add\n      dup1\n      0x40\n      mstore\n      pop\n      dup2\n      add\n      swap1\n      tag_194\n      swap2\n      swap1\n      tag_82\n      jump\t// in\n    tag_194:\n        /* \"SimpleSwap_flattened.sol\":24330:24428  require(IERC20(tokenB).transferFrom(msg.sender, address(this), amountB), \"Transfer tokenB failed\") */\n      tag_195\n      jumpi\n      mload(0x40)\n      0x08c379a000000000000000000000000000000000000000000000000000000000\n      dup2\n      mstore\n      0x04\n      add\n      tag_196\n      swap1\n      tag_197\n      jump\t// in\n    tag_196:\n      mload(0x40)\n      dup1\n      swap2\n      sub\n      swap1\n      revert\n    tag_195:\n        /* \"SimpleSwap_flattened.sol\":24451:24474  sqrt(amountA * amountB) */\n      tag_198\n        /* \"SimpleSwap_flattened.sol\":24466:24473  amountB */\n      dup4\n        /* \"SimpleSwap_flattened.sol\":24456:24463  amountA */\n      dup6\n        /* \"SimpleSwap_flattened.sol\":24456:24473  amountA * amountB */\n      tag_199\n      swap2\n      swap1\n      tag_52\n      jump\t// in\n    tag_199:\n        /* \"SimpleSwap_flattened.sol\":24451:24455  sqrt */\n      tag_200\n        /* \"SimpleSwap_flattened.sol\":24451:24474  sqrt(amountA * amountB) */\n      jump\t// in\n    tag_198:\n        /* \"SimpleSwap_flattened.sol\":24439:24474  liquidity = sqrt(amountA * amountB) */\n      swap2\n      pop\n        /* \"SimpleSwap_flattened.sol\":24484:24488  pair */\n      dup1\n        /* \"SimpleSwap_flattened.sol\":24484:24503  pair.liquidityToken */\n      0x02\n      add\n      0x00\n      swap1\n      sload\n      swap1\n      0x0100\n      exp\n      swap1\n      div\n      0xffffffffffffffffffffffffffffffffffffffff\n      and\n        /* \"SimpleSwap_flattened.sol\":24484:24508  pair.liquidityToken.mint */\n      0xffffffffffffffffffffffffffffffffffffffff\n      and\n      0x40c10f19\n        /* \"SimpleSwap_flattened.sol\":24509:24511  to */\n      dup8\n        /* \"SimpleSwap_flattened.sol\":24513:24522  liquidity */\n      dup5\n        /* \"SimpleSwap_flattened.sol\":24484:24523  pair.liquidityToken.mint(to, liquidity) */\n      mload(0x40)\n      dup4\n      0xffffffff\n      and\n      0xe0\n      shl\n      dup2\n      mstore\n      0x04\n      add\n      tag_201\n      swap3\n      swap2\n      swap1\n      tag_94\n      jump\t// in\n    tag_201:\n      0x00\n      mload(0x40)\n      dup1\n      dup4\n      sub\n      dup2\n      0x00\n      dup8\n      dup1\n      extcodesize\n      iszero\n      dup1\n      iszero\n      tag_202\n      jumpi\n      revert(0x00, 0x00)\n    tag_202:\n      pop\n      gas\n      call\n      iszero\n      dup1\n      iszero\n      tag_204\n      jumpi\n      returndatacopy(0x00, 0x00, returndatasize)\n      revert(0x00, returndatasize)\n    tag_204:\n      pop\n      pop\n      pop\n      pop\n        /* \"SimpleSwap_flattened.sol\":24551:24558  amountA */\n      dup4\n        /* \"SimpleSwap_flattened.sol\":24534:24538  pair */\n      dup2\n        /* \"SimpleSwap_flattened.sol\":24534:24547  pair.reserveA */\n      0x00\n      add\n      0x00\n        /* \"SimpleSwap_flattened.sol\":24534:24558  pair.reserveA += amountA */\n      dup3\n      dup3\n      sload\n      tag_205\n      swap2\n      swap1\n      tag_56\n      jump\t// in\n    tag_205:\n      swap3\n      pop\n      pop\n      dup2\n      swap1\n      sstore\n      pop\n        /* \"SimpleSwap_flattened.sol\":24585:24592  amountB */\n      dup3\n        /* \"SimpleSwap_flattened.sol\":24568:24572  pair */\n      dup2\n        /* \"SimpleSwap_flattened.sol\":24568:24581  pair.reserveB */\n      0x01\n      add\n      0x00\n        /* \"SimpleSwap_flattened.sol\":24568:24592  pair.reserveB += amountB */\n      dup3\n      dup3\n      sload\n      tag_206\n      swap2\n      swap1\n      tag_56\n      jump\t// in\n    tag_206:\n      swap3\n      pop\n      pop\n      dup2\n      swap1\n      sstore\n      pop\n        /* \"SimpleSwap_flattened.sol\":24603:24639  return (amountA, amountB, liquidity) */\n      pop\n        /* \"SimpleSwap_flattened.sol\":22710:24646  function addLiquidity(... */\n      swap9\n      pop\n      swap9\n      pop\n      swap9\n      swap6\n      pop\n      pop\n      pop\n      pop\n      pop\n      pop\n      jump\t// out\n        /* \"SimpleSwap_flattened.sol\":27562:27854  function sqrt(uint y) internal pure returns (uint z) {... */\n    tag_200:\n        /* \"SimpleSwap_flattened.sol\":27607:27613  uint z */\n      0x00\n        /* \"SimpleSwap_flattened.sol\":27633:27634  3 */\n      0x03\n        /* \"SimpleSwap_flattened.sol\":27629:27630  y */\n      dup3\n        /* \"SimpleSwap_flattened.sol\":27629:27634  y > 3 */\n      gt\n        /* \"SimpleSwap_flattened.sol\":27625:27848  if (y > 3) {... */\n      iszero\n      tag_208\n      jumpi\n        /* \"SimpleSwap_flattened.sol\":27654:27655  y */\n      dup2\n        /* \"SimpleSwap_flattened.sol\":27650:27655  z = y */\n      swap1\n      pop\n        /* \"SimpleSwap_flattened.sol\":27669:27675  uint x */\n      0x00\n        /* \"SimpleSwap_flattened.sol\":27686:27687  1 */\n      0x01\n        /* \"SimpleSwap_flattened.sol\":27682:27683  2 */\n      0x02\n        /* \"SimpleSwap_flattened.sol\":27678:27679  y */\n      dup5\n        /* \"SimpleSwap_flattened.sol\":27678:27683  y / 2 */\n      tag_209\n      swap2\n      swap1\n      tag_58\n      jump\t// in\n    tag_209:\n        /* \"SimpleSwap_flattened.sol\":27678:27687  y / 2 + 1 */\n      tag_210\n      swap2\n      swap1\n      tag_56\n      jump\t// in\n    tag_210:\n        /* \"SimpleSwap_flattened.sol\":27669:27687  uint x = y / 2 + 1 */\n      swap1\n      pop\n        /* \"SimpleSwap_flattened.sol\":27701:27790  while (x < z) {... */\n    tag_211:\n        /* \"SimpleSwap_flattened.sol\":27712:27713  z */\n      dup2\n        /* \"SimpleSwap_flattened.sol\":27708:27709  x */\n      dup2\n        /* \"SimpleSwap_flattened.sol\":27708:27713  x < z */\n      lt\n        /* \"SimpleSwap_flattened.sol\":27701:27790  while (x < z) {... */\n      iszero\n      tag_212\n      jumpi\n        /* \"SimpleSwap_flattened.sol\":27737:27738  x */\n      dup1\n        /* \"SimpleSwap_flattened.sol\":27733:27738  z = x */\n      swap2\n      pop\n        /* \"SimpleSwap_flattened.sol\":27774:27775  2 */\n      0x02\n        /* \"SimpleSwap_flattened.sol\":27769:27770  x */\n      dup2\n        /* \"SimpleSwap_flattened.sol\":27765:27766  x */\n      dup3\n        /* \"SimpleSwap_flattened.sol\":27761:27762  y */\n      dup6\n        /* \"SimpleSwap_flattened.sol\":27761:27766  y / x */\n      tag_213\n      swap2\n      swap1\n      tag_58\n      jump\t// in\n    tag_213:\n        /* \"SimpleSwap_flattened.sol\":27761:27770  y / x + x */\n      tag_214\n      swap2\n      swap1\n      tag_56\n      jump\t// in\n    tag_214:\n        /* \"SimpleSwap_flattened.sol\":27760:27775  (y / x + x) / 2 */\n      tag_215\n      swap2\n      swap1\n      tag_58\n      jump\t// in\n    tag_215:\n        /* \"SimpleSwap_flattened.sol\":27756:27775  x = (y / x + x) / 2 */\n      swap1\n      pop\n        /* \"SimpleSwap_flattened.sol\":27701:27790  while (x < z) {... */\n      jump(tag_211)\n    tag_212:\n        /* \"SimpleSwap_flattened.sol\":27636:27800  {... */\n      pop\n        /* \"SimpleSwap_flattened.sol\":27625:27848  if (y > 3) {... */\n      jump(tag_216)\n    tag_208:\n        /* \"SimpleSwap_flattened.sol\":27815:27816  0 */\n      0x00\n        /* \"SimpleSwap_flattened.sol\":27810:27811  y */\n      dup3\n        /* \"SimpleSwap_flattened.sol\":27810:27816  y != 0 */\n      eq\n        /* \"SimpleSwap_flattened.sol\":27806:27848  if (y != 0) {... */\n      tag_217\n      jumpi\n        /* \"SimpleSwap_flattened.sol\":27836:27837  1 */\n      0x01\n        /* \"SimpleSwap_flattened.sol\":27832:27837  z = 1 */\n      swap1\n      pop\n        /* \"SimpleSwap_flattened.sol\":27806:27848  if (y != 0) {... */\n    tag_217:\n        /* \"SimpleSwap_flattened.sol\":27625:27848  if (y > 3) {... */\n    tag_216:\n        /* \"SimpleSwap_flattened.sol\":27562:27854  function sqrt(uint y) internal pure returns (uint z) {... */\n      swap2\n      swap1\n      pop\n      jump\t// out\n    tag_167:\n      dataSize(sub_0)\n      dup1\n      dataOffset(sub_0)\n      dup4\n      codecopy\n      add\n      swap1\n      jump\t// out\n        /* \"#utility.yul\":88:205   */\n    tag_219:\n        /* \"#utility.yul\":197:198   */\n      0x00\n        /* \"#utility.yul\":194:195   */\n      0x00\n        /* \"#utility.yul\":187:199   */\n      revert\n        /* \"#utility.yul\":211:328   */\n    tag_220:\n        /* \"#utility.yul\":320:321   */\n      0x00\n        /* \"#utility.yul\":317:318   */\n      0x00\n        /* \"#utility.yul\":310:322   */\n      revert\n        /* \"#utility.yul\":334:411   */\n    tag_221:\n        /* \"#utility.yul\":371:378   */\n      0x00\n        /* \"#utility.yul\":400:405   */\n      dup2\n        /* \"#utility.yul\":389:405   */\n      swap1\n      pop\n        /* \"#utility.yul\":334:411   */\n      swap2\n      swap1\n      pop\n      jump\t// out\n        /* \"#utility.yul\":417:539   */\n    tag_222:\n        /* \"#utility.yul\":490:514   */\n      tag_293\n        /* \"#utility.yul\":508:513   */\n      dup2\n        /* \"#utility.yul\":490:514   */\n      tag_221\n      jump\t// in\n    tag_293:\n        /* \"#utility.yul\":483:488   */\n      dup2\n        /* \"#utility.yul\":480:515   */\n      eq\n        /* \"#utility.yul\":470:533   */\n      tag_294\n      jumpi\n        /* \"#utility.yul\":529:530   */\n      0x00\n        /* \"#utility.yul\":526:527   */\n      0x00\n        /* \"#utility.yul\":519:531   */\n      revert\n        /* \"#utility.yul\":470:533   */\n    tag_294:\n        /* \"#utility.yul\":417:539   */\n      pop\n      jump\t// out\n        /* \"#utility.yul\":545:684   */\n    tag_223:\n        /* \"#utility.yul\":591:596   */\n      0x00\n        /* \"#utility.yul\":629:635   */\n      dup2\n        /* \"#utility.yul\":616:636   */\n      calldataload\n        /* \"#utility.yul\":607:636   */\n      swap1\n      pop\n        /* \"#utility.yul\":645:678   */\n      tag_296\n        /* \"#utility.yul\":672:677   */\n      dup2\n        /* \"#utility.yul\":645:678   */\n      tag_222\n      jump\t// in\n    tag_296:\n        /* \"#utility.yul\":545:684   */\n      swap3\n      swap2\n      pop\n      pop\n      jump\t// out\n        /* \"#utility.yul\":690:1309   */\n    tag_11:\n        /* \"#utility.yul\":767:773   */\n      0x00\n        /* \"#utility.yul\":775:781   */\n      0x00\n        /* \"#utility.yul\":783:789   */\n      0x00\n        /* \"#utility.yul\":832:834   */\n      0x60\n        /* \"#utility.yul\":820:829   */\n      dup5\n        /* \"#utility.yul\":811:818   */\n      dup7\n        /* \"#utility.yul\":807:830   */\n      sub\n        /* \"#utility.yul\":803:835   */\n      slt\n        /* \"#utility.yul\":800:919   */\n      iszero\n      tag_298\n      jumpi\n        /* \"#utility.yul\":838:917   */\n      tag_299\n      tag_219\n      jump\t// in\n    tag_299:\n        /* \"#utility.yul\":800:919   */\n    tag_298:\n        /* \"#utility.yul\":958:959   */\n      0x00\n        /* \"#utility.yul\":983:1036   */\n      tag_300\n        /* \"#utility.yul\":1028:1035   */\n      dup7\n        /* \"#utility.yul\":1019:1025   */\n      dup3\n        /* \"#utility.yul\":1008:1017   */\n      dup8\n        /* \"#utility.yul\":1004:1026   */\n      add\n        /* \"#utility.yul\":983:1036   */\n      tag_223\n      jump\t// in\n    tag_300:\n        /* \"#utility.yul\":973:1036   */\n      swap4\n      pop\n        /* \"#utility.yul\":929:1046   */\n      pop\n        /* \"#utility.yul\":1085:1087   */\n      0x20\n        /* \"#utility.yul\":1111:1164   */\n      tag_301\n        /* \"#utility.yul\":1156:1163   */\n      dup7\n        /* \"#utility.yul\":1147:1153   */\n      dup3\n        /* \"#utility.yul\":1136:1145   */\n      dup8\n        /* \"#utility.yul\":1132:1154   */\n      add\n        /* \"#utility.yul\":1111:1164   */\n      tag_223\n      jump\t// in\n    tag_301:\n        /* \"#utility.yul\":1101:1164   */\n      swap3\n      pop\n        /* \"#utility.yul\":1056:1174   */\n      pop\n        /* \"#utility.yul\":1213:1215   */\n      0x40\n        /* \"#utility.yul\":1239:1292   */\n      tag_302\n        /* \"#utility.yul\":1284:1291   */\n      dup7\n        /* \"#utility.yul\":1275:1281   */\n      dup3\n        /* \"#utility.yul\":1264:1273   */\n      dup8\n        /* \"#utility.yul\":1260:1282   */\n      add\n        /* \"#utility.yul\":1239:1292   */\n      tag_223\n      jump\t// in\n    tag_302:\n        /* \"#utility.yul\":1229:1292   */\n      swap2\n      pop\n        /* \"#utility.yul\":1184:1302   */\n      pop\n        /* \"#utility.yul\":690:1309   */\n      swap3\n      pop\n      swap3\n      pop\n      swap3\n      jump\t// out\n        /* \"#utility.yul\":1315:1433   */\n    tag_224:\n        /* \"#utility.yul\":1402:1426   */\n      tag_304\n        /* \"#utility.yul\":1420:1425   */\n      dup2\n        /* \"#utility.yul\":1402:1426   */\n      tag_221\n      jump\t// in\n    tag_304:\n        /* \"#utility.yul\":1397:1400   */\n      dup3\n        /* \"#utility.yul\":1390:1427   */\n      mstore\n        /* \"#utility.yul\":1315:1433   */\n      pop\n      pop\n      jump\t// out\n        /* \"#utility.yul\":1439:1661   */\n    tag_14:\n        /* \"#utility.yul\":1532:1536   */\n      0x00\n        /* \"#utility.yul\":1570:1572   */\n      0x20\n        /* \"#utility.yul\":1559:1568   */\n      dup3\n        /* \"#utility.yul\":1555:1573   */\n      add\n        /* \"#utility.yul\":1547:1573   */\n      swap1\n      pop\n        /* \"#utility.yul\":1583:1654   */\n      tag_306\n        /* \"#utility.yul\":1651:1652   */\n      0x00\n        /* \"#utility.yul\":1640:1649   */\n      dup4\n        /* \"#utility.yul\":1636:1653   */\n      add\n        /* \"#utility.yul\":1627:1633   */\n      dup5\n        /* \"#utility.yul\":1583:1654   */\n      tag_224\n      jump\t// in\n    tag_306:\n        /* \"#utility.yul\":1439:1661   */\n      swap3\n      swap2\n      pop\n      pop\n      jump\t// out\n        /* \"#utility.yul\":1667:1784   */\n    tag_225:\n        /* \"#utility.yul\":1776:1777   */\n      0x00\n        /* \"#utility.yul\":1773:1774   */\n      0x00\n        /* \"#utility.yul\":1766:1778   */\n      revert\n        /* \"#utility.yul\":1790:1907   */\n    tag_226:\n        /* \"#utility.yul\":1899:1900   */\n      0x00\n        /* \"#utility.yul\":1896:1897   */\n      0x00\n        /* \"#utility.yul\":1889:1901   */\n      revert\n        /* \"#utility.yul\":1913:2030   */\n    tag_227:\n        /* \"#utility.yul\":2022:2023   */\n      0x00\n        /* \"#utility.yul\":2019:2020   */\n      0x00\n        /* \"#utility.yul\":2012:2024   */\n      revert\n        /* \"#utility.yul\":2053:2621   */\n    tag_228:\n        /* \"#utility.yul\":2126:2134   */\n      0x00\n        /* \"#utility.yul\":2136:2142   */\n      0x00\n        /* \"#utility.yul\":2186:2189   */\n      dup4\n        /* \"#utility.yul\":2179:2183   */\n      0x1f\n        /* \"#utility.yul\":2171:2177   */\n      dup5\n        /* \"#utility.yul\":2167:2184   */\n      add\n        /* \"#utility.yul\":2163:2190   */\n      slt\n        /* \"#utility.yul\":2153:2275   */\n      tag_311\n      jumpi\n        /* \"#utility.yul\":2194:2273   */\n      tag_312\n      tag_225\n      jump\t// in\n    tag_312:\n        /* \"#utility.yul\":2153:2275   */\n    tag_311:\n        /* \"#utility.yul\":2307:2313   */\n      dup3\n        /* \"#utility.yul\":2294:2314   */\n      calldataload\n        /* \"#utility.yul\":2284:2314   */\n      swap1\n      pop\n        /* \"#utility.yul\":2337:2355   */\n      0xffffffffffffffff\n        /* \"#utility.yul\":2329:2335   */\n      dup2\n        /* \"#utility.yul\":2326:2356   */\n      gt\n        /* \"#utility.yul\":2323:2440   */\n      iszero\n      tag_313\n      jumpi\n        /* \"#utility.yul\":2359:2438   */\n      tag_314\n      tag_226\n      jump\t// in\n    tag_314:\n        /* \"#utility.yul\":2323:2440   */\n    tag_313:\n        /* \"#utility.yul\":2473:2477   */\n      0x20\n        /* \"#utility.yul\":2465:2471   */\n      dup4\n        /* \"#utility.yul\":2461:2478   */\n      add\n        /* \"#utility.yul\":2449:2478   */\n      swap2\n      pop\n        /* \"#utility.yul\":2527:2530   */\n      dup4\n        /* \"#utility.yul\":2519:2523   */\n      0x20\n        /* \"#utility.yul\":2511:2517   */\n      dup3\n        /* \"#utility.yul\":2507:2524   */\n      mul\n        /* \"#utility.yul\":2497:2505   */\n      dup4\n        /* \"#utility.yul\":2493:2525   */\n      add\n        /* \"#utility.yul\":2490:2531   */\n      gt\n        /* \"#utility.yul\":2487:2615   */\n      iszero\n      tag_315\n      jumpi\n        /* \"#utility.yul\":2534:2613   */\n      tag_316\n      tag_227\n      jump\t// in\n    tag_316:\n        /* \"#utility.yul\":2487:2615   */\n    tag_315:\n        /* \"#utility.yul\":2053:2621   */\n      swap3\n      pop\n      swap3\n      swap1\n      pop\n      jump\t// out\n        /* \"#utility.yul\":2627:2753   */\n    tag_229:\n        /* \"#utility.yul\":2664:2671   */\n      0x00\n        /* \"#utility.yul\":2704:2746   */\n      0xffffffffffffffffffffffffffffffffffffffff\n        /* \"#utility.yul\":2697:2702   */\n      dup3\n        /* \"#utility.yul\":2693:2747   */\n      and\n        /* \"#utility.yul\":2682:2747   */\n      swap1\n      pop\n        /* \"#utility.yul\":2627:2753   */\n      swap2\n      swap1\n      pop\n      jump\t// out\n        /* \"#utility.yul\":2759:2855   */\n    tag_230:\n        /* \"#utility.yul\":2796:2803   */\n      0x00\n        /* \"#utility.yul\":2825:2849   */\n      tag_319\n        /* \"#utility.yul\":2843:2848   */\n      dup3\n        /* \"#utility.yul\":2825:2849   */\n      tag_229\n      jump\t// in\n    tag_319:\n        /* \"#utility.yul\":2814:2849   */\n      swap1\n      pop\n        /* \"#utility.yul\":2759:2855   */\n      swap2\n      swap1\n      pop\n      jump\t// out\n        /* \"#utility.yul\":2861:2983   */\n    tag_231:\n        /* \"#utility.yul\":2934:2958   */\n      tag_321\n        /* \"#utility.yul\":2952:2957   */\n      dup2\n        /* \"#utility.yul\":2934:2958   */\n      tag_230\n      jump\t// in\n    tag_321:\n        /* \"#utility.yul\":2927:2932   */\n      dup2\n        /* \"#utility.yul\":2924:2959   */\n      eq\n        /* \"#utility.yul\":2914:2977   */\n      tag_322\n      jumpi\n        /* \"#utility.yul\":2973:2974   */\n      0x00\n        /* \"#utility.yul\":2970:2971   */\n      0x00\n        /* \"#utility.yul\":2963:2975   */\n      revert\n        /* \"#utility.yul\":2914:2977   */\n    tag_322:\n        /* \"#utility.yul\":2861:2983   */\n      pop\n      jump\t// out\n        /* \"#utility.yul\":2989:3128   */\n    tag_232:\n        /* \"#utility.yul\":3035:3040   */\n      0x00\n        /* \"#utility.yul\":3073:3079   */\n      dup2\n        /* \"#utility.yul\":3060:3080   */\n      calldataload\n        /* \"#utility.yul\":3051:3080   */\n      swap1\n      pop\n        /* \"#utility.yul\":3089:3122   */\n      tag_324\n        /* \"#utility.yul\":3116:3121   */\n      dup2\n        /* \"#utility.yul\":3089:3122   */\n      tag_231\n      jump\t// in\n    tag_324:\n        /* \"#utility.yul\":2989:3128   */\n      swap3\n      swap2\n      pop\n      pop\n      jump\t// out\n        /* \"#utility.yul\":3134:4275   */\n    tag_17:\n        /* \"#utility.yul\":3256:3262   */\n      0x00\n        /* \"#utility.yul\":3264:3270   */\n      0x00\n        /* \"#utility.yul\":3272:3278   */\n      0x00\n        /* \"#utility.yul\":3280:3286   */\n      0x00\n        /* \"#utility.yul\":3288:3294   */\n      0x00\n        /* \"#utility.yul\":3296:3302   */\n      0x00\n        /* \"#utility.yul\":3345:3348   */\n      0xa0\n        /* \"#utility.yul\":3333:3342   */\n      dup8\n        /* \"#utility.yul\":3324:3331   */\n      dup10\n        /* \"#utility.yul\":3320:3343   */\n      sub\n        /* \"#utility.yul\":3316:3349   */\n      slt\n        /* \"#utility.yul\":3313:3433   */\n      iszero\n      tag_326\n      jumpi\n        /* \"#utility.yul\":3352:3431   */\n      tag_327\n      tag_219\n      jump\t// in\n    tag_327:\n        /* \"#utility.yul\":3313:3433   */\n    tag_326:\n        /* \"#utility.yul\":3472:3473   */\n      0x00\n        /* \"#utility.yul\":3497:3550   */\n      tag_328\n        /* \"#utility.yul\":3542:3549   */\n      dup10\n        /* \"#utility.yul\":3533:3539   */\n      dup3\n        /* \"#utility.yul\":3522:3531   */\n      dup11\n        /* \"#utility.yul\":3518:3540   */\n      add\n        /* \"#utility.yul\":3497:3550   */\n      tag_223\n      jump\t// in\n    tag_328:\n        /* \"#utility.yul\":3487:3550   */\n      swap7\n      pop\n        /* \"#utility.yul\":3443:3560   */\n      pop\n        /* \"#utility.yul\":3599:3601   */\n      0x20\n        /* \"#utility.yul\":3625:3678   */\n      tag_329\n        /* \"#utility.yul\":3670:3677   */\n      dup10\n        /* \"#utility.yul\":3661:3667   */\n      dup3\n        /* \"#utility.yul\":3650:3659   */\n      dup11\n        /* \"#utility.yul\":3646:3668   */\n      add\n        /* \"#utility.yul\":3625:3678   */\n      tag_223\n      jump\t// in\n    tag_329:\n        /* \"#utility.yul\":3615:3678   */\n      swap6\n      pop\n        /* \"#utility.yul\":3570:3688   */\n      pop\n        /* \"#utility.yul\":3755:3757   */\n      0x40\n        /* \"#utility.yul\":3744:3753   */\n      dup8\n        /* \"#utility.yul\":3740:3758   */\n      add\n        /* \"#utility.yul\":3727:3759   */\n      calldataload\n        /* \"#utility.yul\":3786:3804   */\n      0xffffffffffffffff\n        /* \"#utility.yul\":3778:3784   */\n      dup2\n        /* \"#utility.yul\":3775:3805   */\n      gt\n        /* \"#utility.yul\":3772:3889   */\n      iszero\n      tag_330\n      jumpi\n        /* \"#utility.yul\":3808:3887   */\n      tag_331\n      tag_220\n      jump\t// in\n    tag_331:\n        /* \"#utility.yul\":3772:3889   */\n    tag_330:\n        /* \"#utility.yul\":3921:4001   */\n      tag_332\n        /* \"#utility.yul\":3993:4000   */\n      dup10\n        /* \"#utility.yul\":3984:3990   */\n      dup3\n        /* \"#utility.yul\":3973:3982   */\n      dup11\n        /* \"#utility.yul\":3969:3991   */\n      add\n        /* \"#utility.yul\":3921:4001   */\n      tag_228\n      jump\t// in\n    tag_332:\n        /* \"#utility.yul\":3903:4001   */\n      swap5\n      pop\n      swap5\n      pop\n        /* \"#utility.yul\":3698:4011   */\n      pop\n        /* \"#utility.yul\":4050:4052   */\n      0x60\n        /* \"#utility.yul\":4076:4129   */\n      tag_333\n        /* \"#utility.yul\":4121:4128   */\n      dup10\n        /* \"#utility.yul\":4112:4118   */\n      dup3\n        /* \"#utility.yul\":4101:4110   */\n      dup11\n        /* \"#utility.yul\":4097:4119   */\n      add\n        /* \"#utility.yul\":4076:4129   */\n      tag_232\n      jump\t// in\n    tag_333:\n        /* \"#utility.yul\":4066:4129   */\n      swap3\n      pop\n        /* \"#utility.yul\":4021:4139   */\n      pop\n        /* \"#utility.yul\":4178:4181   */\n      0x80\n        /* \"#utility.yul\":4205:4258   */\n      tag_334\n        /* \"#utility.yul\":4250:4257   */\n      dup10\n        /* \"#utility.yul\":4241:4247   */\n      dup3\n        /* \"#utility.yul\":4230:4239   */\n      dup11\n        /* \"#utility.yul\":4226:4248   */\n      add\n        /* \"#utility.yul\":4205:4258   */\n      tag_223\n      jump\t// in\n    tag_334:\n        /* \"#utility.yul\":4195:4258   */\n      swap2\n      pop\n        /* \"#utility.yul\":4149:4268   */\n      pop\n        /* \"#utility.yul\":3134:4275   */\n      swap3\n      swap6\n      pop\n      swap3\n      swap6\n      pop\n      swap3\n      swap6\n      jump\t// out\n        /* \"#utility.yul\":4281:4395   */\n    tag_233:\n        /* \"#utility.yul\":4348:4354   */\n      0x00\n        /* \"#utility.yul\":4382:4387   */\n      dup2\n        /* \"#utility.yul\":4376:4388   */\n      mload\n        /* \"#utility.yul\":4366:4388   */\n      swap1\n      pop\n        /* \"#utility.yul\":4281:4395   */\n      swap2\n      swap1\n      pop\n      jump\t// out\n        /* \"#utility.yul\":4401:4585   */\n    tag_234:\n        /* \"#utility.yul\":4500:4511   */\n      0x00\n        /* \"#utility.yul\":4534:4540   */\n      dup3\n        /* \"#utility.yul\":4529:4532   */\n      dup3\n        /* \"#utility.yul\":4522:4541   */\n      mstore\n        /* \"#utility.yul\":4574:4578   */\n      0x20\n        /* \"#utility.yul\":4569:4572   */\n      dup3\n        /* \"#utility.yul\":4565:4579   */\n      add\n        /* \"#utility.yul\":4550:4579   */\n      swap1\n      pop\n        /* \"#utility.yul\":4401:4585   */\n      swap3\n      swap2\n      pop\n      pop\n      jump\t// out\n        /* \"#utility.yul\":4591:4723   */\n    tag_235:\n        /* \"#utility.yul\":4658:4662   */\n      0x00\n        /* \"#utility.yul\":4681:4684   */\n      dup2\n        /* \"#utility.yul\":4673:4684   */\n      swap1\n      pop\n        /* \"#utility.yul\":4711:4715   */\n      0x20\n        /* \"#utility.yul\":4706:4709   */\n      dup3\n        /* \"#utility.yul\":4702:4716   */\n      add\n        /* \"#utility.yul\":4694:4716   */\n      swap1\n      pop\n        /* \"#utility.yul\":4591:4723   */\n      swap2\n      swap1\n      pop\n      jump\t// out\n        /* \"#utility.yul\":4729:4837   */\n    tag_236:\n        /* \"#utility.yul\":4806:4830   */\n      tag_339\n        /* \"#utility.yul\":4824:4829   */\n      dup2\n        /* \"#utility.yul\":4806:4830   */\n      tag_221\n      jump\t// in\n    tag_339:\n        /* \"#utility.yul\":4801:4804   */\n      dup3\n        /* \"#utility.yul\":4794:4831   */\n      mstore\n        /* \"#utility.yul\":4729:4837   */\n      pop\n      pop\n      jump\t// out\n        /* \"#utility.yul\":4843:5022   */\n    tag_237:\n        /* \"#utility.yul\":4912:4922   */\n      0x00\n        /* \"#utility.yul\":4933:4979   */\n      tag_341\n        /* \"#utility.yul\":4975:4978   */\n      dup4\n        /* \"#utility.yul\":4967:4973   */\n      dup4\n        /* \"#utility.yul\":4933:4979   */\n      tag_236\n      jump\t// in\n    tag_341:\n        /* \"#utility.yul\":5011:5015   */\n      0x20\n        /* \"#utility.yul\":5006:5009   */\n      dup4\n        /* \"#utility.yul\":5002:5016   */\n      add\n        /* \"#utility.yul\":4988:5016   */\n      swap1\n      pop\n        /* \"#utility.yul\":4843:5022   */\n      swap3\n      swap2\n      pop\n      pop\n      jump\t// out\n        /* \"#utility.yul\":5028:5141   */\n    tag_238:\n        /* \"#utility.yul\":5098:5102   */\n      0x00\n        /* \"#utility.yul\":5130:5134   */\n      0x20\n        /* \"#utility.yul\":5125:5128   */\n      dup3\n        /* \"#utility.yul\":5121:5135   */\n      add\n        /* \"#utility.yul\":5113:5135   */\n      swap1\n      pop\n        /* \"#utility.yul\":5028:5141   */\n      swap2\n      swap1\n      pop\n      jump\t// out\n        /* \"#utility.yul\":5177:5909   */\n    tag_239:\n        /* \"#utility.yul\":5296:5299   */\n      0x00\n        /* \"#utility.yul\":5325:5379   */\n      tag_344\n        /* \"#utility.yul\":5373:5378   */\n      dup3\n        /* \"#utility.yul\":5325:5379   */\n      tag_233\n      jump\t// in\n    tag_344:\n        /* \"#utility.yul\":5395:5481   */\n      tag_345\n        /* \"#utility.yul\":5474:5480   */\n      dup2\n        /* \"#utility.yul\":5469:5472   */\n      dup6\n        /* \"#utility.yul\":5395:5481   */\n      tag_234\n      jump\t// in\n    tag_345:\n        /* \"#utility.yul\":5388:5481   */\n      swap4\n      pop\n        /* \"#utility.yul\":5505:5561   */\n      tag_346\n        /* \"#utility.yul\":5555:5560   */\n      dup4\n        /* \"#utility.yul\":5505:5561   */\n      tag_235\n      jump\t// in\n    tag_346:\n        /* \"#utility.yul\":5584:5591   */\n      dup1\n        /* \"#utility.yul\":5615:5616   */\n      0x00\n        /* \"#utility.yul\":5600:5884   */\n    tag_347:\n        /* \"#utility.yul\":5625:5631   */\n      dup4\n        /* \"#utility.yul\":5622:5623   */\n      dup2\n        /* \"#utility.yul\":5619:5632   */\n      lt\n        /* \"#utility.yul\":5600:5884   */\n      iszero\n      tag_349\n      jumpi\n        /* \"#utility.yul\":5701:5707   */\n      dup2\n        /* \"#utility.yul\":5695:5708   */\n      mload\n        /* \"#utility.yul\":5728:5791   */\n      tag_350\n        /* \"#utility.yul\":5787:5790   */\n      dup9\n        /* \"#utility.yul\":5772:5785   */\n      dup3\n        /* \"#utility.yul\":5728:5791   */\n      tag_237\n      jump\t// in\n    tag_350:\n        /* \"#utility.yul\":5721:5791   */\n      swap8\n      pop\n        /* \"#utility.yul\":5814:5874   */\n      tag_351\n        /* \"#utility.yul\":5867:5873   */\n      dup4\n        /* \"#utility.yul\":5814:5874   */\n      tag_238\n      jump\t// in\n    tag_351:\n        /* \"#utility.yul\":5804:5874   */\n      swap3\n      pop\n        /* \"#utility.yul\":5660:5884   */\n      pop\n        /* \"#utility.yul\":5647:5648   */\n      0x01\n        /* \"#utility.yul\":5644:5645   */\n      dup2\n        /* \"#utility.yul\":5640:5649   */\n      add\n        /* \"#utility.yul\":5635:5649   */\n      swap1\n      pop\n        /* \"#utility.yul\":5600:5884   */\n      jump(tag_347)\n    tag_349:\n        /* \"#utility.yul\":5604:5618   */\n      pop\n        /* \"#utility.yul\":5900:5903   */\n      dup6\n        /* \"#utility.yul\":5893:5903   */\n      swap4\n      pop\n        /* \"#utility.yul\":5301:5909   */\n      pop\n      pop\n      pop\n        /* \"#utility.yul\":5177:5909   */\n      swap3\n      swap2\n      pop\n      pop\n      jump\t// out\n        /* \"#utility.yul\":5915:6288   */\n    tag_20:\n        /* \"#utility.yul\":6058:6062   */\n      0x00\n        /* \"#utility.yul\":6096:6098   */\n      0x20\n        /* \"#utility.yul\":6085:6094   */\n      dup3\n        /* \"#utility.yul\":6081:6099   */\n      add\n        /* \"#utility.yul\":6073:6099   */\n      swap1\n      pop\n        /* \"#utility.yul\":6145:6154   */\n      dup2\n        /* \"#utility.yul\":6139:6143   */\n      dup2\n        /* \"#utility.yul\":6135:6155   */\n      sub\n        /* \"#utility.yul\":6131:6132   */\n      0x00\n        /* \"#utility.yul\":6120:6129   */\n      dup4\n        /* \"#utility.yul\":6116:6133   */\n      add\n        /* \"#utility.yul\":6109:6156   */\n      mstore\n        /* \"#utility.yul\":6173:6281   */\n      tag_353\n        /* \"#utility.yul\":6276:6280   */\n      dup2\n        /* \"#utility.yul\":6267:6273   */\n      dup5\n        /* \"#utility.yul\":6173:6281   */\n      tag_239\n      jump\t// in\n    tag_353:\n        /* \"#utility.yul\":6165:6281   */\n      swap1\n      pop\n        /* \"#utility.yul\":5915:6288   */\n      swap3\n      swap2\n      pop\n      pop\n      jump\t// out\n        /* \"#utility.yul\":6294:6768   */\n    tag_23:\n        /* \"#utility.yul\":6362:6368   */\n      0x00\n        /* \"#utility.yul\":6370:6376   */\n      0x00\n        /* \"#utility.yul\":6419:6421   */\n      0x40\n        /* \"#utility.yul\":6407:6416   */\n      dup4\n        /* \"#utility.yul\":6398:6405   */\n      dup6\n        /* \"#utility.yul\":6394:6417   */\n      sub\n        /* \"#utility.yul\":6390:6422   */\n      slt\n        /* \"#utility.yul\":6387:6506   */\n      iszero\n      tag_355\n      jumpi\n        /* \"#utility.yul\":6425:6504   */\n      tag_356\n      tag_219\n      jump\t// in\n    tag_356:\n        /* \"#utility.yul\":6387:6506   */\n    tag_355:\n        /* \"#utility.yul\":6545:6546   */\n      0x00\n        /* \"#utility.yul\":6570:6623   */\n      tag_357\n        /* \"#utility.yul\":6615:6622   */\n      dup6\n        /* \"#utility.yul\":6606:6612   */\n      dup3\n        /* \"#utility.yul\":6595:6604   */\n      dup7\n        /* \"#utility.yul\":6591:6613   */\n      add\n        /* \"#utility.yul\":6570:6623   */\n      tag_232\n      jump\t// in\n    tag_357:\n        /* \"#utility.yul\":6560:6623   */\n      swap3\n      pop\n        /* \"#utility.yul\":6516:6633   */\n      pop\n        /* \"#utility.yul\":6672:6674   */\n      0x20\n        /* \"#utility.yul\":6698:6751   */\n      tag_358\n        /* \"#utility.yul\":6743:6750   */\n      dup6\n        /* \"#utility.yul\":6734:6740   */\n      dup3\n        /* \"#utility.yul\":6723:6732   */\n      dup7\n        /* \"#utility.yul\":6719:6741   */\n      add\n        /* \"#utility.yul\":6698:6751   */\n      tag_232\n      jump\t// in\n    tag_358:\n        /* \"#utility.yul\":6688:6751   */\n      swap2\n      pop\n        /* \"#utility.yul\":6643:6761   */\n      pop\n        /* \"#utility.yul\":6294:6768   */\n      swap3\n      pop\n      swap3\n      swap1\n      pop\n      jump\t// out\n        /* \"#utility.yul\":6774:6834   */\n    tag_240:\n        /* \"#utility.yul\":6802:6805   */\n      0x00\n        /* \"#utility.yul\":6823:6828   */\n      dup2\n        /* \"#utility.yul\":6816:6828   */\n      swap1\n      pop\n        /* \"#utility.yul\":6774:6834   */\n      swap2\n      swap1\n      pop\n      jump\t// out\n        /* \"#utility.yul\":6840:6982   */\n    tag_241:\n        /* \"#utility.yul\":6890:6899   */\n      0x00\n        /* \"#utility.yul\":6923:6976   */\n      tag_361\n        /* \"#utility.yul\":6941:6975   */\n      tag_362\n        /* \"#utility.yul\":6950:6974   */\n      tag_363\n        /* \"#utility.yul\":6968:6973   */\n      dup5\n        /* \"#utility.yul\":6950:6974   */\n      tag_229\n      jump\t// in\n    tag_363:\n        /* \"#utility.yul\":6941:6975   */\n      tag_240\n      jump\t// in\n    tag_362:\n        /* \"#utility.yul\":6923:6976   */\n      tag_229\n      jump\t// in\n    tag_361:\n        /* \"#utility.yul\":6910:6976   */\n      swap1\n      pop\n        /* \"#utility.yul\":6840:6982   */\n      swap2\n      swap1\n      pop\n      jump\t// out\n        /* \"#utility.yul\":6988:7114   */\n    tag_242:\n        /* \"#utility.yul\":7038:7047   */\n      0x00\n        /* \"#utility.yul\":7071:7108   */\n      tag_365\n        /* \"#utility.yul\":7102:7107   */\n      dup3\n        /* \"#utility.yul\":7071:7108   */\n      tag_241\n      jump\t// in\n    tag_365:\n        /* \"#utility.yul\":7058:7108   */\n      swap1\n      pop\n        /* \"#utility.yul\":6988:7114   */\n      swap2\n      swap1\n      pop\n      jump\t// out\n        /* \"#utility.yul\":7120:7268   */\n    tag_243:\n        /* \"#utility.yul\":7192:7201   */\n      0x00\n        /* \"#utility.yul\":7225:7262   */\n      tag_367\n        /* \"#utility.yul\":7256:7261   */\n      dup3\n        /* \"#utility.yul\":7225:7262   */\n      tag_242\n      jump\t// in\n    tag_367:\n        /* \"#utility.yul\":7212:7262   */\n      swap1\n      pop\n        /* \"#utility.yul\":7120:7268   */\n      swap2\n      swap1\n      pop\n      jump\t// out\n        /* \"#utility.yul\":7274:7449   */\n    tag_244:\n        /* \"#utility.yul\":7383:7442   */\n      tag_369\n        /* \"#utility.yul\":7436:7441   */\n      dup2\n        /* \"#utility.yul\":7383:7442   */\n      tag_243\n      jump\t// in\n    tag_369:\n        /* \"#utility.yul\":7378:7381   */\n      dup3\n        /* \"#utility.yul\":7371:7443   */\n      mstore\n        /* \"#utility.yul\":7274:7449   */\n      pop\n      pop\n      jump\t// out\n        /* \"#utility.yul\":7455:7941   */\n    tag_26:\n        /* \"#utility.yul\":7626:7630   */\n      0x00\n        /* \"#utility.yul\":7664:7666   */\n      0x60\n        /* \"#utility.yul\":7653:7662   */\n      dup3\n        /* \"#utility.yul\":7649:7667   */\n      add\n        /* \"#utility.yul\":7641:7667   */\n      swap1\n      pop\n        /* \"#utility.yul\":7677:7748   */\n      tag_371\n        /* \"#utility.yul\":7745:7746   */\n      0x00\n        /* \"#utility.yul\":7734:7743   */\n      dup4\n        /* \"#utility.yul\":7730:7747   */\n      add\n        /* \"#utility.yul\":7721:7727   */\n      dup7\n        /* \"#utility.yul\":7677:7748   */\n      tag_224\n      jump\t// in\n    tag_371:\n        /* \"#utility.yul\":7758:7830   */\n      tag_372\n        /* \"#utility.yul\":7826:7828   */\n      0x20\n        /* \"#utility.yul\":7815:7824   */\n      dup4\n        /* \"#utility.yul\":7811:7829   */\n      add\n        /* \"#utility.yul\":7802:7808   */\n      dup6\n        /* \"#utility.yul\":7758:7830   */\n      tag_224\n      jump\t// in\n    tag_372:\n        /* \"#utility.yul\":7840:7934   */\n      tag_373\n        /* \"#utility.yul\":7930:7932   */\n      0x40\n        /* \"#utility.yul\":7919:7928   */\n      dup4\n        /* \"#utility.yul\":7915:7933   */\n      add\n        /* \"#utility.yul\":7906:7912   */\n      dup5\n        /* \"#utility.yul\":7840:7934   */\n      tag_244\n      jump\t// in\n    tag_373:\n        /* \"#utility.yul\":7455:7941   */\n      swap5\n      swap4\n      pop\n      pop\n      pop\n      pop\n      jump\t// out\n        /* \"#utility.yul\":7947:9150   */\n    tag_33:\n        /* \"#utility.yul\":8060:8066   */\n      0x00\n        /* \"#utility.yul\":8068:8074   */\n      0x00\n        /* \"#utility.yul\":8076:8082   */\n      0x00\n        /* \"#utility.yul\":8084:8090   */\n      0x00\n        /* \"#utility.yul\":8092:8098   */\n      0x00\n        /* \"#utility.yul\":8100:8106   */\n      0x00\n        /* \"#utility.yul\":8108:8114   */\n      0x00\n        /* \"#utility.yul\":8157:8160   */\n      0xe0\n        /* \"#utility.yul\":8145:8154   */\n      dup9\n        /* \"#utility.yul\":8136:8143   */\n      dup11\n        /* \"#utility.yul\":8132:8155   */\n      sub\n        /* \"#utility.yul\":8128:8161   */\n      slt\n        /* \"#utility.yul\":8125:8245   */\n      iszero\n      tag_375\n      jumpi\n        /* \"#utility.yul\":8164:8243   */\n      tag_376\n      tag_219\n      jump\t// in\n    tag_376:\n        /* \"#utility.yul\":8125:8245   */\n    tag_375:\n        /* \"#utility.yul\":8284:8285   */\n      0x00\n        /* \"#utility.yul\":8309:8362   */\n      tag_377\n        /* \"#utility.yul\":8354:8361   */\n      dup11\n        /* \"#utility.yul\":8345:8351   */\n      dup3\n        /* \"#utility.yul\":8334:8343   */\n      dup12\n        /* \"#utility.yul\":8330:8352   */\n      add\n        /* \"#utility.yul\":8309:8362   */\n      tag_232\n      jump\t// in\n    tag_377:\n        /* \"#utility.yul\":8299:8362   */\n      swap8\n      pop\n        /* \"#utility.yul\":8255:8372   */\n      pop\n        /* \"#utility.yul\":8411:8413   */\n      0x20\n        /* \"#utility.yul\":8437:8490   */\n      tag_378\n        /* \"#utility.yul\":8482:8489   */\n      dup11\n        /* \"#utility.yul\":8473:8479   */\n      dup3\n        /* \"#utility.yul\":8462:8471   */\n      dup12\n        /* \"#utility.yul\":8458:8480   */\n      add\n        /* \"#utility.yul\":8437:8490   */\n      tag_232\n      jump\t// in\n    tag_378:\n        /* \"#utility.yul\":8427:8490   */\n      swap7\n      pop\n        /* \"#utility.yul\":8382:8500   */\n      pop\n        /* \"#utility.yul\":8539:8541   */\n      0x40\n        /* \"#utility.yul\":8565:8618   */\n      tag_379\n        /* \"#utility.yul\":8610:8617   */\n      dup11\n        /* \"#utility.yul\":8601:8607   */\n      dup3\n        /* \"#utility.yul\":8590:8599   */\n      dup12\n        /* \"#utility.yul\":8586:8608   */\n      add\n        /* \"#utility.yul\":8565:8618   */\n      tag_223\n      jump\t// in\n    tag_379:\n        /* \"#utility.yul\":8555:8618   */\n      swap6\n      pop\n        /* \"#utility.yul\":8510:8628   */\n      pop\n        /* \"#utility.yul\":8667:8669   */\n      0x60\n        /* \"#utility.yul\":8693:8746   */\n      tag_380\n        /* \"#utility.yul\":8738:8745   */\n      dup11\n        /* \"#utility.yul\":8729:8735   */\n      dup3\n        /* \"#utility.yul\":8718:8727   */\n      dup12\n        /* \"#utility.yul\":8714:8736   */\n      add\n        /* \"#utility.yul\":8693:8746   */\n      tag_223\n      jump\t// in\n    tag_380:\n        /* \"#utility.yul\":8683:8746   */\n      swap5\n      pop\n        /* \"#utility.yul\":8638:8756   */\n      pop\n        /* \"#utility.yul\":8795:8798   */\n      0x80\n        /* \"#utility.yul\":8822:8875   */\n      tag_381\n        /* \"#utility.yul\":8867:8874   */\n      dup11\n        /* \"#utility.yul\":8858:8864   */\n      dup3\n        /* \"#utility.yul\":8847:8856   */\n      dup12\n        /* \"#utility.yul\":8843:8865   */\n      add\n        /* \"#utility.yul\":8822:8875   */\n      tag_223\n      jump\t// in\n    tag_381:\n        /* \"#utility.yul\":8812:8875   */\n      swap4\n      pop\n        /* \"#utility.yul\":8766:8885   */\n      pop\n        /* \"#utility.yul\":8924:8927   */\n      0xa0\n        /* \"#utility.yul\":8951:9004   */\n      tag_382\n        /* \"#utility.yul\":8996:9003   */\n      dup11\n        /* \"#utility.yul\":8987:8993   */\n      dup3\n        /* \"#utility.yul\":8976:8985   */\n      dup12\n        /* \"#utility.yul\":8972:8994   */\n      add\n        /* \"#utility.yul\":8951:9004   */\n      tag_232\n      jump\t// in\n    tag_382:\n        /* \"#utility.yul\":8941:9004   */\n      swap3\n      pop\n        /* \"#utility.yul\":8895:9014   */\n      pop\n        /* \"#utility.yul\":9053:9056   */\n      0xc0\n        /* \"#utility.yul\":9080:9133   */\n      tag_383\n        /* \"#utility.yul\":9125:9132   */\n      dup11\n        /* \"#utility.yul\":9116:9122   */\n      dup3\n        /* \"#utility.yul\":9105:9114   */\n      dup12\n        /* \"#utility.yul\":9101:9123   */\n      add\n        /* \"#utility.yul\":9080:9133   */\n      tag_223\n      jump\t// in\n    tag_383:\n        /* \"#utility.yul\":9070:9133   */\n      swap2\n      pop\n        /* \"#utility.yul\":9024:9143   */\n      pop\n        /* \"#utility.yul\":7947:9150   */\n      swap3\n      swap6\n      swap9\n      swap2\n      swap5\n      swap8\n      pop\n      swap3\n      swap6\n      pop\n      jump\t// out\n        /* \"#utility.yul\":9156:9488   */\n    tag_36:\n        /* \"#utility.yul\":9277:9281   */\n      0x00\n        /* \"#utility.yul\":9315:9317   */\n      0x40\n        /* \"#utility.yul\":9304:9313   */\n      dup3\n        /* \"#utility.yul\":9300:9318   */\n      add\n        /* \"#utility.yul\":9292:9318   */\n      swap1\n      pop\n        /* \"#utility.yul\":9328:9399   */\n      tag_385\n        /* \"#utility.yul\":9396:9397   */\n      0x00\n        /* \"#utility.yul\":9385:9394   */\n      dup4\n        /* \"#utility.yul\":9381:9398   */\n      add\n        /* \"#utility.yul\":9372:9378   */\n      dup6\n        /* \"#utility.yul\":9328:9399   */\n      tag_224\n      jump\t// in\n    tag_385:\n        /* \"#utility.yul\":9409:9481   */\n      tag_386\n        /* \"#utility.yul\":9477:9479   */\n      0x20\n        /* \"#utility.yul\":9466:9475   */\n      dup4\n        /* \"#utility.yul\":9462:9480   */\n      add\n        /* \"#utility.yul\":9453:9459   */\n      dup5\n        /* \"#utility.yul\":9409:9481   */\n      tag_224\n      jump\t// in\n    tag_386:\n        /* \"#utility.yul\":9156:9488   */\n      swap4\n      swap3\n      pop\n      pop\n      pop\n      jump\t// out\n        /* \"#utility.yul\":9494:10843   */\n    tag_39:\n        /* \"#utility.yul\":9616:9622   */\n      0x00\n        /* \"#utility.yul\":9624:9630   */\n      0x00\n        /* \"#utility.yul\":9632:9638   */\n      0x00\n        /* \"#utility.yul\":9640:9646   */\n      0x00\n        /* \"#utility.yul\":9648:9654   */\n      0x00\n        /* \"#utility.yul\":9656:9662   */\n      0x00\n        /* \"#utility.yul\":9664:9670   */\n      0x00\n        /* \"#utility.yul\":9672:9678   */\n      0x00\n        /* \"#utility.yul\":9721:9724   */\n      0x0100\n        /* \"#utility.yul\":9709:9718   */\n      dup10\n        /* \"#utility.yul\":9700:9707   */\n      dup12\n        /* \"#utility.yul\":9696:9719   */\n      sub\n        /* \"#utility.yul\":9692:9725   */\n      slt\n        /* \"#utility.yul\":9689:9809   */\n      iszero\n      tag_388\n      jumpi\n        /* \"#utility.yul\":9728:9807   */\n      tag_389\n      tag_219\n      jump\t// in\n    tag_389:\n        /* \"#utility.yul\":9689:9809   */\n    tag_388:\n        /* \"#utility.yul\":9848:9849   */\n      0x00\n        /* \"#utility.yul\":9873:9926   */\n      tag_390\n        /* \"#utility.yul\":9918:9925   */\n      dup12\n        /* \"#utility.yul\":9909:9915   */\n      dup3\n        /* \"#utility.yul\":9898:9907   */\n      dup13\n        /* \"#utility.yul\":9894:9916   */\n      add\n        /* \"#utility.yul\":9873:9926   */\n      tag_232\n      jump\t// in\n    tag_390:\n        /* \"#utility.yul\":9863:9926   */\n      swap9\n      pop\n        /* \"#utility.yul\":9819:9936   */\n      pop\n        /* \"#utility.yul\":9975:9977   */\n      0x20\n        /* \"#utility.yul\":10001:10054   */\n      tag_391\n        /* \"#utility.yul\":10046:10053   */\n      dup12\n        /* \"#utility.yul\":10037:10043   */\n      dup3\n        /* \"#utility.yul\":10026:10035   */\n      dup13\n        /* \"#utility.yul\":10022:10044   */\n      add\n        /* \"#utility.yul\":10001:10054   */\n      tag_232\n      jump\t// in\n    tag_391:\n        /* \"#utility.yul\":9991:10054   */\n      swap8\n      pop\n        /* \"#utility.yul\":9946:10064   */\n      pop\n        /* \"#utility.yul\":10103:10105   */\n      0x40\n        /* \"#utility.yul\":10129:10182   */\n      tag_392\n        /* \"#utility.yul\":10174:10181   */\n      dup12\n        /* \"#utility.yul\":10165:10171   */\n      dup3\n        /* \"#utility.yul\":10154:10163   */\n      dup13\n        /* \"#utility.yul\":10150:10172   */\n      add\n        /* \"#utility.yul\":10129:10182   */\n      tag_223\n      jump\t// in\n    tag_392:\n        /* \"#utility.yul\":10119:10182   */\n      swap7\n      pop\n        /* \"#utility.yul\":10074:10192   */\n      pop\n        /* \"#utility.yul\":10231:10233   */\n      0x60\n        /* \"#utility.yul\":10257:10310   */\n      tag_393\n        /* \"#utility.yul\":10302:10309   */\n      dup12\n        /* \"#utility.yul\":10293:10299   */\n      dup3\n        /* \"#utility.yul\":10282:10291   */\n      dup13\n        /* \"#utility.yul\":10278:10300   */\n      add\n        /* \"#utility.yul\":10257:10310   */\n      tag_223\n      jump\t// in\n    tag_393:\n        /* \"#utility.yul\":10247:10310   */\n      swap6\n      pop\n        /* \"#utility.yul\":10202:10320   */\n      pop\n        /* \"#utility.yul\":10359:10362   */\n      0x80\n        /* \"#utility.yul\":10386:10439   */\n      tag_394\n        /* \"#utility.yul\":10431:10438   */\n      dup12\n        /* \"#utility.yul\":10422:10428   */\n      dup3\n        /* \"#utility.yul\":10411:10420   */\n      dup13\n        /* \"#utility.yul\":10407:10429   */\n      add\n        /* \"#utility.yul\":10386:10439   */\n      tag_223\n      jump\t// in\n    tag_394:\n        /* \"#utility.yul\":10376:10439   */\n      swap5\n      pop\n        /* \"#utility.yul\":10330:10449   */\n      pop\n        /* \"#utility.yul\":10488:10491   */\n      0xa0\n        /* \"#utility.yul\":10515:10568   */\n      tag_395\n        /* \"#utility.yul\":10560:10567   */\n      dup12\n        /* \"#utility.yul\":10551:10557   */\n      dup3\n        /* \"#utility.yul\":10540:10549   */\n      dup13\n        /* \"#utility.yul\":10536:10558   */\n      add\n        /* \"#utility.yul\":10515:10568   */\n      tag_223\n      jump\t// in\n    tag_395:\n        /* \"#utility.yul\":10505:10568   */\n      swap4\n      pop\n        /* \"#utility.yul\":10459:10578   */\n      pop\n        /* \"#utility.yul\":10617:10620   */\n      0xc0\n        /* \"#utility.yul\":10644:10697   */\n      tag_396\n        /* \"#utility.yul\":10689:10696   */\n      dup12\n        /* \"#utility.yul\":10680:10686   */\n      dup3\n        /* \"#utility.yul\":10669:10678   */\n      dup13\n        /* \"#utility.yul\":10665:10687   */\n      add\n        /* \"#utility.yul\":10644:10697   */\n      tag_232\n      jump\t// in\n    tag_396:\n        /* \"#utility.yul\":10634:10697   */\n      swap3\n      pop\n        /* \"#utility.yul\":10588:10707   */\n      pop\n        /* \"#utility.yul\":10746:10749   */\n      0xe0\n        /* \"#utility.yul\":10773:10826   */\n      tag_397\n        /* \"#utility.yul\":10818:10825   */\n      dup12\n        /* \"#utility.yul\":10809:10815   */\n      dup3\n        /* \"#utility.yul\":10798:10807   */\n      dup13\n        /* \"#utility.yul\":10794:10816   */\n      add\n        /* \"#utility.yul\":10773:10826   */\n      tag_223\n      jump\t// in\n    tag_397:\n        /* \"#utility.yul\":10763:10826   */\n      swap2\n      pop\n        /* \"#utility.yul\":10717:10836   */\n      pop\n        /* \"#utility.yul\":9494:10843   */\n      swap3\n      swap6\n      swap9\n      pop\n      swap3\n      swap6\n      swap9\n      swap1\n      swap4\n      swap7\n      pop\n      jump\t// out\n        /* \"#utility.yul\":10849:11291   */\n    tag_42:\n        /* \"#utility.yul\":10998:11002   */\n      0x00\n        /* \"#utility.yul\":11036:11038   */\n      0x60\n        /* \"#utility.yul\":11025:11034   */\n      dup3\n        /* \"#utility.yul\":11021:11039   */\n      add\n        /* \"#utility.yul\":11013:11039   */\n      swap1\n      pop\n        /* \"#utility.yul\":11049:11120   */\n      tag_399\n        /* \"#utility.yul\":11117:11118   */\n      0x00\n        /* \"#utility.yul\":11106:11115   */\n      dup4\n        /* \"#utility.yul\":11102:11119   */\n      add\n        /* \"#utility.yul\":11093:11099   */\n      dup7\n        /* \"#utility.yul\":11049:11120   */\n      tag_224\n      jump\t// in\n    tag_399:\n        /* \"#utility.yul\":11130:11202   */\n      tag_400\n        /* \"#utility.yul\":11198:11200   */\n      0x20\n        /* \"#utility.yul\":11187:11196   */\n      dup4\n        /* \"#utility.yul\":11183:11201   */\n      add\n        /* \"#utility.yul\":11174:11180   */\n      dup6\n        /* \"#utility.yul\":11130:11202   */\n      tag_224\n      jump\t// in\n    tag_400:\n        /* \"#utility.yul\":11212:11284   */\n      tag_401\n        /* \"#utility.yul\":11280:11282   */\n      0x40\n        /* \"#utility.yul\":11269:11278   */\n      dup4\n        /* \"#utility.yul\":11265:11283   */\n      add\n        /* \"#utility.yul\":11256:11262   */\n      dup5\n        /* \"#utility.yul\":11212:11284   */\n      tag_224\n      jump\t// in\n    tag_401:\n        /* \"#utility.yul\":10849:11291   */\n      swap5\n      swap4\n      pop\n      pop\n      pop\n      pop\n      jump\t// out\n        /* \"#utility.yul\":11297:11466   */\n    tag_245:\n        /* \"#utility.yul\":11381:11392   */\n      0x00\n        /* \"#utility.yul\":11415:11421   */\n      dup3\n        /* \"#utility.yul\":11410:11413   */\n      dup3\n        /* \"#utility.yul\":11403:11422   */\n      mstore\n        /* \"#utility.yul\":11455:11459   */\n      0x20\n        /* \"#utility.yul\":11450:11453   */\n      dup3\n        /* \"#utility.yul\":11446:11460   */\n      add\n        /* \"#utility.yul\":11431:11460   */\n      swap1\n      pop\n        /* \"#utility.yul\":11297:11466   */\n      swap3\n      swap2\n      pop\n      pop\n      jump\t// out\n        /* \"#utility.yul\":11472:11643   */\n    tag_246:\n        /* \"#utility.yul\":11612:11635   */\n      0x416d6f756e7420696e206d757374206265203e20300000000000000000000000\n        /* \"#utility.yul\":11608:11609   */\n      0x00\n        /* \"#utility.yul\":11600:11606   */\n      dup3\n        /* \"#utility.yul\":11596:11610   */\n      add\n        /* \"#utility.yul\":11589:11636   */\n      mstore\n        /* \"#utility.yul\":11472:11643   */\n      pop\n      jump\t// out\n        /* \"#utility.yul\":11649:12015   */\n    tag_247:\n        /* \"#utility.yul\":11791:11794   */\n      0x00\n        /* \"#utility.yul\":11812:11879   */\n      tag_405\n        /* \"#utility.yul\":11876:11878   */\n      0x15\n        /* \"#utility.yul\":11871:11874   */\n      dup4\n        /* \"#utility.yul\":11812:11879   */\n      tag_245\n      jump\t// in\n    tag_405:\n        /* \"#utility.yul\":11805:11879   */\n      swap2\n      pop\n        /* \"#utility.yul\":11888:11981   */\n      tag_406\n        /* \"#utility.yul\":11977:11980   */\n      dup3\n        /* \"#utility.yul\":11888:11981   */\n      tag_246\n      jump\t// in\n    tag_406:\n        /* \"#utility.yul\":12006:12008   */\n      0x20\n        /* \"#utility.yul\":12001:12004   */\n      dup3\n        /* \"#utility.yul\":11997:12009   */\n      add\n        /* \"#utility.yul\":11990:12009   */\n      swap1\n      pop\n        /* \"#utility.yul\":11649:12015   */\n      swap2\n      swap1\n      pop\n      jump\t// out\n        /* \"#utility.yul\":12021:12440   */\n    tag_46:\n        /* \"#utility.yul\":12187:12191   */\n      0x00\n        /* \"#utility.yul\":12225:12227   */\n      0x20\n        /* \"#utility.yul\":12214:12223   */\n      dup3\n        /* \"#utility.yul\":12210:12228   */\n      add\n        /* \"#utility.yul\":12202:12228   */\n      swap1\n      pop\n        /* \"#utility.yul\":12274:12283   */\n      dup2\n        /* \"#utility.yul\":12268:12272   */\n      dup2\n        /* \"#utility.yul\":12264:12284   */\n      sub\n        /* \"#utility.yul\":12260:12261   */\n      0x00\n        /* \"#utility.yul\":12249:12258   */\n      dup4\n        /* \"#utility.yul\":12245:12262   */\n      add\n        /* \"#utility.yul\":12238:12285   */\n      mstore\n        /* \"#utility.yul\":12302:12433   */\n      tag_408\n        /* \"#utility.yul\":12428:12432   */\n      dup2\n        /* \"#utility.yul\":12302:12433   */\n      tag_247\n      jump\t// in\n    tag_408:\n        /* \"#utility.yul\":12294:12433   */\n      swap1\n      pop\n        /* \"#utility.yul\":12021:12440   */\n      swap2\n      swap1\n      pop\n      jump\t// out\n        /* \"#utility.yul\":12446:12612   */\n    tag_248:\n        /* \"#utility.yul\":12586:12604   */\n      0x496e76616c696420726573657276657300000000000000000000000000000000\n        /* \"#utility.yul\":12582:12583   */\n      0x00\n        /* \"#utility.yul\":12574:12580   */\n      dup3\n        /* \"#utility.yul\":12570:12584   */\n      add\n        /* \"#utility.yul\":12563:12605   */\n      mstore\n        /* \"#utility.yul\":12446:12612   */\n      pop\n      jump\t// out\n        /* \"#utility.yul\":12618:12984   */\n    tag_249:\n        /* \"#utility.yul\":12760:12763   */\n      0x00\n        /* \"#utility.yul\":12781:12848   */\n      tag_411\n        /* \"#utility.yul\":12845:12847   */\n      0x10\n        /* \"#utility.yul\":12840:12843   */\n      dup4\n        /* \"#utility.yul\":12781:12848   */\n      tag_245\n      jump\t// in\n    tag_411:\n        /* \"#utility.yul\":12774:12848   */\n      swap2\n      pop\n        /* \"#utility.yul\":12857:12950   */\n      tag_412\n        /* \"#utility.yul\":12946:12949   */\n      dup3\n        /* \"#utility.yul\":12857:12950   */\n      tag_248\n      jump\t// in\n    tag_412:\n        /* \"#utility.yul\":12975:12977   */\n      0x20\n        /* \"#utility.yul\":12970:12973   */\n      dup3\n        /* \"#utility.yul\":12966:12978   */\n      add\n        /* \"#utility.yul\":12959:12978   */\n      swap1\n      pop\n        /* \"#utility.yul\":12618:12984   */\n      swap2\n      swap1\n      pop\n      jump\t// out\n        /* \"#utility.yul\":12990:13409   */\n    tag_50:\n        /* \"#utility.yul\":13156:13160   */\n      0x00\n        /* \"#utility.yul\":13194:13196   */\n      0x20\n        /* \"#utility.yul\":13183:13192   */\n      dup3\n        /* \"#utility.yul\":13179:13197   */\n      add\n        /* \"#utility.yul\":13171:13197   */\n      swap1\n      pop\n        /* \"#utility.yul\":13243:13252   */\n      dup2\n        /* \"#utility.yul\":13237:13241   */\n      dup2\n        /* \"#utility.yul\":13233:13253   */\n      sub\n        /* \"#utility.yul\":13229:13230   */\n      0x00\n        /* \"#utility.yul\":13218:13227   */\n      dup4\n        /* \"#utility.yul\":13214:13231   */\n      add\n        /* \"#utility.yul\":13207:13254   */\n      mstore\n        /* \"#utility.yul\":13271:13402   */\n      tag_414\n        /* \"#utility.yul\":13397:13401   */\n      dup2\n        /* \"#utility.yul\":13271:13402   */\n      tag_249\n      jump\t// in\n    tag_414:\n        /* \"#utility.yul\":13263:13402   */\n      swap1\n      pop\n        /* \"#utility.yul\":12990:13409   */\n      swap2\n      swap1\n      pop\n      jump\t// out\n        /* \"#utility.yul\":13415:13595   */\n    tag_250:\n        /* \"#utility.yul\":13463:13540   */\n      0x4e487b7100000000000000000000000000000000000000000000000000000000\n        /* \"#utility.yul\":13460:13461   */\n      0x00\n        /* \"#utility.yul\":13453:13541   */\n      mstore\n        /* \"#utility.yul\":13560:13564   */\n      0x11\n        /* \"#utility.yul\":13557:13558   */\n      0x04\n        /* \"#utility.yul\":13550:13565   */\n      mstore\n        /* \"#utility.yul\":13584:13588   */\n      0x24\n        /* \"#utility.yul\":13581:13582   */\n      0x00\n        /* \"#utility.yul\":13574:13589   */\n      revert\n        /* \"#utility.yul\":13601:14011   */\n    tag_52:\n        /* \"#utility.yul\":13641:13648   */\n      0x00\n        /* \"#utility.yul\":13664:13684   */\n      tag_417\n        /* \"#utility.yul\":13682:13683   */\n      dup3\n        /* \"#utility.yul\":13664:13684   */\n      tag_221\n      jump\t// in\n    tag_417:\n        /* \"#utility.yul\":13659:13684   */\n      swap2\n      pop\n        /* \"#utility.yul\":13698:13718   */\n      tag_418\n        /* \"#utility.yul\":13716:13717   */\n      dup4\n        /* \"#utility.yul\":13698:13718   */\n      tag_221\n      jump\t// in\n    tag_418:\n        /* \"#utility.yul\":13693:13718   */\n      swap3\n      pop\n        /* \"#utility.yul\":13753:13754   */\n      dup3\n        /* \"#utility.yul\":13750:13751   */\n      dup3\n        /* \"#utility.yul\":13746:13755   */\n      mul\n        /* \"#utility.yul\":13775:13805   */\n      tag_419\n        /* \"#utility.yul\":13793:13804   */\n      dup2\n        /* \"#utility.yul\":13775:13805   */\n      tag_221\n      jump\t// in\n    tag_419:\n        /* \"#utility.yul\":13764:13805   */\n      swap2\n      pop\n        /* \"#utility.yul\":13954:13955   */\n      dup3\n        /* \"#utility.yul\":13945:13952   */\n      dup3\n        /* \"#utility.yul\":13941:13956   */\n      div\n        /* \"#utility.yul\":13938:13939   */\n      dup5\n        /* \"#utility.yul\":13935:13957   */\n      eq\n        /* \"#utility.yul\":13915:13916   */\n      dup4\n        /* \"#utility.yul\":13908:13917   */\n      iszero\n        /* \"#utility.yul\":13888:13971   */\n      or\n        /* \"#utility.yul\":13865:14004   */\n      tag_420\n      jumpi\n        /* \"#utility.yul\":13984:14002   */\n      tag_421\n      tag_250\n      jump\t// in\n    tag_421:\n        /* \"#utility.yul\":13865:14004   */\n    tag_420:\n        /* \"#utility.yul\":13649:14011   */\n      pop\n        /* \"#utility.yul\":13601:14011   */\n      swap3\n      swap2\n      pop\n      pop\n      jump\t// out\n        /* \"#utility.yul\":14017:14208   */\n    tag_56:\n        /* \"#utility.yul\":14057:14060   */\n      0x00\n        /* \"#utility.yul\":14076:14096   */\n      tag_423\n        /* \"#utility.yul\":14094:14095   */\n      dup3\n        /* \"#utility.yul\":14076:14096   */\n      tag_221\n      jump\t// in\n    tag_423:\n        /* \"#utility.yul\":14071:14096   */\n      swap2\n      pop\n        /* \"#utility.yul\":14110:14130   */\n      tag_424\n        /* \"#utility.yul\":14128:14129   */\n      dup4\n        /* \"#utility.yul\":14110:14130   */\n      tag_221\n      jump\t// in\n    tag_424:\n        /* \"#utility.yul\":14105:14130   */\n      swap3\n      pop\n        /* \"#utility.yul\":14153:14154   */\n      dup3\n        /* \"#utility.yul\":14150:14151   */\n      dup3\n        /* \"#utility.yul\":14146:14155   */\n      add\n        /* \"#utility.yul\":14139:14155   */\n      swap1\n      pop\n        /* \"#utility.yul\":14174:14177   */\n      dup1\n        /* \"#utility.yul\":14171:14172   */\n      dup3\n        /* \"#utility.yul\":14168:14178   */\n      gt\n        /* \"#utility.yul\":14165:14201   */\n      iszero\n      tag_425\n      jumpi\n        /* \"#utility.yul\":14181:14199   */\n      tag_426\n      tag_250\n      jump\t// in\n    tag_426:\n        /* \"#utility.yul\":14165:14201   */\n    tag_425:\n        /* \"#utility.yul\":14017:14208   */\n      swap3\n      swap2\n      pop\n      pop\n      jump\t// out\n        /* \"#utility.yul\":14214:14394   */\n    tag_251:\n        /* \"#utility.yul\":14262:14339   */\n      0x4e487b7100000000000000000000000000000000000000000000000000000000\n        /* \"#utility.yul\":14259:14260   */\n      0x00\n        /* \"#utility.yul\":14252:14340   */\n      mstore\n        /* \"#utility.yul\":14359:14363   */\n      0x12\n        /* \"#utility.yul\":14356:14357   */\n      0x04\n        /* \"#utility.yul\":14349:14364   */\n      mstore\n        /* \"#utility.yul\":14383:14387   */\n      0x24\n        /* \"#utility.yul\":14380:14381   */\n      0x00\n        /* \"#utility.yul\":14373:14388   */\n      revert\n        /* \"#utility.yul\":14400:14585   */\n    tag_58:\n        /* \"#utility.yul\":14440:14441   */\n      0x00\n        /* \"#utility.yul\":14457:14477   */\n      tag_429\n        /* \"#utility.yul\":14475:14476   */\n      dup3\n        /* \"#utility.yul\":14457:14477   */\n      tag_221\n      jump\t// in\n    tag_429:\n        /* \"#utility.yul\":14452:14477   */\n      swap2\n      pop\n        /* \"#utility.yul\":14491:14511   */\n      tag_430\n        /* \"#utility.yul\":14509:14510   */\n      dup4\n        /* \"#utility.yul\":14491:14511   */\n      tag_221\n      jump\t// in\n    tag_430:\n        /* \"#utility.yul\":14486:14511   */\n      swap3\n      pop\n        /* \"#utility.yul\":14530:14531   */\n      dup3\n        /* \"#utility.yul\":14520:14555   */\n      tag_431\n      jumpi\n        /* \"#utility.yul\":14535:14553   */\n      tag_432\n      tag_251\n      jump\t// in\n    tag_432:\n        /* \"#utility.yul\":14520:14555   */\n    tag_431:\n        /* \"#utility.yul\":14577:14578   */\n      dup3\n        /* \"#utility.yul\":14574:14575   */\n      dup3\n        /* \"#utility.yul\":14570:14579   */\n      div\n        /* \"#utility.yul\":14565:14579   */\n      swap1\n      pop\n        /* \"#utility.yul\":14400:14585   */\n      swap3\n      swap2\n      pop\n      pop\n      jump\t// out\n        /* \"#utility.yul\":14591:14768   */\n    tag_252:\n        /* \"#utility.yul\":14731:14760   */\n      0x4f6e6c7920322d746f6b656e207061746820737570706f727465640000000000\n        /* \"#utility.yul\":14727:14728   */\n      0x00\n        /* \"#utility.yul\":14719:14725   */\n      dup3\n        /* \"#utility.yul\":14715:14729   */\n      add\n        /* \"#utility.yul\":14708:14761   */\n      mstore\n        /* \"#utility.yul\":14591:14768   */\n      pop\n      jump\t// out\n        /* \"#utility.yul\":14774:15140   */\n    tag_253:\n        /* \"#utility.yul\":14916:14919   */\n      0x00\n        /* \"#utility.yul\":14937:15004   */\n      tag_435\n        /* \"#utility.yul\":15001:15003   */\n      0x1b\n        /* \"#utility.yul\":14996:14999   */\n      dup4\n        /* \"#utility.yul\":14937:15004   */\n      tag_245\n      jump\t// in\n    tag_435:\n        /* \"#utility.yul\":14930:15004   */\n      swap2\n      pop\n        /* \"#utility.yul\":15013:15106   */\n      tag_436\n        /* \"#utility.yul\":15102:15105   */\n      dup3\n        /* \"#utility.yul\":15013:15106   */\n      tag_252\n      jump\t// in\n    tag_436:\n        /* \"#utility.yul\":15131:15133   */\n      0x20\n        /* \"#utility.yul\":15126:15129   */\n      dup3\n        /* \"#utility.yul\":15122:15134   */\n      add\n        /* \"#utility.yul\":15115:15134   */\n      swap1\n      pop\n        /* \"#utility.yul\":14774:15140   */\n      swap2\n      swap1\n      pop\n      jump\t// out\n        /* \"#utility.yul\":15146:15565   */\n    tag_62:\n        /* \"#utility.yul\":15312:15316   */\n      0x00\n        /* \"#utility.yul\":15350:15352   */\n      0x20\n        /* \"#utility.yul\":15339:15348   */\n      dup3\n        /* \"#utility.yul\":15335:15353   */\n      add\n        /* \"#utility.yul\":15327:15353   */\n      swap1\n      pop\n        /* \"#utility.yul\":15399:15408   */\n      dup2\n        /* \"#utility.yul\":15393:15397   */\n      dup2\n        /* \"#utility.yul\":15389:15409   */\n      sub\n        /* \"#utility.yul\":15385:15386   */\n      0x00\n        /* \"#utility.yul\":15374:15383   */\n      dup4\n        /* \"#utility.yul\":15370:15387   */\n      add\n        /* \"#utility.yul\":15363:15410   */\n      mstore\n        /* \"#utility.yul\":15427:15558   */\n      tag_438\n        /* \"#utility.yul\":15553:15557   */\n      dup2\n        /* \"#utility.yul\":15427:15558   */\n      tag_253\n      jump\t// in\n    tag_438:\n        /* \"#utility.yul\":15419:15558   */\n      swap1\n      pop\n        /* \"#utility.yul\":15146:15565   */\n      swap2\n      swap1\n      pop\n      jump\t// out\n        /* \"#utility.yul\":15571:15740   */\n    tag_254:\n        /* \"#utility.yul\":15711:15732   */\n      0x5472616e73616374696f6e206578706972656400000000000000000000000000\n        /* \"#utility.yul\":15707:15708   */\n      0x00\n        /* \"#utility.yul\":15699:15705   */\n      dup3\n        /* \"#utility.yul\":15695:15709   */\n      add\n        /* \"#utility.yul\":15688:15733   */\n      mstore\n        /* \"#utility.yul\":15571:15740   */\n      pop\n      jump\t// out\n        /* \"#utility.yul\":15746:16112   */\n    tag_255:\n        /* \"#utility.yul\":15888:15891   */\n      0x00\n        /* \"#utility.yul\":15909:15976   */\n      tag_441\n        /* \"#utility.yul\":15973:15975   */\n      0x13\n        /* \"#utility.yul\":15968:15971   */\n      dup4\n        /* \"#utility.yul\":15909:15976   */\n      tag_245\n      jump\t// in\n    tag_441:\n        /* \"#utility.yul\":15902:15976   */\n      swap2\n      pop\n        /* \"#utility.yul\":15985:16078   */\n      tag_442\n        /* \"#utility.yul\":16074:16077   */\n      dup3\n        /* \"#utility.yul\":15985:16078   */\n      tag_254\n      jump\t// in\n    tag_442:\n        /* \"#utility.yul\":16103:16105   */\n      0x20\n        /* \"#utility.yul\":16098:16101   */\n      dup3\n        /* \"#utility.yul\":16094:16106   */\n      add\n        /* \"#utility.yul\":16087:16106   */\n      swap1\n      pop\n        /* \"#utility.yul\":15746:16112   */\n      swap2\n      swap1\n      pop\n      jump\t// out\n        /* \"#utility.yul\":16118:16537   */\n    tag_65:\n        /* \"#utility.yul\":16284:16288   */\n      0x00\n        /* \"#utility.yul\":16322:16324   */\n      0x20\n        /* \"#utility.yul\":16311:16320   */\n      dup3\n        /* \"#utility.yul\":16307:16325   */\n      add\n        /* \"#utility.yul\":16299:16325   */\n      swap1\n      pop\n        /* \"#utility.yul\":16371:16380   */\n      dup2\n        /* \"#utility.yul\":16365:16369   */\n      dup2\n        /* \"#utility.yul\":16361:16381   */\n      sub\n        /* \"#utility.yul\":16357:16358   */\n      0x00\n        /* \"#utility.yul\":16346:16355   */\n      dup4\n        /* \"#utility.yul\":16342:16359   */\n      add\n        /* \"#utility.yul\":16335:16382   */\n      mstore\n        /* \"#utility.yul\":16399:16530   */\n      tag_444\n        /* \"#utility.yul\":16525:16529   */\n      dup2\n        /* \"#utility.yul\":16399:16530   */\n      tag_255\n      jump\t// in\n    tag_444:\n        /* \"#utility.yul\":16391:16530   */\n      swap1\n      pop\n        /* \"#utility.yul\":16118:16537   */\n      swap2\n      swap1\n      pop\n      jump\t// out\n        /* \"#utility.yul\":16543:16723   */\n    tag_68:\n        /* \"#utility.yul\":16591:16668   */\n      0x4e487b7100000000000000000000000000000000000000000000000000000000\n        /* \"#utility.yul\":16588:16589   */\n      0x00\n        /* \"#utility.yul\":16581:16669   */\n      mstore\n        /* \"#utility.yul\":16688:16692   */\n      0x32\n        /* \"#utility.yul\":16685:16686   */\n      0x04\n        /* \"#utility.yul\":16678:16693   */\n      mstore\n        /* \"#utility.yul\":16712:16716   */\n      0x24\n        /* \"#utility.yul\":16709:16710   */\n      0x00\n        /* \"#utility.yul\":16702:16717   */\n      revert\n        /* \"#utility.yul\":16729:17058   */\n    tag_70:\n        /* \"#utility.yul\":16788:16794   */\n      0x00\n        /* \"#utility.yul\":16837:16839   */\n      0x20\n        /* \"#utility.yul\":16825:16834   */\n      dup3\n        /* \"#utility.yul\":16816:16823   */\n      dup5\n        /* \"#utility.yul\":16812:16835   */\n      sub\n        /* \"#utility.yul\":16808:16840   */\n      slt\n        /* \"#utility.yul\":16805:16924   */\n      iszero\n      tag_447\n      jumpi\n        /* \"#utility.yul\":16843:16922   */\n      tag_448\n      tag_219\n      jump\t// in\n    tag_448:\n        /* \"#utility.yul\":16805:16924   */\n    tag_447:\n        /* \"#utility.yul\":16963:16964   */\n      0x00\n        /* \"#utility.yul\":16988:17041   */\n      tag_449\n        /* \"#utility.yul\":17033:17040   */\n      dup5\n        /* \"#utility.yul\":17024:17030   */\n      dup3\n        /* \"#utility.yul\":17013:17022   */\n      dup6\n        /* \"#utility.yul\":17009:17031   */\n      add\n        /* \"#utility.yul\":16988:17041   */\n      tag_232\n      jump\t// in\n    tag_449:\n        /* \"#utility.yul\":16978:17041   */\n      swap2\n      pop\n        /* \"#utility.yul\":16934:17051   */\n      pop\n        /* \"#utility.yul\":16729:17058   */\n      swap3\n      swap2\n      pop\n      pop\n      jump\t// out\n        /* \"#utility.yul\":17064:17233   */\n    tag_256:\n        /* \"#utility.yul\":17204:17225   */\n      0x5061697220646f6573206e6f7420657869737400000000000000000000000000\n        /* \"#utility.yul\":17200:17201   */\n      0x00\n        /* \"#utility.yul\":17192:17198   */\n      dup3\n        /* \"#utility.yul\":17188:17202   */\n      add\n        /* \"#utility.yul\":17181:17226   */\n      mstore\n        /* \"#utility.yul\":17064:17233   */\n      pop\n      jump\t// out\n        /* \"#utility.yul\":17239:17605   */\n    tag_257:\n        /* \"#utility.yul\":17381:17384   */\n      0x00\n        /* \"#utility.yul\":17402:17469   */\n      tag_452\n        /* \"#utility.yul\":17466:17468   */\n      0x13\n        /* \"#utility.yul\":17461:17464   */\n      dup4\n        /* \"#utility.yul\":17402:17469   */\n      tag_245\n      jump\t// in\n    tag_452:\n        /* \"#utility.yul\":17395:17469   */\n      swap2\n      pop\n        /* \"#utility.yul\":17478:17571   */\n      tag_453\n        /* \"#utility.yul\":17567:17570   */\n      dup3\n        /* \"#utility.yul\":17478:17571   */\n      tag_256\n      jump\t// in\n    tag_453:\n        /* \"#utility.yul\":17596:17598   */\n      0x20\n        /* \"#utility.yul\":17591:17594   */\n      dup3\n        /* \"#utility.yul\":17587:17599   */\n      add\n        /* \"#utility.yul\":17580:17599   */\n      swap1\n      pop\n        /* \"#utility.yul\":17239:17605   */\n      swap2\n      swap1\n      pop\n      jump\t// out\n        /* \"#utility.yul\":17611:18030   */\n    tag_76:\n        /* \"#utility.yul\":17777:17781   */\n      0x00\n        /* \"#utility.yul\":17815:17817   */\n      0x20\n        /* \"#utility.yul\":17804:17813   */\n      dup3\n        /* \"#utility.yul\":17800:17818   */\n      add\n        /* \"#utility.yul\":17792:17818   */\n      swap1\n      pop\n        /* \"#utility.yul\":17864:17873   */\n      dup2\n        /* \"#utility.yul\":17858:17862   */\n      dup2\n        /* \"#utility.yul\":17854:17874   */\n      sub\n        /* \"#utility.yul\":17850:17851   */\n      0x00\n        /* \"#utility.yul\":17839:17848   */\n      dup4\n        /* \"#utility.yul\":17835:17852   */\n      add\n        /* \"#utility.yul\":17828:17875   */\n      mstore\n        /* \"#utility.yul\":17892:18023   */\n      tag_455\n        /* \"#utility.yul\":18018:18022   */\n      dup2\n        /* \"#utility.yul\":17892:18023   */\n      tag_257\n      jump\t// in\n    tag_455:\n        /* \"#utility.yul\":17884:18023   */\n      swap1\n      pop\n        /* \"#utility.yul\":17611:18030   */\n      swap2\n      swap1\n      pop\n      jump\t// out\n        /* \"#utility.yul\":18036:18154   */\n    tag_258:\n        /* \"#utility.yul\":18123:18147   */\n      tag_457\n        /* \"#utility.yul\":18141:18146   */\n      dup2\n        /* \"#utility.yul\":18123:18147   */\n      tag_230\n      jump\t// in\n    tag_457:\n        /* \"#utility.yul\":18118:18121   */\n      dup3\n        /* \"#utility.yul\":18111:18148   */\n      mstore\n        /* \"#utility.yul\":18036:18154   */\n      pop\n      pop\n      jump\t// out\n        /* \"#utility.yul\":18160:18602   */\n    tag_78:\n        /* \"#utility.yul\":18309:18313   */\n      0x00\n        /* \"#utility.yul\":18347:18349   */\n      0x60\n        /* \"#utility.yul\":18336:18345   */\n      dup3\n        /* \"#utility.yul\":18332:18350   */\n      add\n        /* \"#utility.yul\":18324:18350   */\n      swap1\n      pop\n        /* \"#utility.yul\":18360:18431   */\n      tag_459\n        /* \"#utility.yul\":18428:18429   */\n      0x00\n        /* \"#utility.yul\":18417:18426   */\n      dup4\n        /* \"#utility.yul\":18413:18430   */\n      add\n        /* \"#utility.yul\":18404:18410   */\n      dup7\n        /* \"#utility.yul\":18360:18431   */\n      tag_258\n      jump\t// in\n    tag_459:\n        /* \"#utility.yul\":18441:18513   */\n      tag_460\n        /* \"#utility.yul\":18509:18511   */\n      0x20\n        /* \"#utility.yul\":18498:18507   */\n      dup4\n        /* \"#utility.yul\":18494:18512   */\n      add\n        /* \"#utility.yul\":18485:18491   */\n      dup6\n        /* \"#utility.yul\":18441:18513   */\n      tag_258\n      jump\t// in\n    tag_460:\n        /* \"#utility.yul\":18523:18595   */\n      tag_461\n        /* \"#utility.yul\":18591:18593   */\n      0x40\n        /* \"#utility.yul\":18580:18589   */\n      dup4\n        /* \"#utility.yul\":18576:18594   */\n      add\n        /* \"#utility.yul\":18567:18573   */\n      dup5\n        /* \"#utility.yul\":18523:18595   */\n      tag_224\n      jump\t// in\n    tag_461:\n        /* \"#utility.yul\":18160:18602   */\n      swap5\n      swap4\n      pop\n      pop\n      pop\n      pop\n      jump\t// out\n        /* \"#utility.yul\":18608:18698   */\n    tag_259:\n        /* \"#utility.yul\":18642:18649   */\n      0x00\n        /* \"#utility.yul\":18685:18690   */\n      dup2\n        /* \"#utility.yul\":18678:18691   */\n      iszero\n        /* \"#utility.yul\":18671:18692   */\n      iszero\n        /* \"#utility.yul\":18660:18692   */\n      swap1\n      pop\n        /* \"#utility.yul\":18608:18698   */\n      swap2\n      swap1\n      pop\n      jump\t// out\n        /* \"#utility.yul\":18704:18820   */\n    tag_260:\n        /* \"#utility.yul\":18774:18795   */\n      tag_464\n        /* \"#utility.yul\":18789:18794   */\n      dup2\n        /* \"#utility.yul\":18774:18795   */\n      tag_259\n      jump\t// in\n    tag_464:\n        /* \"#utility.yul\":18767:18772   */\n      dup2\n        /* \"#utility.yul\":18764:18796   */\n      eq\n        /* \"#utility.yul\":18754:18814   */\n      tag_465\n      jumpi\n        /* \"#utility.yul\":18810:18811   */\n      0x00\n        /* \"#utility.yul\":18807:18808   */\n      0x00\n        /* \"#utility.yul\":18800:18812   */\n      revert\n        /* \"#utility.yul\":18754:18814   */\n    tag_465:\n        /* \"#utility.yul\":18704:18820   */\n      pop\n      jump\t// out\n        /* \"#utility.yul\":18826:18963   */\n    tag_261:\n        /* \"#utility.yul\":18880:18885   */\n      0x00\n        /* \"#utility.yul\":18911:18917   */\n      dup2\n        /* \"#utility.yul\":18905:18918   */\n      mload\n        /* \"#utility.yul\":18896:18918   */\n      swap1\n      pop\n        /* \"#utility.yul\":18927:18957   */\n      tag_467\n        /* \"#utility.yul\":18951:18956   */\n      dup2\n        /* \"#utility.yul\":18927:18957   */\n      tag_260\n      jump\t// in\n    tag_467:\n        /* \"#utility.yul\":18826:18963   */\n      swap3\n      swap2\n      pop\n      pop\n      jump\t// out\n        /* \"#utility.yul\":18969:19314   */\n    tag_82:\n        /* \"#utility.yul\":19036:19042   */\n      0x00\n        /* \"#utility.yul\":19085:19087   */\n      0x20\n        /* \"#utility.yul\":19073:19082   */\n      dup3\n        /* \"#utility.yul\":19064:19071   */\n      dup5\n        /* \"#utility.yul\":19060:19083   */\n      sub\n        /* \"#utility.yul\":19056:19088   */\n      slt\n        /* \"#utility.yul\":19053:19172   */\n      iszero\n      tag_469\n      jumpi\n        /* \"#utility.yul\":19091:19170   */\n      tag_470\n      tag_219\n      jump\t// in\n    tag_470:\n        /* \"#utility.yul\":19053:19172   */\n    tag_469:\n        /* \"#utility.yul\":19211:19212   */\n      0x00\n        /* \"#utility.yul\":19236:19297   */\n      tag_471\n        /* \"#utility.yul\":19289:19296   */\n      dup5\n        /* \"#utility.yul\":19280:19286   */\n      dup3\n        /* \"#utility.yul\":19269:19278   */\n      dup6\n        /* \"#utility.yul\":19265:19287   */\n      add\n        /* \"#utility.yul\":19236:19297   */\n      tag_261\n      jump\t// in\n    tag_471:\n        /* \"#utility.yul\":19226:19297   */\n      swap2\n      pop\n        /* \"#utility.yul\":19182:19307   */\n      pop\n        /* \"#utility.yul\":18969:19314   */\n      swap3\n      swap2\n      pop\n      pop\n      jump\t// out\n        /* \"#utility.yul\":19320:19488   */\n    tag_262:\n        /* \"#utility.yul\":19460:19480   */\n      0x5472616e7366657220696e206661696c65640000000000000000000000000000\n        /* \"#utility.yul\":19456:19457   */\n      0x00\n        /* \"#utility.yul\":19448:19454   */\n      dup3\n        /* \"#utility.yul\":19444:19458   */\n      add\n        /* \"#utility.yul\":19437:19481   */\n      mstore\n        /* \"#utility.yul\":19320:19488   */\n      pop\n      jump\t// out\n        /* \"#utility.yul\":19494:19860   */\n    tag_263:\n        /* \"#utility.yul\":19636:19639   */\n      0x00\n        /* \"#utility.yul\":19657:19724   */\n      tag_474\n        /* \"#utility.yul\":19721:19723   */\n      0x12\n        /* \"#utility.yul\":19716:19719   */\n      dup4\n        /* \"#utility.yul\":19657:19724   */\n      tag_245\n      jump\t// in\n    tag_474:\n        /* \"#utility.yul\":19650:19724   */\n      swap2\n      pop\n        /* \"#utility.yul\":19733:19826   */\n      tag_475\n        /* \"#utility.yul\":19822:19825   */\n      dup3\n        /* \"#utility.yul\":19733:19826   */\n      tag_262\n      jump\t// in\n    tag_475:\n        /* \"#utility.yul\":19851:19853   */\n      0x20\n        /* \"#utility.yul\":19846:19849   */\n      dup3\n        /* \"#utility.yul\":19842:19854   */\n      add\n        /* \"#utility.yul\":19835:19854   */\n      swap1\n      pop\n        /* \"#utility.yul\":19494:19860   */\n      swap2\n      swap1\n      pop\n      jump\t// out\n        /* \"#utility.yul\":19866:20285   */\n    tag_85:\n        /* \"#utility.yul\":20032:20036   */\n      0x00\n        /* \"#utility.yul\":20070:20072   */\n      0x20\n        /* \"#utility.yul\":20059:20068   */\n      dup3\n        /* \"#utility.yul\":20055:20073   */\n      add\n        /* \"#utility.yul\":20047:20073   */\n      swap1\n      pop\n        /* \"#utility.yul\":20119:20128   */\n      dup2\n        /* \"#utility.yul\":20113:20117   */\n      dup2\n        /* \"#utility.yul\":20109:20129   */\n      sub\n        /* \"#utility.yul\":20105:20106   */\n      0x00\n        /* \"#utility.yul\":20094:20103   */\n      dup4\n        /* \"#utility.yul\":20090:20107   */\n      add\n        /* \"#utility.yul\":20083:20130   */\n      mstore\n        /* \"#utility.yul\":20147:20278   */\n      tag_477\n        /* \"#utility.yul\":20273:20277   */\n      dup2\n        /* \"#utility.yul\":20147:20278   */\n      tag_263\n      jump\t// in\n    tag_477:\n        /* \"#utility.yul\":20139:20278   */\n      swap1\n      pop\n        /* \"#utility.yul\":19866:20285   */\n      swap2\n      swap1\n      pop\n      jump\t// out\n        /* \"#utility.yul\":20291:20458   */\n    tag_264:\n        /* \"#utility.yul\":20431:20450   */\n      0x536c69707061676520746f6f2068696768000000000000000000000000000000\n        /* \"#utility.yul\":20427:20428   */\n      0x00\n        /* \"#utility.yul\":20419:20425   */\n      dup3\n        /* \"#utility.yul\":20415:20429   */\n      add\n        /* \"#utility.yul\":20408:20451   */\n      mstore\n        /* \"#utility.yul\":20291:20458   */\n      pop\n      jump\t// out\n        /* \"#utility.yul\":20464:20830   */\n    tag_265:\n        /* \"#utility.yul\":20606:20609   */\n      0x00\n        /* \"#utility.yul\":20627:20694   */\n      tag_480\n        /* \"#utility.yul\":20691:20693   */\n      0x11\n        /* \"#utility.yul\":20686:20689   */\n      dup4\n        /* \"#utility.yul\":20627:20694   */\n      tag_245\n      jump\t// in\n    tag_480:\n        /* \"#utility.yul\":20620:20694   */\n      swap2\n      pop\n        /* \"#utility.yul\":20703:20796   */\n      tag_481\n        /* \"#utility.yul\":20792:20795   */\n      dup3\n        /* \"#utility.yul\":20703:20796   */\n      tag_264\n      jump\t// in\n    tag_481:\n        /* \"#utility.yul\":20821:20823   */\n      0x20\n        /* \"#utility.yul\":20816:20819   */\n      dup3\n        /* \"#utility.yul\":20812:20824   */\n      add\n        /* \"#utility.yul\":20805:20824   */\n      swap1\n      pop\n        /* \"#utility.yul\":20464:20830   */\n      swap2\n      swap1\n      pop\n      jump\t// out\n        /* \"#utility.yul\":20836:21255   */\n    tag_89:\n        /* \"#utility.yul\":21002:21006   */\n      0x00\n        /* \"#utility.yul\":21040:21042   */\n      0x20\n        /* \"#utility.yul\":21029:21038   */\n      dup3\n        /* \"#utility.yul\":21025:21043   */\n      add\n        /* \"#utility.yul\":21017:21043   */\n      swap1\n      pop\n        /* \"#utility.yul\":21089:21098   */\n      dup2\n        /* \"#utility.yul\":21083:21087   */\n      dup2\n        /* \"#utility.yul\":21079:21099   */\n      sub\n        /* \"#utility.yul\":21075:21076   */\n      0x00\n        /* \"#utility.yul\":21064:21073   */\n      dup4\n        /* \"#utility.yul\":21060:21077   */\n      add\n        /* \"#utility.yul\":21053:21100   */\n      mstore\n        /* \"#utility.yul\":21117:21248   */\n      tag_483\n        /* \"#utility.yul\":21243:21247   */\n      dup2\n        /* \"#utility.yul\":21117:21248   */\n      tag_265\n      jump\t// in\n    tag_483:\n        /* \"#utility.yul\":21109:21248   */\n      swap1\n      pop\n        /* \"#utility.yul\":20836:21255   */\n      swap2\n      swap1\n      pop\n      jump\t// out\n        /* \"#utility.yul\":21261:21455   */\n    tag_92:\n        /* \"#utility.yul\":21301:21305   */\n      0x00\n        /* \"#utility.yul\":21321:21341   */\n      tag_485\n        /* \"#utility.yul\":21339:21340   */\n      dup3\n        /* \"#utility.yul\":21321:21341   */\n      tag_221\n      jump\t// in\n    tag_485:\n        /* \"#utility.yul\":21316:21341   */\n      swap2\n      pop\n        /* \"#utility.yul\":21355:21375   */\n      tag_486\n        /* \"#utility.yul\":21373:21374   */\n      dup4\n        /* \"#utility.yul\":21355:21375   */\n      tag_221\n      jump\t// in\n    tag_486:\n        /* \"#utility.yul\":21350:21375   */\n      swap3\n      pop\n        /* \"#utility.yul\":21399:21400   */\n      dup3\n        /* \"#utility.yul\":21396:21397   */\n      dup3\n        /* \"#utility.yul\":21392:21401   */\n      sub\n        /* \"#utility.yul\":21384:21401   */\n      swap1\n      pop\n        /* \"#utility.yul\":21423:21424   */\n      dup2\n        /* \"#utility.yul\":21417:21421   */\n      dup2\n        /* \"#utility.yul\":21414:21425   */\n      gt\n        /* \"#utility.yul\":21411:21448   */\n      iszero\n      tag_487\n      jumpi\n        /* \"#utility.yul\":21428:21446   */\n      tag_488\n      tag_250\n      jump\t// in\n    tag_488:\n        /* \"#utility.yul\":21411:21448   */\n    tag_487:\n        /* \"#utility.yul\":21261:21455   */\n      swap3\n      swap2\n      pop\n      pop\n      jump\t// out\n        /* \"#utility.yul\":21461:21793   */\n    tag_94:\n        /* \"#utility.yul\":21582:21586   */\n      0x00\n        /* \"#utility.yul\":21620:21622   */\n      0x40\n        /* \"#utility.yul\":21609:21618   */\n      dup3\n        /* \"#utility.yul\":21605:21623   */\n      add\n        /* \"#utility.yul\":21597:21623   */\n      swap1\n      pop\n        /* \"#utility.yul\":21633:21704   */\n      tag_490\n        /* \"#utility.yul\":21701:21702   */\n      0x00\n        /* \"#utility.yul\":21690:21699   */\n      dup4\n        /* \"#utility.yul\":21686:21703   */\n      add\n        /* \"#utility.yul\":21677:21683   */\n      dup6\n        /* \"#utility.yul\":21633:21704   */\n      tag_258\n      jump\t// in\n    tag_490:\n        /* \"#utility.yul\":21714:21786   */\n      tag_491\n        /* \"#utility.yul\":21782:21784   */\n      0x20\n        /* \"#utility.yul\":21771:21780   */\n      dup4\n        /* \"#utility.yul\":21767:21785   */\n      add\n        /* \"#utility.yul\":21758:21764   */\n      dup5\n        /* \"#utility.yul\":21714:21786   */\n      tag_224\n      jump\t// in\n    tag_491:\n        /* \"#utility.yul\":21461:21793   */\n      swap4\n      swap3\n      pop\n      pop\n      pop\n      jump\t// out\n        /* \"#utility.yul\":21799:21968   */\n    tag_266:\n        /* \"#utility.yul\":21939:21960   */\n      0x5472616e73666572206f7574206661696c656400000000000000000000000000\n        /* \"#utility.yul\":21935:21936   */\n      0x00\n        /* \"#utility.yul\":21927:21933   */\n      dup3\n        /* \"#utility.yul\":21923:21937   */\n      add\n        /* \"#utility.yul\":21916:21961   */\n      mstore\n        /* \"#utility.yul\":21799:21968   */\n      pop\n      jump\t// out\n        /* \"#utility.yul\":21974:22340   */\n    tag_267:\n        /* \"#utility.yul\":22116:22119   */\n      0x00\n        /* \"#utility.yul\":22137:22204   */\n      tag_494\n        /* \"#utility.yul\":22201:22203   */\n      0x13\n        /* \"#utility.yul\":22196:22199   */\n      dup4\n        /* \"#utility.yul\":22137:22204   */\n      tag_245\n      jump\t// in\n    tag_494:\n        /* \"#utility.yul\":22130:22204   */\n      swap2\n      pop\n        /* \"#utility.yul\":22213:22306   */\n      tag_495\n        /* \"#utility.yul\":22302:22305   */\n      dup3\n        /* \"#utility.yul\":22213:22306   */\n      tag_266\n      jump\t// in\n    tag_495:\n        /* \"#utility.yul\":22331:22333   */\n      0x20\n        /* \"#utility.yul\":22326:22329   */\n      dup3\n        /* \"#utility.yul\":22322:22334   */\n      add\n        /* \"#utility.yul\":22315:22334   */\n      swap1\n      pop\n        /* \"#utility.yul\":21974:22340   */\n      swap2\n      swap1\n      pop\n      jump\t// out\n        /* \"#utility.yul\":22346:22765   */\n    tag_100:\n        /* \"#utility.yul\":22512:22516   */\n      0x00\n        /* \"#utility.yul\":22550:22552   */\n      0x20\n        /* \"#utility.yul\":22539:22548   */\n      dup3\n        /* \"#utility.yul\":22535:22553   */\n      add\n        /* \"#utility.yul\":22527:22553   */\n      swap1\n      pop\n        /* \"#utility.yul\":22599:22608   */\n      dup2\n        /* \"#utility.yul\":22593:22597   */\n      dup2\n        /* \"#utility.yul\":22589:22609   */\n      sub\n        /* \"#utility.yul\":22585:22586   */\n      0x00\n        /* \"#utility.yul\":22574:22583   */\n      dup4\n        /* \"#utility.yul\":22570:22587   */\n      add\n        /* \"#utility.yul\":22563:22610   */\n      mstore\n        /* \"#utility.yul\":22627:22758   */\n      tag_497\n        /* \"#utility.yul\":22753:22757   */\n      dup2\n        /* \"#utility.yul\":22627:22758   */\n      tag_267\n      jump\t// in\n    tag_497:\n        /* \"#utility.yul\":22619:22758   */\n      swap1\n      pop\n        /* \"#utility.yul\":22346:22765   */\n      swap2\n      swap1\n      pop\n      jump\t// out\n        /* \"#utility.yul\":22771:22951   */\n    tag_103:\n        /* \"#utility.yul\":22819:22896   */\n      0x4e487b7100000000000000000000000000000000000000000000000000000000\n        /* \"#utility.yul\":22816:22817   */\n      0x00\n        /* \"#utility.yul\":22809:22897   */\n      mstore\n        /* \"#utility.yul\":22916:22920   */\n      0x41\n        /* \"#utility.yul\":22913:22914   */\n      0x04\n        /* \"#utility.yul\":22906:22921   */\n      mstore\n        /* \"#utility.yul\":22940:22944   */\n      0x24\n        /* \"#utility.yul\":22937:22938   */\n      0x00\n        /* \"#utility.yul\":22930:22945   */\n      revert\n        /* \"#utility.yul\":22957:23128   */\n    tag_268:\n        /* \"#utility.yul\":23097:23120   */\n      0x496e73756666696369656e742072657365727665730000000000000000000000\n        /* \"#utility.yul\":23093:23094   */\n      0x00\n        /* \"#utility.yul\":23085:23091   */\n      dup3\n        /* \"#utility.yul\":23081:23095   */\n      add\n        /* \"#utility.yul\":23074:23121   */\n      mstore\n        /* \"#utility.yul\":22957:23128   */\n      pop\n      jump\t// out\n        /* \"#utility.yul\":23134:23500   */\n    tag_269:\n        /* \"#utility.yul\":23276:23279   */\n      0x00\n        /* \"#utility.yul\":23297:23364   */\n      tag_501\n        /* \"#utility.yul\":23361:23363   */\n      0x15\n        /* \"#utility.yul\":23356:23359   */\n      dup4\n        /* \"#utility.yul\":23297:23364   */\n      tag_245\n      jump\t// in\n    tag_501:\n        /* \"#utility.yul\":23290:23364   */\n      swap2\n      pop\n        /* \"#utility.yul\":23373:23466   */\n      tag_502\n        /* \"#utility.yul\":23462:23465   */\n      dup3\n        /* \"#utility.yul\":23373:23466   */\n      tag_268\n      jump\t// in\n    tag_502:\n        /* \"#utility.yul\":23491:23493   */\n      0x20\n        /* \"#utility.yul\":23486:23489   */\n      dup3\n        /* \"#utility.yul\":23482:23494   */\n      add\n        /* \"#utility.yul\":23475:23494   */\n      swap1\n      pop\n        /* \"#utility.yul\":23134:23500   */\n      swap2\n      swap1\n      pop\n      jump\t// out\n        /* \"#utility.yul\":23506:23925   */\n    tag_113:\n        /* \"#utility.yul\":23672:23676   */\n      0x00\n        /* \"#utility.yul\":23710:23712   */\n      0x20\n        /* \"#utility.yul\":23699:23708   */\n      dup3\n        /* \"#utility.yul\":23695:23713   */\n      add\n        /* \"#utility.yul\":23687:23713   */\n      swap1\n      pop\n        /* \"#utility.yul\":23759:23768   */\n      dup2\n        /* \"#utility.yul\":23753:23757   */\n      dup2\n        /* \"#utility.yul\":23749:23769   */\n      sub\n        /* \"#utility.yul\":23745:23746   */\n      0x00\n        /* \"#utility.yul\":23734:23743   */\n      dup4\n        /* \"#utility.yul\":23730:23747   */\n      add\n        /* \"#utility.yul\":23723:23770   */\n      mstore\n        /* \"#utility.yul\":23787:23918   */\n      tag_504\n        /* \"#utility.yul\":23913:23917   */\n      dup2\n        /* \"#utility.yul\":23787:23918   */\n      tag_269\n      jump\t// in\n    tag_504:\n        /* \"#utility.yul\":23779:23918   */\n      swap1\n      pop\n        /* \"#utility.yul\":23506:23925   */\n      swap2\n      swap1\n      pop\n      jump\t// out\n        /* \"#utility.yul\":23931:24074   */\n    tag_270:\n        /* \"#utility.yul\":23988:23993   */\n      0x00\n        /* \"#utility.yul\":24019:24025   */\n      dup2\n        /* \"#utility.yul\":24013:24026   */\n      mload\n        /* \"#utility.yul\":24004:24026   */\n      swap1\n      pop\n        /* \"#utility.yul\":24035:24068   */\n      tag_506\n        /* \"#utility.yul\":24062:24067   */\n      dup2\n        /* \"#utility.yul\":24035:24068   */\n      tag_222\n      jump\t// in\n    tag_506:\n        /* \"#utility.yul\":23931:24074   */\n      swap3\n      swap2\n      pop\n      pop\n      jump\t// out\n        /* \"#utility.yul\":24080:24431   */\n    tag_128:\n        /* \"#utility.yul\":24150:24156   */\n      0x00\n        /* \"#utility.yul\":24199:24201   */\n      0x20\n        /* \"#utility.yul\":24187:24196   */\n      dup3\n        /* \"#utility.yul\":24178:24185   */\n      dup5\n        /* \"#utility.yul\":24174:24197   */\n      sub\n        /* \"#utility.yul\":24170:24202   */\n      slt\n        /* \"#utility.yul\":24167:24286   */\n      iszero\n      tag_508\n      jumpi\n        /* \"#utility.yul\":24205:24284   */\n      tag_509\n      tag_219\n      jump\t// in\n    tag_509:\n        /* \"#utility.yul\":24167:24286   */\n    tag_508:\n        /* \"#utility.yul\":24325:24326   */\n      0x00\n        /* \"#utility.yul\":24350:24414   */\n      tag_510\n        /* \"#utility.yul\":24406:24413   */\n      dup5\n        /* \"#utility.yul\":24397:24403   */\n      dup3\n        /* \"#utility.yul\":24386:24395   */\n      dup6\n        /* \"#utility.yul\":24382:24404   */\n      add\n        /* \"#utility.yul\":24350:24414   */\n      tag_270\n      jump\t// in\n    tag_510:\n        /* \"#utility.yul\":24340:24414   */\n      swap2\n      pop\n        /* \"#utility.yul\":24296:24424   */\n      pop\n        /* \"#utility.yul\":24080:24431   */\n      swap3\n      swap2\n      pop\n      pop\n      jump\t// out\n        /* \"#utility.yul\":24437:24606   */\n    tag_271:\n        /* \"#utility.yul\":24577:24598   */\n      0x536c69707061676520746f6f2068696768204100000000000000000000000000\n        /* \"#utility.yul\":24573:24574   */\n      0x00\n        /* \"#utility.yul\":24565:24571   */\n      dup3\n        /* \"#utility.yul\":24561:24575   */\n      add\n        /* \"#utility.yul\":24554:24599   */\n      mstore\n        /* \"#utility.yul\":24437:24606   */\n      pop\n      jump\t// out\n        /* \"#utility.yul\":24612:24978   */\n    tag_272:\n        /* \"#utility.yul\":24754:24757   */\n      0x00\n        /* \"#utility.yul\":24775:24842   */\n      tag_513\n        /* \"#utility.yul\":24839:24841   */\n      0x13\n        /* \"#utility.yul\":24834:24837   */\n      dup4\n        /* \"#utility.yul\":24775:24842   */\n      tag_245\n      jump\t// in\n    tag_513:\n        /* \"#utility.yul\":24768:24842   */\n      swap2\n      pop\n        /* \"#utility.yul\":24851:24944   */\n      tag_514\n        /* \"#utility.yul\":24940:24943   */\n      dup3\n        /* \"#utility.yul\":24851:24944   */\n      tag_271\n      jump\t// in\n    tag_514:\n        /* \"#utility.yul\":24969:24971   */\n      0x20\n        /* \"#utility.yul\":24964:24967   */\n      dup3\n        /* \"#utility.yul\":24960:24972   */\n      add\n        /* \"#utility.yul\":24953:24972   */\n      swap1\n      pop\n        /* \"#utility.yul\":24612:24978   */\n      swap2\n      swap1\n      pop\n      jump\t// out\n        /* \"#utility.yul\":24984:25403   */\n    tag_135:\n        /* \"#utility.yul\":25150:25154   */\n      0x00\n        /* \"#utility.yul\":25188:25190   */\n      0x20\n        /* \"#utility.yul\":25177:25186   */\n      dup3\n        /* \"#utility.yul\":25173:25191   */\n      add\n        /* \"#utility.yul\":25165:25191   */\n      swap1\n      pop\n        /* \"#utility.yul\":25237:25246   */\n      dup2\n        /* \"#utility.yul\":25231:25235   */\n      dup2\n        /* \"#utility.yul\":25227:25247   */\n      sub\n        /* \"#utility.yul\":25223:25224   */\n      0x00\n        /* \"#utility.yul\":25212:25221   */\n      dup4\n        /* \"#utility.yul\":25208:25225   */\n      add\n        /* \"#utility.yul\":25201:25248   */\n      mstore\n        /* \"#utility.yul\":25265:25396   */\n      tag_516\n        /* \"#utility.yul\":25391:25395   */\n      dup2\n        /* \"#utility.yul\":25265:25396   */\n      tag_272\n      jump\t// in\n    tag_516:\n        /* \"#utility.yul\":25257:25396   */\n      swap1\n      pop\n        /* \"#utility.yul\":24984:25403   */\n      swap2\n      swap1\n      pop\n      jump\t// out\n        /* \"#utility.yul\":25409:25578   */\n    tag_273:\n        /* \"#utility.yul\":25549:25570   */\n      0x536c69707061676520746f6f2068696768204200000000000000000000000000\n        /* \"#utility.yul\":25545:25546   */\n      0x00\n        /* \"#utility.yul\":25537:25543   */\n      dup3\n        /* \"#utility.yul\":25533:25547   */\n      add\n        /* \"#utility.yul\":25526:25571   */\n      mstore\n        /* \"#utility.yul\":25409:25578   */\n      pop\n      jump\t// out\n        /* \"#utility.yul\":25584:25950   */\n    tag_274:\n        /* \"#utility.yul\":25726:25729   */\n      0x00\n        /* \"#utility.yul\":25747:25814   */\n      tag_519\n        /* \"#utility.yul\":25811:25813   */\n      0x13\n        /* \"#utility.yul\":25806:25809   */\n      dup4\n        /* \"#utility.yul\":25747:25814   */\n      tag_245\n      jump\t// in\n    tag_519:\n        /* \"#utility.yul\":25740:25814   */\n      swap2\n      pop\n        /* \"#utility.yul\":25823:25916   */\n      tag_520\n        /* \"#utility.yul\":25912:25915   */\n      dup3\n        /* \"#utility.yul\":25823:25916   */\n      tag_273\n      jump\t// in\n    tag_520:\n        /* \"#utility.yul\":25941:25943   */\n      0x20\n        /* \"#utility.yul\":25936:25939   */\n      dup3\n        /* \"#utility.yul\":25932:25944   */\n      add\n        /* \"#utility.yul\":25925:25944   */\n      swap1\n      pop\n        /* \"#utility.yul\":25584:25950   */\n      swap2\n      swap1\n      pop\n      jump\t// out\n        /* \"#utility.yul\":25956:26375   */\n    tag_138:\n        /* \"#utility.yul\":26122:26126   */\n      0x00\n        /* \"#utility.yul\":26160:26162   */\n      0x20\n        /* \"#utility.yul\":26149:26158   */\n      dup3\n        /* \"#utility.yul\":26145:26163   */\n      add\n        /* \"#utility.yul\":26137:26163   */\n      swap1\n      pop\n        /* \"#utility.yul\":26209:26218   */\n      dup2\n        /* \"#utility.yul\":26203:26207   */\n      dup2\n        /* \"#utility.yul\":26199:26219   */\n      sub\n        /* \"#utility.yul\":26195:26196   */\n      0x00\n        /* \"#utility.yul\":26184:26193   */\n      dup4\n        /* \"#utility.yul\":26180:26197   */\n      add\n        /* \"#utility.yul\":26173:26220   */\n      mstore\n        /* \"#utility.yul\":26237:26368   */\n      tag_522\n        /* \"#utility.yul\":26363:26367   */\n      dup2\n        /* \"#utility.yul\":26237:26368   */\n      tag_274\n      jump\t// in\n    tag_522:\n        /* \"#utility.yul\":26229:26368   */\n      swap1\n      pop\n        /* \"#utility.yul\":25956:26375   */\n      swap2\n      swap1\n      pop\n      jump\t// out\n        /* \"#utility.yul\":26381:26548   */\n    tag_275:\n        /* \"#utility.yul\":26521:26540   */\n      0x5472616e736665722041206661696c6564000000000000000000000000000000\n        /* \"#utility.yul\":26517:26518   */\n      0x00\n        /* \"#utility.yul\":26509:26515   */\n      dup3\n        /* \"#utility.yul\":26505:26519   */\n      add\n        /* \"#utility.yul\":26498:26541   */\n      mstore\n        /* \"#utility.yul\":26381:26548   */\n      pop\n      jump\t// out\n        /* \"#utility.yul\":26554:26920   */\n    tag_276:\n        /* \"#utility.yul\":26696:26699   */\n      0x00\n        /* \"#utility.yul\":26717:26784   */\n      tag_525\n        /* \"#utility.yul\":26781:26783   */\n      0x11\n        /* \"#utility.yul\":26776:26779   */\n      dup4\n        /* \"#utility.yul\":26717:26784   */\n      tag_245\n      jump\t// in\n    tag_525:\n        /* \"#utility.yul\":26710:26784   */\n      swap2\n      pop\n        /* \"#utility.yul\":26793:26886   */\n      tag_526\n        /* \"#utility.yul\":26882:26885   */\n      dup3\n        /* \"#utility.yul\":26793:26886   */\n      tag_275\n      jump\t// in\n    tag_526:\n        /* \"#utility.yul\":26911:26913   */\n      0x20\n        /* \"#utility.yul\":26906:26909   */\n      dup3\n        /* \"#utility.yul\":26902:26914   */\n      add\n        /* \"#utility.yul\":26895:26914   */\n      swap1\n      pop\n        /* \"#utility.yul\":26554:26920   */\n      swap2\n      swap1\n      pop\n      jump\t// out\n        /* \"#utility.yul\":26926:27345   */\n    tag_147:\n        /* \"#utility.yul\":27092:27096   */\n      0x00\n        /* \"#utility.yul\":27130:27132   */\n      0x20\n        /* \"#utility.yul\":27119:27128   */\n      dup3\n        /* \"#utility.yul\":27115:27133   */\n      add\n        /* \"#utility.yul\":27107:27133   */\n      swap1\n      pop\n        /* \"#utility.yul\":27179:27188   */\n      dup2\n        /* \"#utility.yul\":27173:27177   */\n      dup2\n        /* \"#utility.yul\":27169:27189   */\n      sub\n        /* \"#utility.yul\":27165:27166   */\n      0x00\n        /* \"#utility.yul\":27154:27163   */\n      dup4\n        /* \"#utility.yul\":27150:27167   */\n      add\n        /* \"#utility.yul\":27143:27190   */\n      mstore\n        /* \"#utility.yul\":27207:27338   */\n      tag_528\n        /* \"#utility.yul\":27333:27337   */\n      dup2\n        /* \"#utility.yul\":27207:27338   */\n      tag_276\n      jump\t// in\n    tag_528:\n        /* \"#utility.yul\":27199:27338   */\n      swap1\n      pop\n        /* \"#utility.yul\":26926:27345   */\n      swap2\n      swap1\n      pop\n      jump\t// out\n        /* \"#utility.yul\":27351:27518   */\n    tag_277:\n        /* \"#utility.yul\":27491:27510   */\n      0x5472616e736665722042206661696c6564000000000000000000000000000000\n        /* \"#utility.yul\":27487:27488   */\n      0x00\n        /* \"#utility.yul\":27479:27485   */\n      dup3\n        /* \"#utility.yul\":27475:27489   */\n      add\n        /* \"#utility.yul\":27468:27511   */\n      mstore\n        /* \"#utility.yul\":27351:27518   */\n      pop\n      jump\t// out\n        /* \"#utility.yul\":27524:27890   */\n    tag_278:\n        /* \"#utility.yul\":27666:27669   */\n      0x00\n        /* \"#utility.yul\":27687:27754   */\n      tag_531\n        /* \"#utility.yul\":27751:27753   */\n      0x11\n        /* \"#utility.yul\":27746:27749   */\n      dup4\n        /* \"#utility.yul\":27687:27754   */\n      tag_245\n      jump\t// in\n    tag_531:\n        /* \"#utility.yul\":27680:27754   */\n      swap2\n      pop\n        /* \"#utility.yul\":27763:27856   */\n      tag_532\n        /* \"#utility.yul\":27852:27855   */\n      dup3\n        /* \"#utility.yul\":27763:27856   */\n      tag_277\n      jump\t// in\n    tag_532:\n        /* \"#utility.yul\":27881:27883   */\n      0x20\n        /* \"#utility.yul\":27876:27879   */\n      dup3\n        /* \"#utility.yul\":27872:27884   */\n      add\n        /* \"#utility.yul\":27865:27884   */\n      swap1\n      pop\n        /* \"#utility.yul\":27524:27890   */\n      swap2\n      swap1\n      pop\n      jump\t// out\n        /* \"#utility.yul\":27896:28315   */\n    tag_154:\n        /* \"#utility.yul\":28062:28066   */\n      0x00\n        /* \"#utility.yul\":28100:28102   */\n      0x20\n        /* \"#utility.yul\":28089:28098   */\n      dup3\n        /* \"#utility.yul\":28085:28103   */\n      add\n        /* \"#utility.yul\":28077:28103   */\n      swap1\n      pop\n        /* \"#utility.yul\":28149:28158   */\n      dup2\n        /* \"#utility.yul\":28143:28147   */\n      dup2\n        /* \"#utility.yul\":28139:28159   */\n      sub\n        /* \"#utility.yul\":28135:28136   */\n      0x00\n        /* \"#utility.yul\":28124:28133   */\n      dup4\n        /* \"#utility.yul\":28120:28137   */\n      add\n        /* \"#utility.yul\":28113:28160   */\n      mstore\n        /* \"#utility.yul\":28177:28308   */\n      tag_534\n        /* \"#utility.yul\":28303:28307   */\n      dup2\n        /* \"#utility.yul\":28177:28308   */\n      tag_278\n      jump\t// in\n    tag_534:\n        /* \"#utility.yul\":28169:28308   */\n      swap1\n      pop\n        /* \"#utility.yul\":27896:28315   */\n      swap2\n      swap1\n      pop\n      jump\t// out\n        /* \"#utility.yul\":28321:28489   */\n    tag_279:\n        /* \"#utility.yul\":28461:28481   */\n      0x546f6b656e73206d757374206469666665720000000000000000000000000000\n        /* \"#utility.yul\":28457:28458   */\n      0x00\n        /* \"#utility.yul\":28449:28455   */\n      dup3\n        /* \"#utility.yul\":28445:28459   */\n      add\n        /* \"#utility.yul\":28438:28482   */\n      mstore\n        /* \"#utility.yul\":28321:28489   */\n      pop\n      jump\t// out\n        /* \"#utility.yul\":28495:28861   */\n    tag_280:\n        /* \"#utility.yul\":28637:28640   */\n      0x00\n        /* \"#utility.yul\":28658:28725   */\n      tag_537\n        /* \"#utility.yul\":28722:28724   */\n      0x12\n        /* \"#utility.yul\":28717:28720   */\n      dup4\n        /* \"#utility.yul\":28658:28725   */\n      tag_245\n      jump\t// in\n    tag_537:\n        /* \"#utility.yul\":28651:28725   */\n      swap2\n      pop\n        /* \"#utility.yul\":28734:28827   */\n      tag_538\n        /* \"#utility.yul\":28823:28826   */\n      dup3\n        /* \"#utility.yul\":28734:28827   */\n      tag_279\n      jump\t// in\n    tag_538:\n        /* \"#utility.yul\":28852:28854   */\n      0x20\n        /* \"#utility.yul\":28847:28850   */\n      dup3\n        /* \"#utility.yul\":28843:28855   */\n      add\n        /* \"#utility.yul\":28836:28855   */\n      swap1\n      pop\n        /* \"#utility.yul\":28495:28861   */\n      swap2\n      swap1\n      pop\n      jump\t// out\n        /* \"#utility.yul\":28867:29286   */\n    tag_160:\n        /* \"#utility.yul\":29033:29037   */\n      0x00\n        /* \"#utility.yul\":29071:29073   */\n      0x20\n        /* \"#utility.yul\":29060:29069   */\n      dup3\n        /* \"#utility.yul\":29056:29074   */\n      add\n        /* \"#utility.yul\":29048:29074   */\n      swap1\n      pop\n        /* \"#utility.yul\":29120:29129   */\n      dup2\n        /* \"#utility.yul\":29114:29118   */\n      dup2\n        /* \"#utility.yul\":29110:29130   */\n      sub\n        /* \"#utility.yul\":29106:29107   */\n      0x00\n        /* \"#utility.yul\":29095:29104   */\n      dup4\n        /* \"#utility.yul\":29091:29108   */\n      add\n        /* \"#utility.yul\":29084:29131   */\n      mstore\n        /* \"#utility.yul\":29148:29279   */\n      tag_540\n        /* \"#utility.yul\":29274:29278   */\n      dup2\n        /* \"#utility.yul\":29148:29279   */\n      tag_280\n      jump\t// in\n    tag_540:\n        /* \"#utility.yul\":29140:29279   */\n      swap1\n      pop\n        /* \"#utility.yul\":28867:29286   */\n      swap2\n      swap1\n      pop\n      jump\t// out\n        /* \"#utility.yul\":29292:29459   */\n    tag_281:\n        /* \"#utility.yul\":29432:29451   */\n      0x496e76616c696420616464726573736573000000000000000000000000000000\n        /* \"#utility.yul\":29428:29429   */\n      0x00\n        /* \"#utility.yul\":29420:29426   */\n      dup3\n        /* \"#utility.yul\":29416:29430   */\n      add\n        /* \"#utility.yul\":29409:29452   */\n      mstore\n        /* \"#utility.yul\":29292:29459   */\n      pop\n      jump\t// out\n        /* \"#utility.yul\":29465:29831   */\n    tag_282:\n        /* \"#utility.yul\":29607:29610   */\n      0x00\n        /* \"#utility.yul\":29628:29695   */\n      tag_543\n        /* \"#utility.yul\":29692:29694   */\n      0x11\n        /* \"#utility.yul\":29687:29690   */\n      dup4\n        /* \"#utility.yul\":29628:29695   */\n      tag_245\n      jump\t// in\n    tag_543:\n        /* \"#utility.yul\":29621:29695   */\n      swap2\n      pop\n        /* \"#utility.yul\":29704:29797   */\n      tag_544\n        /* \"#utility.yul\":29793:29796   */\n      dup3\n        /* \"#utility.yul\":29704:29797   */\n      tag_281\n      jump\t// in\n    tag_544:\n        /* \"#utility.yul\":29822:29824   */\n      0x20\n        /* \"#utility.yul\":29817:29820   */\n      dup3\n        /* \"#utility.yul\":29813:29825   */\n      add\n        /* \"#utility.yul\":29806:29825   */\n      swap1\n      pop\n        /* \"#utility.yul\":29465:29831   */\n      swap2\n      swap1\n      pop\n      jump\t// out\n        /* \"#utility.yul\":29837:30256   */\n    tag_164:\n        /* \"#utility.yul\":30003:30007   */\n      0x00\n        /* \"#utility.yul\":30041:30043   */\n      0x20\n        /* \"#utility.yul\":30030:30039   */\n      dup3\n        /* \"#utility.yul\":30026:30044   */\n      add\n        /* \"#utility.yul\":30018:30044   */\n      swap1\n      pop\n        /* \"#utility.yul\":30090:30099   */\n      dup2\n        /* \"#utility.yul\":30084:30088   */\n      dup2\n        /* \"#utility.yul\":30080:30100   */\n      sub\n        /* \"#utility.yul\":30076:30077   */\n      0x00\n        /* \"#utility.yul\":30065:30074   */\n      dup4\n        /* \"#utility.yul\":30061:30078   */\n      add\n        /* \"#utility.yul\":30054:30101   */\n      mstore\n        /* \"#utility.yul\":30118:30249   */\n      tag_546\n        /* \"#utility.yul\":30244:30248   */\n      dup2\n        /* \"#utility.yul\":30118:30249   */\n      tag_282\n      jump\t// in\n    tag_546:\n        /* \"#utility.yul\":30110:30249   */\n      swap1\n      pop\n        /* \"#utility.yul\":29837:30256   */\n      swap2\n      swap1\n      pop\n      jump\t// out\n        /* \"#utility.yul\":30262:30434   */\n    tag_283:\n        /* \"#utility.yul\":30402:30426   */\n      0x5472616e7366657220746f6b656e41206661696c656400000000000000000000\n        /* \"#utility.yul\":30398:30399   */\n      0x00\n        /* \"#utility.yul\":30390:30396   */\n      dup3\n        /* \"#utility.yul\":30386:30400   */\n      add\n        /* \"#utility.yul\":30379:30427   */\n      mstore\n        /* \"#utility.yul\":30262:30434   */\n      pop\n      jump\t// out\n        /* \"#utility.yul\":30440:30806   */\n    tag_284:\n        /* \"#utility.yul\":30582:30585   */\n      0x00\n        /* \"#utility.yul\":30603:30670   */\n      tag_549\n        /* \"#utility.yul\":30667:30669   */\n      0x16\n        /* \"#utility.yul\":30662:30665   */\n      dup4\n        /* \"#utility.yul\":30603:30670   */\n      tag_245\n      jump\t// in\n    tag_549:\n        /* \"#utility.yul\":30596:30670   */\n      swap2\n      pop\n        /* \"#utility.yul\":30679:30772   */\n      tag_550\n        /* \"#utility.yul\":30768:30771   */\n      dup3\n        /* \"#utility.yul\":30679:30772   */\n      tag_283\n      jump\t// in\n    tag_550:\n        /* \"#utility.yul\":30797:30799   */\n      0x20\n        /* \"#utility.yul\":30792:30795   */\n      dup3\n        /* \"#utility.yul\":30788:30800   */\n      add\n        /* \"#utility.yul\":30781:30800   */\n      swap1\n      pop\n        /* \"#utility.yul\":30440:30806   */\n      swap2\n      swap1\n      pop\n      jump\t// out\n        /* \"#utility.yul\":30812:31231   */\n    tag_190:\n        /* \"#utility.yul\":30978:30982   */\n      0x00\n        /* \"#utility.yul\":31016:31018   */\n      0x20\n        /* \"#utility.yul\":31005:31014   */\n      dup3\n        /* \"#utility.yul\":31001:31019   */\n      add\n        /* \"#utility.yul\":30993:31019   */\n      swap1\n      pop\n        /* \"#utility.yul\":31065:31074   */\n      dup2\n        /* \"#utility.yul\":31059:31063   */\n      dup2\n        /* \"#utility.yul\":31055:31075   */\n      sub\n        /* \"#utility.yul\":31051:31052   */\n      0x00\n        /* \"#utility.yul\":31040:31049   */\n      dup4\n        /* \"#utility.yul\":31036:31053   */\n      add\n        /* \"#utility.yul\":31029:31076   */\n      mstore\n        /* \"#utility.yul\":31093:31224   */\n      tag_552\n        /* \"#utility.yul\":31219:31223   */\n      dup2\n        /* \"#utility.yul\":31093:31224   */\n      tag_284\n      jump\t// in\n    tag_552:\n        /* \"#utility.yul\":31085:31224   */\n      swap1\n      pop\n        /* \"#utility.yul\":30812:31231   */\n      swap2\n      swap1\n      pop\n      jump\t// out\n        /* \"#utility.yul\":31237:31409   */\n    tag_285:\n        /* \"#utility.yul\":31377:31401   */\n      0x5472616e7366657220746f6b656e42206661696c656400000000000000000000\n        /* \"#utility.yul\":31373:31374   */\n      0x00\n        /* \"#utility.yul\":31365:31371   */\n      dup3\n        /* \"#utility.yul\":31361:31375   */\n      add\n        /* \"#utility.yul\":31354:31402   */\n      mstore\n        /* \"#utility.yul\":31237:31409   */\n      pop\n      jump\t// out\n        /* \"#utility.yul\":31415:31781   */\n    tag_286:\n        /* \"#utility.yul\":31557:31560   */\n      0x00\n        /* \"#utility.yul\":31578:31645   */\n      tag_555\n        /* \"#utility.yul\":31642:31644   */\n      0x16\n        /* \"#utility.yul\":31637:31640   */\n      dup4\n        /* \"#utility.yul\":31578:31645   */\n      tag_245\n      jump\t// in\n    tag_555:\n        /* \"#utility.yul\":31571:31645   */\n      swap2\n      pop\n        /* \"#utility.yul\":31654:31747   */\n      tag_556\n        /* \"#utility.yul\":31743:31746   */\n      dup3\n        /* \"#utility.yul\":31654:31747   */\n      tag_285\n      jump\t// in\n    tag_556:\n        /* \"#utility.yul\":31772:31774   */\n      0x20\n        /* \"#utility.yul\":31767:31770   */\n      dup3\n        /* \"#utility.yul\":31763:31775   */\n      add\n        /* \"#utility.yul\":31756:31775   */\n      swap1\n      pop\n        /* \"#utility.yul\":31415:31781   */\n      swap2\n      swap1\n      pop\n      jump\t// out\n        /* \"#utility.yul\":31787:32206   */\n    tag_197:\n        /* \"#utility.yul\":31953:31957   */\n      0x00\n        /* \"#utility.yul\":31991:31993   */\n      0x20\n        /* \"#utility.yul\":31980:31989   */\n      dup3\n        /* \"#utility.yul\":31976:31994   */\n      add\n        /* \"#utility.yul\":31968:31994   */\n      swap1\n      pop\n        /* \"#utility.yul\":32040:32049   */\n      dup2\n        /* \"#utility.yul\":32034:32038   */\n      dup2\n        /* \"#utility.yul\":32030:32050   */\n      sub\n        /* \"#utility.yul\":32026:32027   */\n      0x00\n        /* \"#utility.yul\":32015:32024   */\n      dup4\n        /* \"#utility.yul\":32011:32028   */\n      add\n        /* \"#utility.yul\":32004:32051   */\n      mstore\n        /* \"#utility.yul\":32068:32199   */\n      tag_558\n        /* \"#utility.yul\":32194:32198   */\n      dup2\n        /* \"#utility.yul\":32068:32199   */\n      tag_286\n      jump\t// in\n    tag_558:\n        /* \"#utility.yul\":32060:32199   */\n      swap1\n      pop\n        /* \"#utility.yul\":31787:32206   */\n      swap2\n      swap1\n      pop\n      jump\t// out\n    stop\n\n    sub_0: assembly {\n            /* \"SimpleSwap_flattened.sol\":21917:22400  contract LiquidityToken is ERC20 {... */\n          mstore(0x40, 0x80)\n            /* \"SimpleSwap_flattened.sol\":22112:22200  constructor() ERC20(\"Liquidity Token\", \"LPT\") {... */\n          callvalue\n          dup1\n          iszero\n          tag_1\n          jumpi\n          revert(0x00, 0x00)\n        tag_1:\n          pop\n            /* \"SimpleSwap_flattened.sol\":12482:12595  constructor(string memory name_, string memory symbol_) {... */\n          mload(0x40)\n          dup1\n          0x40\n          add\n          0x40\n          mstore\n          dup1\n          0x0f\n          dup2\n          mstore\n          0x20\n          add\n          0x4c697175696469747920546f6b656e0000000000000000000000000000000000\n          dup2\n          mstore\n          pop\n          mload(0x40)\n          dup1\n          0x40\n          add\n          0x40\n          mstore\n          dup1\n          0x03\n          dup2\n          mstore\n          0x20\n          add\n          0x4c50540000000000000000000000000000000000000000000000000000000000\n          dup2\n          mstore\n          pop\n            /* \"SimpleSwap_flattened.sol\":12556:12561  name_ */\n          dup2\n            /* \"SimpleSwap_flattened.sol\":12548:12553  _name */\n          0x03\n            /* \"SimpleSwap_flattened.sol\":12548:12561  _name = name_ */\n          swap1\n          dup2\n          tag_5\n          swap2\n          swap1\n          tag_6\n          jump\t// in\n        tag_5:\n          pop\n            /* \"SimpleSwap_flattened.sol\":12581:12588  symbol_ */\n          dup1\n            /* \"SimpleSwap_flattened.sol\":12571:12578  _symbol */\n          0x04\n            /* \"SimpleSwap_flattened.sol\":12571:12588  _symbol = symbol_ */\n          swap1\n          dup2\n          tag_7\n          swap2\n          swap1\n          tag_6\n          jump\t// in\n        tag_7:\n          pop\n            /* \"SimpleSwap_flattened.sol\":12482:12595  constructor(string memory name_, string memory symbol_) {... */\n          pop\n          pop\n            /* \"SimpleSwap_flattened.sol\":22183:22193  msg.sender */\n          caller\n            /* \"SimpleSwap_flattened.sol\":22168:22180  swapContract */\n          0x05\n          0x00\n            /* \"SimpleSwap_flattened.sol\":22168:22193  swapContract = msg.sender */\n          0x0100\n          exp\n          dup2\n          sload\n          dup2\n          0xffffffffffffffffffffffffffffffffffffffff\n          mul\n          not\n          and\n          swap1\n          dup4\n          0xffffffffffffffffffffffffffffffffffffffff\n          and\n          mul\n          or\n          swap1\n          sstore\n          pop\n            /* \"SimpleSwap_flattened.sol\":21917:22400  contract LiquidityToken is ERC20 {... */\n          jump(tag_9)\n            /* \"#utility.yul\":7:106   */\n        tag_10:\n            /* \"#utility.yul\":59:65   */\n          0x00\n            /* \"#utility.yul\":93:98   */\n          dup2\n            /* \"#utility.yul\":87:99   */\n          mload\n            /* \"#utility.yul\":77:99   */\n          swap1\n          pop\n            /* \"#utility.yul\":7:106   */\n          swap2\n          swap1\n          pop\n          jump\t// out\n            /* \"#utility.yul\":112:292   */\n        tag_11:\n            /* \"#utility.yul\":160:237   */\n          0x4e487b7100000000000000000000000000000000000000000000000000000000\n            /* \"#utility.yul\":157:158   */\n          0x00\n            /* \"#utility.yul\":150:238   */\n          mstore\n            /* \"#utility.yul\":257:261   */\n          0x41\n            /* \"#utility.yul\":254:255   */\n          0x04\n            /* \"#utility.yul\":247:262   */\n          mstore\n            /* \"#utility.yul\":281:285   */\n          0x24\n            /* \"#utility.yul\":278:279   */\n          0x00\n            /* \"#utility.yul\":271:286   */\n          revert\n            /* \"#utility.yul\":298:478   */\n        tag_12:\n            /* \"#utility.yul\":346:423   */\n          0x4e487b7100000000000000000000000000000000000000000000000000000000\n            /* \"#utility.yul\":343:344   */\n          0x00\n            /* \"#utility.yul\":336:424   */\n          mstore\n            /* \"#utility.yul\":443:447   */\n          0x22\n            /* \"#utility.yul\":440:441   */\n          0x04\n            /* \"#utility.yul\":433:448   */\n          mstore\n            /* \"#utility.yul\":467:471   */\n          0x24\n            /* \"#utility.yul\":464:465   */\n          0x00\n            /* \"#utility.yul\":457:472   */\n          revert\n            /* \"#utility.yul\":484:804   */\n        tag_13:\n            /* \"#utility.yul\":528:534   */\n          0x00\n            /* \"#utility.yul\":565:566   */\n          0x02\n            /* \"#utility.yul\":559:563   */\n          dup3\n            /* \"#utility.yul\":555:567   */\n          div\n            /* \"#utility.yul\":545:567   */\n          swap1\n          pop\n            /* \"#utility.yul\":612:613   */\n          0x01\n            /* \"#utility.yul\":606:610   */\n          dup3\n            /* \"#utility.yul\":602:614   */\n          and\n            /* \"#utility.yul\":633:651   */\n          dup1\n            /* \"#utility.yul\":623:704   */\n          tag_35\n          jumpi\n            /* \"#utility.yul\":689:693   */\n          0x7f\n            /* \"#utility.yul\":681:687   */\n          dup3\n            /* \"#utility.yul\":677:694   */\n          and\n            /* \"#utility.yul\":667:694   */\n          swap2\n          pop\n            /* \"#utility.yul\":623:704   */\n        tag_35:\n            /* \"#utility.yul\":751:753   */\n          0x20\n            /* \"#utility.yul\":743:749   */\n          dup3\n            /* \"#utility.yul\":740:754   */\n          lt\n            /* \"#utility.yul\":720:738   */\n          dup2\n            /* \"#utility.yul\":717:755   */\n          sub\n            /* \"#utility.yul\":714:798   */\n          tag_36\n          jumpi\n            /* \"#utility.yul\":770:788   */\n          tag_37\n          tag_12\n          jump\t// in\n        tag_37:\n            /* \"#utility.yul\":714:798   */\n        tag_36:\n            /* \"#utility.yul\":535:804   */\n          pop\n            /* \"#utility.yul\":484:804   */\n          swap2\n          swap1\n          pop\n          jump\t// out\n            /* \"#utility.yul\":810:951   */\n        tag_14:\n            /* \"#utility.yul\":859:863   */\n          0x00\n            /* \"#utility.yul\":882:885   */\n          dup2\n            /* \"#utility.yul\":874:885   */\n          swap1\n          pop\n            /* \"#utility.yul\":905:908   */\n          dup2\n            /* \"#utility.yul\":902:903   */\n          0x00\n            /* \"#utility.yul\":895:909   */\n          mstore\n            /* \"#utility.yul\":939:943   */\n          0x20\n            /* \"#utility.yul\":936:937   */\n          0x00\n            /* \"#utility.yul\":926:944   */\n          keccak256\n            /* \"#utility.yul\":918:944   */\n          swap1\n          pop\n            /* \"#utility.yul\":810:951   */\n          swap2\n          swap1\n          pop\n          jump\t// out\n            /* \"#utility.yul\":957:1050   */\n        tag_15:\n            /* \"#utility.yul\":994:1000   */\n          0x00\n            /* \"#utility.yul\":1041:1043   */\n          0x20\n            /* \"#utility.yul\":1036:1038   */\n          0x1f\n            /* \"#utility.yul\":1029:1034   */\n          dup4\n            /* \"#utility.yul\":1025:1039   */\n          add\n            /* \"#utility.yul\":1021:1044   */\n          div\n            /* \"#utility.yul\":1011:1044   */\n          swap1\n          pop\n            /* \"#utility.yul\":957:1050   */\n          swap2\n          swap1\n          pop\n          jump\t// out\n            /* \"#utility.yul\":1056:1163   */\n        tag_16:\n            /* \"#utility.yul\":1100:1108   */\n          0x00\n            /* \"#utility.yul\":1150:1155   */\n          dup3\n            /* \"#utility.yul\":1144:1148   */\n          dup3\n            /* \"#utility.yul\":1140:1156   */\n          shl\n            /* \"#utility.yul\":1119:1156   */\n          swap1\n          pop\n            /* \"#utility.yul\":1056:1163   */\n          swap3\n          swap2\n          pop\n          pop\n          jump\t// out\n            /* \"#utility.yul\":1169:1562   */\n        tag_17:\n            /* \"#utility.yul\":1238:1244   */\n          0x00\n            /* \"#utility.yul\":1288:1289   */\n          0x08\n            /* \"#utility.yul\":1276:1286   */\n          dup4\n            /* \"#utility.yul\":1272:1290   */\n          mul\n            /* \"#utility.yul\":1311:1408   */\n          tag_42\n            /* \"#utility.yul\":1341:1407   */\n          0xffffffffffffffffffffffffffffffffffffffffffffffffffffffffffffffff\n            /* \"#utility.yul\":1330:1339   */\n          dup3\n            /* \"#utility.yul\":1311:1408   */\n          tag_16\n          jump\t// in\n        tag_42:\n            /* \"#utility.yul\":1429:1468   */\n          tag_43\n            /* \"#utility.yul\":1459:1467   */\n          dup7\n            /* \"#utility.yul\":1448:1457   */\n          dup4\n            /* \"#utility.yul\":1429:1468   */\n          tag_16\n          jump\t// in\n        tag_43:\n            /* \"#utility.yul\":1417:1468   */\n          swap6\n          pop\n            /* \"#utility.yul\":1501:1505   */\n          dup1\n            /* \"#utility.yul\":1497:1506   */\n          not\n            /* \"#utility.yul\":1490:1495   */\n          dup5\n            /* \"#utility.yul\":1486:1507   */\n          and\n            /* \"#utility.yul\":1477:1507   */\n          swap4\n          pop\n            /* \"#utility.yul\":1550:1554   */\n          dup1\n            /* \"#utility.yul\":1540:1548   */\n          dup7\n            /* \"#utility.yul\":1536:1555   */\n          and\n            /* \"#utility.yul\":1529:1534   */\n          dup5\n            /* \"#utility.yul\":1526:1556   */\n          or\n            /* \"#utility.yul\":1516:1556   */\n          swap3\n          pop\n            /* \"#utility.yul\":1245:1562   */\n          pop\n          pop\n            /* \"#utility.yul\":1169:1562   */\n          swap4\n          swap3\n          pop\n          pop\n          pop\n          jump\t// out\n            /* \"#utility.yul\":1568:1645   */\n        tag_18:\n            /* \"#utility.yul\":1605:1612   */\n          0x00\n            /* \"#utility.yul\":1634:1639   */\n          dup2\n            /* \"#utility.yul\":1623:1639   */\n          swap1\n          pop\n            /* \"#utility.yul\":1568:1645   */\n          swap2\n          swap1\n          pop\n          jump\t// out\n            /* \"#utility.yul\":1651:1711   */\n        tag_19:\n            /* \"#utility.yul\":1679:1682   */\n          0x00\n            /* \"#utility.yul\":1700:1705   */\n          dup2\n            /* \"#utility.yul\":1693:1705   */\n          swap1\n          pop\n            /* \"#utility.yul\":1651:1711   */\n          swap2\n          swap1\n          pop\n          jump\t// out\n            /* \"#utility.yul\":1717:1859   */\n        tag_20:\n            /* \"#utility.yul\":1767:1776   */\n          0x00\n            /* \"#utility.yul\":1800:1853   */\n          tag_47\n            /* \"#utility.yul\":1818:1852   */\n          tag_48\n            /* \"#utility.yul\":1827:1851   */\n          tag_49\n            /* \"#utility.yul\":1845:1850   */\n          dup5\n            /* \"#utility.yul\":1827:1851   */\n          tag_18\n          jump\t// in\n        tag_49:\n            /* \"#utility.yul\":1818:1852   */\n          tag_19\n          jump\t// in\n        tag_48:\n            /* \"#utility.yul\":1800:1853   */\n          tag_18\n          jump\t// in\n        tag_47:\n            /* \"#utility.yul\":1787:1853   */\n          swap1\n          pop\n            /* \"#utility.yul\":1717:1859   */\n          swap2\n          swap1\n          pop\n          jump\t// out\n            /* \"#utility.yul\":1865:1940   */\n        tag_21:\n            /* \"#utility.yul\":1908:1911   */\n          0x00\n            /* \"#utility.yul\":1929:1934   */\n          dup2\n            /* \"#utility.yul\":1922:1934   */\n          swap1\n          pop\n            /* \"#utility.yul\":1865:1940   */\n          swap2\n          swap1\n          pop\n          jump\t// out\n            /* \"#utility.yul\":1946:2215   */\n        tag_22:\n            /* \"#utility.yul\":2056:2095   */\n          tag_52\n            /* \"#utility.yul\":2087:2094   */\n          dup4\n            /* \"#utility.yul\":2056:2095   */\n          tag_20\n          jump\t// in\n        tag_52:\n            /* \"#utility.yul\":2117:2208   */\n          tag_53\n            /* \"#utility.yul\":2166:2207   */\n          tag_54\n            /* \"#utility.yul\":2190:2206   */\n          dup3\n            /* \"#utility.yul\":2166:2207   */\n          tag_21\n          jump\t// in\n        tag_54:\n            /* \"#utility.yul\":2158:2164   */\n          dup5\n            /* \"#utility.yul\":2151:2155   */\n          dup5\n            /* \"#utility.yul\":2145:2156   */\n          sload\n            /* \"#utility.yul\":2117:2208   */\n          tag_17\n          jump\t// in\n        tag_53:\n            /* \"#utility.yul\":2111:2115   */\n          dup3\n            /* \"#utility.yul\":2104:2209   */\n          sstore\n            /* \"#utility.yul\":2022:2215   */\n          pop\n            /* \"#utility.yul\":1946:2215   */\n          pop\n          pop\n          pop\n          jump\t// out\n            /* \"#utility.yul\":2221:2294   */\n        tag_23:\n            /* \"#utility.yul\":2266:2269   */\n          0x00\n            /* \"#utility.yul\":2287:2288   */\n          0x00\n            /* \"#utility.yul\":2280:2288   */\n          swap1\n          pop\n            /* \"#utility.yul\":2221:2294   */\n          swap1\n          jump\t// out\n            /* \"#utility.yul\":2300:2489   */\n        tag_24:\n            /* \"#utility.yul\":2377:2409   */\n          tag_57\n          tag_23\n          jump\t// in\n        tag_57:\n            /* \"#utility.yul\":2418:2483   */\n          tag_58\n            /* \"#utility.yul\":2476:2482   */\n          dup2\n            /* \"#utility.yul\":2468:2474   */\n          dup5\n            /* \"#utility.yul\":2462:2466   */\n          dup5\n            /* \"#utility.yul\":2418:2483   */\n          tag_22\n          jump\t// in\n        tag_58:\n            /* \"#utility.yul\":2353:2489   */\n          pop\n            /* \"#utility.yul\":2300:2489   */\n          pop\n          pop\n          jump\t// out\n            /* \"#utility.yul\":2495:2681   */\n        tag_25:\n            /* \"#utility.yul\":2555:2675   */\n        tag_60:\n            /* \"#utility.yul\":2572:2575   */\n          dup2\n            /* \"#utility.yul\":2565:2570   */\n          dup2\n            /* \"#utility.yul\":2562:2576   */\n          lt\n            /* \"#utility.yul\":2555:2675   */\n          iszero\n          tag_62\n          jumpi\n            /* \"#utility.yul\":2626:2665   */\n          tag_63\n            /* \"#utility.yul\":2663:2664   */\n          0x00\n            /* \"#utility.yul\":2656:2661   */\n          dup3\n            /* \"#utility.yul\":2626:2665   */\n          tag_24\n          jump\t// in\n        tag_63:\n            /* \"#utility.yul\":2599:2600   */\n          0x01\n            /* \"#utility.yul\":2592:2597   */\n          dup2\n            /* \"#utility.yul\":2588:2601   */\n          add\n            /* \"#utility.yul\":2579:2601   */\n          swap1\n          pop\n            /* \"#utility.yul\":2555:2675   */\n          jump(tag_60)\n        tag_62:\n            /* \"#utility.yul\":2495:2681   */\n          pop\n          pop\n          jump\t// out\n            /* \"#utility.yul\":2687:3230   */\n        tag_26:\n            /* \"#utility.yul\":2788:2790   */\n          0x1f\n            /* \"#utility.yul\":2783:2786   */\n          dup3\n            /* \"#utility.yul\":2780:2791   */\n          gt\n            /* \"#utility.yul\":2777:3223   */\n          iszero\n          tag_65\n          jumpi\n            /* \"#utility.yul\":2822:2860   */\n          tag_66\n            /* \"#utility.yul\":2854:2859   */\n          dup2\n            /* \"#utility.yul\":2822:2860   */\n          tag_14\n          jump\t// in\n        tag_66:\n            /* \"#utility.yul\":2906:2935   */\n          tag_67\n            /* \"#utility.yul\":2924:2934   */\n          dup5\n            /* \"#utility.yul\":2906:2935   */\n          tag_15\n          jump\t// in\n        tag_67:\n            /* \"#utility.yul\":2896:2904   */\n          dup2\n            /* \"#utility.yul\":2892:2936   */\n          add\n            /* \"#utility.yul\":3089:3091   */\n          0x20\n            /* \"#utility.yul\":3077:3087   */\n          dup6\n            /* \"#utility.yul\":3074:3092   */\n          lt\n            /* \"#utility.yul\":3071:3120   */\n          iszero\n          tag_68\n          jumpi\n            /* \"#utility.yul\":3110:3118   */\n          dup2\n            /* \"#utility.yul\":3095:3118   */\n          swap1\n          pop\n            /* \"#utility.yul\":3071:3120   */\n        tag_68:\n            /* \"#utility.yul\":3133:3213   */\n          tag_69\n            /* \"#utility.yul\":3189:3211   */\n          tag_70\n            /* \"#utility.yul\":3207:3210   */\n          dup6\n            /* \"#utility.yul\":3189:3211   */\n          tag_15\n          jump\t// in\n        tag_70:\n            /* \"#utility.yul\":3179:3187   */\n          dup4\n            /* \"#utility.yul\":3175:3212   */\n          add\n            /* \"#utility.yul\":3162:3173   */\n          dup3\n            /* \"#utility.yul\":3133:3213   */\n          tag_25\n          jump\t// in\n        tag_69:\n            /* \"#utility.yul\":2792:3223   */\n          pop\n          pop\n            /* \"#utility.yul\":2777:3223   */\n        tag_65:\n            /* \"#utility.yul\":2687:3230   */\n          pop\n          pop\n          pop\n          jump\t// out\n            /* \"#utility.yul\":3236:3353   */\n        tag_27:\n            /* \"#utility.yul\":3290:3298   */\n          0x00\n            /* \"#utility.yul\":3340:3345   */\n          dup3\n            /* \"#utility.yul\":3334:3338   */\n          dup3\n            /* \"#utility.yul\":3330:3346   */\n          shr\n            /* \"#utility.yul\":3309:3346   */\n          swap1\n          pop\n            /* \"#utility.yul\":3236:3353   */\n          swap3\n          swap2\n          pop\n          pop\n          jump\t// out\n            /* \"#utility.yul\":3359:3528   */\n        tag_28:\n            /* \"#utility.yul\":3403:3409   */\n          0x00\n            /* \"#utility.yul\":3436:3487   */\n          tag_73\n            /* \"#utility.yul\":3484:3485   */\n          0x00\n            /* \"#utility.yul\":3480:3486   */\n          not\n            /* \"#utility.yul\":3472:3477   */\n          dup5\n            /* \"#utility.yul\":3469:3470   */\n          0x08\n            /* \"#utility.yul\":3465:3478   */\n          mul\n            /* \"#utility.yul\":3436:3487   */\n          tag_27\n          jump\t// in\n        tag_73:\n            /* \"#utility.yul\":3432:3488   */\n          not\n            /* \"#utility.yul\":3517:3521   */\n          dup1\n            /* \"#utility.yul\":3511:3515   */\n          dup4\n            /* \"#utility.yul\":3507:3522   */\n          and\n            /* \"#utility.yul\":3497:3522   */\n          swap2\n          pop\n            /* \"#utility.yul\":3410:3528   */\n          pop\n            /* \"#utility.yul\":3359:3528   */\n          swap3\n          swap2\n          pop\n          pop\n          jump\t// out\n            /* \"#utility.yul\":3533:3828   */\n        tag_29:\n            /* \"#utility.yul\":3609:3613   */\n          0x00\n            /* \"#utility.yul\":3755:3784   */\n          tag_75\n            /* \"#utility.yul\":3780:3783   */\n          dup4\n            /* \"#utility.yul\":3774:3778   */\n          dup4\n            /* \"#utility.yul\":3755:3784   */\n          tag_28\n          jump\t// in\n        tag_75:\n            /* \"#utility.yul\":3747:3784   */\n          swap2\n          pop\n            /* \"#utility.yul\":3817:3820   */\n          dup3\n            /* \"#utility.yul\":3814:3815   */\n          0x02\n            /* \"#utility.yul\":3810:3821   */\n          mul\n            /* \"#utility.yul\":3804:3808   */\n          dup3\n            /* \"#utility.yul\":3801:3822   */\n          or\n            /* \"#utility.yul\":3793:3822   */\n          swap1\n          pop\n            /* \"#utility.yul\":3533:3828   */\n          swap3\n          swap2\n          pop\n          pop\n          jump\t// out\n            /* \"#utility.yul\":3833:5228   */\n        tag_6:\n            /* \"#utility.yul\":3950:3987   */\n          tag_77\n            /* \"#utility.yul\":3983:3986   */\n          dup3\n            /* \"#utility.yul\":3950:3987   */\n          tag_10\n          jump\t// in\n        tag_77:\n            /* \"#utility.yul\":4052:4070   */\n          0xffffffffffffffff\n            /* \"#utility.yul\":4044:4050   */\n          dup2\n            /* \"#utility.yul\":4041:4071   */\n          gt\n            /* \"#utility.yul\":4038:4094   */\n          iszero\n          tag_78\n          jumpi\n            /* \"#utility.yul\":4074:4092   */\n          tag_79\n          tag_11\n          jump\t// in\n        tag_79:\n            /* \"#utility.yul\":4038:4094   */\n        tag_78:\n            /* \"#utility.yul\":4118:4156   */\n          tag_80\n            /* \"#utility.yul\":4150:4154   */\n          dup3\n            /* \"#utility.yul\":4144:4155   */\n          sload\n            /* \"#utility.yul\":4118:4156   */\n          tag_13\n          jump\t// in\n        tag_80:\n            /* \"#utility.yul\":4203:4270   */\n          tag_81\n            /* \"#utility.yul\":4263:4269   */\n          dup3\n            /* \"#utility.yul\":4255:4261   */\n          dup3\n            /* \"#utility.yul\":4249:4253   */\n          dup6\n            /* \"#utility.yul\":4203:4270   */\n          tag_26\n          jump\t// in\n        tag_81:\n            /* \"#utility.yul\":4297:4298   */\n          0x00\n            /* \"#utility.yul\":4321:4325   */\n          0x20\n            /* \"#utility.yul\":4308:4325   */\n          swap1\n          pop\n            /* \"#utility.yul\":4353:4355   */\n          0x1f\n            /* \"#utility.yul\":4345:4351   */\n          dup4\n            /* \"#utility.yul\":4342:4356   */\n          gt\n            /* \"#utility.yul\":4370:4371   */\n          0x01\n            /* \"#utility.yul\":4365:4983   */\n          dup2\n          eq\n          tag_83\n          jumpi\n            /* \"#utility.yul\":5027:5028   */\n          0x00\n            /* \"#utility.yul\":5044:5050   */\n          dup5\n            /* \"#utility.yul\":5041:5118   */\n          iszero\n          tag_84\n          jumpi\n            /* \"#utility.yul\":5093:5102   */\n          dup3\n            /* \"#utility.yul\":5088:5091   */\n          dup8\n            /* \"#utility.yul\":5084:5103   */\n          add\n            /* \"#utility.yul\":5078:5104   */\n          mload\n            /* \"#utility.yul\":5069:5104   */\n          swap1\n          pop\n            /* \"#utility.yul\":5041:5118   */\n        tag_84:\n            /* \"#utility.yul\":5144:5211   */\n          tag_85\n            /* \"#utility.yul\":5204:5210   */\n          dup6\n            /* \"#utility.yul\":5197:5202   */\n          dup3\n            /* \"#utility.yul\":5144:5211   */\n          tag_29\n          jump\t// in\n        tag_85:\n            /* \"#utility.yul\":5138:5142   */\n          dup7\n            /* \"#utility.yul\":5131:5212   */\n          sstore\n            /* \"#utility.yul\":5000:5222   */\n          pop\n            /* \"#utility.yul\":4335:5222   */\n          jump(tag_82)\n            /* \"#utility.yul\":4365:4983   */\n        tag_83:\n            /* \"#utility.yul\":4417:4421   */\n          0x1f\n            /* \"#utility.yul\":4413:4422   */\n          not\n            /* \"#utility.yul\":4405:4411   */\n          dup5\n            /* \"#utility.yul\":4401:4423   */\n          and\n            /* \"#utility.yul\":4451:4488   */\n          tag_86\n            /* \"#utility.yul\":4483:4487   */\n          dup7\n            /* \"#utility.yul\":4451:4488   */\n          tag_14\n          jump\t// in\n        tag_86:\n            /* \"#utility.yul\":4510:4511   */\n          0x00\n            /* \"#utility.yul\":4524:4732   */\n        tag_87:\n            /* \"#utility.yul\":4538:4545   */\n          dup3\n            /* \"#utility.yul\":4535:4536   */\n          dup2\n            /* \"#utility.yul\":4532:4546   */\n          lt\n            /* \"#utility.yul\":4524:4732   */\n          iszero\n          tag_89\n          jumpi\n            /* \"#utility.yul\":4617:4626   */\n          dup5\n            /* \"#utility.yul\":4612:4615   */\n          dup10\n            /* \"#utility.yul\":4608:4627   */\n          add\n            /* \"#utility.yul\":4602:4628   */\n          mload\n            /* \"#utility.yul\":4594:4600   */\n          dup3\n            /* \"#utility.yul\":4587:4629   */\n          sstore\n            /* \"#utility.yul\":4668:4669   */\n          0x01\n            /* \"#utility.yul\":4660:4666   */\n          dup3\n            /* \"#utility.yul\":4656:4670   */\n          add\n            /* \"#utility.yul\":4646:4670   */\n          swap2\n          pop\n            /* \"#utility.yul\":4715:4717   */\n          0x20\n            /* \"#utility.yul\":4704:4713   */\n          dup6\n            /* \"#utility.yul\":4700:4718   */\n          add\n            /* \"#utility.yul\":4687:4718   */\n          swap5\n          pop\n            /* \"#utility.yul\":4561:4565   */\n          0x20\n            /* \"#utility.yul\":4558:4559   */\n          dup2\n            /* \"#utility.yul\":4554:4566   */\n          add\n            /* \"#utility.yul\":4549:4566   */\n          swap1\n          pop\n            /* \"#utility.yul\":4524:4732   */\n          jump(tag_87)\n        tag_89:\n            /* \"#utility.yul\":4760:4766   */\n          dup7\n            /* \"#utility.yul\":4751:4758   */\n          dup4\n            /* \"#utility.yul\":4748:4767   */\n          lt\n            /* \"#utility.yul\":4745:4924   */\n          iszero\n          tag_90\n          jumpi\n            /* \"#utility.yul\":4818:4827   */\n          dup5\n            /* \"#utility.yul\":4813:4816   */\n          dup10\n            /* \"#utility.yul\":4809:4828   */\n          add\n            /* \"#utility.yul\":4803:4829   */\n          mload\n            /* \"#utility.yul\":4861:4909   */\n          tag_91\n            /* \"#utility.yul\":4903:4907   */\n          0x1f\n            /* \"#utility.yul\":4895:4901   */\n          dup10\n            /* \"#utility.yul\":4891:4908   */\n          and\n            /* \"#utility.yul\":4880:4889   */\n          dup3\n            /* \"#utility.yul\":4861:4909   */\n          tag_28\n          jump\t// in\n        tag_91:\n            /* \"#utility.yul\":4853:4859   */\n          dup4\n            /* \"#utility.yul\":4846:4910   */\n          sstore\n            /* \"#utility.yul\":4768:4924   */\n          pop\n            /* \"#utility.yul\":4745:4924   */\n        tag_90:\n            /* \"#utility.yul\":4970:4971   */\n          0x01\n            /* \"#utility.yul\":4966:4967   */\n          0x02\n            /* \"#utility.yul\":4958:4964   */\n          dup9\n            /* \"#utility.yul\":4954:4968   */\n          mul\n            /* \"#utility.yul\":4950:4972   */\n          add\n            /* \"#utility.yul\":4944:4948   */\n          dup9\n            /* \"#utility.yul\":4937:4973   */\n          sstore\n            /* \"#utility.yul\":4372:4983   */\n          pop\n          pop\n          pop\n            /* \"#utility.yul\":4335:5222   */\n        tag_82:\n          pop\n            /* \"#utility.yul\":3925:5228   */\n          pop\n          pop\n          pop\n            /* \"#utility.yul\":3833:5228   */\n          pop\n          pop\n          jump\t// out\n            /* \"SimpleSwap_flattened.sol\":21917:22400  contract LiquidityToken is ERC20 {... */\n        tag_9:\n          dataSize(sub_0)\n          dup1\n          dataOffset(sub_0)\n          0x00\n          codecopy\n          0x00\n          return\n        stop\n\n        sub_0: assembly {\n                /* \"SimpleSwap_flattened.sol\":21917:22400  contract LiquidityToken is ERC20 {... */\n              mstore(0x40, 0x80)\n              callvalue\n              dup1\n              iszero\n              tag_1\n              jumpi\n              revert(0x00, 0x00)\n            tag_1:\n              pop\n              jumpi(tag_2, lt(calldatasize, 0x04))\n              shr(0xe0, calldataload(0x00))\n              dup1\n              0x70a08231\n              gt\n              tag_15\n              jumpi\n              dup1\n              0x70a08231\n              eq\n              tag_9\n              jumpi\n              dup1\n              0x8ea83031\n              eq\n              tag_10\n              jumpi\n              dup1\n              0x95d89b41\n              eq\n              tag_11\n              jumpi\n              dup1\n              0x9dc29fac\n              eq\n              tag_12\n              jumpi\n              dup1\n              0xa9059cbb\n              eq\n              tag_13\n              jumpi\n              dup1\n              0xdd62ed3e\n              eq\n              tag_14\n              jumpi\n              jump(tag_2)\n            tag_15:\n              dup1\n              0x06fdde03\n              eq\n              tag_3\n              jumpi\n              dup1\n              0x095ea7b3\n              eq\n              tag_4\n              jumpi\n              dup1\n              0x18160ddd\n              eq\n              tag_5\n              jumpi\n              dup1\n              0x23b872dd\n              eq\n              tag_6\n              jumpi\n              dup1\n              0x313ce567\n              eq\n              tag_7\n              jumpi\n              dup1\n              0x40c10f19\n              eq\n              tag_8\n              jumpi\n            tag_2:\n              revert(0x00, 0x00)\n                /* \"SimpleSwap_flattened.sol\":12660:12749  function name() public view virtual returns (string memory) {... */\n            tag_3:\n              tag_16\n              tag_17\n              jump\t// in\n            tag_16:\n              mload(0x40)\n              tag_18\n              swap2\n              swap1\n              tag_19\n              jump\t// in\n            tag_18:\n              mload(0x40)\n              dup1\n              swap2\n              sub\n              swap1\n              return\n                /* \"SimpleSwap_flattened.sol\":14879:15065  function approve(address spender, uint256 value) public virtual returns (bool) {... */\n            tag_4:\n              tag_20\n              0x04\n              dup1\n              calldatasize\n              sub\n              dup2\n              add\n              swap1\n              tag_21\n              swap2\n              swap1\n              tag_22\n              jump\t// in\n            tag_21:\n              tag_23\n              jump\t// in\n            tag_20:\n              mload(0x40)\n              tag_24\n              swap2\n              swap1\n              tag_25\n              jump\t// in\n            tag_24:\n              mload(0x40)\n              dup1\n              swap2\n              sub\n              swap1\n              return\n                /* \"SimpleSwap_flattened.sol\":13730:13827  function totalSupply() public view virtual returns (uint256) {... */\n            tag_5:\n              tag_26\n              tag_27\n              jump\t// in\n            tag_26:\n              mload(0x40)\n              tag_28\n              swap2\n              swap1\n              tag_29\n              jump\t// in\n            tag_28:\n              mload(0x40)\n              dup1\n              swap2\n              sub\n              swap1\n              return\n                /* \"SimpleSwap_flattened.sol\":15657:15901  function transferFrom(address from, address to, uint256 value) public virtual returns (bool) {... */\n            tag_6:\n              tag_30\n              0x04\n              dup1\n              calldatasize\n              sub\n              dup2\n              add\n              swap1\n              tag_31\n              swap2\n              swap1\n              tag_32\n              jump\t// in\n            tag_31:\n              tag_33\n              jump\t// in\n            tag_30:\n              mload(0x40)\n              tag_34\n              swap2\n              swap1\n              tag_25\n              jump\t// in\n            tag_34:\n              mload(0x40)\n              dup1\n              swap2\n              sub\n              swap1\n              return\n                /* \"SimpleSwap_flattened.sol\":13588:13670  function decimals() public view virtual returns (uint8) {... */\n            tag_7:\n              tag_35\n              tag_36\n              jump\t// in\n            tag_35:\n              mload(0x40)\n              tag_37\n              swap2\n              swap1\n              tag_38\n              jump\t// in\n            tag_37:\n              mload(0x40)\n              dup1\n              swap2\n              sub\n              swap1\n              return\n                /* \"SimpleSwap_flattened.sol\":22206:22297  function mint(address to, uint amount) external onlySwap {... */\n            tag_8:\n              tag_39\n              0x04\n              dup1\n              calldatasize\n              sub\n              dup2\n              add\n              swap1\n              tag_40\n              swap2\n              swap1\n              tag_22\n              jump\t// in\n            tag_40:\n              tag_41\n              jump\t// in\n            tag_39:\n              stop\n                /* \"SimpleSwap_flattened.sol\":13885:14001  function balanceOf(address account) public view virtual returns (uint256) {... */\n            tag_9:\n              tag_42\n              0x04\n              dup1\n              calldatasize\n              sub\n              dup2\n              add\n              swap1\n              tag_43\n              swap2\n              swap1\n              tag_44\n              jump\t// in\n            tag_43:\n              tag_45\n              jump\t// in\n            tag_42:\n              mload(0x40)\n              tag_46\n              swap2\n              swap1\n              tag_29\n              jump\t// in\n            tag_46:\n              mload(0x40)\n              dup1\n              swap2\n              sub\n              swap1\n              return\n                /* \"SimpleSwap_flattened.sol\":21956:21983  address public swapContract */\n            tag_10:\n              tag_47\n              tag_48\n              jump\t// in\n            tag_47:\n              mload(0x40)\n              tag_49\n              swap2\n              swap1\n              tag_50\n              jump\t// in\n            tag_49:\n              mload(0x40)\n              dup1\n              swap2\n              sub\n              swap1\n              return\n                /* \"SimpleSwap_flattened.sol\":12862:12955  function symbol() public view virtual returns (string memory) {... */\n            tag_11:\n              tag_51\n              tag_52\n              jump\t// in\n            tag_51:\n              mload(0x40)\n              tag_53\n              swap2\n              swap1\n              tag_19\n              jump\t// in\n            tag_53:\n              mload(0x40)\n              dup1\n              swap2\n              sub\n              swap1\n              return\n                /* \"SimpleSwap_flattened.sol\":22303:22398  function burn(address from, uint amount) external onlySwap {... */\n            tag_12:\n              tag_54\n              0x04\n              dup1\n              calldatasize\n              sub\n              dup2\n              add\n              swap1\n              tag_55\n              swap2\n              swap1\n              tag_22\n              jump\t// in\n            tag_55:\n              tag_56\n              jump\t// in\n            tag_54:\n              stop\n                /* \"SimpleSwap_flattened.sol\":14196:14374  function transfer(address to, uint256 value) public virtual returns (bool) {... */\n            tag_13:\n              tag_57\n              0x04\n              dup1\n              calldatasize\n              sub\n              dup2\n              add\n              swap1\n              tag_58\n              swap2\n              swap1\n              tag_22\n              jump\t// in\n            tag_58:\n              tag_59\n              jump\t// in\n            tag_57:\n              mload(0x40)\n              tag_60\n              swap2\n              swap1\n              tag_25\n              jump\t// in\n            tag_60:\n              mload(0x40)\n              dup1\n              swap2\n              sub\n              swap1\n              return\n                /* \"SimpleSwap_flattened.sol\":14432:14572  function allowance(address owner, address spender) public view virtual returns (uint256) {... */\n            tag_14:\n              tag_61\n              0x04\n              dup1\n              calldatasize\n              sub\n              dup2\n              add\n              swap1\n              tag_62\n              swap2\n              swap1\n              tag_63\n              jump\t// in\n            tag_62:\n              tag_64\n              jump\t// in\n            tag_61:\n              mload(0x40)\n              tag_65\n              swap2\n              swap1\n              tag_29\n              jump\t// in\n            tag_65:\n              mload(0x40)\n              dup1\n              swap2\n              sub\n              swap1\n              return\n                /* \"SimpleSwap_flattened.sol\":12660:12749  function name() public view virtual returns (string memory) {... */\n            tag_17:\n                /* \"SimpleSwap_flattened.sol\":12705:12718  string memory */\n              0x60\n                /* \"SimpleSwap_flattened.sol\":12737:12742  _name */\n              0x03\n                /* \"SimpleSwap_flattened.sol\":12730:12742  return _name */\n              dup1\n              sload\n              tag_67\n              swap1\n              tag_68\n              jump\t// in\n            tag_67:\n              dup1\n              0x1f\n              add\n              0x20\n              dup1\n              swap2\n              div\n              mul\n              0x20\n              add\n              mload(0x40)\n              swap1\n              dup2\n              add\n              0x40\n              mstore\n              dup1\n              swap3\n              swap2\n              swap1\n              dup2\n              dup2\n              mstore\n              0x20\n              add\n              dup3\n              dup1\n              sload\n              tag_69\n              swap1\n              tag_68\n              jump\t// in\n            tag_69:\n              dup1\n              iszero\n              tag_70\n              jumpi\n              dup1\n              0x1f\n              lt\n              tag_71\n              jumpi\n              0x0100\n              dup1\n              dup4\n              sload\n              div\n              mul\n              dup4\n              mstore\n              swap2\n              0x20\n              add\n              swap2\n              jump(tag_70)\n            tag_71:\n              dup3\n              add\n              swap2\n              swap1\n              0x00\n              mstore\n              keccak256(0x00, 0x20)\n              swap1\n            tag_72:\n              dup2\n              sload\n              dup2\n              mstore\n              swap1\n              0x01\n              add\n              swap1\n              0x20\n              add\n              dup1\n              dup4\n              gt\n              tag_72\n              jumpi\n              dup3\n              swap1\n              sub\n              0x1f\n              and\n              dup3\n              add\n              swap2\n            tag_70:\n              pop\n              pop\n              pop\n              pop\n              pop\n              swap1\n              pop\n                /* \"SimpleSwap_flattened.sol\":12660:12749  function name() public view virtual returns (string memory) {... */\n              swap1\n              jump\t// out\n                /* \"SimpleSwap_flattened.sol\":14879:15065  function approve(address spender, uint256 value) public virtual returns (bool) {... */\n            tag_23:\n                /* \"SimpleSwap_flattened.sol\":14952:14956  bool */\n              0x00\n                /* \"SimpleSwap_flattened.sol\":14968:14981  address owner */\n              0x00\n                /* \"SimpleSwap_flattened.sol\":14984:14996  _msgSender() */\n              tag_74\n                /* \"SimpleSwap_flattened.sol\":14984:14994  _msgSender */\n              tag_75\n                /* \"SimpleSwap_flattened.sol\":14984:14996  _msgSender() */\n              jump\t// in\n            tag_74:\n                /* \"SimpleSwap_flattened.sol\":14968:14996  address owner = _msgSender() */\n              swap1\n              pop\n                /* \"SimpleSwap_flattened.sol\":15006:15037  _approve(owner, spender, value) */\n              tag_76\n                /* \"SimpleSwap_flattened.sol\":15015:15020  owner */\n              dup2\n                /* \"SimpleSwap_flattened.sol\":15022:15029  spender */\n              dup6\n                /* \"SimpleSwap_flattened.sol\":15031:15036  value */\n              dup6\n                /* \"SimpleSwap_flattened.sol\":15006:15014  _approve */\n              tag_77\n                /* \"SimpleSwap_flattened.sol\":15006:15037  _approve(owner, spender, value) */\n              jump\t// in\n            tag_76:\n                /* \"SimpleSwap_flattened.sol\":15054:15058  true */\n              0x01\n                /* \"SimpleSwap_flattened.sol\":15047:15058  return true */\n              swap2\n              pop\n              pop\n                /* \"SimpleSwap_flattened.sol\":14879:15065  function approve(address spender, uint256 value) public virtual returns (bool) {... */\n              swap3\n              swap2\n              pop\n              pop\n              jump\t// out\n                /* \"SimpleSwap_flattened.sol\":13730:13827  function totalSupply() public view virtual returns (uint256) {... */\n            tag_27:\n                /* \"SimpleSwap_flattened.sol\":13782:13789  uint256 */\n              0x00\n                /* \"SimpleSwap_flattened.sol\":13808:13820  _totalSupply */\n              sload(0x02)\n                /* \"SimpleSwap_flattened.sol\":13801:13820  return _totalSupply */\n              swap1\n              pop\n                /* \"SimpleSwap_flattened.sol\":13730:13827  function totalSupply() public view virtual returns (uint256) {... */\n              swap1\n              jump\t// out\n                /* \"SimpleSwap_flattened.sol\":15657:15901  function transferFrom(address from, address to, uint256 value) public virtual returns (bool) {... */\n            tag_33:\n                /* \"SimpleSwap_flattened.sol\":15744:15748  bool */\n              0x00\n                /* \"SimpleSwap_flattened.sol\":15760:15775  address spender */\n              0x00\n                /* \"SimpleSwap_flattened.sol\":15778:15790  _msgSender() */\n              tag_80\n                /* \"SimpleSwap_flattened.sol\":15778:15788  _msgSender */\n              tag_75\n                /* \"SimpleSwap_flattened.sol\":15778:15790  _msgSender() */\n              jump\t// in\n            tag_80:\n                /* \"SimpleSwap_flattened.sol\":15760:15790  address spender = _msgSender() */\n              swap1\n              pop\n                /* \"SimpleSwap_flattened.sol\":15800:15837  _spendAllowance(from, spender, value) */\n              tag_81\n                /* \"SimpleSwap_flattened.sol\":15816:15820  from */\n              dup6\n                /* \"SimpleSwap_flattened.sol\":15822:15829  spender */\n              dup3\n                /* \"SimpleSwap_flattened.sol\":15831:15836  value */\n              dup6\n                /* \"SimpleSwap_flattened.sol\":15800:15815  _spendAllowance */\n              tag_82\n                /* \"SimpleSwap_flattened.sol\":15800:15837  _spendAllowance(from, spender, value) */\n              jump\t// in\n            tag_81:\n                /* \"SimpleSwap_flattened.sol\":15847:15873  _transfer(from, to, value) */\n              tag_83\n                /* \"SimpleSwap_flattened.sol\":15857:15861  from */\n              dup6\n                /* \"SimpleSwap_flattened.sol\":15863:15865  to */\n              dup6\n                /* \"SimpleSwap_flattened.sol\":15867:15872  value */\n              dup6\n                /* \"SimpleSwap_flattened.sol\":15847:15856  _transfer */\n              tag_84\n                /* \"SimpleSwap_flattened.sol\":15847:15873  _transfer(from, to, value) */\n              jump\t// in\n            tag_83:\n                /* \"SimpleSwap_flattened.sol\":15890:15894  true */\n              0x01\n                /* \"SimpleSwap_flattened.sol\":15883:15894  return true */\n              swap2\n              pop\n              pop\n                /* \"SimpleSwap_flattened.sol\":15657:15901  function transferFrom(address from, address to, uint256 value) public virtual returns (bool) {... */\n              swap4\n              swap3\n              pop\n              pop\n              pop\n              jump\t// out\n                /* \"SimpleSwap_flattened.sol\":13588:13670  function decimals() public view virtual returns (uint8) {... */\n            tag_36:\n                /* \"SimpleSwap_flattened.sol\":13637:13642  uint8 */\n              0x00\n                /* \"SimpleSwap_flattened.sol\":13661:13663  18 */\n              0x12\n                /* \"SimpleSwap_flattened.sol\":13654:13663  return 18 */\n              swap1\n              pop\n                /* \"SimpleSwap_flattened.sol\":13588:13670  function decimals() public view virtual returns (uint8) {... */\n              swap1\n              jump\t// out\n                /* \"SimpleSwap_flattened.sol\":22206:22297  function mint(address to, uint amount) external onlySwap {... */\n            tag_41:\n                /* \"SimpleSwap_flattened.sol\":22042:22054  swapContract */\n              0x05\n              0x00\n              swap1\n              sload\n              swap1\n              0x0100\n              exp\n              swap1\n              div\n              0xffffffffffffffffffffffffffffffffffffffff\n              and\n                /* \"SimpleSwap_flattened.sol\":22028:22054  msg.sender == swapContract */\n              0xffffffffffffffffffffffffffffffffffffffff\n              and\n                /* \"SimpleSwap_flattened.sol\":22028:22038  msg.sender */\n              caller\n                /* \"SimpleSwap_flattened.sol\":22028:22054  msg.sender == swapContract */\n              0xffffffffffffffffffffffffffffffffffffffff\n              and\n              eq\n                /* \"SimpleSwap_flattened.sol\":22020:22088  require(msg.sender == swapContract, \"Only SimpleSwap can mint/burn\") */\n              tag_87\n              jumpi\n              mload(0x40)\n              0x08c379a000000000000000000000000000000000000000000000000000000000\n              dup2\n              mstore\n              0x04\n              add\n              tag_88\n              swap1\n              tag_89\n              jump\t// in\n            tag_88:\n              mload(0x40)\n              dup1\n              swap2\n              sub\n              swap1\n              revert\n            tag_87:\n                /* \"SimpleSwap_flattened.sol\":22273:22290  _mint(to, amount) */\n              tag_91\n                /* \"SimpleSwap_flattened.sol\":22279:22281  to */\n              dup3\n                /* \"SimpleSwap_flattened.sol\":22283:22289  amount */\n              dup3\n                /* \"SimpleSwap_flattened.sol\":22273:22278  _mint */\n              tag_92\n                /* \"SimpleSwap_flattened.sol\":22273:22290  _mint(to, amount) */\n              jump\t// in\n            tag_91:\n                /* \"SimpleSwap_flattened.sol\":22206:22297  function mint(address to, uint amount) external onlySwap {... */\n              pop\n              pop\n              jump\t// out\n                /* \"SimpleSwap_flattened.sol\":13885:14001  function balanceOf(address account) public view virtual returns (uint256) {... */\n            tag_45:\n                /* \"SimpleSwap_flattened.sol\":13950:13957  uint256 */\n              0x00\n                /* \"SimpleSwap_flattened.sol\":13976:13985  _balances */\n              0x00\n                /* \"SimpleSwap_flattened.sol\":13976:13994  _balances[account] */\n              0x00\n                /* \"SimpleSwap_flattened.sol\":13986:13993  account */\n              dup4\n                /* \"SimpleSwap_flattened.sol\":13976:13994  _balances[account] */\n              0xffffffffffffffffffffffffffffffffffffffff\n              and\n              0xffffffffffffffffffffffffffffffffffffffff\n              and\n              dup2\n              mstore\n              0x20\n              add\n              swap1\n              dup2\n              mstore\n              0x20\n              add\n              0x00\n              keccak256\n              sload\n                /* \"SimpleSwap_flattened.sol\":13969:13994  return _balances[account] */\n              swap1\n              pop\n                /* \"SimpleSwap_flattened.sol\":13885:14001  function balanceOf(address account) public view virtual returns (uint256) {... */\n              swap2\n              swap1\n              pop\n              jump\t// out\n                /* \"SimpleSwap_flattened.sol\":21956:21983  address public swapContract */\n            tag_48:\n              0x05\n              0x00\n              swap1\n              sload\n              swap1\n              0x0100\n              exp\n              swap1\n              div\n              0xffffffffffffffffffffffffffffffffffffffff\n              and\n              dup2\n              jump\t// out\n                /* \"SimpleSwap_flattened.sol\":12862:12955  function symbol() public view virtual returns (string memory) {... */\n            tag_52:\n                /* \"SimpleSwap_flattened.sol\":12909:12922  string memory */\n              0x60\n                /* \"SimpleSwap_flattened.sol\":12941:12948  _symbol */\n              0x04\n                /* \"SimpleSwap_flattened.sol\":12934:12948  return _symbol */\n              dup1\n              sload\n              tag_95\n              swap1\n              tag_68\n              jump\t// in\n            tag_95:\n              dup1\n              0x1f\n              add\n              0x20\n              dup1\n              swap2\n              div\n              mul\n              0x20\n              add\n              mload(0x40)\n              swap1\n              dup2\n              add\n              0x40\n              mstore\n              dup1\n              swap3\n              swap2\n              swap1\n              dup2\n              dup2\n              mstore\n              0x20\n              add\n              dup3\n              dup1\n              sload\n              tag_96\n              swap1\n              tag_68\n              jump\t// in\n            tag_96:\n              dup1\n              iszero\n              tag_97\n              jumpi\n              dup1\n              0x1f\n              lt\n              tag_98\n              jumpi\n              0x0100\n              dup1\n              dup4\n              sload\n              div\n              mul\n              dup4\n              mstore\n              swap2\n              0x20\n              add\n              swap2\n              jump(tag_97)\n            tag_98:\n              dup3\n              add\n              swap2\n              swap1\n              0x00\n              mstore\n              keccak256(0x00, 0x20)\n              swap1\n            tag_99:\n              dup2\n              sload\n              dup2\n              mstore\n              swap1\n              0x01\n              add\n              swap1\n              0x20\n              add\n              dup1\n              dup4\n              gt\n              tag_99\n              jumpi\n              dup3\n              swap1\n              sub\n              0x1f\n              and\n              dup3\n              add\n              swap2\n            tag_97:\n              pop\n              pop\n              pop\n              pop\n              pop\n              swap1\n              pop\n                /* \"SimpleSwap_flattened.sol\":12862:12955  function symbol() public view virtual returns (string memory) {... */\n              swap1\n              jump\t// out\n                /* \"SimpleSwap_flattened.sol\":22303:22398  function burn(address from, uint amount) external onlySwap {... */\n            tag_56:\n                /* \"SimpleSwap_flattened.sol\":22042:22054  swapContract */\n              0x05\n              0x00\n              swap1\n              sload\n              swap1\n              0x0100\n              exp\n              swap1\n              div\n              0xffffffffffffffffffffffffffffffffffffffff\n              and\n                /* \"SimpleSwap_flattened.sol\":22028:22054  msg.sender == swapContract */\n              0xffffffffffffffffffffffffffffffffffffffff\n              and\n                /* \"SimpleSwap_flattened.sol\":22028:22038  msg.sender */\n              caller\n                /* \"SimpleSwap_flattened.sol\":22028:22054  msg.sender == swapContract */\n              0xffffffffffffffffffffffffffffffffffffffff\n              and\n              eq\n                /* \"SimpleSwap_flattened.sol\":22020:22088  require(msg.sender == swapContract, \"Only SimpleSwap can mint/burn\") */\n              tag_101\n              jumpi\n              mload(0x40)\n              0x08c379a000000000000000000000000000000000000000000000000000000000\n              dup2\n              mstore\n              0x04\n              add\n              tag_102\n              swap1\n              tag_89\n              jump\t// in\n            tag_102:\n              mload(0x40)\n              dup1\n              swap2\n              sub\n              swap1\n              revert\n            tag_101:\n                /* \"SimpleSwap_flattened.sol\":22372:22391  _burn(from, amount) */\n              tag_104\n                /* \"SimpleSwap_flattened.sol\":22378:22382  from */\n              dup3\n                /* \"SimpleSwap_flattened.sol\":22384:22390  amount */\n              dup3\n                /* \"SimpleSwap_flattened.sol\":22372:22377  _burn */\n              tag_105\n                /* \"SimpleSwap_flattened.sol\":22372:22391  _burn(from, amount) */\n              jump\t// in\n            tag_104:\n                /* \"SimpleSwap_flattened.sol\":22303:22398  function burn(address from, uint amount) external onlySwap {... */\n              pop\n              pop\n              jump\t// out\n                /* \"SimpleSwap_flattened.sol\":14196:14374  function transfer(address to, uint256 value) public virtual returns (bool) {... */\n            tag_59:\n                /* \"SimpleSwap_flattened.sol\":14265:14269  bool */\n              0x00\n                /* \"SimpleSwap_flattened.sol\":14281:14294  address owner */\n              0x00\n                /* \"SimpleSwap_flattened.sol\":14297:14309  _msgSender() */\n              tag_107\n                /* \"SimpleSwap_flattened.sol\":14297:14307  _msgSender */\n              tag_75\n                /* \"SimpleSwap_flattened.sol\":14297:14309  _msgSender() */\n              jump\t// in\n            tag_107:\n                /* \"SimpleSwap_flattened.sol\":14281:14309  address owner = _msgSender() */\n              swap1\n              pop\n                /* \"SimpleSwap_flattened.sol\":14319:14346  _transfer(owner, to, value) */\n              tag_108\n                /* \"SimpleSwap_flattened.sol\":14329:14334  owner */\n              dup2\n                /* \"SimpleSwap_flattened.sol\":14336:14338  to */\n              dup6\n                /* \"SimpleSwap_flattened.sol\":14340:14345  value */\n              dup6\n                /* \"SimpleSwap_flattened.sol\":14319:14328  _transfer */\n              tag_84\n                /* \"SimpleSwap_flattened.sol\":14319:14346  _transfer(owner, to, value) */\n              jump\t// in\n            tag_108:\n                /* \"SimpleSwap_flattened.sol\":14363:14367  true */\n              0x01\n                /* \"SimpleSwap_flattened.sol\":14356:14367  return true */\n              swap2\n              pop\n              pop\n                /* \"SimpleSwap_flattened.sol\":14196:14374  function transfer(address to, uint256 value) public virtual returns (bool) {... */\n              swap3\n              swap2\n              pop\n              pop\n              jump\t// out\n                /* \"SimpleSwap_flattened.sol\":14432:14572  function allowance(address owner, address spender) public view virtual returns (uint256) {... */\n            tag_64:\n                /* \"SimpleSwap_flattened.sol\":14512:14519  uint256 */\n              0x00\n                /* \"SimpleSwap_flattened.sol\":14538:14549  _allowances */\n              0x01\n                /* \"SimpleSwap_flattened.sol\":14538:14556  _allowances[owner] */\n              0x00\n                /* \"SimpleSwap_flattened.sol\":14550:14555  owner */\n              dup5\n                /* \"SimpleSwap_flattened.sol\":14538:14556  _allowances[owner] */\n              0xffffffffffffffffffffffffffffffffffffffff\n              and\n              0xffffffffffffffffffffffffffffffffffffffff\n              and\n              dup2\n              mstore\n              0x20\n              add\n              swap1\n              dup2\n              mstore\n              0x20\n              add\n              0x00\n              keccak256\n                /* \"SimpleSwap_flattened.sol\":14538:14565  _allowances[owner][spender] */\n              0x00\n                /* \"SimpleSwap_flattened.sol\":14557:14564  spender */\n              dup4\n                /* \"SimpleSwap_flattened.sol\":14538:14565  _allowances[owner][spender] */\n              0xffffffffffffffffffffffffffffffffffffffff\n              and\n              0xffffffffffffffffffffffffffffffffffffffff\n              and\n              dup2\n              mstore\n              0x20\n              add\n              swap1\n              dup2\n              mstore\n              0x20\n              add\n              0x00\n              keccak256\n              sload\n                /* \"SimpleSwap_flattened.sol\":14531:14565  return _allowances[owner][spender] */\n              swap1\n              pop\n                /* \"SimpleSwap_flattened.sol\":14432:14572  function allowance(address owner, address spender) public view virtual returns (uint256) {... */\n              swap3\n              swap2\n              pop\n              pop\n              jump\t// out\n                /* \"SimpleSwap_flattened.sol\":4208:4304  function _msgSender() internal view virtual returns (address) {... */\n            tag_75:\n                /* \"SimpleSwap_flattened.sol\":4261:4268  address */\n              0x00\n                /* \"SimpleSwap_flattened.sol\":4287:4297  msg.sender */\n              caller\n                /* \"SimpleSwap_flattened.sol\":4280:4297  return msg.sender */\n              swap1\n              pop\n                /* \"SimpleSwap_flattened.sol\":4208:4304  function _msgSender() internal view virtual returns (address) {... */\n              swap1\n              jump\t// out\n                /* \"SimpleSwap_flattened.sol\":19607:19735  function _approve(address owner, address spender, uint256 value) internal {... */\n            tag_77:\n                /* \"SimpleSwap_flattened.sol\":19691:19728  _approve(owner, spender, value, true) */\n              tag_112\n                /* \"SimpleSwap_flattened.sol\":19700:19705  owner */\n              dup4\n                /* \"SimpleSwap_flattened.sol\":19707:19714  spender */\n              dup4\n                /* \"SimpleSwap_flattened.sol\":19716:19721  value */\n              dup4\n                /* \"SimpleSwap_flattened.sol\":19723:19727  true */\n              0x01\n                /* \"SimpleSwap_flattened.sol\":19691:19699  _approve */\n              tag_113\n                /* \"SimpleSwap_flattened.sol\":19691:19728  _approve(owner, spender, value, true) */\n              jump\t// in\n            tag_112:\n                /* \"SimpleSwap_flattened.sol\":19607:19735  function _approve(address owner, address spender, uint256 value) internal {... */\n              pop\n              pop\n              pop\n              jump\t// out\n                /* \"SimpleSwap_flattened.sol\":21296:21772  function _spendAllowance(address owner, address spender, uint256 value) internal virtual {... */\n            tag_82:\n                /* \"SimpleSwap_flattened.sol\":21395:21419  uint256 currentAllowance */\n              0x00\n                /* \"SimpleSwap_flattened.sol\":21422:21447  allowance(owner, spender) */\n              tag_115\n                /* \"SimpleSwap_flattened.sol\":21432:21437  owner */\n              dup5\n                /* \"SimpleSwap_flattened.sol\":21439:21446  spender */\n              dup5\n                /* \"SimpleSwap_flattened.sol\":21422:21431  allowance */\n              tag_64\n                /* \"SimpleSwap_flattened.sol\":21422:21447  allowance(owner, spender) */\n              jump\t// in\n            tag_115:\n                /* \"SimpleSwap_flattened.sol\":21395:21447  uint256 currentAllowance = allowance(owner, spender) */\n              swap1\n              pop\n                /* \"SimpleSwap_flattened.sol\":21480:21497  type(uint256).max */\n              0xffffffffffffffffffffffffffffffffffffffffffffffffffffffffffffffff\n                /* \"SimpleSwap_flattened.sol\":21461:21477  currentAllowance */\n              dup2\n                /* \"SimpleSwap_flattened.sol\":21461:21497  currentAllowance < type(uint256).max */\n              lt\n                /* \"SimpleSwap_flattened.sol\":21457:21766  if (currentAllowance < type(uint256).max) {... */\n              iszero\n              tag_116\n              jumpi\n                /* \"SimpleSwap_flattened.sol\":21536:21541  value */\n              dup2\n                /* \"SimpleSwap_flattened.sol\":21517:21533  currentAllowance */\n              dup2\n                /* \"SimpleSwap_flattened.sol\":21517:21541  currentAllowance < value */\n              lt\n                /* \"SimpleSwap_flattened.sol\":21513:21643  if (currentAllowance < value) {... */\n              iszero\n              tag_117\n              jumpi\n                /* \"SimpleSwap_flattened.sol\":21595:21602  spender */\n              dup3\n                /* \"SimpleSwap_flattened.sol\":21604:21620  currentAllowance */\n              dup2\n                /* \"SimpleSwap_flattened.sol\":21622:21627  value */\n              dup4\n                /* \"SimpleSwap_flattened.sol\":21568:21628  ERC20InsufficientAllowance(spender, currentAllowance, value) */\n              mload(0x40)\n              0xfb8f41b200000000000000000000000000000000000000000000000000000000\n              dup2\n              mstore\n              0x04\n              add\n              tag_118\n              swap4\n              swap3\n              swap2\n              swap1\n              tag_119\n              jump\t// in\n            tag_118:\n              mload(0x40)\n              dup1\n              swap2\n              sub\n              swap1\n              revert\n                /* \"SimpleSwap_flattened.sol\":21513:21643  if (currentAllowance < value) {... */\n            tag_117:\n                /* \"SimpleSwap_flattened.sol\":21684:21741  _approve(owner, spender, currentAllowance - value, false) */\n              tag_120\n                /* \"SimpleSwap_flattened.sol\":21693:21698  owner */\n              dup5\n                /* \"SimpleSwap_flattened.sol\":21700:21707  spender */\n              dup5\n                /* \"SimpleSwap_flattened.sol\":21728:21733  value */\n              dup5\n                /* \"SimpleSwap_flattened.sol\":21709:21725  currentAllowance */\n              dup5\n                /* \"SimpleSwap_flattened.sol\":21709:21733  currentAllowance - value */\n              sub\n                /* \"SimpleSwap_flattened.sol\":21735:21740  false */\n              0x00\n                /* \"SimpleSwap_flattened.sol\":21684:21692  _approve */\n              tag_113\n                /* \"SimpleSwap_flattened.sol\":21684:21741  _approve(owner, spender, currentAllowance - value, false) */\n              jump\t// in\n            tag_120:\n                /* \"SimpleSwap_flattened.sol\":21457:21766  if (currentAllowance < type(uint256).max) {... */\n            tag_116:\n                /* \"SimpleSwap_flattened.sol\":21385:21772  {... */\n              pop\n                /* \"SimpleSwap_flattened.sol\":21296:21772  function _spendAllowance(address owner, address spender, uint256 value) internal virtual {... */\n              pop\n              pop\n              pop\n              jump\t// out\n                /* \"SimpleSwap_flattened.sol\":16274:16574  function _transfer(address from, address to, uint256 value) internal {... */\n            tag_84:\n                /* \"SimpleSwap_flattened.sol\":16373:16374  0 */\n              0x00\n                /* \"SimpleSwap_flattened.sol\":16357:16375  from == address(0) */\n              0xffffffffffffffffffffffffffffffffffffffff\n              and\n                /* \"SimpleSwap_flattened.sol\":16357:16361  from */\n              dup4\n                /* \"SimpleSwap_flattened.sol\":16357:16375  from == address(0) */\n              0xffffffffffffffffffffffffffffffffffffffff\n              and\n              sub\n                /* \"SimpleSwap_flattened.sol\":16353:16439  if (from == address(0)) {... */\n              tag_122\n              jumpi\n                /* \"SimpleSwap_flattened.sol\":16425:16426  0 */\n              0x00\n                /* \"SimpleSwap_flattened.sol\":16398:16428  ERC20InvalidSender(address(0)) */\n              mload(0x40)\n              0x96c6fd1e00000000000000000000000000000000000000000000000000000000\n              dup2\n              mstore\n              0x04\n              add\n              tag_123\n              swap2\n              swap1\n              tag_50\n              jump\t// in\n            tag_123:\n              mload(0x40)\n              dup1\n              swap2\n              sub\n              swap1\n              revert\n                /* \"SimpleSwap_flattened.sol\":16353:16439  if (from == address(0)) {... */\n            tag_122:\n                /* \"SimpleSwap_flattened.sol\":16466:16467  0 */\n              0x00\n                /* \"SimpleSwap_flattened.sol\":16452:16468  to == address(0) */\n              0xffffffffffffffffffffffffffffffffffffffff\n              and\n                /* \"SimpleSwap_flattened.sol\":16452:16454  to */\n              dup3\n                /* \"SimpleSwap_flattened.sol\":16452:16468  to == address(0) */\n              0xffffffffffffffffffffffffffffffffffffffff\n              and\n              sub\n                /* \"SimpleSwap_flattened.sol\":16448:16534  if (to == address(0)) {... */\n              tag_124\n              jumpi\n                /* \"SimpleSwap_flattened.sol\":16520:16521  0 */\n              0x00\n                /* \"SimpleSwap_flattened.sol\":16491:16523  ERC20InvalidReceiver(address(0)) */\n              mload(0x40)\n              0xec442f0500000000000000000000000000000000000000000000000000000000\n              dup2\n              mstore\n              0x04\n              add\n              tag_125\n              swap2\n              swap1\n              tag_50\n              jump\t// in\n            tag_125:\n              mload(0x40)\n              dup1\n              swap2\n              sub\n              swap1\n              revert\n                /* \"SimpleSwap_flattened.sol\":16448:16534  if (to == address(0)) {... */\n            tag_124:\n                /* \"SimpleSwap_flattened.sol\":16543:16567  _update(from, to, value) */\n              tag_126\n                /* \"SimpleSwap_flattened.sol\":16551:16555  from */\n              dup4\n                /* \"SimpleSwap_flattened.sol\":16557:16559  to */\n              dup4\n                /* \"SimpleSwap_flattened.sol\":16561:16566  value */\n              dup4\n                /* \"SimpleSwap_flattened.sol\":16543:16550  _update */\n              tag_127\n                /* \"SimpleSwap_flattened.sol\":16543:16567  _update(from, to, value) */\n              jump\t// in\n            tag_126:\n                /* \"SimpleSwap_flattened.sol\":16274:16574  function _transfer(address from, address to, uint256 value) internal {... */\n              pop\n              pop\n              pop\n              jump\t// out\n                /* \"SimpleSwap_flattened.sol\":18339:18547  function _mint(address account, uint256 value) internal {... */\n            tag_92:\n                /* \"SimpleSwap_flattened.sol\":18428:18429  0 */\n              0x00\n                /* \"SimpleSwap_flattened.sol\":18409:18430  account == address(0) */\n              0xffffffffffffffffffffffffffffffffffffffff\n              and\n                /* \"SimpleSwap_flattened.sol\":18409:18416  account */\n              dup3\n                /* \"SimpleSwap_flattened.sol\":18409:18430  account == address(0) */\n              0xffffffffffffffffffffffffffffffffffffffff\n              and\n              sub\n                /* \"SimpleSwap_flattened.sol\":18405:18496  if (account == address(0)) {... */\n              tag_129\n              jumpi\n                /* \"SimpleSwap_flattened.sol\":18482:18483  0 */\n              0x00\n                /* \"SimpleSwap_flattened.sol\":18453:18485  ERC20InvalidReceiver(address(0)) */\n              mload(0x40)\n              0xec442f0500000000000000000000000000000000000000000000000000000000\n              dup2\n              mstore\n              0x04\n              add\n              tag_130\n              swap2\n              swap1\n              tag_50\n              jump\t// in\n            tag_130:\n              mload(0x40)\n              dup1\n              swap2\n              sub\n              swap1\n              revert\n                /* \"SimpleSwap_flattened.sol\":18405:18496  if (account == address(0)) {... */\n            tag_129:\n                /* \"SimpleSwap_flattened.sol\":18505:18540  _update(address(0), account, value) */\n              tag_131\n                /* \"SimpleSwap_flattened.sol\":18521:18522  0 */\n              0x00\n                /* \"SimpleSwap_flattened.sol\":18525:18532  account */\n              dup4\n                /* \"SimpleSwap_flattened.sol\":18534:18539  value */\n              dup4\n                /* \"SimpleSwap_flattened.sol\":18505:18512  _update */\n              tag_127\n                /* \"SimpleSwap_flattened.sol\":18505:18540  _update(address(0), account, value) */\n              jump\t// in\n            tag_131:\n                /* \"SimpleSwap_flattened.sol\":18339:18547  function _mint(address account, uint256 value) internal {... */\n              pop\n              pop\n              jump\t// out\n                /* \"SimpleSwap_flattened.sol\":18865:19071  function _burn(address account, uint256 value) internal {... */\n            tag_105:\n                /* \"SimpleSwap_flattened.sol\":18954:18955  0 */\n              0x00\n                /* \"SimpleSwap_flattened.sol\":18935:18956  account == address(0) */\n              0xffffffffffffffffffffffffffffffffffffffff\n              and\n                /* \"SimpleSwap_flattened.sol\":18935:18942  account */\n              dup3\n                /* \"SimpleSwap_flattened.sol\":18935:18956  account == address(0) */\n              0xffffffffffffffffffffffffffffffffffffffff\n              and\n              sub\n                /* \"SimpleSwap_flattened.sol\":18931:19020  if (account == address(0)) {... */\n              tag_133\n              jumpi\n                /* \"SimpleSwap_flattened.sol\":19006:19007  0 */\n              0x00\n                /* \"SimpleSwap_flattened.sol\":18979:19009  ERC20InvalidSender(address(0)) */\n              mload(0x40)\n              0x96c6fd1e00000000000000000000000000000000000000000000000000000000\n              dup2\n              mstore\n              0x04\n              add\n              tag_134\n              swap2\n              swap1\n              tag_50\n              jump\t// in\n            tag_134:\n              mload(0x40)\n              dup1\n              swap2\n              sub\n              swap1\n              revert\n                /* \"SimpleSwap_flattened.sol\":18931:19020  if (account == address(0)) {... */\n            tag_133:\n                /* \"SimpleSwap_flattened.sol\":19029:19064  _update(account, address(0), value) */\n              tag_135\n                /* \"SimpleSwap_flattened.sol\":19037:19044  account */\n              dup3\n                /* \"SimpleSwap_flattened.sol\":19054:19055  0 */\n              0x00\n                /* \"SimpleSwap_flattened.sol\":19058:19063  value */\n              dup4\n                /* \"SimpleSwap_flattened.sol\":19029:19036  _update */\n              tag_127\n                /* \"SimpleSwap_flattened.sol\":19029:19064  _update(account, address(0), value) */\n              jump\t// in\n            tag_135:\n                /* \"SimpleSwap_flattened.sol\":18865:19071  function _burn(address account, uint256 value) internal {... */\n              pop\n              pop\n              jump\t// out\n                /* \"SimpleSwap_flattened.sol\":20582:21014  function _approve(address owner, address spender, uint256 value, bool emitEvent) internal virtual {... */\n            tag_113:\n                /* \"SimpleSwap_flattened.sol\":20711:20712  0 */\n              0x00\n                /* \"SimpleSwap_flattened.sol\":20694:20713  owner == address(0) */\n              0xffffffffffffffffffffffffffffffffffffffff\n              and\n                /* \"SimpleSwap_flattened.sol\":20694:20699  owner */\n              dup5\n                /* \"SimpleSwap_flattened.sol\":20694:20713  owner == address(0) */\n              0xffffffffffffffffffffffffffffffffffffffff\n              and\n              sub\n                /* \"SimpleSwap_flattened.sol\":20690:20779  if (owner == address(0)) {... */\n              tag_137\n              jumpi\n                /* \"SimpleSwap_flattened.sol\":20765:20766  0 */\n              0x00\n                /* \"SimpleSwap_flattened.sol\":20736:20768  ERC20InvalidApprover(address(0)) */\n              mload(0x40)\n              0xe602df0500000000000000000000000000000000000000000000000000000000\n              dup2\n              mstore\n              0x04\n              add\n              tag_138\n              swap2\n              swap1\n              tag_50\n              jump\t// in\n            tag_138:\n              mload(0x40)\n              dup1\n              swap2\n              sub\n              swap1\n              revert\n                /* \"SimpleSwap_flattened.sol\":20690:20779  if (owner == address(0)) {... */\n            tag_137:\n                /* \"SimpleSwap_flattened.sol\":20811:20812  0 */\n              0x00\n                /* \"SimpleSwap_flattened.sol\":20792:20813  spender == address(0) */\n              0xffffffffffffffffffffffffffffffffffffffff\n              and\n                /* \"SimpleSwap_flattened.sol\":20792:20799  spender */\n              dup4\n                /* \"SimpleSwap_flattened.sol\":20792:20813  spender == address(0) */\n              0xffffffffffffffffffffffffffffffffffffffff\n              and\n              sub\n                /* \"SimpleSwap_flattened.sol\":20788:20878  if (spender == address(0)) {... */\n              tag_139\n              jumpi\n                /* \"SimpleSwap_flattened.sol\":20864:20865  0 */\n              0x00\n                /* \"SimpleSwap_flattened.sol\":20836:20867  ERC20InvalidSpender(address(0)) */\n              mload(0x40)\n              0x94280d6200000000000000000000000000000000000000000000000000000000\n              dup2\n              mstore\n              0x04\n              add\n              tag_140\n              swap2\n              swap1\n              tag_50\n              jump\t// in\n            tag_140:\n              mload(0x40)\n              dup1\n              swap2\n              sub\n              swap1\n              revert\n                /* \"SimpleSwap_flattened.sol\":20788:20878  if (spender == address(0)) {... */\n            tag_139:\n                /* \"SimpleSwap_flattened.sol\":20917:20922  value */\n              dup2\n                /* \"SimpleSwap_flattened.sol\":20887:20898  _allowances */\n              0x01\n                /* \"SimpleSwap_flattened.sol\":20887:20905  _allowances[owner] */\n              0x00\n                /* \"SimpleSwap_flattened.sol\":20899:20904  owner */\n              dup7\n                /* \"SimpleSwap_flattened.sol\":20887:20905  _allowances[owner] */\n              0xffffffffffffffffffffffffffffffffffffffff\n              and\n              0xffffffffffffffffffffffffffffffffffffffff\n              and\n              dup2\n              mstore\n              0x20\n              add\n              swap1\n              dup2\n              mstore\n              0x20\n              add\n              0x00\n              keccak256\n                /* \"SimpleSwap_flattened.sol\":20887:20914  _allowances[owner][spender] */\n              0x00\n                /* \"SimpleSwap_flattened.sol\":20906:20913  spender */\n              dup6\n                /* \"SimpleSwap_flattened.sol\":20887:20914  _allowances[owner][spender] */\n              0xffffffffffffffffffffffffffffffffffffffff\n              and\n              0xffffffffffffffffffffffffffffffffffffffff\n              and\n              dup2\n              mstore\n              0x20\n              add\n              swap1\n              dup2\n              mstore\n              0x20\n              add\n              0x00\n              keccak256\n                /* \"SimpleSwap_flattened.sol\":20887:20922  _allowances[owner][spender] = value */\n              dup2\n              swap1\n              sstore\n              pop\n                /* \"SimpleSwap_flattened.sol\":20936:20945  emitEvent */\n              dup1\n                /* \"SimpleSwap_flattened.sol\":20932:21008  if (emitEvent) {... */\n              iszero\n              tag_141\n              jumpi\n                /* \"SimpleSwap_flattened.sol\":20982:20989  spender */\n              dup3\n                /* \"SimpleSwap_flattened.sol\":20966:20997  Approval(owner, spender, value) */\n              0xffffffffffffffffffffffffffffffffffffffff\n              and\n                /* \"SimpleSwap_flattened.sol\":20975:20980  owner */\n              dup5\n                /* \"SimpleSwap_flattened.sol\":20966:20997  Approval(owner, spender, value) */\n              0xffffffffffffffffffffffffffffffffffffffff\n              and\n              0x8c5be1e5ebec7d5bd14f71427d1e84f3dd0314c0f7b2291e5b200ac8c7c3b925\n                /* \"SimpleSwap_flattened.sol\":20991:20996  value */\n              dup5\n                /* \"SimpleSwap_flattened.sol\":20966:20997  Approval(owner, spender, value) */\n              mload(0x40)\n              tag_142\n              swap2\n              swap1\n              tag_29\n              jump\t// in\n            tag_142:\n              mload(0x40)\n              dup1\n              swap2\n              sub\n              swap1\n              log3\n                /* \"SimpleSwap_flattened.sol\":20932:21008  if (emitEvent) {... */\n            tag_141:\n                /* \"SimpleSwap_flattened.sol\":20582:21014  function _approve(address owner, address spender, uint256 value, bool emitEvent) internal virtual {... */\n              pop\n              pop\n              pop\n              pop\n              jump\t// out\n                /* \"SimpleSwap_flattened.sol\":16889:17996  function _update(address from, address to, uint256 value) internal virtual {... */\n            tag_127:\n                /* \"SimpleSwap_flattened.sol\":16994:16995  0 */\n              0x00\n                /* \"SimpleSwap_flattened.sol\":16978:16996  from == address(0) */\n              0xffffffffffffffffffffffffffffffffffffffff\n              and\n                /* \"SimpleSwap_flattened.sol\":16978:16982  from */\n              dup4\n                /* \"SimpleSwap_flattened.sol\":16978:16996  from == address(0) */\n              0xffffffffffffffffffffffffffffffffffffffff\n              and\n              sub\n                /* \"SimpleSwap_flattened.sol\":16974:17514  if (from == address(0)) {... */\n              tag_144\n              jumpi\n                /* \"SimpleSwap_flattened.sol\":17130:17135  value */\n              dup1\n                /* \"SimpleSwap_flattened.sol\":17114:17126  _totalSupply */\n              0x02\n              0x00\n                /* \"SimpleSwap_flattened.sol\":17114:17135  _totalSupply += value */\n              dup3\n              dup3\n              sload\n              tag_145\n              swap2\n              swap1\n              tag_146\n              jump\t// in\n            tag_145:\n              swap3\n              pop\n              pop\n              dup2\n              swap1\n              sstore\n              pop\n                /* \"SimpleSwap_flattened.sol\":16974:17514  if (from == address(0)) {... */\n              jump(tag_147)\n            tag_144:\n                /* \"SimpleSwap_flattened.sol\":17166:17185  uint256 fromBalance */\n              0x00\n                /* \"SimpleSwap_flattened.sol\":17188:17197  _balances */\n              0x00\n                /* \"SimpleSwap_flattened.sol\":17188:17203  _balances[from] */\n              0x00\n                /* \"SimpleSwap_flattened.sol\":17198:17202  from */\n              dup6\n                /* \"SimpleSwap_flattened.sol\":17188:17203  _balances[from] */\n              0xffffffffffffffffffffffffffffffffffffffff\n              and\n              0xffffffffffffffffffffffffffffffffffffffff\n              and\n              dup2\n              mstore\n              0x20\n              add\n              swap1\n              dup2\n              mstore\n              0x20\n              add\n              0x00\n              keccak256\n              sload\n                /* \"SimpleSwap_flattened.sol\":17166:17203  uint256 fromBalance = _balances[from] */\n              swap1\n              pop\n                /* \"SimpleSwap_flattened.sol\":17235:17240  value */\n              dup2\n                /* \"SimpleSwap_flattened.sol\":17221:17232  fromBalance */\n              dup2\n                /* \"SimpleSwap_flattened.sol\":17221:17240  fromBalance < value */\n              lt\n                /* \"SimpleSwap_flattened.sol\":17217:17332  if (fromBalance < value) {... */\n              iszero\n              tag_148\n              jumpi\n                /* \"SimpleSwap_flattened.sol\":17292:17296  from */\n              dup4\n                /* \"SimpleSwap_flattened.sol\":17298:17309  fromBalance */\n              dup2\n                /* \"SimpleSwap_flattened.sol\":17311:17316  value */\n              dup4\n                /* \"SimpleSwap_flattened.sol\":17267:17317  ERC20InsufficientBalance(from, fromBalance, value) */\n              mload(0x40)\n              0xe450d38c00000000000000000000000000000000000000000000000000000000\n              dup2\n              mstore\n              0x04\n              add\n              tag_149\n              swap4\n              swap3\n              swap2\n              swap1\n              tag_119\n              jump\t// in\n            tag_149:\n              mload(0x40)\n              dup1\n              swap2\n              sub\n              swap1\n              revert\n                /* \"SimpleSwap_flattened.sol\":17217:17332  if (fromBalance < value) {... */\n            tag_148:\n                /* \"SimpleSwap_flattened.sol\":17484:17489  value */\n              dup2\n                /* \"SimpleSwap_flattened.sol\":17470:17481  fromBalance */\n              dup2\n                /* \"SimpleSwap_flattened.sol\":17470:17489  fromBalance - value */\n              sub\n                /* \"SimpleSwap_flattened.sol\":17452:17461  _balances */\n              0x00\n                /* \"SimpleSwap_flattened.sol\":17452:17467  _balances[from] */\n              0x00\n                /* \"SimpleSwap_flattened.sol\":17462:17466  from */\n              dup7\n                /* \"SimpleSwap_flattened.sol\":17452:17467  _balances[from] */\n              0xffffffffffffffffffffffffffffffffffffffff\n              and\n              0xffffffffffffffffffffffffffffffffffffffff\n              and\n              dup2\n              mstore\n              0x20\n              add\n              swap1\n              dup2\n              mstore\n              0x20\n              add\n              0x00\n              keccak256\n                /* \"SimpleSwap_flattened.sol\":17452:17489  _balances[from] = fromBalance - value */\n              dup2\n              swap1\n              sstore\n              pop\n                /* \"SimpleSwap_flattened.sol\":17152:17514  {... */\n              pop\n                /* \"SimpleSwap_flattened.sol\":16974:17514  if (from == address(0)) {... */\n            tag_147:\n                /* \"SimpleSwap_flattened.sol\":17542:17543  0 */\n              0x00\n                /* \"SimpleSwap_flattened.sol\":17528:17544  to == address(0) */\n              0xffffffffffffffffffffffffffffffffffffffff\n              and\n                /* \"SimpleSwap_flattened.sol\":17528:17530  to */\n              dup3\n                /* \"SimpleSwap_flattened.sol\":17528:17544  to == address(0) */\n              0xffffffffffffffffffffffffffffffffffffffff\n              and\n              sub\n                /* \"SimpleSwap_flattened.sol\":17524:17949  if (to == address(0)) {... */\n              tag_150\n              jumpi\n                /* \"SimpleSwap_flattened.sol\":17707:17712  value */\n              dup1\n                /* \"SimpleSwap_flattened.sol\":17691:17703  _totalSupply */\n              0x02\n              0x00\n                /* \"SimpleSwap_flattened.sol\":17691:17712  _totalSupply -= value */\n              dup3\n              dup3\n              sload\n              sub\n              swap3\n              pop\n              pop\n              dup2\n              swap1\n              sstore\n              pop\n                /* \"SimpleSwap_flattened.sol\":17524:17949  if (to == address(0)) {... */\n              jump(tag_151)\n            tag_150:\n                /* \"SimpleSwap_flattened.sol\":17919:17924  value */\n              dup1\n                /* \"SimpleSwap_flattened.sol\":17902:17911  _balances */\n              0x00\n                /* \"SimpleSwap_flattened.sol\":17902:17915  _balances[to] */\n              0x00\n                /* \"SimpleSwap_flattened.sol\":17912:17914  to */\n              dup5\n                /* \"SimpleSwap_flattened.sol\":17902:17915  _balances[to] */\n              0xffffffffffffffffffffffffffffffffffffffff\n              and\n              0xffffffffffffffffffffffffffffffffffffffff\n              and\n              dup2\n              mstore\n              0x20\n              add\n              swap1\n              dup2\n              mstore\n              0x20\n              add\n              0x00\n              keccak256\n              0x00\n                /* \"SimpleSwap_flattened.sol\":17902:17924  _balances[to] += value */\n              dup3\n              dup3\n              sload\n              add\n              swap3\n              pop\n              pop\n              dup2\n              swap1\n              sstore\n              pop\n                /* \"SimpleSwap_flattened.sol\":17524:17949  if (to == address(0)) {... */\n            tag_151:\n                /* \"SimpleSwap_flattened.sol\":17979:17981  to */\n              dup2\n                /* \"SimpleSwap_flattened.sol\":17964:17989  Transfer(from, to, value) */\n              0xffffffffffffffffffffffffffffffffffffffff\n              and\n                /* \"SimpleSwap_flattened.sol\":17973:17977  from */\n              dup4\n                /* \"SimpleSwap_flattened.sol\":17964:17989  Transfer(from, to, value) */\n              0xffffffffffffffffffffffffffffffffffffffff\n              and\n              0xddf252ad1be2c89b69c2b068fc378daa952ba7f163c4a11628f55a4df523b3ef\n                /* \"SimpleSwap_flattened.sol\":17983:17988  value */\n              dup4\n                /* \"SimpleSwap_flattened.sol\":17964:17989  Transfer(from, to, value) */\n              mload(0x40)\n              tag_152\n              swap2\n              swap1\n              tag_29\n              jump\t// in\n            tag_152:\n              mload(0x40)\n              dup1\n              swap2\n              sub\n              swap1\n              log3\n                /* \"SimpleSwap_flattened.sol\":16889:17996  function _update(address from, address to, uint256 value) internal virtual {... */\n              pop\n              pop\n              pop\n              jump\t// out\n                /* \"#utility.yul\":7:106   */\n            tag_153:\n                /* \"#utility.yul\":59:65   */\n              0x00\n                /* \"#utility.yul\":93:98   */\n              dup2\n                /* \"#utility.yul\":87:99   */\n              mload\n                /* \"#utility.yul\":77:99   */\n              swap1\n              pop\n                /* \"#utility.yul\":7:106   */\n              swap2\n              swap1\n              pop\n              jump\t// out\n                /* \"#utility.yul\":112:281   */\n            tag_154:\n                /* \"#utility.yul\":196:207   */\n              0x00\n                /* \"#utility.yul\":230:236   */\n              dup3\n                /* \"#utility.yul\":225:228   */\n              dup3\n                /* \"#utility.yul\":218:237   */\n              mstore\n                /* \"#utility.yul\":270:274   */\n              0x20\n                /* \"#utility.yul\":265:268   */\n              dup3\n                /* \"#utility.yul\":261:275   */\n              add\n                /* \"#utility.yul\":246:275   */\n              swap1\n              pop\n                /* \"#utility.yul\":112:281   */\n              swap3\n              swap2\n              pop\n              pop\n              jump\t// out\n                /* \"#utility.yul\":287:426   */\n            tag_155:\n                /* \"#utility.yul\":376:382   */\n              dup3\n                /* \"#utility.yul\":371:374   */\n              dup2\n                /* \"#utility.yul\":366:369   */\n              dup4\n                /* \"#utility.yul\":360:383   */\n              mcopy\n                /* \"#utility.yul\":417:418   */\n              0x00\n                /* \"#utility.yul\":408:414   */\n              dup4\n                /* \"#utility.yul\":403:406   */\n              dup4\n                /* \"#utility.yul\":399:415   */\n              add\n                /* \"#utility.yul\":392:419   */\n              mstore\n                /* \"#utility.yul\":287:426   */\n              pop\n              pop\n              pop\n              jump\t// out\n                /* \"#utility.yul\":432:534   */\n            tag_156:\n                /* \"#utility.yul\":473:479   */\n              0x00\n                /* \"#utility.yul\":524:526   */\n              0x1f\n                /* \"#utility.yul\":520:527   */\n              not\n                /* \"#utility.yul\":515:517   */\n              0x1f\n                /* \"#utility.yul\":508:513   */\n              dup4\n                /* \"#utility.yul\":504:518   */\n              add\n                /* \"#utility.yul\":500:528   */\n              and\n                /* \"#utility.yul\":490:528   */\n              swap1\n              pop\n                /* \"#utility.yul\":432:534   */\n              swap2\n              swap1\n              pop\n              jump\t// out\n                /* \"#utility.yul\":540:917   */\n            tag_157:\n                /* \"#utility.yul\":628:631   */\n              0x00\n                /* \"#utility.yul\":656:695   */\n              tag_184\n                /* \"#utility.yul\":689:694   */\n              dup3\n                /* \"#utility.yul\":656:695   */\n              tag_153\n              jump\t// in\n            tag_184:\n                /* \"#utility.yul\":711:782   */\n              tag_185\n                /* \"#utility.yul\":775:781   */\n              dup2\n                /* \"#utility.yul\":770:773   */\n              dup6\n                /* \"#utility.yul\":711:782   */\n              tag_154\n              jump\t// in\n            tag_185:\n                /* \"#utility.yul\":704:782   */\n              swap4\n              pop\n                /* \"#utility.yul\":791:856   */\n              tag_186\n                /* \"#utility.yul\":849:855   */\n              dup2\n                /* \"#utility.yul\":844:847   */\n              dup6\n                /* \"#utility.yul\":837:841   */\n              0x20\n                /* \"#utility.yul\":830:835   */\n              dup7\n                /* \"#utility.yul\":826:842   */\n              add\n                /* \"#utility.yul\":791:856   */\n              tag_155\n              jump\t// in\n            tag_186:\n                /* \"#utility.yul\":881:910   */\n              tag_187\n                /* \"#utility.yul\":903:909   */\n              dup2\n                /* \"#utility.yul\":881:910   */\n              tag_156\n              jump\t// in\n            tag_187:\n                /* \"#utility.yul\":876:879   */\n              dup5\n                /* \"#utility.yul\":872:911   */\n              add\n                /* \"#utility.yul\":865:911   */\n              swap2\n              pop\n                /* \"#utility.yul\":632:917   */\n              pop\n                /* \"#utility.yul\":540:917   */\n              swap3\n              swap2\n              pop\n              pop\n              jump\t// out\n                /* \"#utility.yul\":923:1236   */\n            tag_19:\n                /* \"#utility.yul\":1036:1040   */\n              0x00\n                /* \"#utility.yul\":1074:1076   */\n              0x20\n                /* \"#utility.yul\":1063:1072   */\n              dup3\n                /* \"#utility.yul\":1059:1077   */\n              add\n                /* \"#utility.yul\":1051:1077   */\n              swap1\n              pop\n                /* \"#utility.yul\":1123:1132   */\n              dup2\n                /* \"#utility.yul\":1117:1121   */\n              dup2\n                /* \"#utility.yul\":1113:1133   */\n              sub\n                /* \"#utility.yul\":1109:1110   */\n              0x00\n                /* \"#utility.yul\":1098:1107   */\n              dup4\n                /* \"#utility.yul\":1094:1111   */\n              add\n                /* \"#utility.yul\":1087:1134   */\n              mstore\n                /* \"#utility.yul\":1151:1229   */\n              tag_189\n                /* \"#utility.yul\":1224:1228   */\n              dup2\n                /* \"#utility.yul\":1215:1221   */\n              dup5\n                /* \"#utility.yul\":1151:1229   */\n              tag_157\n              jump\t// in\n            tag_189:\n                /* \"#utility.yul\":1143:1229   */\n              swap1\n              pop\n                /* \"#utility.yul\":923:1236   */\n              swap3\n              swap2\n              pop\n              pop\n              jump\t// out\n                /* \"#utility.yul\":1323:1440   */\n            tag_159:\n                /* \"#utility.yul\":1432:1433   */\n              0x00\n                /* \"#utility.yul\":1429:1430   */\n              0x00\n                /* \"#utility.yul\":1422:1434   */\n              revert\n                /* \"#utility.yul\":1569:1695   */\n            tag_161:\n                /* \"#utility.yul\":1606:1613   */\n              0x00\n                /* \"#utility.yul\":1646:1688   */\n              0xffffffffffffffffffffffffffffffffffffffff\n                /* \"#utility.yul\":1639:1644   */\n              dup3\n                /* \"#utility.yul\":1635:1689   */\n              and\n                /* \"#utility.yul\":1624:1689   */\n              swap1\n              pop\n                /* \"#utility.yul\":1569:1695   */\n              swap2\n              swap1\n              pop\n              jump\t// out\n                /* \"#utility.yul\":1701:1797   */\n            tag_162:\n                /* \"#utility.yul\":1738:1745   */\n              0x00\n                /* \"#utility.yul\":1767:1791   */\n              tag_195\n                /* \"#utility.yul\":1785:1790   */\n              dup3\n                /* \"#utility.yul\":1767:1791   */\n              tag_161\n              jump\t// in\n            tag_195:\n                /* \"#utility.yul\":1756:1791   */\n              swap1\n              pop\n                /* \"#utility.yul\":1701:1797   */\n              swap2\n              swap1\n              pop\n              jump\t// out\n                /* \"#utility.yul\":1803:1925   */\n            tag_163:\n                /* \"#utility.yul\":1876:1900   */\n              tag_197\n                /* \"#utility.yul\":1894:1899   */\n              dup2\n                /* \"#utility.yul\":1876:1900   */\n              tag_162\n              jump\t// in\n            tag_197:\n                /* \"#utility.yul\":1869:1874   */\n              dup2\n                /* \"#utility.yul\":1866:1901   */\n              eq\n                /* \"#utility.yul\":1856:1919   */\n              tag_198\n              jumpi\n                /* \"#utility.yul\":1915:1916   */\n              0x00\n                /* \"#utility.yul\":1912:1913   */\n              0x00\n                /* \"#utility.yul\":1905:1917   */\n              revert\n                /* \"#utility.yul\":1856:1919   */\n            tag_198:\n                /* \"#utility.yul\":1803:1925   */\n              pop\n              jump\t// out\n                /* \"#utility.yul\":1931:2070   */\n            tag_164:\n                /* \"#utility.yul\":1977:1982   */\n              0x00\n                /* \"#utility.yul\":2015:2021   */\n              dup2\n                /* \"#utility.yul\":2002:2022   */\n              calldataload\n                /* \"#utility.yul\":1993:2022   */\n              swap1\n              pop\n                /* \"#utility.yul\":2031:2064   */\n              tag_200\n                /* \"#utility.yul\":2058:2063   */\n              dup2\n                /* \"#utility.yul\":2031:2064   */\n              tag_163\n              jump\t// in\n            tag_200:\n                /* \"#utility.yul\":1931:2070   */\n              swap3\n              swap2\n              pop\n              pop\n              jump\t// out\n                /* \"#utility.yul\":2076:2153   */\n            tag_165:\n                /* \"#utility.yul\":2113:2120   */\n              0x00\n                /* \"#utility.yul\":2142:2147   */\n              dup2\n                /* \"#utility.yul\":2131:2147   */\n              swap1\n              pop\n                /* \"#utility.yul\":2076:2153   */\n              swap2\n              swap1\n              pop\n              jump\t// out\n                /* \"#utility.yul\":2159:2281   */\n            tag_166:\n                /* \"#utility.yul\":2232:2256   */\n              tag_203\n                /* \"#utility.yul\":2250:2255   */\n              dup2\n                /* \"#utility.yul\":2232:2256   */\n              tag_165\n              jump\t// in\n            tag_203:\n                /* \"#utility.yul\":2225:2230   */\n              dup2\n                /* \"#utility.yul\":2222:2257   */\n              eq\n                /* \"#utility.yul\":2212:2275   */\n              tag_204\n              jumpi\n                /* \"#utility.yul\":2271:2272   */\n              0x00\n                /* \"#utility.yul\":2268:2269   */\n              0x00\n                /* \"#utility.yul\":2261:2273   */\n              revert\n                /* \"#utility.yul\":2212:2275   */\n            tag_204:\n                /* \"#utility.yul\":2159:2281   */\n              pop\n              jump\t// out\n                /* \"#utility.yul\":2287:2426   */\n            tag_167:\n                /* \"#utility.yul\":2333:2338   */\n              0x00\n                /* \"#utility.yul\":2371:2377   */\n              dup2\n                /* \"#utility.yul\":2358:2378   */\n              calldataload\n                /* \"#utility.yul\":2349:2378   */\n              swap1\n              pop\n                /* \"#utility.yul\":2387:2420   */\n              tag_206\n                /* \"#utility.yul\":2414:2419   */\n              dup2\n                /* \"#utility.yul\":2387:2420   */\n              tag_166\n              jump\t// in\n            tag_206:\n                /* \"#utility.yul\":2287:2426   */\n              swap3\n              swap2\n              pop\n              pop\n              jump\t// out\n                /* \"#utility.yul\":2432:2906   */\n            tag_22:\n                /* \"#utility.yul\":2500:2506   */\n              0x00\n                /* \"#utility.yul\":2508:2514   */\n              0x00\n                /* \"#utility.yul\":2557:2559   */\n              0x40\n                /* \"#utility.yul\":2545:2554   */\n              dup4\n                /* \"#utility.yul\":2536:2543   */\n              dup6\n                /* \"#utility.yul\":2532:2555   */\n              sub\n                /* \"#utility.yul\":2528:2560   */\n              slt\n                /* \"#utility.yul\":2525:2644   */\n              iszero\n              tag_208\n              jumpi\n                /* \"#utility.yul\":2563:2642   */\n              tag_209\n              tag_159\n              jump\t// in\n            tag_209:\n                /* \"#utility.yul\":2525:2644   */\n            tag_208:\n                /* \"#utility.yul\":2683:2684   */\n              0x00\n                /* \"#utility.yul\":2708:2761   */\n              tag_210\n                /* \"#utility.yul\":2753:2760   */\n              dup6\n                /* \"#utility.yul\":2744:2750   */\n              dup3\n                /* \"#utility.yul\":2733:2742   */\n              dup7\n                /* \"#utility.yul\":2729:2751   */\n              add\n                /* \"#utility.yul\":2708:2761   */\n              tag_164\n              jump\t// in\n            tag_210:\n                /* \"#utility.yul\":2698:2761   */\n              swap3\n              pop\n                /* \"#utility.yul\":2654:2771   */\n              pop\n                /* \"#utility.yul\":2810:2812   */\n              0x20\n                /* \"#utility.yul\":2836:2889   */\n              tag_211\n                /* \"#utility.yul\":2881:2888   */\n              dup6\n                /* \"#utility.yul\":2872:2878   */\n              dup3\n                /* \"#utility.yul\":2861:2870   */\n              dup7\n                /* \"#utility.yul\":2857:2879   */\n              add\n                /* \"#utility.yul\":2836:2889   */\n              tag_167\n              jump\t// in\n            tag_211:\n                /* \"#utility.yul\":2826:2889   */\n              swap2\n              pop\n                /* \"#utility.yul\":2781:2899   */\n              pop\n                /* \"#utility.yul\":2432:2906   */\n              swap3\n              pop\n              swap3\n              swap1\n              pop\n              jump\t// out\n                /* \"#utility.yul\":2912:3002   */\n            tag_168:\n                /* \"#utility.yul\":2946:2953   */\n              0x00\n                /* \"#utility.yul\":2989:2994   */\n              dup2\n                /* \"#utility.yul\":2982:2995   */\n              iszero\n                /* \"#utility.yul\":2975:2996   */\n              iszero\n                /* \"#utility.yul\":2964:2996   */\n              swap1\n              pop\n                /* \"#utility.yul\":2912:3002   */\n              swap2\n              swap1\n              pop\n              jump\t// out\n                /* \"#utility.yul\":3008:3117   */\n            tag_169:\n                /* \"#utility.yul\":3089:3110   */\n              tag_214\n                /* \"#utility.yul\":3104:3109   */\n              dup2\n                /* \"#utility.yul\":3089:3110   */\n              tag_168\n              jump\t// in\n            tag_214:\n                /* \"#utility.yul\":3084:3087   */\n              dup3\n                /* \"#utility.yul\":3077:3111   */\n              mstore\n                /* \"#utility.yul\":3008:3117   */\n              pop\n              pop\n              jump\t// out\n                /* \"#utility.yul\":3123:3333   */\n            tag_25:\n                /* \"#utility.yul\":3210:3214   */\n              0x00\n                /* \"#utility.yul\":3248:3250   */\n              0x20\n                /* \"#utility.yul\":3237:3246   */\n              dup3\n                /* \"#utility.yul\":3233:3251   */\n              add\n                /* \"#utility.yul\":3225:3251   */\n              swap1\n              pop\n                /* \"#utility.yul\":3261:3326   */\n              tag_216\n                /* \"#utility.yul\":3323:3324   */\n              0x00\n                /* \"#utility.yul\":3312:3321   */\n              dup4\n                /* \"#utility.yul\":3308:3325   */\n              add\n                /* \"#utility.yul\":3299:3305   */\n              dup5\n                /* \"#utility.yul\":3261:3326   */\n              tag_169\n              jump\t// in\n            tag_216:\n                /* \"#utility.yul\":3123:3333   */\n              swap3\n              swap2\n              pop\n              pop\n              jump\t// out\n                /* \"#utility.yul\":3339:3457   */\n            tag_170:\n                /* \"#utility.yul\":3426:3450   */\n              tag_218\n                /* \"#utility.yul\":3444:3449   */\n              dup2\n                /* \"#utility.yul\":3426:3450   */\n              tag_165\n              jump\t// in\n            tag_218:\n                /* \"#utility.yul\":3421:3424   */\n              dup3\n                /* \"#utility.yul\":3414:3451   */\n              mstore\n                /* \"#utility.yul\":3339:3457   */\n              pop\n              pop\n              jump\t// out\n                /* \"#utility.yul\":3463:3685   */\n            tag_29:\n                /* \"#utility.yul\":3556:3560   */\n              0x00\n                /* \"#utility.yul\":3594:3596   */\n              0x20\n                /* \"#utility.yul\":3583:3592   */\n              dup3\n                /* \"#utility.yul\":3579:3597   */\n              add\n                /* \"#utility.yul\":3571:3597   */\n              swap1\n              pop\n                /* \"#utility.yul\":3607:3678   */\n              tag_220\n                /* \"#utility.yul\":3675:3676   */\n              0x00\n                /* \"#utility.yul\":3664:3673   */\n              dup4\n                /* \"#utility.yul\":3660:3677   */\n              add\n                /* \"#utility.yul\":3651:3657   */\n              dup5\n                /* \"#utility.yul\":3607:3678   */\n              tag_170\n              jump\t// in\n            tag_220:\n                /* \"#utility.yul\":3463:3685   */\n              swap3\n              swap2\n              pop\n              pop\n              jump\t// out\n                /* \"#utility.yul\":3691:4310   */\n            tag_32:\n                /* \"#utility.yul\":3768:3774   */\n              0x00\n                /* \"#utility.yul\":3776:3782   */\n              0x00\n                /* \"#utility.yul\":3784:3790   */\n              0x00\n                /* \"#utility.yul\":3833:3835   */\n              0x60\n                /* \"#utility.yul\":3821:3830   */\n              dup5\n                /* \"#utility.yul\":3812:3819   */\n              dup7\n                /* \"#utility.yul\":3808:3831   */\n              sub\n                /* \"#utility.yul\":3804:3836   */\n              slt\n                /* \"#utility.yul\":3801:3920   */\n              iszero\n              tag_222\n              jumpi\n                /* \"#utility.yul\":3839:3918   */\n              tag_223\n              tag_159\n              jump\t// in\n            tag_223:\n                /* \"#utility.yul\":3801:3920   */\n            tag_222:\n                /* \"#utility.yul\":3959:3960   */\n              0x00\n                /* \"#utility.yul\":3984:4037   */\n              tag_224\n                /* \"#utility.yul\":4029:4036   */\n              dup7\n                /* \"#utility.yul\":4020:4026   */\n              dup3\n                /* \"#utility.yul\":4009:4018   */\n              dup8\n                /* \"#utility.yul\":4005:4027   */\n              add\n                /* \"#utility.yul\":3984:4037   */\n              tag_164\n              jump\t// in\n            tag_224:\n                /* \"#utility.yul\":3974:4037   */\n              swap4\n              pop\n                /* \"#utility.yul\":3930:4047   */\n              pop\n                /* \"#utility.yul\":4086:4088   */\n              0x20\n                /* \"#utility.yul\":4112:4165   */\n              tag_225\n                /* \"#utility.yul\":4157:4164   */\n              dup7\n                /* \"#utility.yul\":4148:4154   */\n              dup3\n                /* \"#utility.yul\":4137:4146   */\n              dup8\n                /* \"#utility.yul\":4133:4155   */\n              add\n                /* \"#utility.yul\":4112:4165   */\n              tag_164\n              jump\t// in\n            tag_225:\n                /* \"#utility.yul\":4102:4165   */\n              swap3\n              pop\n                /* \"#utility.yul\":4057:4175   */\n              pop\n                /* \"#utility.yul\":4214:4216   */\n              0x40\n                /* \"#utility.yul\":4240:4293   */\n              tag_226\n                /* \"#utility.yul\":4285:4292   */\n              dup7\n                /* \"#utility.yul\":4276:4282   */\n              dup3\n                /* \"#utility.yul\":4265:4274   */\n              dup8\n                /* \"#utility.yul\":4261:4283   */\n              add\n                /* \"#utility.yul\":4240:4293   */\n              tag_167\n              jump\t// in\n            tag_226:\n                /* \"#utility.yul\":4230:4293   */\n              swap2\n              pop\n                /* \"#utility.yul\":4185:4303   */\n              pop\n                /* \"#utility.yul\":3691:4310   */\n              swap3\n              pop\n              swap3\n              pop\n              swap3\n              jump\t// out\n                /* \"#utility.yul\":4316:4402   */\n            tag_171:\n                /* \"#utility.yul\":4351:4358   */\n              0x00\n                /* \"#utility.yul\":4391:4395   */\n              0xff\n                /* \"#utility.yul\":4384:4389   */\n              dup3\n                /* \"#utility.yul\":4380:4396   */\n              and\n                /* \"#utility.yul\":4369:4396   */\n              swap1\n              pop\n                /* \"#utility.yul\":4316:4402   */\n              swap2\n              swap1\n              pop\n              jump\t// out\n                /* \"#utility.yul\":4408:4520   */\n            tag_172:\n                /* \"#utility.yul\":4491:4513   */\n              tag_229\n                /* \"#utility.yul\":4507:4512   */\n              dup2\n                /* \"#utility.yul\":4491:4513   */\n              tag_171\n              jump\t// in\n            tag_229:\n                /* \"#utility.yul\":4486:4489   */\n              dup3\n                /* \"#utility.yul\":4479:4514   */\n              mstore\n                /* \"#utility.yul\":4408:4520   */\n              pop\n              pop\n              jump\t// out\n                /* \"#utility.yul\":4526:4740   */\n            tag_38:\n                /* \"#utility.yul\":4615:4619   */\n              0x00\n                /* \"#utility.yul\":4653:4655   */\n              0x20\n                /* \"#utility.yul\":4642:4651   */\n              dup3\n                /* \"#utility.yul\":4638:4656   */\n              add\n                /* \"#utility.yul\":4630:4656   */\n              swap1\n              pop\n                /* \"#utility.yul\":4666:4733   */\n              tag_231\n                /* \"#utility.yul\":4730:4731   */\n              0x00\n                /* \"#utility.yul\":4719:4728   */\n              dup4\n                /* \"#utility.yul\":4715:4732   */\n              add\n                /* \"#utility.yul\":4706:4712   */\n              dup5\n                /* \"#utility.yul\":4666:4733   */\n              tag_172\n              jump\t// in\n            tag_231:\n                /* \"#utility.yul\":4526:4740   */\n              swap3\n              swap2\n              pop\n              pop\n              jump\t// out\n                /* \"#utility.yul\":4746:5075   */\n            tag_44:\n                /* \"#utility.yul\":4805:4811   */\n              0x00\n                /* \"#utility.yul\":4854:4856   */\n              0x20\n                /* \"#utility.yul\":4842:4851   */\n              dup3\n                /* \"#utility.yul\":4833:4840   */\n              dup5\n                /* \"#utility.yul\":4829:4852   */\n              sub\n                /* \"#utility.yul\":4825:4857   */\n              slt\n                /* \"#utility.yul\":4822:4941   */\n              iszero\n              tag_233\n              jumpi\n                /* \"#utility.yul\":4860:4939   */\n              tag_234\n              tag_159\n              jump\t// in\n            tag_234:\n                /* \"#utility.yul\":4822:4941   */\n            tag_233:\n                /* \"#utility.yul\":4980:4981   */\n              0x00\n                /* \"#utility.yul\":5005:5058   */\n              tag_235\n                /* \"#utility.yul\":5050:5057   */\n              dup5\n                /* \"#utility.yul\":5041:5047   */\n              dup3\n                /* \"#utility.yul\":5030:5039   */\n              dup6\n                /* \"#utility.yul\":5026:5048   */\n              add\n                /* \"#utility.yul\":5005:5058   */\n              tag_164\n              jump\t// in\n            tag_235:\n                /* \"#utility.yul\":4995:5058   */\n              swap2\n              pop\n                /* \"#utility.yul\":4951:5068   */\n              pop\n                /* \"#utility.yul\":4746:5075   */\n              swap3\n              swap2\n              pop\n              pop\n              jump\t// out\n                /* \"#utility.yul\":5081:5199   */\n            tag_173:\n                /* \"#utility.yul\":5168:5192   */\n              tag_237\n                /* \"#utility.yul\":5186:5191   */\n              dup2\n                /* \"#utility.yul\":5168:5192   */\n              tag_162\n              jump\t// in\n            tag_237:\n                /* \"#utility.yul\":5163:5166   */\n              dup3\n                /* \"#utility.yul\":5156:5193   */\n              mstore\n                /* \"#utility.yul\":5081:5199   */\n              pop\n              pop\n              jump\t// out\n                /* \"#utility.yul\":5205:5427   */\n            tag_50:\n                /* \"#utility.yul\":5298:5302   */\n              0x00\n                /* \"#utility.yul\":5336:5338   */\n              0x20\n                /* \"#utility.yul\":5325:5334   */\n              dup3\n                /* \"#utility.yul\":5321:5339   */\n              add\n                /* \"#utility.yul\":5313:5339   */\n              swap1\n              pop\n                /* \"#utility.yul\":5349:5420   */\n              tag_239\n                /* \"#utility.yul\":5417:5418   */\n              0x00\n                /* \"#utility.yul\":5406:5415   */\n              dup4\n                /* \"#utility.yul\":5402:5419   */\n              add\n                /* \"#utility.yul\":5393:5399   */\n              dup5\n                /* \"#utility.yul\":5349:5420   */\n              tag_173\n              jump\t// in\n            tag_239:\n                /* \"#utility.yul\":5205:5427   */\n              swap3\n              swap2\n              pop\n              pop\n              jump\t// out\n                /* \"#utility.yul\":5433:5907   */\n            tag_63:\n                /* \"#utility.yul\":5501:5507   */\n              0x00\n                /* \"#utility.yul\":5509:5515   */\n              0x00\n                /* \"#utility.yul\":5558:5560   */\n              0x40\n                /* \"#utility.yul\":5546:5555   */\n              dup4\n                /* \"#utility.yul\":5537:5544   */\n              dup6\n                /* \"#utility.yul\":5533:5556   */\n              sub\n                /* \"#utility.yul\":5529:5561   */\n              slt\n                /* \"#utility.yul\":5526:5645   */\n              iszero\n              tag_241\n              jumpi\n                /* \"#utility.yul\":5564:5643   */\n              tag_242\n              tag_159\n              jump\t// in\n            tag_242:\n                /* \"#utility.yul\":5526:5645   */\n            tag_241:\n                /* \"#utility.yul\":5684:5685   */\n              0x00\n                /* \"#utility.yul\":5709:5762   */\n              tag_243\n                /* \"#utility.yul\":5754:5761   */\n              dup6\n                /* \"#utility.yul\":5745:5751   */\n              dup3\n                /* \"#utility.yul\":5734:5743   */\n              dup7\n                /* \"#utility.yul\":5730:5752   */\n              add\n                /* \"#utility.yul\":5709:5762   */\n              tag_164\n              jump\t// in\n            tag_243:\n                /* \"#utility.yul\":5699:5762   */\n              swap3\n              pop\n                /* \"#utility.yul\":5655:5772   */\n              pop\n                /* \"#utility.yul\":5811:5813   */\n              0x20\n                /* \"#utility.yul\":5837:5890   */\n              tag_244\n                /* \"#utility.yul\":5882:5889   */\n              dup6\n                /* \"#utility.yul\":5873:5879   */\n              dup3\n                /* \"#utility.yul\":5862:5871   */\n              dup7\n                /* \"#utility.yul\":5858:5880   */\n              add\n                /* \"#utility.yul\":5837:5890   */\n              tag_164\n              jump\t// in\n            tag_244:\n                /* \"#utility.yul\":5827:5890   */\n              swap2\n              pop\n                /* \"#utility.yul\":5782:5900   */\n              pop\n                /* \"#utility.yul\":5433:5907   */\n              swap3\n              pop\n              swap3\n              swap1\n              pop\n              jump\t// out\n                /* \"#utility.yul\":5913:6093   */\n            tag_174:\n                /* \"#utility.yul\":5961:6038   */\n              0x4e487b7100000000000000000000000000000000000000000000000000000000\n                /* \"#utility.yul\":5958:5959   */\n              0x00\n                /* \"#utility.yul\":5951:6039   */\n              mstore\n                /* \"#utility.yul\":6058:6062   */\n              0x22\n                /* \"#utility.yul\":6055:6056   */\n              0x04\n                /* \"#utility.yul\":6048:6063   */\n              mstore\n                /* \"#utility.yul\":6082:6086   */\n              0x24\n                /* \"#utility.yul\":6079:6080   */\n              0x00\n                /* \"#utility.yul\":6072:6087   */\n              revert\n                /* \"#utility.yul\":6099:6419   */\n            tag_68:\n                /* \"#utility.yul\":6143:6149   */\n              0x00\n                /* \"#utility.yul\":6180:6181   */\n              0x02\n                /* \"#utility.yul\":6174:6178   */\n              dup3\n                /* \"#utility.yul\":6170:6182   */\n              div\n                /* \"#utility.yul\":6160:6182   */\n              swap1\n              pop\n                /* \"#utility.yul\":6227:6228   */\n              0x01\n                /* \"#utility.yul\":6221:6225   */\n              dup3\n                /* \"#utility.yul\":6217:6229   */\n              and\n                /* \"#utility.yul\":6248:6266   */\n              dup1\n                /* \"#utility.yul\":6238:6319   */\n              tag_247\n              jumpi\n                /* \"#utility.yul\":6304:6308   */\n              0x7f\n                /* \"#utility.yul\":6296:6302   */\n              dup3\n                /* \"#utility.yul\":6292:6309   */\n              and\n                /* \"#utility.yul\":6282:6309   */\n              swap2\n              pop\n                /* \"#utility.yul\":6238:6319   */\n            tag_247:\n                /* \"#utility.yul\":6366:6368   */\n              0x20\n                /* \"#utility.yul\":6358:6364   */\n              dup3\n                /* \"#utility.yul\":6355:6369   */\n              lt\n                /* \"#utility.yul\":6335:6353   */\n              dup2\n                /* \"#utility.yul\":6332:6370   */\n              sub\n                /* \"#utility.yul\":6329:6413   */\n              tag_248\n              jumpi\n                /* \"#utility.yul\":6385:6403   */\n              tag_249\n              tag_174\n              jump\t// in\n            tag_249:\n                /* \"#utility.yul\":6329:6413   */\n            tag_248:\n                /* \"#utility.yul\":6150:6419   */\n              pop\n                /* \"#utility.yul\":6099:6419   */\n              swap2\n              swap1\n              pop\n              jump\t// out\n                /* \"#utility.yul\":6425:6604   */\n            tag_175:\n                /* \"#utility.yul\":6565:6596   */\n              0x4f6e6c792053696d706c65537761702063616e206d696e742f6275726e000000\n                /* \"#utility.yul\":6561:6562   */\n              0x00\n                /* \"#utility.yul\":6553:6559   */\n              dup3\n                /* \"#utility.yul\":6549:6563   */\n              add\n                /* \"#utility.yul\":6542:6597   */\n              mstore\n                /* \"#utility.yul\":6425:6604   */\n              pop\n              jump\t// out\n                /* \"#utility.yul\":6610:6976   */\n            tag_176:\n                /* \"#utility.yul\":6752:6755   */\n              0x00\n                /* \"#utility.yul\":6773:6840   */\n              tag_252\n                /* \"#utility.yul\":6837:6839   */\n              0x1d\n                /* \"#utility.yul\":6832:6835   */\n              dup4\n                /* \"#utility.yul\":6773:6840   */\n              tag_154\n              jump\t// in\n            tag_252:\n                /* \"#utility.yul\":6766:6840   */\n              swap2\n              pop\n                /* \"#utility.yul\":6849:6942   */\n              tag_253\n                /* \"#utility.yul\":6938:6941   */\n              dup3\n                /* \"#utility.yul\":6849:6942   */\n              tag_175\n              jump\t// in\n            tag_253:\n                /* \"#utility.yul\":6967:6969   */\n              0x20\n                /* \"#utility.yul\":6962:6965   */\n              dup3\n                /* \"#utility.yul\":6958:6970   */\n              add\n                /* \"#utility.yul\":6951:6970   */\n              swap1\n              pop\n                /* \"#utility.yul\":6610:6976   */\n              swap2\n              swap1\n              pop\n              jump\t// out\n                /* \"#utility.yul\":6982:7401   */\n            tag_89:\n                /* \"#utility.yul\":7148:7152   */\n              0x00\n                /* \"#utility.yul\":7186:7188   */\n              0x20\n                /* \"#utility.yul\":7175:7184   */\n              dup3\n                /* \"#utility.yul\":7171:7189   */\n              add\n                /* \"#utility.yul\":7163:7189   */\n              swap1\n              pop\n                /* \"#utility.yul\":7235:7244   */\n              dup2\n                /* \"#utility.yul\":7229:7233   */\n              dup2\n                /* \"#utility.yul\":7225:7245   */\n              sub\n                /* \"#utility.yul\":7221:7222   */\n              0x00\n                /* \"#utility.yul\":7210:7219   */\n              dup4\n                /* \"#utility.yul\":7206:7223   */\n              add\n                /* \"#utility.yul\":7199:7246   */\n              mstore\n                /* \"#utility.yul\":7263:7394   */\n              tag_255\n                /* \"#utility.yul\":7389:7393   */\n              dup2\n                /* \"#utility.yul\":7263:7394   */\n              tag_176\n              jump\t// in\n            tag_255:\n                /* \"#utility.yul\":7255:7394   */\n              swap1\n              pop\n                /* \"#utility.yul\":6982:7401   */\n              swap2\n              swap1\n              pop\n              jump\t// out\n                /* \"#utility.yul\":7407:7849   */\n            tag_119:\n                /* \"#utility.yul\":7556:7560   */\n              0x00\n                /* \"#utility.yul\":7594:7596   */\n              0x60\n                /* \"#utility.yul\":7583:7592   */\n              dup3\n                /* \"#utility.yul\":7579:7597   */\n              add\n                /* \"#utility.yul\":7571:7597   */\n              swap1\n              pop\n                /* \"#utility.yul\":7607:7678   */\n              tag_257\n                /* \"#utility.yul\":7675:7676   */\n              0x00\n                /* \"#utility.yul\":7664:7673   */\n              dup4\n                /* \"#utility.yul\":7660:7677   */\n              add\n                /* \"#utility.yul\":7651:7657   */\n              dup7\n                /* \"#utility.yul\":7607:7678   */\n              tag_173\n              jump\t// in\n            tag_257:\n                /* \"#utility.yul\":7688:7760   */\n              tag_258\n                /* \"#utility.yul\":7756:7758   */\n              0x20\n                /* \"#utility.yul\":7745:7754   */\n              dup4\n                /* \"#utility.yul\":7741:7759   */\n              add\n                /* \"#utility.yul\":7732:7738   */\n              dup6\n                /* \"#utility.yul\":7688:7760   */\n              tag_170\n              jump\t// in\n            tag_258:\n                /* \"#utility.yul\":7770:7842   */\n              tag_259\n                /* \"#utility.yul\":7838:7840   */\n              0x40\n                /* \"#utility.yul\":7827:7836   */\n              dup4\n                /* \"#utility.yul\":7823:7841   */\n              add\n                /* \"#utility.yul\":7814:7820   */\n              dup5\n                /* \"#utility.yul\":7770:7842   */\n              tag_170\n              jump\t// in\n            tag_259:\n                /* \"#utility.yul\":7407:7849   */\n              swap5\n              swap4\n              pop\n              pop\n              pop\n              pop\n              jump\t// out\n                /* \"#utility.yul\":7855:8035   */\n            tag_177:\n                /* \"#utility.yul\":7903:7980   */\n              0x4e487b7100000000000000000000000000000000000000000000000000000000\n                /* \"#utility.yul\":7900:7901   */\n              0x00\n                /* \"#utility.yul\":7893:7981   */\n              mstore\n                /* \"#utility.yul\":8000:8004   */\n              0x11\n                /* \"#utility.yul\":7997:7998   */\n              0x04\n                /* \"#utility.yul\":7990:8005   */\n              mstore\n                /* \"#utility.yul\":8024:8028   */\n              0x24\n                /* \"#utility.yul\":8021:8022   */\n              0x00\n                /* \"#utility.yul\":8014:8029   */\n              revert\n                /* \"#utility.yul\":8041:8232   */\n            tag_146:\n                /* \"#utility.yul\":8081:8084   */\n              0x00\n                /* \"#utility.yul\":8100:8120   */\n              tag_262\n                /* \"#utility.yul\":8118:8119   */\n              dup3\n                /* \"#utility.yul\":8100:8120   */\n              tag_165\n              jump\t// in\n            tag_262:\n                /* \"#utility.yul\":8095:8120   */\n              swap2\n              pop\n                /* \"#utility.yul\":8134:8154   */\n              tag_263\n                /* \"#utility.yul\":8152:8153   */\n              dup4\n                /* \"#utility.yul\":8134:8154   */\n              tag_165\n              jump\t// in\n            tag_263:\n                /* \"#utility.yul\":8129:8154   */\n              swap3\n              pop\n                /* \"#utility.yul\":8177:8178   */\n              dup3\n                /* \"#utility.yul\":8174:8175   */\n              dup3\n                /* \"#utility.yul\":8170:8179   */\n              add\n                /* \"#utility.yul\":8163:8179   */\n              swap1\n              pop\n                /* \"#utility.yul\":8198:8201   */\n              dup1\n                /* \"#utility.yul\":8195:8196   */\n              dup3\n                /* \"#utility.yul\":8192:8202   */\n              gt\n                /* \"#utility.yul\":8189:8225   */\n              iszero\n              tag_264\n              jumpi\n                /* \"#utility.yul\":8205:8223   */\n              tag_265\n              tag_177\n              jump\t// in\n            tag_265:\n                /* \"#utility.yul\":8189:8225   */\n            tag_264:\n                /* \"#utility.yul\":8041:8232   */\n              swap3\n              swap2\n              pop\n              pop\n              jump\t// out\n\n            auxdata: 0xa2646970667358221220c4c361fc0fd5985d64d15fb18ca5eb9f2185264b9fdb97dd7365357c6d99de7b64736f6c634300081e0033\n        }\n    }\n\n    auxdata: 0xa26469706673582212200b5b498b5807cae4410875174e7eab0c7c38fa662f379013bc68ee66c3ff97df64736f6c634300081e0033\n}\n",
				"bytecode": {
					"linkReferences": {},
					"object": "6080604052348015600e575f5ffd5b5061383e8061001c5f395ff3fe608060405234801561000f575f5ffd5b5060043610610060575f3560e01c8063054d50d41461006457806338ed17391461009457806369454b86146100c4578063ac41865a146100f6578063baa2abde14610126578063e8e3370014610157575b5f5ffd5b61007e6004803603810190610079919061141e565b610189565b60405161008b919061147d565b60405180910390f35b6100ae60048036038101906100a99190611551565b61026d565b6040516100bb919061169e565b60405180910390f35b6100de60048036038101906100d991906116be565b6106f6565b6040516100ed93929190611757565b60405180910390f35b610110600480360381019061010b91906116be565b610745565b60405161011d919061147d565b60405180910390f35b610140600480360381019061013b919061178c565b610843565b60405161014e929190611829565b60405180910390f35b610171600480360381019061016c9190611850565b610d25565b60405161018093929190611901565b60405180910390f35b5f5f84116101cc576040517f08c379a00000000000000000000000000000000000000000000000000000000081526004016101c390611990565b60405180910390fd5b5f831180156101da57505f82115b610219576040517f08c379a0000000000000000000000000000000000000000000000000000000008152600401610210906119f8565b60405180910390fd5b5f6103e5856102289190611a43565b90505f83826102379190611a43565b90505f826103e8876102499190611a43565b6102539190611a84565b905080826102619190611ae4565b93505050509392505050565b6060600285859050146102b5576040517f08c379a00000000000000000000000000000000000000000000000000000000081526004016102ac90611b5e565b60405180910390fd5b814211156102f8576040517f08c379a00000000000000000000000000000000000000000000000000000000081526004016102ef90611bc6565b60405180910390fd5b5f85855f81811061030c5761030b611be4565b5b90506020020160208101906103219190611c11565b90505f8686600181811061033857610337611be4565b5b905060200201602081019061034d9190611c11565b90505f5f5f8473ffffffffffffffffffffffffffffffffffffffff1673ffffffffffffffffffffffffffffffffffffffff1681526020019081526020015f205f8373ffffffffffffffffffffffffffffffffffffffff1673ffffffffffffffffffffffffffffffffffffffff1681526020019081526020015f2090505f73ffffffffffffffffffffffffffffffffffffffff16816002015f9054906101000a900473ffffffffffffffffffffffffffffffffffffffff1673ffffffffffffffffffffffffffffffffffffffff160361045a576040517f08c379a000000000000000000000000000000000000000000000000000000000815260040161045190611c86565b60405180910390fd5b8273ffffffffffffffffffffffffffffffffffffffff166323b872dd33308d6040518463ffffffff1660e01b815260040161049793929190611cb3565b6020604051808303815f875af11580156104b3573d5f5f3e3d5ffd5b505050506040513d601f19601f820116820180604052508101906104d79190611d1d565b610516576040517f08c379a000000000000000000000000000000000000000000000000000000000815260040161050d90611d92565b60405180910390fd5b5f6105298b835f01548460010154610189565b90508981101561056e576040517f08c379a000000000000000000000000000000000000000000000000000000000815260040161056590611dfa565b60405180910390fd5b8a825f015f8282546105809190611a84565b9250508190555080826001015f82825461059a9190611e18565b925050819055508273ffffffffffffffffffffffffffffffffffffffff1663a9059cbb88836040518363ffffffff1660e01b81526004016105dc929190611e4b565b6020604051808303815f875af11580156105f8573d5f5f3e3d5ffd5b505050506040513d601f19601f8201168201806040525081019061061c9190611d1d565b61065b576040517f08c379a000000000000000000000000000000000000000000000000000000000815260040161065290611ebc565b60405180910390fd5b600267ffffffffffffffff81111561067657610675611eda565b5b6040519080825280602002602001820160405280156106a45781602001602082028036833780820191505090505b5094508a855f815181106106bb576106ba611be4565b5b60200260200101818152505080856001815181106106dc576106db611be4565b5b602002602001018181525050505050509695505050505050565b5f602052815f5260405f20602052805f5260405f205f9150915050805f015490806001015490806002015f9054906101000a900473ffffffffffffffffffffffffffffffffffffffff16905083565b5f5f5f5f8573ffffffffffffffffffffffffffffffffffffffff1673ffffffffffffffffffffffffffffffffffffffff1681526020019081526020015f205f8473ffffffffffffffffffffffffffffffffffffffff1673ffffffffffffffffffffffffffffffffffffffff1681526020019081526020015f2090505f815f01541180156107d557505f8160010154115b610814576040517f08c379a000000000000000000000000000000000000000000000000000000000815260040161080b90611f51565b60405180910390fd5b805f0154670de0b6b3a764000082600101546108309190611a43565b61083a9190611ae4565b91505092915050565b5f5f82421115610888576040517f08c379a000000000000000000000000000000000000000000000000000000000815260040161087f90611bc6565b60405180910390fd5b5f5f5f8b73ffffffffffffffffffffffffffffffffffffffff1673ffffffffffffffffffffffffffffffffffffffff1681526020019081526020015f205f8a73ffffffffffffffffffffffffffffffffffffffff1673ffffffffffffffffffffffffffffffffffffffff1681526020019081526020015f2090505f73ffffffffffffffffffffffffffffffffffffffff16816002015f9054906101000a900473ffffffffffffffffffffffffffffffffffffffff1673ffffffffffffffffffffffffffffffffffffffff1603610993576040517f08c379a000000000000000000000000000000000000000000000000000000000815260040161098a90611c86565b60405180910390fd5b806002015f9054906101000a900473ffffffffffffffffffffffffffffffffffffffff1673ffffffffffffffffffffffffffffffffffffffff16639dc29fac338a6040518363ffffffff1660e01b81526004016109f1929190611e4b565b5f604051808303815f87803b158015610a08575f5ffd5b505af1158015610a1a573d5f5f3e3d5ffd5b505050505f816002015f9054906101000a900473ffffffffffffffffffffffffffffffffffffffff1673ffffffffffffffffffffffffffffffffffffffff166318160ddd6040518163ffffffff1660e01b8152600401602060405180830381865afa158015610a8b573d5f5f3e3d5ffd5b505050506040513d601f19601f82011682018060405250810190610aaf9190611f83565b90508089835f0154610ac19190611a43565b610acb9190611ae4565b935080898360010154610ade9190611a43565b610ae89190611ae4565b925087841015610b2d576040517f08c379a0000000000000000000000000000000000000000000000000000000008152600401610b2490611ff8565b60405180910390fd5b86831015610b70576040517f08c379a0000000000000000000000000000000000000000000000000000000008152600401610b6790612060565b60405180910390fd5b83825f015f828254610b829190611e18565b9250508190555082826001015f828254610b9c9190611e18565b925050819055508a73ffffffffffffffffffffffffffffffffffffffff1663a9059cbb87866040518363ffffffff1660e01b8152600401610bde929190611e4b565b6020604051808303815f875af1158015610bfa573d5f5f3e3d5ffd5b505050506040513d601f19601f82011682018060405250810190610c1e9190611d1d565b610c5d576040517f08c379a0000000000000000000000000000000000000000000000000000000008152600401610c54906120c8565b60405180910390fd5b8973ffffffffffffffffffffffffffffffffffffffff1663a9059cbb87856040518363ffffffff1660e01b8152600401610c98929190611e4b565b6020604051808303815f875af1158015610cb4573d5f5f3e3d5ffd5b505050506040513d601f19601f82011682018060405250810190610cd89190611d1d565b610d17576040517f08c379a0000000000000000000000000000000000000000000000000000000008152600401610d0e90612130565b60405180910390fd5b505097509795505050505050565b5f5f5f83421115610d6b576040517f08c379a0000000000000000000000000000000000000000000000000000000008152600401610d6290611bc6565b60405180910390fd5b8973ffffffffffffffffffffffffffffffffffffffff168b73ffffffffffffffffffffffffffffffffffffffff1603610dd9576040517f08c379a0000000000000000000000000000000000000000000000000000000008152600401610dd090612198565b60405180910390fd5b5f73ffffffffffffffffffffffffffffffffffffffff168b73ffffffffffffffffffffffffffffffffffffffff1614158015610e4157505f73ffffffffffffffffffffffffffffffffffffffff168a73ffffffffffffffffffffffffffffffffffffffff1614155b610e80576040517f08c379a0000000000000000000000000000000000000000000000000000000008152600401610e7790612200565b60405180910390fd5b5f5f5f8d73ffffffffffffffffffffffffffffffffffffffff1673ffffffffffffffffffffffffffffffffffffffff1681526020019081526020015f205f8c73ffffffffffffffffffffffffffffffffffffffff1673ffffffffffffffffffffffffffffffffffffffff1681526020019081526020015f2090505f73ffffffffffffffffffffffffffffffffffffffff16816002015f9054906101000a900473ffffffffffffffffffffffffffffffffffffffff1673ffffffffffffffffffffffffffffffffffffffff1603610fb857604051610f5c906113d6565b604051809103905ff080158015610f75573d5f5f3e3d5ffd5b50816002015f6101000a81548173ffffffffffffffffffffffffffffffffffffffff021916908373ffffffffffffffffffffffffffffffffffffffff1602179055505b5f815f0154148015610fcd57505f8160010154145b15610fdd57899350889250611104565b5f815f015482600101548c610ff29190611a43565b610ffc9190611ae4565b90508981116110535787811015611048576040517f08c379a000000000000000000000000000000000000000000000000000000000815260040161103f90612060565b60405180910390fd5b8a9450809350611102565b5f8260010154835f01548c6110689190611a43565b6110729190611ae4565b90508b8111156110b7576040517f08c379a00000000000000000000000000000000000000000000000000000000081526004016110ae90611ff8565b60405180910390fd5b898110156110fa576040517f08c379a00000000000000000000000000000000000000000000000000000000081526004016110f190611ff8565b60405180910390fd5b8095508a9450505b505b8b73ffffffffffffffffffffffffffffffffffffffff166323b872dd3330876040518463ffffffff1660e01b815260040161114193929190611cb3565b6020604051808303815f875af115801561115d573d5f5f3e3d5ffd5b505050506040513d601f19601f820116820180604052508101906111819190611d1d565b6111c0576040517f08c379a00000000000000000000000000000000000000000000000000000000081526004016111b790612268565b60405180910390fd5b8a73ffffffffffffffffffffffffffffffffffffffff166323b872dd3330866040518463ffffffff1660e01b81526004016111fd93929190611cb3565b6020604051808303815f875af1158015611219573d5f5f3e3d5ffd5b505050506040513d601f19601f8201168201806040525081019061123d9190611d1d565b61127c576040517f08c379a0000000000000000000000000000000000000000000000000000000008152600401611273906122d0565b60405180910390fd5b611290838561128b9190611a43565b61135f565b9150806002015f9054906101000a900473ffffffffffffffffffffffffffffffffffffffff1673ffffffffffffffffffffffffffffffffffffffff166340c10f1987846040518363ffffffff1660e01b81526004016112f0929190611e4b565b5f604051808303815f87803b158015611307575f5ffd5b505af1158015611319573d5f5f3e3d5ffd5b5050505083815f015f82825461132f9190611a84565b9250508190555082816001015f8282546113499190611a84565b9250508190555050985098509895505050505050565b5f60038211156113c4578190505f600160028461137c9190611ae4565b6113869190611a84565b90505b818110156113be5780915060028182856113a39190611ae4565b6113ad9190611a84565b6113b79190611ae4565b9050611389565b506113d1565b5f82146113d057600190505b5b919050565b61151a806122ef83390190565b5f5ffd5b5f5ffd5b5f819050919050565b6113fd816113eb565b8114611407575f5ffd5b50565b5f81359050611418816113f4565b92915050565b5f5f5f60608486031215611435576114346113e3565b5b5f6114428682870161140a565b93505060206114538682870161140a565b92505060406114648682870161140a565b9150509250925092565b611477816113eb565b82525050565b5f6020820190506114905f83018461146e565b92915050565b5f5ffd5b5f5ffd5b5f5ffd5b5f5f83601f8401126114b7576114b6611496565b5b8235905067ffffffffffffffff8111156114d4576114d361149a565b5b6020830191508360208202830111156114f0576114ef61149e565b5b9250929050565b5f73ffffffffffffffffffffffffffffffffffffffff82169050919050565b5f611520826114f7565b9050919050565b61153081611516565b811461153a575f5ffd5b50565b5f8135905061154b81611527565b92915050565b5f5f5f5f5f5f60a0878903121561156b5761156a6113e3565b5b5f61157889828a0161140a565b965050602061158989828a0161140a565b955050604087013567ffffffffffffffff8111156115aa576115a96113e7565b5b6115b689828a016114a2565b945094505060606115c989828a0161153d565b92505060806115da89828a0161140a565b9150509295509295509295565b5f81519050919050565b5f82825260208201905092915050565b5f819050602082019050919050565b611619816113eb565b82525050565b5f61162a8383611610565b60208301905092915050565b5f602082019050919050565b5f61164c826115e7565b61165681856115f1565b935061166183611601565b805f5b83811015611691578151611678888261161f565b975061168383611636565b925050600181019050611664565b5085935050505092915050565b5f6020820190508181035f8301526116b68184611642565b905092915050565b5f5f604083850312156116d4576116d36113e3565b5b5f6116e18582860161153d565b92505060206116f28582860161153d565b9150509250929050565b5f819050919050565b5f61171f61171a611715846114f7565b6116fc565b6114f7565b9050919050565b5f61173082611705565b9050919050565b5f61174182611726565b9050919050565b61175181611737565b82525050565b5f60608201905061176a5f83018661146e565b611777602083018561146e565b6117846040830184611748565b949350505050565b5f5f5f5f5f5f5f60e0888a0312156117a7576117a66113e3565b5b5f6117b48a828b0161153d565b97505060206117c58a828b0161153d565b96505060406117d68a828b0161140a565b95505060606117e78a828b0161140a565b94505060806117f88a828b0161140a565b93505060a06118098a828b0161153d565b92505060c061181a8a828b0161140a565b91505092959891949750929550565b5f60408201905061183c5f83018561146e565b611849602083018461146e565b9392505050565b5f5f5f5f5f5f5f5f610100898b03121561186d5761186c6113e3565b5b5f61187a8b828c0161153d565b985050602061188b8b828c0161153d565b975050604061189c8b828c0161140a565b96505060606118ad8b828c0161140a565b95505060806118be8b828c0161140a565b94505060a06118cf8b828c0161140a565b93505060c06118e08b828c0161153d565b92505060e06118f18b828c0161140a565b9150509295985092959890939650565b5f6060820190506119145f83018661146e565b611921602083018561146e565b61192e604083018461146e565b949350505050565b5f82825260208201905092915050565b7f416d6f756e7420696e206d757374206265203e203000000000000000000000005f82015250565b5f61197a601583611936565b915061198582611946565b602082019050919050565b5f6020820190508181035f8301526119a78161196e565b9050919050565b7f496e76616c6964207265736572766573000000000000000000000000000000005f82015250565b5f6119e2601083611936565b91506119ed826119ae565b602082019050919050565b5f6020820190508181035f830152611a0f816119d6565b9050919050565b7f4e487b71000000000000000000000000000000000000000000000000000000005f52601160045260245ffd5b5f611a4d826113eb565b9150611a58836113eb565b9250828202611a66816113eb565b91508282048414831517611a7d57611a7c611a16565b5b5092915050565b5f611a8e826113eb565b9150611a99836113eb565b9250828201905080821115611ab157611ab0611a16565b5b92915050565b7f4e487b71000000000000000000000000000000000000000000000000000000005f52601260045260245ffd5b5f611aee826113eb565b9150611af9836113eb565b925082611b0957611b08611ab7565b5b828204905092915050565b7f4f6e6c7920322d746f6b656e207061746820737570706f7274656400000000005f82015250565b5f611b48601b83611936565b9150611b5382611b14565b602082019050919050565b5f6020820190508181035f830152611b7581611b3c565b9050919050565b7f5472616e73616374696f6e2065787069726564000000000000000000000000005f82015250565b5f611bb0601383611936565b9150611bbb82611b7c565b602082019050919050565b5f6020820190508181035f830152611bdd81611ba4565b9050919050565b7f4e487b71000000000000000000000000000000000000000000000000000000005f52603260045260245ffd5b5f60208284031215611c2657611c256113e3565b5b5f611c338482850161153d565b91505092915050565b7f5061697220646f6573206e6f74206578697374000000000000000000000000005f82015250565b5f611c70601383611936565b9150611c7b82611c3c565b602082019050919050565b5f6020820190508181035f830152611c9d81611c64565b9050919050565b611cad81611516565b82525050565b5f606082019050611cc65f830186611ca4565b611cd36020830185611ca4565b611ce0604083018461146e565b949350505050565b5f8115159050919050565b611cfc81611ce8565b8114611d06575f5ffd5b50565b5f81519050611d1781611cf3565b92915050565b5f60208284031215611d3257611d316113e3565b5b5f611d3f84828501611d09565b91505092915050565b7f5472616e7366657220696e206661696c656400000000000000000000000000005f82015250565b5f611d7c601283611936565b9150611d8782611d48565b602082019050919050565b5f6020820190508181035f830152611da981611d70565b9050919050565b7f536c69707061676520746f6f20686967680000000000000000000000000000005f82015250565b5f611de4601183611936565b9150611def82611db0565b602082019050919050565b5f6020820190508181035f830152611e1181611dd8565b9050919050565b5f611e22826113eb565b9150611e2d836113eb565b9250828203905081811115611e4557611e44611a16565b5b92915050565b5f604082019050611e5e5f830185611ca4565b611e6b602083018461146e565b9392505050565b7f5472616e73666572206f7574206661696c6564000000000000000000000000005f82015250565b5f611ea6601383611936565b9150611eb182611e72565b602082019050919050565b5f6020820190508181035f830152611ed381611e9a565b9050919050565b7f4e487b71000000000000000000000000000000000000000000000000000000005f52604160045260245ffd5b7f496e73756666696369656e7420726573657276657300000000000000000000005f82015250565b5f611f3b601583611936565b9150611f4682611f07565b602082019050919050565b5f6020820190508181035f830152611f6881611f2f565b9050919050565b5f81519050611f7d816113f4565b92915050565b5f60208284031215611f9857611f976113e3565b5b5f611fa584828501611f6f565b91505092915050565b7f536c69707061676520746f6f20686967682041000000000000000000000000005f82015250565b5f611fe2601383611936565b9150611fed82611fae565b602082019050919050565b5f6020820190508181035f83015261200f81611fd6565b9050919050565b7f536c69707061676520746f6f20686967682042000000000000000000000000005f82015250565b5f61204a601383611936565b915061205582612016565b602082019050919050565b5f6020820190508181035f8301526120778161203e565b9050919050565b7f5472616e736665722041206661696c65640000000000000000000000000000005f82015250565b5f6120b2601183611936565b91506120bd8261207e565b602082019050919050565b5f6020820190508181035f8301526120df816120a6565b9050919050565b7f5472616e736665722042206661696c65640000000000000000000000000000005f82015250565b5f61211a601183611936565b9150612125826120e6565b602082019050919050565b5f6020820190508181035f8301526121478161210e565b9050919050565b7f546f6b656e73206d7573742064696666657200000000000000000000000000005f82015250565b5f612182601283611936565b915061218d8261214e565b602082019050919050565b5f6020820190508181035f8301526121af81612176565b9050919050565b7f496e76616c6964206164647265737365730000000000000000000000000000005f82015250565b5f6121ea601183611936565b91506121f5826121b6565b602082019050919050565b5f6020820190508181035f830152612217816121de565b9050919050565b7f5472616e7366657220746f6b656e41206661696c6564000000000000000000005f82015250565b5f612252601683611936565b915061225d8261221e565b602082019050919050565b5f6020820190508181035f83015261227f81612246565b9050919050565b7f5472616e7366657220746f6b656e42206661696c6564000000000000000000005f82015250565b5f6122ba601683611936565b91506122c582612286565b602082019050919050565b5f6020820190508181035f8301526122e7816122ae565b905091905056fe608060405234801561000f575f5ffd5b506040518060400160405280600f81526020017f4c697175696469747920546f6b656e00000000000000000000000000000000008152506040518060400160405280600381526020017f4c50540000000000000000000000000000000000000000000000000000000000815250816003908161008b9190610320565b50806004908161009b9190610320565b5050503360055f6101000a81548173ffffffffffffffffffffffffffffffffffffffff021916908373ffffffffffffffffffffffffffffffffffffffff1602179055506103ef565b5f81519050919050565b7f4e487b71000000000000000000000000000000000000000000000000000000005f52604160045260245ffd5b7f4e487b71000000000000000000000000000000000000000000000000000000005f52602260045260245ffd5b5f600282049050600182168061015e57607f821691505b6020821081036101715761017061011a565b5b50919050565b5f819050815f5260205f209050919050565b5f6020601f8301049050919050565b5f82821b905092915050565b5f600883026101d37fffffffffffffffffffffffffffffffffffffffffffffffffffffffffffffffff82610198565b6101dd8683610198565b95508019841693508086168417925050509392505050565b5f819050919050565b5f819050919050565b5f61022161021c610217846101f5565b6101fe565b6101f5565b9050919050565b5f819050919050565b61023a83610207565b61024e61024682610228565b8484546101a4565b825550505050565b5f5f905090565b610265610256565b610270818484610231565b505050565b5b81811015610293576102885f8261025d565b600181019050610276565b5050565b601f8211156102d8576102a981610177565b6102b284610189565b810160208510156102c1578190505b6102d56102cd85610189565b830182610275565b50505b505050565b5f82821c905092915050565b5f6102f85f19846008026102dd565b1980831691505092915050565b5f61031083836102e9565b9150826002028217905092915050565b610329826100e3565b67ffffffffffffffff811115610342576103416100ed565b5b61034c8254610147565b610357828285610297565b5f60209050601f831160018114610388575f8415610376578287015190505b6103808582610305565b8655506103e7565b601f19841661039686610177565b5f5b828110156103bd57848901518255600182019150602085019450602081019050610398565b868310156103da57848901516103d6601f8916826102e9565b8355505b6001600288020188555050505b505050505050565b61111e806103fc5f395ff3fe608060405234801561000f575f5ffd5b50600436106100b2575f3560e01c806370a082311161006f57806370a082311461018c5780638ea83031146101bc57806395d89b41146101da5780639dc29fac146101f8578063a9059cbb14610214578063dd62ed3e14610244576100b2565b806306fdde03146100b6578063095ea7b3146100d457806318160ddd1461010457806323b872dd14610122578063313ce5671461015257806340c10f1914610170575b5f5ffd5b6100be610274565b6040516100cb9190610d2f565b60405180910390f35b6100ee60048036038101906100e99190610de0565b610304565b6040516100fb9190610e38565b60405180910390f35b61010c610326565b6040516101199190610e60565b60405180910390f35b61013c60048036038101906101379190610e79565b61032f565b6040516101499190610e38565b60405180910390f35b61015a61035d565b6040516101679190610ee4565b60405180910390f35b61018a60048036038101906101859190610de0565b610365565b005b6101a660048036038101906101a19190610efd565b610402565b6040516101b39190610e60565b60405180910390f35b6101c4610447565b6040516101d19190610f37565b60405180910390f35b6101e261046c565b6040516101ef9190610d2f565b60405180910390f35b610212600480360381019061020d9190610de0565b6104fc565b005b61022e60048036038101906102299190610de0565b610599565b60405161023b9190610e38565b60405180910390f35b61025e60048036038101906102599190610f50565b6105bb565b60405161026b9190610e60565b60405180910390f35b60606003805461028390610fbb565b80601f01602080910402602001604051908101604052809291908181526020018280546102af90610fbb565b80156102fa5780601f106102d1576101008083540402835291602001916102fa565b820191905f5260205f20905b8154815290600101906020018083116102dd57829003601f168201915b5050505050905090565b5f5f61030e61063d565b905061031b818585610644565b600191505092915050565b5f600254905090565b5f5f61033961063d565b9050610346858285610656565b6103518585856106e9565b60019150509392505050565b5f6012905090565b60055f9054906101000a900473ffffffffffffffffffffffffffffffffffffffff1673ffffffffffffffffffffffffffffffffffffffff163373ffffffffffffffffffffffffffffffffffffffff16146103f4576040517f08c379a00000000000000000000000000000000000000000000000000000000081526004016103eb90611035565b60405180910390fd5b6103fe82826107d9565b5050565b5f5f5f8373ffffffffffffffffffffffffffffffffffffffff1673ffffffffffffffffffffffffffffffffffffffff1681526020019081526020015f20549050919050565b60055f9054906101000a900473ffffffffffffffffffffffffffffffffffffffff1681565b60606004805461047b90610fbb565b80601f01602080910402602001604051908101604052809291908181526020018280546104a790610fbb565b80156104f25780601f106104c9576101008083540402835291602001916104f2565b820191905f5260205f20905b8154815290600101906020018083116104d557829003601f168201915b5050505050905090565b60055f9054906101000a900473ffffffffffffffffffffffffffffffffffffffff1673ffffffffffffffffffffffffffffffffffffffff163373ffffffffffffffffffffffffffffffffffffffff161461058b576040517f08c379a000000000000000000000000000000000000000000000000000000000815260040161058290611035565b60405180910390fd5b6105958282610858565b5050565b5f5f6105a361063d565b90506105b08185856106e9565b600191505092915050565b5f60015f8473ffffffffffffffffffffffffffffffffffffffff1673ffffffffffffffffffffffffffffffffffffffff1681526020019081526020015f205f8373ffffffffffffffffffffffffffffffffffffffff1673ffffffffffffffffffffffffffffffffffffffff1681526020019081526020015f2054905092915050565b5f33905090565b61065183838360016108d7565b505050565b5f61066184846105bb565b90507fffffffffffffffffffffffffffffffffffffffffffffffffffffffffffffffff8110156106e357818110156106d4578281836040517ffb8f41b20000000000000000000000000000000000000000000000000000000081526004016106cb93929190611053565b60405180910390fd5b6106e284848484035f6108d7565b5b50505050565b5f73ffffffffffffffffffffffffffffffffffffffff168373ffffffffffffffffffffffffffffffffffffffff1603610759575f6040517f96c6fd1e0000000000000000000000000000000000000000000000000000000081526004016107509190610f37565b60405180910390fd5b5f73ffffffffffffffffffffffffffffffffffffffff168273ffffffffffffffffffffffffffffffffffffffff16036107c9575f6040517fec442f050000000000000000000000000000000000000000000000000000000081526004016107c09190610f37565b60405180910390fd5b6107d4838383610aa6565b505050565b5f73ffffffffffffffffffffffffffffffffffffffff168273ffffffffffffffffffffffffffffffffffffffff1603610849575f6040517fec442f050000000000000000000000000000000000000000000000000000000081526004016108409190610f37565b60405180910390fd5b6108545f8383610aa6565b5050565b5f73ffffffffffffffffffffffffffffffffffffffff168273ffffffffffffffffffffffffffffffffffffffff16036108c8575f6040517f96c6fd1e0000000000000000000000000000000000000000000000000000000081526004016108bf9190610f37565b60405180910390fd5b6108d3825f83610aa6565b5050565b5f73ffffffffffffffffffffffffffffffffffffffff168473ffffffffffffffffffffffffffffffffffffffff1603610947575f6040517fe602df0500000000000000000000000000000000000000000000000000000000815260040161093e9190610f37565b60405180910390fd5b5f73ffffffffffffffffffffffffffffffffffffffff168373ffffffffffffffffffffffffffffffffffffffff16036109b7575f6040517f94280d620000000000000000000000000000000000000000000000000000000081526004016109ae9190610f37565b60405180910390fd5b8160015f8673ffffffffffffffffffffffffffffffffffffffff1673ffffffffffffffffffffffffffffffffffffffff1681526020019081526020015f205f8573ffffffffffffffffffffffffffffffffffffffff1673ffffffffffffffffffffffffffffffffffffffff1681526020019081526020015f20819055508015610aa0578273ffffffffffffffffffffffffffffffffffffffff168473ffffffffffffffffffffffffffffffffffffffff167f8c5be1e5ebec7d5bd14f71427d1e84f3dd0314c0f7b2291e5b200ac8c7c3b92584604051610a979190610e60565b60405180910390a35b50505050565b5f73ffffffffffffffffffffffffffffffffffffffff168373ffffffffffffffffffffffffffffffffffffffff1603610af6578060025f828254610aea91906110b5565b92505081905550610bc4565b5f5f5f8573ffffffffffffffffffffffffffffffffffffffff1673ffffffffffffffffffffffffffffffffffffffff1681526020019081526020015f2054905081811015610b7f578381836040517fe450d38c000000000000000000000000000000000000000000000000000000008152600401610b7693929190611053565b60405180910390fd5b8181035f5f8673ffffffffffffffffffffffffffffffffffffffff1673ffffffffffffffffffffffffffffffffffffffff1681526020019081526020015f2081905550505b5f73ffffffffffffffffffffffffffffffffffffffff168273ffffffffffffffffffffffffffffffffffffffff1603610c0b578060025f8282540392505081905550610c55565b805f5f8473ffffffffffffffffffffffffffffffffffffffff1673ffffffffffffffffffffffffffffffffffffffff1681526020019081526020015f205f82825401925050819055505b8173ffffffffffffffffffffffffffffffffffffffff168373ffffffffffffffffffffffffffffffffffffffff167fddf252ad1be2c89b69c2b068fc378daa952ba7f163c4a11628f55a4df523b3ef83604051610cb29190610e60565b60405180910390a3505050565b5f81519050919050565b5f82825260208201905092915050565b8281835e5f83830152505050565b5f601f19601f8301169050919050565b5f610d0182610cbf565b610d0b8185610cc9565b9350610d1b818560208601610cd9565b610d2481610ce7565b840191505092915050565b5f6020820190508181035f830152610d478184610cf7565b905092915050565b5f5ffd5b5f73ffffffffffffffffffffffffffffffffffffffff82169050919050565b5f610d7c82610d53565b9050919050565b610d8c81610d72565b8114610d96575f5ffd5b50565b5f81359050610da781610d83565b92915050565b5f819050919050565b610dbf81610dad565b8114610dc9575f5ffd5b50565b5f81359050610dda81610db6565b92915050565b5f5f60408385031215610df657610df5610d4f565b5b5f610e0385828601610d99565b9250506020610e1485828601610dcc565b9150509250929050565b5f8115159050919050565b610e3281610e1e565b82525050565b5f602082019050610e4b5f830184610e29565b92915050565b610e5a81610dad565b82525050565b5f602082019050610e735f830184610e51565b92915050565b5f5f5f60608486031215610e9057610e8f610d4f565b5b5f610e9d86828701610d99565b9350506020610eae86828701610d99565b9250506040610ebf86828701610dcc565b9150509250925092565b5f60ff82169050919050565b610ede81610ec9565b82525050565b5f602082019050610ef75f830184610ed5565b92915050565b5f60208284031215610f1257610f11610d4f565b5b5f610f1f84828501610d99565b91505092915050565b610f3181610d72565b82525050565b5f602082019050610f4a5f830184610f28565b92915050565b5f5f60408385031215610f6657610f65610d4f565b5b5f610f7385828601610d99565b9250506020610f8485828601610d99565b9150509250929050565b7f4e487b71000000000000000000000000000000000000000000000000000000005f52602260045260245ffd5b5f6002820490506001821680610fd257607f821691505b602082108103610fe557610fe4610f8e565b5b50919050565b7f4f6e6c792053696d706c65537761702063616e206d696e742f6275726e0000005f82015250565b5f61101f601d83610cc9565b915061102a82610feb565b602082019050919050565b5f6020820190508181035f83015261104c81611013565b9050919050565b5f6060820190506110665f830186610f28565b6110736020830185610e51565b6110806040830184610e51565b949350505050565b7f4e487b71000000000000000000000000000000000000000000000000000000005f52601160045260245ffd5b5f6110bf82610dad565b91506110ca83610dad565b92508282019050808211156110e2576110e1611088565b5b9291505056fea2646970667358221220c4c361fc0fd5985d64d15fb18ca5eb9f2185264b9fdb97dd7365357c6d99de7b64736f6c634300081e0033a26469706673582212200b5b498b5807cae4410875174e7eab0c7c38fa662f379013bc68ee66c3ff97df64736f6c634300081e0033",
					"opcodes": "PUSH1 0x80 PUSH1 0x40 MSTORE CALLVALUE DUP1 ISZERO PUSH1 0xE JUMPI PUSH0 PUSH0 REVERT JUMPDEST POP PUSH2 0x383E DUP1 PUSH2 0x1C PUSH0 CODECOPY PUSH0 RETURN INVALID PUSH1 0x80 PUSH1 0x40 MSTORE CALLVALUE DUP1 ISZERO PUSH2 0xF JUMPI PUSH0 PUSH0 REVERT JUMPDEST POP PUSH1 0x4 CALLDATASIZE LT PUSH2 0x60 JUMPI PUSH0 CALLDATALOAD PUSH1 0xE0 SHR DUP1 PUSH4 0x54D50D4 EQ PUSH2 0x64 JUMPI DUP1 PUSH4 0x38ED1739 EQ PUSH2 0x94 JUMPI DUP1 PUSH4 0x69454B86 EQ PUSH2 0xC4 JUMPI DUP1 PUSH4 0xAC41865A EQ PUSH2 0xF6 JUMPI DUP1 PUSH4 0xBAA2ABDE EQ PUSH2 0x126 JUMPI DUP1 PUSH4 0xE8E33700 EQ PUSH2 0x157 JUMPI JUMPDEST PUSH0 PUSH0 REVERT JUMPDEST PUSH2 0x7E PUSH1 0x4 DUP1 CALLDATASIZE SUB DUP2 ADD SWAP1 PUSH2 0x79 SWAP2 SWAP1 PUSH2 0x141E JUMP JUMPDEST PUSH2 0x189 JUMP JUMPDEST PUSH1 0x40 MLOAD PUSH2 0x8B SWAP2 SWAP1 PUSH2 0x147D JUMP JUMPDEST PUSH1 0x40 MLOAD DUP1 SWAP2 SUB SWAP1 RETURN JUMPDEST PUSH2 0xAE PUSH1 0x4 DUP1 CALLDATASIZE SUB DUP2 ADD SWAP1 PUSH2 0xA9 SWAP2 SWAP1 PUSH2 0x1551 JUMP JUMPDEST PUSH2 0x26D JUMP JUMPDEST PUSH1 0x40 MLOAD PUSH2 0xBB SWAP2 SWAP1 PUSH2 0x169E JUMP JUMPDEST PUSH1 0x40 MLOAD DUP1 SWAP2 SUB SWAP1 RETURN JUMPDEST PUSH2 0xDE PUSH1 0x4 DUP1 CALLDATASIZE SUB DUP2 ADD SWAP1 PUSH2 0xD9 SWAP2 SWAP1 PUSH2 0x16BE JUMP JUMPDEST PUSH2 0x6F6 JUMP JUMPDEST PUSH1 0x40 MLOAD PUSH2 0xED SWAP4 SWAP3 SWAP2 SWAP1 PUSH2 0x1757 JUMP JUMPDEST PUSH1 0x40 MLOAD DUP1 SWAP2 SUB SWAP1 RETURN JUMPDEST PUSH2 0x110 PUSH1 0x4 DUP1 CALLDATASIZE SUB DUP2 ADD SWAP1 PUSH2 0x10B SWAP2 SWAP1 PUSH2 0x16BE JUMP JUMPDEST PUSH2 0x745 JUMP JUMPDEST PUSH1 0x40 MLOAD PUSH2 0x11D SWAP2 SWAP1 PUSH2 0x147D JUMP JUMPDEST PUSH1 0x40 MLOAD DUP1 SWAP2 SUB SWAP1 RETURN JUMPDEST PUSH2 0x140 PUSH1 0x4 DUP1 CALLDATASIZE SUB DUP2 ADD SWAP1 PUSH2 0x13B SWAP2 SWAP1 PUSH2 0x178C JUMP JUMPDEST PUSH2 0x843 JUMP JUMPDEST PUSH1 0x40 MLOAD PUSH2 0x14E SWAP3 SWAP2 SWAP1 PUSH2 0x1829 JUMP JUMPDEST PUSH1 0x40 MLOAD DUP1 SWAP2 SUB SWAP1 RETURN JUMPDEST PUSH2 0x171 PUSH1 0x4 DUP1 CALLDATASIZE SUB DUP2 ADD SWAP1 PUSH2 0x16C SWAP2 SWAP1 PUSH2 0x1850 JUMP JUMPDEST PUSH2 0xD25 JUMP JUMPDEST PUSH1 0x40 MLOAD PUSH2 0x180 SWAP4 SWAP3 SWAP2 SWAP1 PUSH2 0x1901 JUMP JUMPDEST PUSH1 0x40 MLOAD DUP1 SWAP2 SUB SWAP1 RETURN JUMPDEST PUSH0 PUSH0 DUP5 GT PUSH2 0x1CC JUMPI PUSH1 0x40 MLOAD PUSH32 0x8C379A000000000000000000000000000000000000000000000000000000000 DUP2 MSTORE PUSH1 0x4 ADD PUSH2 0x1C3 SWAP1 PUSH2 0x1990 JUMP JUMPDEST PUSH1 0x40 MLOAD DUP1 SWAP2 SUB SWAP1 REVERT JUMPDEST PUSH0 DUP4 GT DUP1 ISZERO PUSH2 0x1DA JUMPI POP PUSH0 DUP3 GT JUMPDEST PUSH2 0x219 JUMPI PUSH1 0x40 MLOAD PUSH32 0x8C379A000000000000000000000000000000000000000000000000000000000 DUP2 MSTORE PUSH1 0x4 ADD PUSH2 0x210 SWAP1 PUSH2 0x19F8 JUMP JUMPDEST PUSH1 0x40 MLOAD DUP1 SWAP2 SUB SWAP1 REVERT JUMPDEST PUSH0 PUSH2 0x3E5 DUP6 PUSH2 0x228 SWAP2 SWAP1 PUSH2 0x1A43 JUMP JUMPDEST SWAP1 POP PUSH0 DUP4 DUP3 PUSH2 0x237 SWAP2 SWAP1 PUSH2 0x1A43 JUMP JUMPDEST SWAP1 POP PUSH0 DUP3 PUSH2 0x3E8 DUP8 PUSH2 0x249 SWAP2 SWAP1 PUSH2 0x1A43 JUMP JUMPDEST PUSH2 0x253 SWAP2 SWAP1 PUSH2 0x1A84 JUMP JUMPDEST SWAP1 POP DUP1 DUP3 PUSH2 0x261 SWAP2 SWAP1 PUSH2 0x1AE4 JUMP JUMPDEST SWAP4 POP POP POP POP SWAP4 SWAP3 POP POP POP JUMP JUMPDEST PUSH1 0x60 PUSH1 0x2 DUP6 DUP6 SWAP1 POP EQ PUSH2 0x2B5 JUMPI PUSH1 0x40 MLOAD PUSH32 0x8C379A000000000000000000000000000000000000000000000000000000000 DUP2 MSTORE PUSH1 0x4 ADD PUSH2 0x2AC SWAP1 PUSH2 0x1B5E JUMP JUMPDEST PUSH1 0x40 MLOAD DUP1 SWAP2 SUB SWAP1 REVERT JUMPDEST DUP2 TIMESTAMP GT ISZERO PUSH2 0x2F8 JUMPI PUSH1 0x40 MLOAD PUSH32 0x8C379A000000000000000000000000000000000000000000000000000000000 DUP2 MSTORE PUSH1 0x4 ADD PUSH2 0x2EF SWAP1 PUSH2 0x1BC6 JUMP JUMPDEST PUSH1 0x40 MLOAD DUP1 SWAP2 SUB SWAP1 REVERT JUMPDEST PUSH0 DUP6 DUP6 PUSH0 DUP2 DUP2 LT PUSH2 0x30C JUMPI PUSH2 0x30B PUSH2 0x1BE4 JUMP JUMPDEST JUMPDEST SWAP1 POP PUSH1 0x20 MUL ADD PUSH1 0x20 DUP2 ADD SWAP1 PUSH2 0x321 SWAP2 SWAP1 PUSH2 0x1C11 JUMP JUMPDEST SWAP1 POP PUSH0 DUP7 DUP7 PUSH1 0x1 DUP2 DUP2 LT PUSH2 0x338 JUMPI PUSH2 0x337 PUSH2 0x1BE4 JUMP JUMPDEST JUMPDEST SWAP1 POP PUSH1 0x20 MUL ADD PUSH1 0x20 DUP2 ADD SWAP1 PUSH2 0x34D SWAP2 SWAP1 PUSH2 0x1C11 JUMP JUMPDEST SWAP1 POP PUSH0 PUSH0 PUSH0 DUP5 PUSH20 0xFFFFFFFFFFFFFFFFFFFFFFFFFFFFFFFFFFFFFFFF AND PUSH20 0xFFFFFFFFFFFFFFFFFFFFFFFFFFFFFFFFFFFFFFFF AND DUP2 MSTORE PUSH1 0x20 ADD SWAP1 DUP2 MSTORE PUSH1 0x20 ADD PUSH0 KECCAK256 PUSH0 DUP4 PUSH20 0xFFFFFFFFFFFFFFFFFFFFFFFFFFFFFFFFFFFFFFFF AND PUSH20 0xFFFFFFFFFFFFFFFFFFFFFFFFFFFFFFFFFFFFFFFF AND DUP2 MSTORE PUSH1 0x20 ADD SWAP1 DUP2 MSTORE PUSH1 0x20 ADD PUSH0 KECCAK256 SWAP1 POP PUSH0 PUSH20 0xFFFFFFFFFFFFFFFFFFFFFFFFFFFFFFFFFFFFFFFF AND DUP2 PUSH1 0x2 ADD PUSH0 SWAP1 SLOAD SWAP1 PUSH2 0x100 EXP SWAP1 DIV PUSH20 0xFFFFFFFFFFFFFFFFFFFFFFFFFFFFFFFFFFFFFFFF AND PUSH20 0xFFFFFFFFFFFFFFFFFFFFFFFFFFFFFFFFFFFFFFFF AND SUB PUSH2 0x45A JUMPI PUSH1 0x40 MLOAD PUSH32 0x8C379A000000000000000000000000000000000000000000000000000000000 DUP2 MSTORE PUSH1 0x4 ADD PUSH2 0x451 SWAP1 PUSH2 0x1C86 JUMP JUMPDEST PUSH1 0x40 MLOAD DUP1 SWAP2 SUB SWAP1 REVERT JUMPDEST DUP3 PUSH20 0xFFFFFFFFFFFFFFFFFFFFFFFFFFFFFFFFFFFFFFFF AND PUSH4 0x23B872DD CALLER ADDRESS DUP14 PUSH1 0x40 MLOAD DUP5 PUSH4 0xFFFFFFFF AND PUSH1 0xE0 SHL DUP2 MSTORE PUSH1 0x4 ADD PUSH2 0x497 SWAP4 SWAP3 SWAP2 SWAP1 PUSH2 0x1CB3 JUMP JUMPDEST PUSH1 0x20 PUSH1 0x40 MLOAD DUP1 DUP4 SUB DUP2 PUSH0 DUP8 GAS CALL ISZERO DUP1 ISZERO PUSH2 0x4B3 JUMPI RETURNDATASIZE PUSH0 PUSH0 RETURNDATACOPY RETURNDATASIZE PUSH0 REVERT JUMPDEST POP POP POP POP PUSH1 0x40 MLOAD RETURNDATASIZE PUSH1 0x1F NOT PUSH1 0x1F DUP3 ADD AND DUP3 ADD DUP1 PUSH1 0x40 MSTORE POP DUP2 ADD SWAP1 PUSH2 0x4D7 SWAP2 SWAP1 PUSH2 0x1D1D JUMP JUMPDEST PUSH2 0x516 JUMPI PUSH1 0x40 MLOAD PUSH32 0x8C379A000000000000000000000000000000000000000000000000000000000 DUP2 MSTORE PUSH1 0x4 ADD PUSH2 0x50D SWAP1 PUSH2 0x1D92 JUMP JUMPDEST PUSH1 0x40 MLOAD DUP1 SWAP2 SUB SWAP1 REVERT JUMPDEST PUSH0 PUSH2 0x529 DUP12 DUP4 PUSH0 ADD SLOAD DUP5 PUSH1 0x1 ADD SLOAD PUSH2 0x189 JUMP JUMPDEST SWAP1 POP DUP10 DUP2 LT ISZERO PUSH2 0x56E JUMPI PUSH1 0x40 MLOAD PUSH32 0x8C379A000000000000000000000000000000000000000000000000000000000 DUP2 MSTORE PUSH1 0x4 ADD PUSH2 0x565 SWAP1 PUSH2 0x1DFA JUMP JUMPDEST PUSH1 0x40 MLOAD DUP1 SWAP2 SUB SWAP1 REVERT JUMPDEST DUP11 DUP3 PUSH0 ADD PUSH0 DUP3 DUP3 SLOAD PUSH2 0x580 SWAP2 SWAP1 PUSH2 0x1A84 JUMP JUMPDEST SWAP3 POP POP DUP2 SWAP1 SSTORE POP DUP1 DUP3 PUSH1 0x1 ADD PUSH0 DUP3 DUP3 SLOAD PUSH2 0x59A SWAP2 SWAP1 PUSH2 0x1E18 JUMP JUMPDEST SWAP3 POP POP DUP2 SWAP1 SSTORE POP DUP3 PUSH20 0xFFFFFFFFFFFFFFFFFFFFFFFFFFFFFFFFFFFFFFFF AND PUSH4 0xA9059CBB DUP9 DUP4 PUSH1 0x40 MLOAD DUP4 PUSH4 0xFFFFFFFF AND PUSH1 0xE0 SHL DUP2 MSTORE PUSH1 0x4 ADD PUSH2 0x5DC SWAP3 SWAP2 SWAP1 PUSH2 0x1E4B JUMP JUMPDEST PUSH1 0x20 PUSH1 0x40 MLOAD DUP1 DUP4 SUB DUP2 PUSH0 DUP8 GAS CALL ISZERO DUP1 ISZERO PUSH2 0x5F8 JUMPI RETURNDATASIZE PUSH0 PUSH0 RETURNDATACOPY RETURNDATASIZE PUSH0 REVERT JUMPDEST POP POP POP POP PUSH1 0x40 MLOAD RETURNDATASIZE PUSH1 0x1F NOT PUSH1 0x1F DUP3 ADD AND DUP3 ADD DUP1 PUSH1 0x40 MSTORE POP DUP2 ADD SWAP1 PUSH2 0x61C SWAP2 SWAP1 PUSH2 0x1D1D JUMP JUMPDEST PUSH2 0x65B JUMPI PUSH1 0x40 MLOAD PUSH32 0x8C379A000000000000000000000000000000000000000000000000000000000 DUP2 MSTORE PUSH1 0x4 ADD PUSH2 0x652 SWAP1 PUSH2 0x1EBC JUMP JUMPDEST PUSH1 0x40 MLOAD DUP1 SWAP2 SUB SWAP1 REVERT JUMPDEST PUSH1 0x2 PUSH8 0xFFFFFFFFFFFFFFFF DUP2 GT ISZERO PUSH2 0x676 JUMPI PUSH2 0x675 PUSH2 0x1EDA JUMP JUMPDEST JUMPDEST PUSH1 0x40 MLOAD SWAP1 DUP1 DUP3 MSTORE DUP1 PUSH1 0x20 MUL PUSH1 0x20 ADD DUP3 ADD PUSH1 0x40 MSTORE DUP1 ISZERO PUSH2 0x6A4 JUMPI DUP2 PUSH1 0x20 ADD PUSH1 0x20 DUP3 MUL DUP1 CALLDATASIZE DUP4 CALLDATACOPY DUP1 DUP3 ADD SWAP2 POP POP SWAP1 POP JUMPDEST POP SWAP5 POP DUP11 DUP6 PUSH0 DUP2 MLOAD DUP2 LT PUSH2 0x6BB JUMPI PUSH2 0x6BA PUSH2 0x1BE4 JUMP JUMPDEST JUMPDEST PUSH1 0x20 MUL PUSH1 0x20 ADD ADD DUP2 DUP2 MSTORE POP POP DUP1 DUP6 PUSH1 0x1 DUP2 MLOAD DUP2 LT PUSH2 0x6DC JUMPI PUSH2 0x6DB PUSH2 0x1BE4 JUMP JUMPDEST JUMPDEST PUSH1 0x20 MUL PUSH1 0x20 ADD ADD DUP2 DUP2 MSTORE POP POP POP POP POP POP SWAP7 SWAP6 POP POP POP POP POP POP JUMP JUMPDEST PUSH0 PUSH1 0x20 MSTORE DUP2 PUSH0 MSTORE PUSH1 0x40 PUSH0 KECCAK256 PUSH1 0x20 MSTORE DUP1 PUSH0 MSTORE PUSH1 0x40 PUSH0 KECCAK256 PUSH0 SWAP2 POP SWAP2 POP POP DUP1 PUSH0 ADD SLOAD SWAP1 DUP1 PUSH1 0x1 ADD SLOAD SWAP1 DUP1 PUSH1 0x2 ADD PUSH0 SWAP1 SLOAD SWAP1 PUSH2 0x100 EXP SWAP1 DIV PUSH20 0xFFFFFFFFFFFFFFFFFFFFFFFFFFFFFFFFFFFFFFFF AND SWAP1 POP DUP4 JUMP JUMPDEST PUSH0 PUSH0 PUSH0 PUSH0 DUP6 PUSH20 0xFFFFFFFFFFFFFFFFFFFFFFFFFFFFFFFFFFFFFFFF AND PUSH20 0xFFFFFFFFFFFFFFFFFFFFFFFFFFFFFFFFFFFFFFFF AND DUP2 MSTORE PUSH1 0x20 ADD SWAP1 DUP2 MSTORE PUSH1 0x20 ADD PUSH0 KECCAK256 PUSH0 DUP5 PUSH20 0xFFFFFFFFFFFFFFFFFFFFFFFFFFFFFFFFFFFFFFFF AND PUSH20 0xFFFFFFFFFFFFFFFFFFFFFFFFFFFFFFFFFFFFFFFF AND DUP2 MSTORE PUSH1 0x20 ADD SWAP1 DUP2 MSTORE PUSH1 0x20 ADD PUSH0 KECCAK256 SWAP1 POP PUSH0 DUP2 PUSH0 ADD SLOAD GT DUP1 ISZERO PUSH2 0x7D5 JUMPI POP PUSH0 DUP2 PUSH1 0x1 ADD SLOAD GT JUMPDEST PUSH2 0x814 JUMPI PUSH1 0x40 MLOAD PUSH32 0x8C379A000000000000000000000000000000000000000000000000000000000 DUP2 MSTORE PUSH1 0x4 ADD PUSH2 0x80B SWAP1 PUSH2 0x1F51 JUMP JUMPDEST PUSH1 0x40 MLOAD DUP1 SWAP2 SUB SWAP1 REVERT JUMPDEST DUP1 PUSH0 ADD SLOAD PUSH8 0xDE0B6B3A7640000 DUP3 PUSH1 0x1 ADD SLOAD PUSH2 0x830 SWAP2 SWAP1 PUSH2 0x1A43 JUMP JUMPDEST PUSH2 0x83A SWAP2 SWAP1 PUSH2 0x1AE4 JUMP JUMPDEST SWAP2 POP POP SWAP3 SWAP2 POP POP JUMP JUMPDEST PUSH0 PUSH0 DUP3 TIMESTAMP GT ISZERO PUSH2 0x888 JUMPI PUSH1 0x40 MLOAD PUSH32 0x8C379A000000000000000000000000000000000000000000000000000000000 DUP2 MSTORE PUSH1 0x4 ADD PUSH2 0x87F SWAP1 PUSH2 0x1BC6 JUMP JUMPDEST PUSH1 0x40 MLOAD DUP1 SWAP2 SUB SWAP1 REVERT JUMPDEST PUSH0 PUSH0 PUSH0 DUP12 PUSH20 0xFFFFFFFFFFFFFFFFFFFFFFFFFFFFFFFFFFFFFFFF AND PUSH20 0xFFFFFFFFFFFFFFFFFFFFFFFFFFFFFFFFFFFFFFFF AND DUP2 MSTORE PUSH1 0x20 ADD SWAP1 DUP2 MSTORE PUSH1 0x20 ADD PUSH0 KECCAK256 PUSH0 DUP11 PUSH20 0xFFFFFFFFFFFFFFFFFFFFFFFFFFFFFFFFFFFFFFFF AND PUSH20 0xFFFFFFFFFFFFFFFFFFFFFFFFFFFFFFFFFFFFFFFF AND DUP2 MSTORE PUSH1 0x20 ADD SWAP1 DUP2 MSTORE PUSH1 0x20 ADD PUSH0 KECCAK256 SWAP1 POP PUSH0 PUSH20 0xFFFFFFFFFFFFFFFFFFFFFFFFFFFFFFFFFFFFFFFF AND DUP2 PUSH1 0x2 ADD PUSH0 SWAP1 SLOAD SWAP1 PUSH2 0x100 EXP SWAP1 DIV PUSH20 0xFFFFFFFFFFFFFFFFFFFFFFFFFFFFFFFFFFFFFFFF AND PUSH20 0xFFFFFFFFFFFFFFFFFFFFFFFFFFFFFFFFFFFFFFFF AND SUB PUSH2 0x993 JUMPI PUSH1 0x40 MLOAD PUSH32 0x8C379A000000000000000000000000000000000000000000000000000000000 DUP2 MSTORE PUSH1 0x4 ADD PUSH2 0x98A SWAP1 PUSH2 0x1C86 JUMP JUMPDEST PUSH1 0x40 MLOAD DUP1 SWAP2 SUB SWAP1 REVERT JUMPDEST DUP1 PUSH1 0x2 ADD PUSH0 SWAP1 SLOAD SWAP1 PUSH2 0x100 EXP SWAP1 DIV PUSH20 0xFFFFFFFFFFFFFFFFFFFFFFFFFFFFFFFFFFFFFFFF AND PUSH20 0xFFFFFFFFFFFFFFFFFFFFFFFFFFFFFFFFFFFFFFFF AND PUSH4 0x9DC29FAC CALLER DUP11 PUSH1 0x40 MLOAD DUP4 PUSH4 0xFFFFFFFF AND PUSH1 0xE0 SHL DUP2 MSTORE PUSH1 0x4 ADD PUSH2 0x9F1 SWAP3 SWAP2 SWAP1 PUSH2 0x1E4B JUMP JUMPDEST PUSH0 PUSH1 0x40 MLOAD DUP1 DUP4 SUB DUP2 PUSH0 DUP8 DUP1 EXTCODESIZE ISZERO DUP1 ISZERO PUSH2 0xA08 JUMPI PUSH0 PUSH0 REVERT JUMPDEST POP GAS CALL ISZERO DUP1 ISZERO PUSH2 0xA1A JUMPI RETURNDATASIZE PUSH0 PUSH0 RETURNDATACOPY RETURNDATASIZE PUSH0 REVERT JUMPDEST POP POP POP POP PUSH0 DUP2 PUSH1 0x2 ADD PUSH0 SWAP1 SLOAD SWAP1 PUSH2 0x100 EXP SWAP1 DIV PUSH20 0xFFFFFFFFFFFFFFFFFFFFFFFFFFFFFFFFFFFFFFFF AND PUSH20 0xFFFFFFFFFFFFFFFFFFFFFFFFFFFFFFFFFFFFFFFF AND PUSH4 0x18160DDD PUSH1 0x40 MLOAD DUP2 PUSH4 0xFFFFFFFF AND PUSH1 0xE0 SHL DUP2 MSTORE PUSH1 0x4 ADD PUSH1 0x20 PUSH1 0x40 MLOAD DUP1 DUP4 SUB DUP2 DUP7 GAS STATICCALL ISZERO DUP1 ISZERO PUSH2 0xA8B JUMPI RETURNDATASIZE PUSH0 PUSH0 RETURNDATACOPY RETURNDATASIZE PUSH0 REVERT JUMPDEST POP POP POP POP PUSH1 0x40 MLOAD RETURNDATASIZE PUSH1 0x1F NOT PUSH1 0x1F DUP3 ADD AND DUP3 ADD DUP1 PUSH1 0x40 MSTORE POP DUP2 ADD SWAP1 PUSH2 0xAAF SWAP2 SWAP1 PUSH2 0x1F83 JUMP JUMPDEST SWAP1 POP DUP1 DUP10 DUP4 PUSH0 ADD SLOAD PUSH2 0xAC1 SWAP2 SWAP1 PUSH2 0x1A43 JUMP JUMPDEST PUSH2 0xACB SWAP2 SWAP1 PUSH2 0x1AE4 JUMP JUMPDEST SWAP4 POP DUP1 DUP10 DUP4 PUSH1 0x1 ADD SLOAD PUSH2 0xADE SWAP2 SWAP1 PUSH2 0x1A43 JUMP JUMPDEST PUSH2 0xAE8 SWAP2 SWAP1 PUSH2 0x1AE4 JUMP JUMPDEST SWAP3 POP DUP8 DUP5 LT ISZERO PUSH2 0xB2D JUMPI PUSH1 0x40 MLOAD PUSH32 0x8C379A000000000000000000000000000000000000000000000000000000000 DUP2 MSTORE PUSH1 0x4 ADD PUSH2 0xB24 SWAP1 PUSH2 0x1FF8 JUMP JUMPDEST PUSH1 0x40 MLOAD DUP1 SWAP2 SUB SWAP1 REVERT JUMPDEST DUP7 DUP4 LT ISZERO PUSH2 0xB70 JUMPI PUSH1 0x40 MLOAD PUSH32 0x8C379A000000000000000000000000000000000000000000000000000000000 DUP2 MSTORE PUSH1 0x4 ADD PUSH2 0xB67 SWAP1 PUSH2 0x2060 JUMP JUMPDEST PUSH1 0x40 MLOAD DUP1 SWAP2 SUB SWAP1 REVERT JUMPDEST DUP4 DUP3 PUSH0 ADD PUSH0 DUP3 DUP3 SLOAD PUSH2 0xB82 SWAP2 SWAP1 PUSH2 0x1E18 JUMP JUMPDEST SWAP3 POP POP DUP2 SWAP1 SSTORE POP DUP3 DUP3 PUSH1 0x1 ADD PUSH0 DUP3 DUP3 SLOAD PUSH2 0xB9C SWAP2 SWAP1 PUSH2 0x1E18 JUMP JUMPDEST SWAP3 POP POP DUP2 SWAP1 SSTORE POP DUP11 PUSH20 0xFFFFFFFFFFFFFFFFFFFFFFFFFFFFFFFFFFFFFFFF AND PUSH4 0xA9059CBB DUP8 DUP7 PUSH1 0x40 MLOAD DUP4 PUSH4 0xFFFFFFFF AND PUSH1 0xE0 SHL DUP2 MSTORE PUSH1 0x4 ADD PUSH2 0xBDE SWAP3 SWAP2 SWAP1 PUSH2 0x1E4B JUMP JUMPDEST PUSH1 0x20 PUSH1 0x40 MLOAD DUP1 DUP4 SUB DUP2 PUSH0 DUP8 GAS CALL ISZERO DUP1 ISZERO PUSH2 0xBFA JUMPI RETURNDATASIZE PUSH0 PUSH0 RETURNDATACOPY RETURNDATASIZE PUSH0 REVERT JUMPDEST POP POP POP POP PUSH1 0x40 MLOAD RETURNDATASIZE PUSH1 0x1F NOT PUSH1 0x1F DUP3 ADD AND DUP3 ADD DUP1 PUSH1 0x40 MSTORE POP DUP2 ADD SWAP1 PUSH2 0xC1E SWAP2 SWAP1 PUSH2 0x1D1D JUMP JUMPDEST PUSH2 0xC5D JUMPI PUSH1 0x40 MLOAD PUSH32 0x8C379A000000000000000000000000000000000000000000000000000000000 DUP2 MSTORE PUSH1 0x4 ADD PUSH2 0xC54 SWAP1 PUSH2 0x20C8 JUMP JUMPDEST PUSH1 0x40 MLOAD DUP1 SWAP2 SUB SWAP1 REVERT JUMPDEST DUP10 PUSH20 0xFFFFFFFFFFFFFFFFFFFFFFFFFFFFFFFFFFFFFFFF AND PUSH4 0xA9059CBB DUP8 DUP6 PUSH1 0x40 MLOAD DUP4 PUSH4 0xFFFFFFFF AND PUSH1 0xE0 SHL DUP2 MSTORE PUSH1 0x4 ADD PUSH2 0xC98 SWAP3 SWAP2 SWAP1 PUSH2 0x1E4B JUMP JUMPDEST PUSH1 0x20 PUSH1 0x40 MLOAD DUP1 DUP4 SUB DUP2 PUSH0 DUP8 GAS CALL ISZERO DUP1 ISZERO PUSH2 0xCB4 JUMPI RETURNDATASIZE PUSH0 PUSH0 RETURNDATACOPY RETURNDATASIZE PUSH0 REVERT JUMPDEST POP POP POP POP PUSH1 0x40 MLOAD RETURNDATASIZE PUSH1 0x1F NOT PUSH1 0x1F DUP3 ADD AND DUP3 ADD DUP1 PUSH1 0x40 MSTORE POP DUP2 ADD SWAP1 PUSH2 0xCD8 SWAP2 SWAP1 PUSH2 0x1D1D JUMP JUMPDEST PUSH2 0xD17 JUMPI PUSH1 0x40 MLOAD PUSH32 0x8C379A000000000000000000000000000000000000000000000000000000000 DUP2 MSTORE PUSH1 0x4 ADD PUSH2 0xD0E SWAP1 PUSH2 0x2130 JUMP JUMPDEST PUSH1 0x40 MLOAD DUP1 SWAP2 SUB SWAP1 REVERT JUMPDEST POP POP SWAP8 POP SWAP8 SWAP6 POP POP POP POP POP POP JUMP JUMPDEST PUSH0 PUSH0 PUSH0 DUP4 TIMESTAMP GT ISZERO PUSH2 0xD6B JUMPI PUSH1 0x40 MLOAD PUSH32 0x8C379A000000000000000000000000000000000000000000000000000000000 DUP2 MSTORE PUSH1 0x4 ADD PUSH2 0xD62 SWAP1 PUSH2 0x1BC6 JUMP JUMPDEST PUSH1 0x40 MLOAD DUP1 SWAP2 SUB SWAP1 REVERT JUMPDEST DUP10 PUSH20 0xFFFFFFFFFFFFFFFFFFFFFFFFFFFFFFFFFFFFFFFF AND DUP12 PUSH20 0xFFFFFFFFFFFFFFFFFFFFFFFFFFFFFFFFFFFFFFFF AND SUB PUSH2 0xDD9 JUMPI PUSH1 0x40 MLOAD PUSH32 0x8C379A000000000000000000000000000000000000000000000000000000000 DUP2 MSTORE PUSH1 0x4 ADD PUSH2 0xDD0 SWAP1 PUSH2 0x2198 JUMP JUMPDEST PUSH1 0x40 MLOAD DUP1 SWAP2 SUB SWAP1 REVERT JUMPDEST PUSH0 PUSH20 0xFFFFFFFFFFFFFFFFFFFFFFFFFFFFFFFFFFFFFFFF AND DUP12 PUSH20 0xFFFFFFFFFFFFFFFFFFFFFFFFFFFFFFFFFFFFFFFF AND EQ ISZERO DUP1 ISZERO PUSH2 0xE41 JUMPI POP PUSH0 PUSH20 0xFFFFFFFFFFFFFFFFFFFFFFFFFFFFFFFFFFFFFFFF AND DUP11 PUSH20 0xFFFFFFFFFFFFFFFFFFFFFFFFFFFFFFFFFFFFFFFF AND EQ ISZERO JUMPDEST PUSH2 0xE80 JUMPI PUSH1 0x40 MLOAD PUSH32 0x8C379A000000000000000000000000000000000000000000000000000000000 DUP2 MSTORE PUSH1 0x4 ADD PUSH2 0xE77 SWAP1 PUSH2 0x2200 JUMP JUMPDEST PUSH1 0x40 MLOAD DUP1 SWAP2 SUB SWAP1 REVERT JUMPDEST PUSH0 PUSH0 PUSH0 DUP14 PUSH20 0xFFFFFFFFFFFFFFFFFFFFFFFFFFFFFFFFFFFFFFFF AND PUSH20 0xFFFFFFFFFFFFFFFFFFFFFFFFFFFFFFFFFFFFFFFF AND DUP2 MSTORE PUSH1 0x20 ADD SWAP1 DUP2 MSTORE PUSH1 0x20 ADD PUSH0 KECCAK256 PUSH0 DUP13 PUSH20 0xFFFFFFFFFFFFFFFFFFFFFFFFFFFFFFFFFFFFFFFF AND PUSH20 0xFFFFFFFFFFFFFFFFFFFFFFFFFFFFFFFFFFFFFFFF AND DUP2 MSTORE PUSH1 0x20 ADD SWAP1 DUP2 MSTORE PUSH1 0x20 ADD PUSH0 KECCAK256 SWAP1 POP PUSH0 PUSH20 0xFFFFFFFFFFFFFFFFFFFFFFFFFFFFFFFFFFFFFFFF AND DUP2 PUSH1 0x2 ADD PUSH0 SWAP1 SLOAD SWAP1 PUSH2 0x100 EXP SWAP1 DIV PUSH20 0xFFFFFFFFFFFFFFFFFFFFFFFFFFFFFFFFFFFFFFFF AND PUSH20 0xFFFFFFFFFFFFFFFFFFFFFFFFFFFFFFFFFFFFFFFF AND SUB PUSH2 0xFB8 JUMPI PUSH1 0x40 MLOAD PUSH2 0xF5C SWAP1 PUSH2 0x13D6 JUMP JUMPDEST PUSH1 0x40 MLOAD DUP1 SWAP2 SUB SWAP1 PUSH0 CREATE DUP1 ISZERO DUP1 ISZERO PUSH2 0xF75 JUMPI RETURNDATASIZE PUSH0 PUSH0 RETURNDATACOPY RETURNDATASIZE PUSH0 REVERT JUMPDEST POP DUP2 PUSH1 0x2 ADD PUSH0 PUSH2 0x100 EXP DUP2 SLOAD DUP2 PUSH20 0xFFFFFFFFFFFFFFFFFFFFFFFFFFFFFFFFFFFFFFFF MUL NOT AND SWAP1 DUP4 PUSH20 0xFFFFFFFFFFFFFFFFFFFFFFFFFFFFFFFFFFFFFFFF AND MUL OR SWAP1 SSTORE POP JUMPDEST PUSH0 DUP2 PUSH0 ADD SLOAD EQ DUP1 ISZERO PUSH2 0xFCD JUMPI POP PUSH0 DUP2 PUSH1 0x1 ADD SLOAD EQ JUMPDEST ISZERO PUSH2 0xFDD JUMPI DUP10 SWAP4 POP DUP9 SWAP3 POP PUSH2 0x1104 JUMP JUMPDEST PUSH0 DUP2 PUSH0 ADD SLOAD DUP3 PUSH1 0x1 ADD SLOAD DUP13 PUSH2 0xFF2 SWAP2 SWAP1 PUSH2 0x1A43 JUMP JUMPDEST PUSH2 0xFFC SWAP2 SWAP1 PUSH2 0x1AE4 JUMP JUMPDEST SWAP1 POP DUP10 DUP2 GT PUSH2 0x1053 JUMPI DUP8 DUP2 LT ISZERO PUSH2 0x1048 JUMPI PUSH1 0x40 MLOAD PUSH32 0x8C379A000000000000000000000000000000000000000000000000000000000 DUP2 MSTORE PUSH1 0x4 ADD PUSH2 0x103F SWAP1 PUSH2 0x2060 JUMP JUMPDEST PUSH1 0x40 MLOAD DUP1 SWAP2 SUB SWAP1 REVERT JUMPDEST DUP11 SWAP5 POP DUP1 SWAP4 POP PUSH2 0x1102 JUMP JUMPDEST PUSH0 DUP3 PUSH1 0x1 ADD SLOAD DUP4 PUSH0 ADD SLOAD DUP13 PUSH2 0x1068 SWAP2 SWAP1 PUSH2 0x1A43 JUMP JUMPDEST PUSH2 0x1072 SWAP2 SWAP1 PUSH2 0x1AE4 JUMP JUMPDEST SWAP1 POP DUP12 DUP2 GT ISZERO PUSH2 0x10B7 JUMPI PUSH1 0x40 MLOAD PUSH32 0x8C379A000000000000000000000000000000000000000000000000000000000 DUP2 MSTORE PUSH1 0x4 ADD PUSH2 0x10AE SWAP1 PUSH2 0x1FF8 JUMP JUMPDEST PUSH1 0x40 MLOAD DUP1 SWAP2 SUB SWAP1 REVERT JUMPDEST DUP10 DUP2 LT ISZERO PUSH2 0x10FA JUMPI PUSH1 0x40 MLOAD PUSH32 0x8C379A000000000000000000000000000000000000000000000000000000000 DUP2 MSTORE PUSH1 0x4 ADD PUSH2 0x10F1 SWAP1 PUSH2 0x1FF8 JUMP JUMPDEST PUSH1 0x40 MLOAD DUP1 SWAP2 SUB SWAP1 REVERT JUMPDEST DUP1 SWAP6 POP DUP11 SWAP5 POP POP JUMPDEST POP JUMPDEST DUP12 PUSH20 0xFFFFFFFFFFFFFFFFFFFFFFFFFFFFFFFFFFFFFFFF AND PUSH4 0x23B872DD CALLER ADDRESS DUP8 PUSH1 0x40 MLOAD DUP5 PUSH4 0xFFFFFFFF AND PUSH1 0xE0 SHL DUP2 MSTORE PUSH1 0x4 ADD PUSH2 0x1141 SWAP4 SWAP3 SWAP2 SWAP1 PUSH2 0x1CB3 JUMP JUMPDEST PUSH1 0x20 PUSH1 0x40 MLOAD DUP1 DUP4 SUB DUP2 PUSH0 DUP8 GAS CALL ISZERO DUP1 ISZERO PUSH2 0x115D JUMPI RETURNDATASIZE PUSH0 PUSH0 RETURNDATACOPY RETURNDATASIZE PUSH0 REVERT JUMPDEST POP POP POP POP PUSH1 0x40 MLOAD RETURNDATASIZE PUSH1 0x1F NOT PUSH1 0x1F DUP3 ADD AND DUP3 ADD DUP1 PUSH1 0x40 MSTORE POP DUP2 ADD SWAP1 PUSH2 0x1181 SWAP2 SWAP1 PUSH2 0x1D1D JUMP JUMPDEST PUSH2 0x11C0 JUMPI PUSH1 0x40 MLOAD PUSH32 0x8C379A000000000000000000000000000000000000000000000000000000000 DUP2 MSTORE PUSH1 0x4 ADD PUSH2 0x11B7 SWAP1 PUSH2 0x2268 JUMP JUMPDEST PUSH1 0x40 MLOAD DUP1 SWAP2 SUB SWAP1 REVERT JUMPDEST DUP11 PUSH20 0xFFFFFFFFFFFFFFFFFFFFFFFFFFFFFFFFFFFFFFFF AND PUSH4 0x23B872DD CALLER ADDRESS DUP7 PUSH1 0x40 MLOAD DUP5 PUSH4 0xFFFFFFFF AND PUSH1 0xE0 SHL DUP2 MSTORE PUSH1 0x4 ADD PUSH2 0x11FD SWAP4 SWAP3 SWAP2 SWAP1 PUSH2 0x1CB3 JUMP JUMPDEST PUSH1 0x20 PUSH1 0x40 MLOAD DUP1 DUP4 SUB DUP2 PUSH0 DUP8 GAS CALL ISZERO DUP1 ISZERO PUSH2 0x1219 JUMPI RETURNDATASIZE PUSH0 PUSH0 RETURNDATACOPY RETURNDATASIZE PUSH0 REVERT JUMPDEST POP POP POP POP PUSH1 0x40 MLOAD RETURNDATASIZE PUSH1 0x1F NOT PUSH1 0x1F DUP3 ADD AND DUP3 ADD DUP1 PUSH1 0x40 MSTORE POP DUP2 ADD SWAP1 PUSH2 0x123D SWAP2 SWAP1 PUSH2 0x1D1D JUMP JUMPDEST PUSH2 0x127C JUMPI PUSH1 0x40 MLOAD PUSH32 0x8C379A000000000000000000000000000000000000000000000000000000000 DUP2 MSTORE PUSH1 0x4 ADD PUSH2 0x1273 SWAP1 PUSH2 0x22D0 JUMP JUMPDEST PUSH1 0x40 MLOAD DUP1 SWAP2 SUB SWAP1 REVERT JUMPDEST PUSH2 0x1290 DUP4 DUP6 PUSH2 0x128B SWAP2 SWAP1 PUSH2 0x1A43 JUMP JUMPDEST PUSH2 0x135F JUMP JUMPDEST SWAP2 POP DUP1 PUSH1 0x2 ADD PUSH0 SWAP1 SLOAD SWAP1 PUSH2 0x100 EXP SWAP1 DIV PUSH20 0xFFFFFFFFFFFFFFFFFFFFFFFFFFFFFFFFFFFFFFFF AND PUSH20 0xFFFFFFFFFFFFFFFFFFFFFFFFFFFFFFFFFFFFFFFF AND PUSH4 0x40C10F19 DUP8 DUP5 PUSH1 0x40 MLOAD DUP4 PUSH4 0xFFFFFFFF AND PUSH1 0xE0 SHL DUP2 MSTORE PUSH1 0x4 ADD PUSH2 0x12F0 SWAP3 SWAP2 SWAP1 PUSH2 0x1E4B JUMP JUMPDEST PUSH0 PUSH1 0x40 MLOAD DUP1 DUP4 SUB DUP2 PUSH0 DUP8 DUP1 EXTCODESIZE ISZERO DUP1 ISZERO PUSH2 0x1307 JUMPI PUSH0 PUSH0 REVERT JUMPDEST POP GAS CALL ISZERO DUP1 ISZERO PUSH2 0x1319 JUMPI RETURNDATASIZE PUSH0 PUSH0 RETURNDATACOPY RETURNDATASIZE PUSH0 REVERT JUMPDEST POP POP POP POP DUP4 DUP2 PUSH0 ADD PUSH0 DUP3 DUP3 SLOAD PUSH2 0x132F SWAP2 SWAP1 PUSH2 0x1A84 JUMP JUMPDEST SWAP3 POP POP DUP2 SWAP1 SSTORE POP DUP3 DUP2 PUSH1 0x1 ADD PUSH0 DUP3 DUP3 SLOAD PUSH2 0x1349 SWAP2 SWAP1 PUSH2 0x1A84 JUMP JUMPDEST SWAP3 POP POP DUP2 SWAP1 SSTORE POP POP SWAP9 POP SWAP9 POP SWAP9 SWAP6 POP POP POP POP POP POP JUMP JUMPDEST PUSH0 PUSH1 0x3 DUP3 GT ISZERO PUSH2 0x13C4 JUMPI DUP2 SWAP1 POP PUSH0 PUSH1 0x1 PUSH1 0x2 DUP5 PUSH2 0x137C SWAP2 SWAP1 PUSH2 0x1AE4 JUMP JUMPDEST PUSH2 0x1386 SWAP2 SWAP1 PUSH2 0x1A84 JUMP JUMPDEST SWAP1 POP JUMPDEST DUP2 DUP2 LT ISZERO PUSH2 0x13BE JUMPI DUP1 SWAP2 POP PUSH1 0x2 DUP2 DUP3 DUP6 PUSH2 0x13A3 SWAP2 SWAP1 PUSH2 0x1AE4 JUMP JUMPDEST PUSH2 0x13AD SWAP2 SWAP1 PUSH2 0x1A84 JUMP JUMPDEST PUSH2 0x13B7 SWAP2 SWAP1 PUSH2 0x1AE4 JUMP JUMPDEST SWAP1 POP PUSH2 0x1389 JUMP JUMPDEST POP PUSH2 0x13D1 JUMP JUMPDEST PUSH0 DUP3 EQ PUSH2 0x13D0 JUMPI PUSH1 0x1 SWAP1 POP JUMPDEST JUMPDEST SWAP2 SWAP1 POP JUMP JUMPDEST PUSH2 0x151A DUP1 PUSH2 0x22EF DUP4 CODECOPY ADD SWAP1 JUMP JUMPDEST PUSH0 PUSH0 REVERT JUMPDEST PUSH0 PUSH0 REVERT JUMPDEST PUSH0 DUP2 SWAP1 POP SWAP2 SWAP1 POP JUMP JUMPDEST PUSH2 0x13FD DUP2 PUSH2 0x13EB JUMP JUMPDEST DUP2 EQ PUSH2 0x1407 JUMPI PUSH0 PUSH0 REVERT JUMPDEST POP JUMP JUMPDEST PUSH0 DUP2 CALLDATALOAD SWAP1 POP PUSH2 0x1418 DUP2 PUSH2 0x13F4 JUMP JUMPDEST SWAP3 SWAP2 POP POP JUMP JUMPDEST PUSH0 PUSH0 PUSH0 PUSH1 0x60 DUP5 DUP7 SUB SLT ISZERO PUSH2 0x1435 JUMPI PUSH2 0x1434 PUSH2 0x13E3 JUMP JUMPDEST JUMPDEST PUSH0 PUSH2 0x1442 DUP7 DUP3 DUP8 ADD PUSH2 0x140A JUMP JUMPDEST SWAP4 POP POP PUSH1 0x20 PUSH2 0x1453 DUP7 DUP3 DUP8 ADD PUSH2 0x140A JUMP JUMPDEST SWAP3 POP POP PUSH1 0x40 PUSH2 0x1464 DUP7 DUP3 DUP8 ADD PUSH2 0x140A JUMP JUMPDEST SWAP2 POP POP SWAP3 POP SWAP3 POP SWAP3 JUMP JUMPDEST PUSH2 0x1477 DUP2 PUSH2 0x13EB JUMP JUMPDEST DUP3 MSTORE POP POP JUMP JUMPDEST PUSH0 PUSH1 0x20 DUP3 ADD SWAP1 POP PUSH2 0x1490 PUSH0 DUP4 ADD DUP5 PUSH2 0x146E JUMP JUMPDEST SWAP3 SWAP2 POP POP JUMP JUMPDEST PUSH0 PUSH0 REVERT JUMPDEST PUSH0 PUSH0 REVERT JUMPDEST PUSH0 PUSH0 REVERT JUMPDEST PUSH0 PUSH0 DUP4 PUSH1 0x1F DUP5 ADD SLT PUSH2 0x14B7 JUMPI PUSH2 0x14B6 PUSH2 0x1496 JUMP JUMPDEST JUMPDEST DUP3 CALLDATALOAD SWAP1 POP PUSH8 0xFFFFFFFFFFFFFFFF DUP2 GT ISZERO PUSH2 0x14D4 JUMPI PUSH2 0x14D3 PUSH2 0x149A JUMP JUMPDEST JUMPDEST PUSH1 0x20 DUP4 ADD SWAP2 POP DUP4 PUSH1 0x20 DUP3 MUL DUP4 ADD GT ISZERO PUSH2 0x14F0 JUMPI PUSH2 0x14EF PUSH2 0x149E JUMP JUMPDEST JUMPDEST SWAP3 POP SWAP3 SWAP1 POP JUMP JUMPDEST PUSH0 PUSH20 0xFFFFFFFFFFFFFFFFFFFFFFFFFFFFFFFFFFFFFFFF DUP3 AND SWAP1 POP SWAP2 SWAP1 POP JUMP JUMPDEST PUSH0 PUSH2 0x1520 DUP3 PUSH2 0x14F7 JUMP JUMPDEST SWAP1 POP SWAP2 SWAP1 POP JUMP JUMPDEST PUSH2 0x1530 DUP2 PUSH2 0x1516 JUMP JUMPDEST DUP2 EQ PUSH2 0x153A JUMPI PUSH0 PUSH0 REVERT JUMPDEST POP JUMP JUMPDEST PUSH0 DUP2 CALLDATALOAD SWAP1 POP PUSH2 0x154B DUP2 PUSH2 0x1527 JUMP JUMPDEST SWAP3 SWAP2 POP POP JUMP JUMPDEST PUSH0 PUSH0 PUSH0 PUSH0 PUSH0 PUSH0 PUSH1 0xA0 DUP8 DUP10 SUB SLT ISZERO PUSH2 0x156B JUMPI PUSH2 0x156A PUSH2 0x13E3 JUMP JUMPDEST JUMPDEST PUSH0 PUSH2 0x1578 DUP10 DUP3 DUP11 ADD PUSH2 0x140A JUMP JUMPDEST SWAP7 POP POP PUSH1 0x20 PUSH2 0x1589 DUP10 DUP3 DUP11 ADD PUSH2 0x140A JUMP JUMPDEST SWAP6 POP POP PUSH1 0x40 DUP8 ADD CALLDATALOAD PUSH8 0xFFFFFFFFFFFFFFFF DUP2 GT ISZERO PUSH2 0x15AA JUMPI PUSH2 0x15A9 PUSH2 0x13E7 JUMP JUMPDEST JUMPDEST PUSH2 0x15B6 DUP10 DUP3 DUP11 ADD PUSH2 0x14A2 JUMP JUMPDEST SWAP5 POP SWAP5 POP POP PUSH1 0x60 PUSH2 0x15C9 DUP10 DUP3 DUP11 ADD PUSH2 0x153D JUMP JUMPDEST SWAP3 POP POP PUSH1 0x80 PUSH2 0x15DA DUP10 DUP3 DUP11 ADD PUSH2 0x140A JUMP JUMPDEST SWAP2 POP POP SWAP3 SWAP6 POP SWAP3 SWAP6 POP SWAP3 SWAP6 JUMP JUMPDEST PUSH0 DUP2 MLOAD SWAP1 POP SWAP2 SWAP1 POP JUMP JUMPDEST PUSH0 DUP3 DUP3 MSTORE PUSH1 0x20 DUP3 ADD SWAP1 POP SWAP3 SWAP2 POP POP JUMP JUMPDEST PUSH0 DUP2 SWAP1 POP PUSH1 0x20 DUP3 ADD SWAP1 POP SWAP2 SWAP1 POP JUMP JUMPDEST PUSH2 0x1619 DUP2 PUSH2 0x13EB JUMP JUMPDEST DUP3 MSTORE POP POP JUMP JUMPDEST PUSH0 PUSH2 0x162A DUP4 DUP4 PUSH2 0x1610 JUMP JUMPDEST PUSH1 0x20 DUP4 ADD SWAP1 POP SWAP3 SWAP2 POP POP JUMP JUMPDEST PUSH0 PUSH1 0x20 DUP3 ADD SWAP1 POP SWAP2 SWAP1 POP JUMP JUMPDEST PUSH0 PUSH2 0x164C DUP3 PUSH2 0x15E7 JUMP JUMPDEST PUSH2 0x1656 DUP2 DUP6 PUSH2 0x15F1 JUMP JUMPDEST SWAP4 POP PUSH2 0x1661 DUP4 PUSH2 0x1601 JUMP JUMPDEST DUP1 PUSH0 JUMPDEST DUP4 DUP2 LT ISZERO PUSH2 0x1691 JUMPI DUP2 MLOAD PUSH2 0x1678 DUP9 DUP3 PUSH2 0x161F JUMP JUMPDEST SWAP8 POP PUSH2 0x1683 DUP4 PUSH2 0x1636 JUMP JUMPDEST SWAP3 POP POP PUSH1 0x1 DUP2 ADD SWAP1 POP PUSH2 0x1664 JUMP JUMPDEST POP DUP6 SWAP4 POP POP POP POP SWAP3 SWAP2 POP POP JUMP JUMPDEST PUSH0 PUSH1 0x20 DUP3 ADD SWAP1 POP DUP2 DUP2 SUB PUSH0 DUP4 ADD MSTORE PUSH2 0x16B6 DUP2 DUP5 PUSH2 0x1642 JUMP JUMPDEST SWAP1 POP SWAP3 SWAP2 POP POP JUMP JUMPDEST PUSH0 PUSH0 PUSH1 0x40 DUP4 DUP6 SUB SLT ISZERO PUSH2 0x16D4 JUMPI PUSH2 0x16D3 PUSH2 0x13E3 JUMP JUMPDEST JUMPDEST PUSH0 PUSH2 0x16E1 DUP6 DUP3 DUP7 ADD PUSH2 0x153D JUMP JUMPDEST SWAP3 POP POP PUSH1 0x20 PUSH2 0x16F2 DUP6 DUP3 DUP7 ADD PUSH2 0x153D JUMP JUMPDEST SWAP2 POP POP SWAP3 POP SWAP3 SWAP1 POP JUMP JUMPDEST PUSH0 DUP2 SWAP1 POP SWAP2 SWAP1 POP JUMP JUMPDEST PUSH0 PUSH2 0x171F PUSH2 0x171A PUSH2 0x1715 DUP5 PUSH2 0x14F7 JUMP JUMPDEST PUSH2 0x16FC JUMP JUMPDEST PUSH2 0x14F7 JUMP JUMPDEST SWAP1 POP SWAP2 SWAP1 POP JUMP JUMPDEST PUSH0 PUSH2 0x1730 DUP3 PUSH2 0x1705 JUMP JUMPDEST SWAP1 POP SWAP2 SWAP1 POP JUMP JUMPDEST PUSH0 PUSH2 0x1741 DUP3 PUSH2 0x1726 JUMP JUMPDEST SWAP1 POP SWAP2 SWAP1 POP JUMP JUMPDEST PUSH2 0x1751 DUP2 PUSH2 0x1737 JUMP JUMPDEST DUP3 MSTORE POP POP JUMP JUMPDEST PUSH0 PUSH1 0x60 DUP3 ADD SWAP1 POP PUSH2 0x176A PUSH0 DUP4 ADD DUP7 PUSH2 0x146E JUMP JUMPDEST PUSH2 0x1777 PUSH1 0x20 DUP4 ADD DUP6 PUSH2 0x146E JUMP JUMPDEST PUSH2 0x1784 PUSH1 0x40 DUP4 ADD DUP5 PUSH2 0x1748 JUMP JUMPDEST SWAP5 SWAP4 POP POP POP POP JUMP JUMPDEST PUSH0 PUSH0 PUSH0 PUSH0 PUSH0 PUSH0 PUSH0 PUSH1 0xE0 DUP9 DUP11 SUB SLT ISZERO PUSH2 0x17A7 JUMPI PUSH2 0x17A6 PUSH2 0x13E3 JUMP JUMPDEST JUMPDEST PUSH0 PUSH2 0x17B4 DUP11 DUP3 DUP12 ADD PUSH2 0x153D JUMP JUMPDEST SWAP8 POP POP PUSH1 0x20 PUSH2 0x17C5 DUP11 DUP3 DUP12 ADD PUSH2 0x153D JUMP JUMPDEST SWAP7 POP POP PUSH1 0x40 PUSH2 0x17D6 DUP11 DUP3 DUP12 ADD PUSH2 0x140A JUMP JUMPDEST SWAP6 POP POP PUSH1 0x60 PUSH2 0x17E7 DUP11 DUP3 DUP12 ADD PUSH2 0x140A JUMP JUMPDEST SWAP5 POP POP PUSH1 0x80 PUSH2 0x17F8 DUP11 DUP3 DUP12 ADD PUSH2 0x140A JUMP JUMPDEST SWAP4 POP POP PUSH1 0xA0 PUSH2 0x1809 DUP11 DUP3 DUP12 ADD PUSH2 0x153D JUMP JUMPDEST SWAP3 POP POP PUSH1 0xC0 PUSH2 0x181A DUP11 DUP3 DUP12 ADD PUSH2 0x140A JUMP JUMPDEST SWAP2 POP POP SWAP3 SWAP6 SWAP9 SWAP2 SWAP5 SWAP8 POP SWAP3 SWAP6 POP JUMP JUMPDEST PUSH0 PUSH1 0x40 DUP3 ADD SWAP1 POP PUSH2 0x183C PUSH0 DUP4 ADD DUP6 PUSH2 0x146E JUMP JUMPDEST PUSH2 0x1849 PUSH1 0x20 DUP4 ADD DUP5 PUSH2 0x146E JUMP JUMPDEST SWAP4 SWAP3 POP POP POP JUMP JUMPDEST PUSH0 PUSH0 PUSH0 PUSH0 PUSH0 PUSH0 PUSH0 PUSH0 PUSH2 0x100 DUP10 DUP12 SUB SLT ISZERO PUSH2 0x186D JUMPI PUSH2 0x186C PUSH2 0x13E3 JUMP JUMPDEST JUMPDEST PUSH0 PUSH2 0x187A DUP12 DUP3 DUP13 ADD PUSH2 0x153D JUMP JUMPDEST SWAP9 POP POP PUSH1 0x20 PUSH2 0x188B DUP12 DUP3 DUP13 ADD PUSH2 0x153D JUMP JUMPDEST SWAP8 POP POP PUSH1 0x40 PUSH2 0x189C DUP12 DUP3 DUP13 ADD PUSH2 0x140A JUMP JUMPDEST SWAP7 POP POP PUSH1 0x60 PUSH2 0x18AD DUP12 DUP3 DUP13 ADD PUSH2 0x140A JUMP JUMPDEST SWAP6 POP POP PUSH1 0x80 PUSH2 0x18BE DUP12 DUP3 DUP13 ADD PUSH2 0x140A JUMP JUMPDEST SWAP5 POP POP PUSH1 0xA0 PUSH2 0x18CF DUP12 DUP3 DUP13 ADD PUSH2 0x140A JUMP JUMPDEST SWAP4 POP POP PUSH1 0xC0 PUSH2 0x18E0 DUP12 DUP3 DUP13 ADD PUSH2 0x153D JUMP JUMPDEST SWAP3 POP POP PUSH1 0xE0 PUSH2 0x18F1 DUP12 DUP3 DUP13 ADD PUSH2 0x140A JUMP JUMPDEST SWAP2 POP POP SWAP3 SWAP6 SWAP9 POP SWAP3 SWAP6 SWAP9 SWAP1 SWAP4 SWAP7 POP JUMP JUMPDEST PUSH0 PUSH1 0x60 DUP3 ADD SWAP1 POP PUSH2 0x1914 PUSH0 DUP4 ADD DUP7 PUSH2 0x146E JUMP JUMPDEST PUSH2 0x1921 PUSH1 0x20 DUP4 ADD DUP6 PUSH2 0x146E JUMP JUMPDEST PUSH2 0x192E PUSH1 0x40 DUP4 ADD DUP5 PUSH2 0x146E JUMP JUMPDEST SWAP5 SWAP4 POP POP POP POP JUMP JUMPDEST PUSH0 DUP3 DUP3 MSTORE PUSH1 0x20 DUP3 ADD SWAP1 POP SWAP3 SWAP2 POP POP JUMP JUMPDEST PUSH32 0x416D6F756E7420696E206D757374206265203E20300000000000000000000000 PUSH0 DUP3 ADD MSTORE POP JUMP JUMPDEST PUSH0 PUSH2 0x197A PUSH1 0x15 DUP4 PUSH2 0x1936 JUMP JUMPDEST SWAP2 POP PUSH2 0x1985 DUP3 PUSH2 0x1946 JUMP JUMPDEST PUSH1 0x20 DUP3 ADD SWAP1 POP SWAP2 SWAP1 POP JUMP JUMPDEST PUSH0 PUSH1 0x20 DUP3 ADD SWAP1 POP DUP2 DUP2 SUB PUSH0 DUP4 ADD MSTORE PUSH2 0x19A7 DUP2 PUSH2 0x196E JUMP JUMPDEST SWAP1 POP SWAP2 SWAP1 POP JUMP JUMPDEST PUSH32 0x496E76616C696420726573657276657300000000000000000000000000000000 PUSH0 DUP3 ADD MSTORE POP JUMP JUMPDEST PUSH0 PUSH2 0x19E2 PUSH1 0x10 DUP4 PUSH2 0x1936 JUMP JUMPDEST SWAP2 POP PUSH2 0x19ED DUP3 PUSH2 0x19AE JUMP JUMPDEST PUSH1 0x20 DUP3 ADD SWAP1 POP SWAP2 SWAP1 POP JUMP JUMPDEST PUSH0 PUSH1 0x20 DUP3 ADD SWAP1 POP DUP2 DUP2 SUB PUSH0 DUP4 ADD MSTORE PUSH2 0x1A0F DUP2 PUSH2 0x19D6 JUMP JUMPDEST SWAP1 POP SWAP2 SWAP1 POP JUMP JUMPDEST PUSH32 0x4E487B7100000000000000000000000000000000000000000000000000000000 PUSH0 MSTORE PUSH1 0x11 PUSH1 0x4 MSTORE PUSH1 0x24 PUSH0 REVERT JUMPDEST PUSH0 PUSH2 0x1A4D DUP3 PUSH2 0x13EB JUMP JUMPDEST SWAP2 POP PUSH2 0x1A58 DUP4 PUSH2 0x13EB JUMP JUMPDEST SWAP3 POP DUP3 DUP3 MUL PUSH2 0x1A66 DUP2 PUSH2 0x13EB JUMP JUMPDEST SWAP2 POP DUP3 DUP3 DIV DUP5 EQ DUP4 ISZERO OR PUSH2 0x1A7D JUMPI PUSH2 0x1A7C PUSH2 0x1A16 JUMP JUMPDEST JUMPDEST POP SWAP3 SWAP2 POP POP JUMP JUMPDEST PUSH0 PUSH2 0x1A8E DUP3 PUSH2 0x13EB JUMP JUMPDEST SWAP2 POP PUSH2 0x1A99 DUP4 PUSH2 0x13EB JUMP JUMPDEST SWAP3 POP DUP3 DUP3 ADD SWAP1 POP DUP1 DUP3 GT ISZERO PUSH2 0x1AB1 JUMPI PUSH2 0x1AB0 PUSH2 0x1A16 JUMP JUMPDEST JUMPDEST SWAP3 SWAP2 POP POP JUMP JUMPDEST PUSH32 0x4E487B7100000000000000000000000000000000000000000000000000000000 PUSH0 MSTORE PUSH1 0x12 PUSH1 0x4 MSTORE PUSH1 0x24 PUSH0 REVERT JUMPDEST PUSH0 PUSH2 0x1AEE DUP3 PUSH2 0x13EB JUMP JUMPDEST SWAP2 POP PUSH2 0x1AF9 DUP4 PUSH2 0x13EB JUMP JUMPDEST SWAP3 POP DUP3 PUSH2 0x1B09 JUMPI PUSH2 0x1B08 PUSH2 0x1AB7 JUMP JUMPDEST JUMPDEST DUP3 DUP3 DIV SWAP1 POP SWAP3 SWAP2 POP POP JUMP JUMPDEST PUSH32 0x4F6E6C7920322D746F6B656E207061746820737570706F727465640000000000 PUSH0 DUP3 ADD MSTORE POP JUMP JUMPDEST PUSH0 PUSH2 0x1B48 PUSH1 0x1B DUP4 PUSH2 0x1936 JUMP JUMPDEST SWAP2 POP PUSH2 0x1B53 DUP3 PUSH2 0x1B14 JUMP JUMPDEST PUSH1 0x20 DUP3 ADD SWAP1 POP SWAP2 SWAP1 POP JUMP JUMPDEST PUSH0 PUSH1 0x20 DUP3 ADD SWAP1 POP DUP2 DUP2 SUB PUSH0 DUP4 ADD MSTORE PUSH2 0x1B75 DUP2 PUSH2 0x1B3C JUMP JUMPDEST SWAP1 POP SWAP2 SWAP1 POP JUMP JUMPDEST PUSH32 0x5472616E73616374696F6E206578706972656400000000000000000000000000 PUSH0 DUP3 ADD MSTORE POP JUMP JUMPDEST PUSH0 PUSH2 0x1BB0 PUSH1 0x13 DUP4 PUSH2 0x1936 JUMP JUMPDEST SWAP2 POP PUSH2 0x1BBB DUP3 PUSH2 0x1B7C JUMP JUMPDEST PUSH1 0x20 DUP3 ADD SWAP1 POP SWAP2 SWAP1 POP JUMP JUMPDEST PUSH0 PUSH1 0x20 DUP3 ADD SWAP1 POP DUP2 DUP2 SUB PUSH0 DUP4 ADD MSTORE PUSH2 0x1BDD DUP2 PUSH2 0x1BA4 JUMP JUMPDEST SWAP1 POP SWAP2 SWAP1 POP JUMP JUMPDEST PUSH32 0x4E487B7100000000000000000000000000000000000000000000000000000000 PUSH0 MSTORE PUSH1 0x32 PUSH1 0x4 MSTORE PUSH1 0x24 PUSH0 REVERT JUMPDEST PUSH0 PUSH1 0x20 DUP3 DUP5 SUB SLT ISZERO PUSH2 0x1C26 JUMPI PUSH2 0x1C25 PUSH2 0x13E3 JUMP JUMPDEST JUMPDEST PUSH0 PUSH2 0x1C33 DUP5 DUP3 DUP6 ADD PUSH2 0x153D JUMP JUMPDEST SWAP2 POP POP SWAP3 SWAP2 POP POP JUMP JUMPDEST PUSH32 0x5061697220646F6573206E6F7420657869737400000000000000000000000000 PUSH0 DUP3 ADD MSTORE POP JUMP JUMPDEST PUSH0 PUSH2 0x1C70 PUSH1 0x13 DUP4 PUSH2 0x1936 JUMP JUMPDEST SWAP2 POP PUSH2 0x1C7B DUP3 PUSH2 0x1C3C JUMP JUMPDEST PUSH1 0x20 DUP3 ADD SWAP1 POP SWAP2 SWAP1 POP JUMP JUMPDEST PUSH0 PUSH1 0x20 DUP3 ADD SWAP1 POP DUP2 DUP2 SUB PUSH0 DUP4 ADD MSTORE PUSH2 0x1C9D DUP2 PUSH2 0x1C64 JUMP JUMPDEST SWAP1 POP SWAP2 SWAP1 POP JUMP JUMPDEST PUSH2 0x1CAD DUP2 PUSH2 0x1516 JUMP JUMPDEST DUP3 MSTORE POP POP JUMP JUMPDEST PUSH0 PUSH1 0x60 DUP3 ADD SWAP1 POP PUSH2 0x1CC6 PUSH0 DUP4 ADD DUP7 PUSH2 0x1CA4 JUMP JUMPDEST PUSH2 0x1CD3 PUSH1 0x20 DUP4 ADD DUP6 PUSH2 0x1CA4 JUMP JUMPDEST PUSH2 0x1CE0 PUSH1 0x40 DUP4 ADD DUP5 PUSH2 0x146E JUMP JUMPDEST SWAP5 SWAP4 POP POP POP POP JUMP JUMPDEST PUSH0 DUP2 ISZERO ISZERO SWAP1 POP SWAP2 SWAP1 POP JUMP JUMPDEST PUSH2 0x1CFC DUP2 PUSH2 0x1CE8 JUMP JUMPDEST DUP2 EQ PUSH2 0x1D06 JUMPI PUSH0 PUSH0 REVERT JUMPDEST POP JUMP JUMPDEST PUSH0 DUP2 MLOAD SWAP1 POP PUSH2 0x1D17 DUP2 PUSH2 0x1CF3 JUMP JUMPDEST SWAP3 SWAP2 POP POP JUMP JUMPDEST PUSH0 PUSH1 0x20 DUP3 DUP5 SUB SLT ISZERO PUSH2 0x1D32 JUMPI PUSH2 0x1D31 PUSH2 0x13E3 JUMP JUMPDEST JUMPDEST PUSH0 PUSH2 0x1D3F DUP5 DUP3 DUP6 ADD PUSH2 0x1D09 JUMP JUMPDEST SWAP2 POP POP SWAP3 SWAP2 POP POP JUMP JUMPDEST PUSH32 0x5472616E7366657220696E206661696C65640000000000000000000000000000 PUSH0 DUP3 ADD MSTORE POP JUMP JUMPDEST PUSH0 PUSH2 0x1D7C PUSH1 0x12 DUP4 PUSH2 0x1936 JUMP JUMPDEST SWAP2 POP PUSH2 0x1D87 DUP3 PUSH2 0x1D48 JUMP JUMPDEST PUSH1 0x20 DUP3 ADD SWAP1 POP SWAP2 SWAP1 POP JUMP JUMPDEST PUSH0 PUSH1 0x20 DUP3 ADD SWAP1 POP DUP2 DUP2 SUB PUSH0 DUP4 ADD MSTORE PUSH2 0x1DA9 DUP2 PUSH2 0x1D70 JUMP JUMPDEST SWAP1 POP SWAP2 SWAP1 POP JUMP JUMPDEST PUSH32 0x536C69707061676520746F6F2068696768000000000000000000000000000000 PUSH0 DUP3 ADD MSTORE POP JUMP JUMPDEST PUSH0 PUSH2 0x1DE4 PUSH1 0x11 DUP4 PUSH2 0x1936 JUMP JUMPDEST SWAP2 POP PUSH2 0x1DEF DUP3 PUSH2 0x1DB0 JUMP JUMPDEST PUSH1 0x20 DUP3 ADD SWAP1 POP SWAP2 SWAP1 POP JUMP JUMPDEST PUSH0 PUSH1 0x20 DUP3 ADD SWAP1 POP DUP2 DUP2 SUB PUSH0 DUP4 ADD MSTORE PUSH2 0x1E11 DUP2 PUSH2 0x1DD8 JUMP JUMPDEST SWAP1 POP SWAP2 SWAP1 POP JUMP JUMPDEST PUSH0 PUSH2 0x1E22 DUP3 PUSH2 0x13EB JUMP JUMPDEST SWAP2 POP PUSH2 0x1E2D DUP4 PUSH2 0x13EB JUMP JUMPDEST SWAP3 POP DUP3 DUP3 SUB SWAP1 POP DUP2 DUP2 GT ISZERO PUSH2 0x1E45 JUMPI PUSH2 0x1E44 PUSH2 0x1A16 JUMP JUMPDEST JUMPDEST SWAP3 SWAP2 POP POP JUMP JUMPDEST PUSH0 PUSH1 0x40 DUP3 ADD SWAP1 POP PUSH2 0x1E5E PUSH0 DUP4 ADD DUP6 PUSH2 0x1CA4 JUMP JUMPDEST PUSH2 0x1E6B PUSH1 0x20 DUP4 ADD DUP5 PUSH2 0x146E JUMP JUMPDEST SWAP4 SWAP3 POP POP POP JUMP JUMPDEST PUSH32 0x5472616E73666572206F7574206661696C656400000000000000000000000000 PUSH0 DUP3 ADD MSTORE POP JUMP JUMPDEST PUSH0 PUSH2 0x1EA6 PUSH1 0x13 DUP4 PUSH2 0x1936 JUMP JUMPDEST SWAP2 POP PUSH2 0x1EB1 DUP3 PUSH2 0x1E72 JUMP JUMPDEST PUSH1 0x20 DUP3 ADD SWAP1 POP SWAP2 SWAP1 POP JUMP JUMPDEST PUSH0 PUSH1 0x20 DUP3 ADD SWAP1 POP DUP2 DUP2 SUB PUSH0 DUP4 ADD MSTORE PUSH2 0x1ED3 DUP2 PUSH2 0x1E9A JUMP JUMPDEST SWAP1 POP SWAP2 SWAP1 POP JUMP JUMPDEST PUSH32 0x4E487B7100000000000000000000000000000000000000000000000000000000 PUSH0 MSTORE PUSH1 0x41 PUSH1 0x4 MSTORE PUSH1 0x24 PUSH0 REVERT JUMPDEST PUSH32 0x496E73756666696369656E742072657365727665730000000000000000000000 PUSH0 DUP3 ADD MSTORE POP JUMP JUMPDEST PUSH0 PUSH2 0x1F3B PUSH1 0x15 DUP4 PUSH2 0x1936 JUMP JUMPDEST SWAP2 POP PUSH2 0x1F46 DUP3 PUSH2 0x1F07 JUMP JUMPDEST PUSH1 0x20 DUP3 ADD SWAP1 POP SWAP2 SWAP1 POP JUMP JUMPDEST PUSH0 PUSH1 0x20 DUP3 ADD SWAP1 POP DUP2 DUP2 SUB PUSH0 DUP4 ADD MSTORE PUSH2 0x1F68 DUP2 PUSH2 0x1F2F JUMP JUMPDEST SWAP1 POP SWAP2 SWAP1 POP JUMP JUMPDEST PUSH0 DUP2 MLOAD SWAP1 POP PUSH2 0x1F7D DUP2 PUSH2 0x13F4 JUMP JUMPDEST SWAP3 SWAP2 POP POP JUMP JUMPDEST PUSH0 PUSH1 0x20 DUP3 DUP5 SUB SLT ISZERO PUSH2 0x1F98 JUMPI PUSH2 0x1F97 PUSH2 0x13E3 JUMP JUMPDEST JUMPDEST PUSH0 PUSH2 0x1FA5 DUP5 DUP3 DUP6 ADD PUSH2 0x1F6F JUMP JUMPDEST SWAP2 POP POP SWAP3 SWAP2 POP POP JUMP JUMPDEST PUSH32 0x536C69707061676520746F6F2068696768204100000000000000000000000000 PUSH0 DUP3 ADD MSTORE POP JUMP JUMPDEST PUSH0 PUSH2 0x1FE2 PUSH1 0x13 DUP4 PUSH2 0x1936 JUMP JUMPDEST SWAP2 POP PUSH2 0x1FED DUP3 PUSH2 0x1FAE JUMP JUMPDEST PUSH1 0x20 DUP3 ADD SWAP1 POP SWAP2 SWAP1 POP JUMP JUMPDEST PUSH0 PUSH1 0x20 DUP3 ADD SWAP1 POP DUP2 DUP2 SUB PUSH0 DUP4 ADD MSTORE PUSH2 0x200F DUP2 PUSH2 0x1FD6 JUMP JUMPDEST SWAP1 POP SWAP2 SWAP1 POP JUMP JUMPDEST PUSH32 0x536C69707061676520746F6F2068696768204200000000000000000000000000 PUSH0 DUP3 ADD MSTORE POP JUMP JUMPDEST PUSH0 PUSH2 0x204A PUSH1 0x13 DUP4 PUSH2 0x1936 JUMP JUMPDEST SWAP2 POP PUSH2 0x2055 DUP3 PUSH2 0x2016 JUMP JUMPDEST PUSH1 0x20 DUP3 ADD SWAP1 POP SWAP2 SWAP1 POP JUMP JUMPDEST PUSH0 PUSH1 0x20 DUP3 ADD SWAP1 POP DUP2 DUP2 SUB PUSH0 DUP4 ADD MSTORE PUSH2 0x2077 DUP2 PUSH2 0x203E JUMP JUMPDEST SWAP1 POP SWAP2 SWAP1 POP JUMP JUMPDEST PUSH32 0x5472616E736665722041206661696C6564000000000000000000000000000000 PUSH0 DUP3 ADD MSTORE POP JUMP JUMPDEST PUSH0 PUSH2 0x20B2 PUSH1 0x11 DUP4 PUSH2 0x1936 JUMP JUMPDEST SWAP2 POP PUSH2 0x20BD DUP3 PUSH2 0x207E JUMP JUMPDEST PUSH1 0x20 DUP3 ADD SWAP1 POP SWAP2 SWAP1 POP JUMP JUMPDEST PUSH0 PUSH1 0x20 DUP3 ADD SWAP1 POP DUP2 DUP2 SUB PUSH0 DUP4 ADD MSTORE PUSH2 0x20DF DUP2 PUSH2 0x20A6 JUMP JUMPDEST SWAP1 POP SWAP2 SWAP1 POP JUMP JUMPDEST PUSH32 0x5472616E736665722042206661696C6564000000000000000000000000000000 PUSH0 DUP3 ADD MSTORE POP JUMP JUMPDEST PUSH0 PUSH2 0x211A PUSH1 0x11 DUP4 PUSH2 0x1936 JUMP JUMPDEST SWAP2 POP PUSH2 0x2125 DUP3 PUSH2 0x20E6 JUMP JUMPDEST PUSH1 0x20 DUP3 ADD SWAP1 POP SWAP2 SWAP1 POP JUMP JUMPDEST PUSH0 PUSH1 0x20 DUP3 ADD SWAP1 POP DUP2 DUP2 SUB PUSH0 DUP4 ADD MSTORE PUSH2 0x2147 DUP2 PUSH2 0x210E JUMP JUMPDEST SWAP1 POP SWAP2 SWAP1 POP JUMP JUMPDEST PUSH32 0x546F6B656E73206D757374206469666665720000000000000000000000000000 PUSH0 DUP3 ADD MSTORE POP JUMP JUMPDEST PUSH0 PUSH2 0x2182 PUSH1 0x12 DUP4 PUSH2 0x1936 JUMP JUMPDEST SWAP2 POP PUSH2 0x218D DUP3 PUSH2 0x214E JUMP JUMPDEST PUSH1 0x20 DUP3 ADD SWAP1 POP SWAP2 SWAP1 POP JUMP JUMPDEST PUSH0 PUSH1 0x20 DUP3 ADD SWAP1 POP DUP2 DUP2 SUB PUSH0 DUP4 ADD MSTORE PUSH2 0x21AF DUP2 PUSH2 0x2176 JUMP JUMPDEST SWAP1 POP SWAP2 SWAP1 POP JUMP JUMPDEST PUSH32 0x496E76616C696420616464726573736573000000000000000000000000000000 PUSH0 DUP3 ADD MSTORE POP JUMP JUMPDEST PUSH0 PUSH2 0x21EA PUSH1 0x11 DUP4 PUSH2 0x1936 JUMP JUMPDEST SWAP2 POP PUSH2 0x21F5 DUP3 PUSH2 0x21B6 JUMP JUMPDEST PUSH1 0x20 DUP3 ADD SWAP1 POP SWAP2 SWAP1 POP JUMP JUMPDEST PUSH0 PUSH1 0x20 DUP3 ADD SWAP1 POP DUP2 DUP2 SUB PUSH0 DUP4 ADD MSTORE PUSH2 0x2217 DUP2 PUSH2 0x21DE JUMP JUMPDEST SWAP1 POP SWAP2 SWAP1 POP JUMP JUMPDEST PUSH32 0x5472616E7366657220746F6B656E41206661696C656400000000000000000000 PUSH0 DUP3 ADD MSTORE POP JUMP JUMPDEST PUSH0 PUSH2 0x2252 PUSH1 0x16 DUP4 PUSH2 0x1936 JUMP JUMPDEST SWAP2 POP PUSH2 0x225D DUP3 PUSH2 0x221E JUMP JUMPDEST PUSH1 0x20 DUP3 ADD SWAP1 POP SWAP2 SWAP1 POP JUMP JUMPDEST PUSH0 PUSH1 0x20 DUP3 ADD SWAP1 POP DUP2 DUP2 SUB PUSH0 DUP4 ADD MSTORE PUSH2 0x227F DUP2 PUSH2 0x2246 JUMP JUMPDEST SWAP1 POP SWAP2 SWAP1 POP JUMP JUMPDEST PUSH32 0x5472616E7366657220746F6B656E42206661696C656400000000000000000000 PUSH0 DUP3 ADD MSTORE POP JUMP JUMPDEST PUSH0 PUSH2 0x22BA PUSH1 0x16 DUP4 PUSH2 0x1936 JUMP JUMPDEST SWAP2 POP PUSH2 0x22C5 DUP3 PUSH2 0x2286 JUMP JUMPDEST PUSH1 0x20 DUP3 ADD SWAP1 POP SWAP2 SWAP1 POP JUMP JUMPDEST PUSH0 PUSH1 0x20 DUP3 ADD SWAP1 POP DUP2 DUP2 SUB PUSH0 DUP4 ADD MSTORE PUSH2 0x22E7 DUP2 PUSH2 0x22AE JUMP JUMPDEST SWAP1 POP SWAP2 SWAP1 POP JUMP INVALID PUSH1 0x80 PUSH1 0x40 MSTORE CALLVALUE DUP1 ISZERO PUSH2 0xF JUMPI PUSH0 PUSH0 REVERT JUMPDEST POP PUSH1 0x40 MLOAD DUP1 PUSH1 0x40 ADD PUSH1 0x40 MSTORE DUP1 PUSH1 0xF DUP2 MSTORE PUSH1 0x20 ADD PUSH32 0x4C697175696469747920546F6B656E0000000000000000000000000000000000 DUP2 MSTORE POP PUSH1 0x40 MLOAD DUP1 PUSH1 0x40 ADD PUSH1 0x40 MSTORE DUP1 PUSH1 0x3 DUP2 MSTORE PUSH1 0x20 ADD PUSH32 0x4C50540000000000000000000000000000000000000000000000000000000000 DUP2 MSTORE POP DUP2 PUSH1 0x3 SWAP1 DUP2 PUSH2 0x8B SWAP2 SWAP1 PUSH2 0x320 JUMP JUMPDEST POP DUP1 PUSH1 0x4 SWAP1 DUP2 PUSH2 0x9B SWAP2 SWAP1 PUSH2 0x320 JUMP JUMPDEST POP POP POP CALLER PUSH1 0x5 PUSH0 PUSH2 0x100 EXP DUP2 SLOAD DUP2 PUSH20 0xFFFFFFFFFFFFFFFFFFFFFFFFFFFFFFFFFFFFFFFF MUL NOT AND SWAP1 DUP4 PUSH20 0xFFFFFFFFFFFFFFFFFFFFFFFFFFFFFFFFFFFFFFFF AND MUL OR SWAP1 SSTORE POP PUSH2 0x3EF JUMP JUMPDEST PUSH0 DUP2 MLOAD SWAP1 POP SWAP2 SWAP1 POP JUMP JUMPDEST PUSH32 0x4E487B7100000000000000000000000000000000000000000000000000000000 PUSH0 MSTORE PUSH1 0x41 PUSH1 0x4 MSTORE PUSH1 0x24 PUSH0 REVERT JUMPDEST PUSH32 0x4E487B7100000000000000000000000000000000000000000000000000000000 PUSH0 MSTORE PUSH1 0x22 PUSH1 0x4 MSTORE PUSH1 0x24 PUSH0 REVERT JUMPDEST PUSH0 PUSH1 0x2 DUP3 DIV SWAP1 POP PUSH1 0x1 DUP3 AND DUP1 PUSH2 0x15E JUMPI PUSH1 0x7F DUP3 AND SWAP2 POP JUMPDEST PUSH1 0x20 DUP3 LT DUP2 SUB PUSH2 0x171 JUMPI PUSH2 0x170 PUSH2 0x11A JUMP JUMPDEST JUMPDEST POP SWAP2 SWAP1 POP JUMP JUMPDEST PUSH0 DUP2 SWAP1 POP DUP2 PUSH0 MSTORE PUSH1 0x20 PUSH0 KECCAK256 SWAP1 POP SWAP2 SWAP1 POP JUMP JUMPDEST PUSH0 PUSH1 0x20 PUSH1 0x1F DUP4 ADD DIV SWAP1 POP SWAP2 SWAP1 POP JUMP JUMPDEST PUSH0 DUP3 DUP3 SHL SWAP1 POP SWAP3 SWAP2 POP POP JUMP JUMPDEST PUSH0 PUSH1 0x8 DUP4 MUL PUSH2 0x1D3 PUSH32 0xFFFFFFFFFFFFFFFFFFFFFFFFFFFFFFFFFFFFFFFFFFFFFFFFFFFFFFFFFFFFFFFF DUP3 PUSH2 0x198 JUMP JUMPDEST PUSH2 0x1DD DUP7 DUP4 PUSH2 0x198 JUMP JUMPDEST SWAP6 POP DUP1 NOT DUP5 AND SWAP4 POP DUP1 DUP7 AND DUP5 OR SWAP3 POP POP POP SWAP4 SWAP3 POP POP POP JUMP JUMPDEST PUSH0 DUP2 SWAP1 POP SWAP2 SWAP1 POP JUMP JUMPDEST PUSH0 DUP2 SWAP1 POP SWAP2 SWAP1 POP JUMP JUMPDEST PUSH0 PUSH2 0x221 PUSH2 0x21C PUSH2 0x217 DUP5 PUSH2 0x1F5 JUMP JUMPDEST PUSH2 0x1FE JUMP JUMPDEST PUSH2 0x1F5 JUMP JUMPDEST SWAP1 POP SWAP2 SWAP1 POP JUMP JUMPDEST PUSH0 DUP2 SWAP1 POP SWAP2 SWAP1 POP JUMP JUMPDEST PUSH2 0x23A DUP4 PUSH2 0x207 JUMP JUMPDEST PUSH2 0x24E PUSH2 0x246 DUP3 PUSH2 0x228 JUMP JUMPDEST DUP5 DUP5 SLOAD PUSH2 0x1A4 JUMP JUMPDEST DUP3 SSTORE POP POP POP POP JUMP JUMPDEST PUSH0 PUSH0 SWAP1 POP SWAP1 JUMP JUMPDEST PUSH2 0x265 PUSH2 0x256 JUMP JUMPDEST PUSH2 0x270 DUP2 DUP5 DUP5 PUSH2 0x231 JUMP JUMPDEST POP POP POP JUMP JUMPDEST JUMPDEST DUP2 DUP2 LT ISZERO PUSH2 0x293 JUMPI PUSH2 0x288 PUSH0 DUP3 PUSH2 0x25D JUMP JUMPDEST PUSH1 0x1 DUP2 ADD SWAP1 POP PUSH2 0x276 JUMP JUMPDEST POP POP JUMP JUMPDEST PUSH1 0x1F DUP3 GT ISZERO PUSH2 0x2D8 JUMPI PUSH2 0x2A9 DUP2 PUSH2 0x177 JUMP JUMPDEST PUSH2 0x2B2 DUP5 PUSH2 0x189 JUMP JUMPDEST DUP2 ADD PUSH1 0x20 DUP6 LT ISZERO PUSH2 0x2C1 JUMPI DUP2 SWAP1 POP JUMPDEST PUSH2 0x2D5 PUSH2 0x2CD DUP6 PUSH2 0x189 JUMP JUMPDEST DUP4 ADD DUP3 PUSH2 0x275 JUMP JUMPDEST POP POP JUMPDEST POP POP POP JUMP JUMPDEST PUSH0 DUP3 DUP3 SHR SWAP1 POP SWAP3 SWAP2 POP POP JUMP JUMPDEST PUSH0 PUSH2 0x2F8 PUSH0 NOT DUP5 PUSH1 0x8 MUL PUSH2 0x2DD JUMP JUMPDEST NOT DUP1 DUP4 AND SWAP2 POP POP SWAP3 SWAP2 POP POP JUMP JUMPDEST PUSH0 PUSH2 0x310 DUP4 DUP4 PUSH2 0x2E9 JUMP JUMPDEST SWAP2 POP DUP3 PUSH1 0x2 MUL DUP3 OR SWAP1 POP SWAP3 SWAP2 POP POP JUMP JUMPDEST PUSH2 0x329 DUP3 PUSH2 0xE3 JUMP JUMPDEST PUSH8 0xFFFFFFFFFFFFFFFF DUP2 GT ISZERO PUSH2 0x342 JUMPI PUSH2 0x341 PUSH2 0xED JUMP JUMPDEST JUMPDEST PUSH2 0x34C DUP3 SLOAD PUSH2 0x147 JUMP JUMPDEST PUSH2 0x357 DUP3 DUP3 DUP6 PUSH2 0x297 JUMP JUMPDEST PUSH0 PUSH1 0x20 SWAP1 POP PUSH1 0x1F DUP4 GT PUSH1 0x1 DUP2 EQ PUSH2 0x388 JUMPI PUSH0 DUP5 ISZERO PUSH2 0x376 JUMPI DUP3 DUP8 ADD MLOAD SWAP1 POP JUMPDEST PUSH2 0x380 DUP6 DUP3 PUSH2 0x305 JUMP JUMPDEST DUP7 SSTORE POP PUSH2 0x3E7 JUMP JUMPDEST PUSH1 0x1F NOT DUP5 AND PUSH2 0x396 DUP7 PUSH2 0x177 JUMP JUMPDEST PUSH0 JUMPDEST DUP3 DUP2 LT ISZERO PUSH2 0x3BD JUMPI DUP5 DUP10 ADD MLOAD DUP3 SSTORE PUSH1 0x1 DUP3 ADD SWAP2 POP PUSH1 0x20 DUP6 ADD SWAP5 POP PUSH1 0x20 DUP2 ADD SWAP1 POP PUSH2 0x398 JUMP JUMPDEST DUP7 DUP4 LT ISZERO PUSH2 0x3DA JUMPI DUP5 DUP10 ADD MLOAD PUSH2 0x3D6 PUSH1 0x1F DUP10 AND DUP3 PUSH2 0x2E9 JUMP JUMPDEST DUP4 SSTORE POP JUMPDEST PUSH1 0x1 PUSH1 0x2 DUP9 MUL ADD DUP9 SSTORE POP POP POP JUMPDEST POP POP POP POP POP POP JUMP JUMPDEST PUSH2 0x111E DUP1 PUSH2 0x3FC PUSH0 CODECOPY PUSH0 RETURN INVALID PUSH1 0x80 PUSH1 0x40 MSTORE CALLVALUE DUP1 ISZERO PUSH2 0xF JUMPI PUSH0 PUSH0 REVERT JUMPDEST POP PUSH1 0x4 CALLDATASIZE LT PUSH2 0xB2 JUMPI PUSH0 CALLDATALOAD PUSH1 0xE0 SHR DUP1 PUSH4 0x70A08231 GT PUSH2 0x6F JUMPI DUP1 PUSH4 0x70A08231 EQ PUSH2 0x18C JUMPI DUP1 PUSH4 0x8EA83031 EQ PUSH2 0x1BC JUMPI DUP1 PUSH4 0x95D89B41 EQ PUSH2 0x1DA JUMPI DUP1 PUSH4 0x9DC29FAC EQ PUSH2 0x1F8 JUMPI DUP1 PUSH4 0xA9059CBB EQ PUSH2 0x214 JUMPI DUP1 PUSH4 0xDD62ED3E EQ PUSH2 0x244 JUMPI PUSH2 0xB2 JUMP JUMPDEST DUP1 PUSH4 0x6FDDE03 EQ PUSH2 0xB6 JUMPI DUP1 PUSH4 0x95EA7B3 EQ PUSH2 0xD4 JUMPI DUP1 PUSH4 0x18160DDD EQ PUSH2 0x104 JUMPI DUP1 PUSH4 0x23B872DD EQ PUSH2 0x122 JUMPI DUP1 PUSH4 0x313CE567 EQ PUSH2 0x152 JUMPI DUP1 PUSH4 0x40C10F19 EQ PUSH2 0x170 JUMPI JUMPDEST PUSH0 PUSH0 REVERT JUMPDEST PUSH2 0xBE PUSH2 0x274 JUMP JUMPDEST PUSH1 0x40 MLOAD PUSH2 0xCB SWAP2 SWAP1 PUSH2 0xD2F JUMP JUMPDEST PUSH1 0x40 MLOAD DUP1 SWAP2 SUB SWAP1 RETURN JUMPDEST PUSH2 0xEE PUSH1 0x4 DUP1 CALLDATASIZE SUB DUP2 ADD SWAP1 PUSH2 0xE9 SWAP2 SWAP1 PUSH2 0xDE0 JUMP JUMPDEST PUSH2 0x304 JUMP JUMPDEST PUSH1 0x40 MLOAD PUSH2 0xFB SWAP2 SWAP1 PUSH2 0xE38 JUMP JUMPDEST PUSH1 0x40 MLOAD DUP1 SWAP2 SUB SWAP1 RETURN JUMPDEST PUSH2 0x10C PUSH2 0x326 JUMP JUMPDEST PUSH1 0x40 MLOAD PUSH2 0x119 SWAP2 SWAP1 PUSH2 0xE60 JUMP JUMPDEST PUSH1 0x40 MLOAD DUP1 SWAP2 SUB SWAP1 RETURN JUMPDEST PUSH2 0x13C PUSH1 0x4 DUP1 CALLDATASIZE SUB DUP2 ADD SWAP1 PUSH2 0x137 SWAP2 SWAP1 PUSH2 0xE79 JUMP JUMPDEST PUSH2 0x32F JUMP JUMPDEST PUSH1 0x40 MLOAD PUSH2 0x149 SWAP2 SWAP1 PUSH2 0xE38 JUMP JUMPDEST PUSH1 0x40 MLOAD DUP1 SWAP2 SUB SWAP1 RETURN JUMPDEST PUSH2 0x15A PUSH2 0x35D JUMP JUMPDEST PUSH1 0x40 MLOAD PUSH2 0x167 SWAP2 SWAP1 PUSH2 0xEE4 JUMP JUMPDEST PUSH1 0x40 MLOAD DUP1 SWAP2 SUB SWAP1 RETURN JUMPDEST PUSH2 0x18A PUSH1 0x4 DUP1 CALLDATASIZE SUB DUP2 ADD SWAP1 PUSH2 0x185 SWAP2 SWAP1 PUSH2 0xDE0 JUMP JUMPDEST PUSH2 0x365 JUMP JUMPDEST STOP JUMPDEST PUSH2 0x1A6 PUSH1 0x4 DUP1 CALLDATASIZE SUB DUP2 ADD SWAP1 PUSH2 0x1A1 SWAP2 SWAP1 PUSH2 0xEFD JUMP JUMPDEST PUSH2 0x402 JUMP JUMPDEST PUSH1 0x40 MLOAD PUSH2 0x1B3 SWAP2 SWAP1 PUSH2 0xE60 JUMP JUMPDEST PUSH1 0x40 MLOAD DUP1 SWAP2 SUB SWAP1 RETURN JUMPDEST PUSH2 0x1C4 PUSH2 0x447 JUMP JUMPDEST PUSH1 0x40 MLOAD PUSH2 0x1D1 SWAP2 SWAP1 PUSH2 0xF37 JUMP JUMPDEST PUSH1 0x40 MLOAD DUP1 SWAP2 SUB SWAP1 RETURN JUMPDEST PUSH2 0x1E2 PUSH2 0x46C JUMP JUMPDEST PUSH1 0x40 MLOAD PUSH2 0x1EF SWAP2 SWAP1 PUSH2 0xD2F JUMP JUMPDEST PUSH1 0x40 MLOAD DUP1 SWAP2 SUB SWAP1 RETURN JUMPDEST PUSH2 0x212 PUSH1 0x4 DUP1 CALLDATASIZE SUB DUP2 ADD SWAP1 PUSH2 0x20D SWAP2 SWAP1 PUSH2 0xDE0 JUMP JUMPDEST PUSH2 0x4FC JUMP JUMPDEST STOP JUMPDEST PUSH2 0x22E PUSH1 0x4 DUP1 CALLDATASIZE SUB DUP2 ADD SWAP1 PUSH2 0x229 SWAP2 SWAP1 PUSH2 0xDE0 JUMP JUMPDEST PUSH2 0x599 JUMP JUMPDEST PUSH1 0x40 MLOAD PUSH2 0x23B SWAP2 SWAP1 PUSH2 0xE38 JUMP JUMPDEST PUSH1 0x40 MLOAD DUP1 SWAP2 SUB SWAP1 RETURN JUMPDEST PUSH2 0x25E PUSH1 0x4 DUP1 CALLDATASIZE SUB DUP2 ADD SWAP1 PUSH2 0x259 SWAP2 SWAP1 PUSH2 0xF50 JUMP JUMPDEST PUSH2 0x5BB JUMP JUMPDEST PUSH1 0x40 MLOAD PUSH2 0x26B SWAP2 SWAP1 PUSH2 0xE60 JUMP JUMPDEST PUSH1 0x40 MLOAD DUP1 SWAP2 SUB SWAP1 RETURN JUMPDEST PUSH1 0x60 PUSH1 0x3 DUP1 SLOAD PUSH2 0x283 SWAP1 PUSH2 0xFBB JUMP JUMPDEST DUP1 PUSH1 0x1F ADD PUSH1 0x20 DUP1 SWAP2 DIV MUL PUSH1 0x20 ADD PUSH1 0x40 MLOAD SWAP1 DUP2 ADD PUSH1 0x40 MSTORE DUP1 SWAP3 SWAP2 SWAP1 DUP2 DUP2 MSTORE PUSH1 0x20 ADD DUP3 DUP1 SLOAD PUSH2 0x2AF SWAP1 PUSH2 0xFBB JUMP JUMPDEST DUP1 ISZERO PUSH2 0x2FA JUMPI DUP1 PUSH1 0x1F LT PUSH2 0x2D1 JUMPI PUSH2 0x100 DUP1 DUP4 SLOAD DIV MUL DUP4 MSTORE SWAP2 PUSH1 0x20 ADD SWAP2 PUSH2 0x2FA JUMP JUMPDEST DUP3 ADD SWAP2 SWAP1 PUSH0 MSTORE PUSH1 0x20 PUSH0 KECCAK256 SWAP1 JUMPDEST DUP2 SLOAD DUP2 MSTORE SWAP1 PUSH1 0x1 ADD SWAP1 PUSH1 0x20 ADD DUP1 DUP4 GT PUSH2 0x2DD JUMPI DUP3 SWAP1 SUB PUSH1 0x1F AND DUP3 ADD SWAP2 JUMPDEST POP POP POP POP POP SWAP1 POP SWAP1 JUMP JUMPDEST PUSH0 PUSH0 PUSH2 0x30E PUSH2 0x63D JUMP JUMPDEST SWAP1 POP PUSH2 0x31B DUP2 DUP6 DUP6 PUSH2 0x644 JUMP JUMPDEST PUSH1 0x1 SWAP2 POP POP SWAP3 SWAP2 POP POP JUMP JUMPDEST PUSH0 PUSH1 0x2 SLOAD SWAP1 POP SWAP1 JUMP JUMPDEST PUSH0 PUSH0 PUSH2 0x339 PUSH2 0x63D JUMP JUMPDEST SWAP1 POP PUSH2 0x346 DUP6 DUP3 DUP6 PUSH2 0x656 JUMP JUMPDEST PUSH2 0x351 DUP6 DUP6 DUP6 PUSH2 0x6E9 JUMP JUMPDEST PUSH1 0x1 SWAP2 POP POP SWAP4 SWAP3 POP POP POP JUMP JUMPDEST PUSH0 PUSH1 0x12 SWAP1 POP SWAP1 JUMP JUMPDEST PUSH1 0x5 PUSH0 SWAP1 SLOAD SWAP1 PUSH2 0x100 EXP SWAP1 DIV PUSH20 0xFFFFFFFFFFFFFFFFFFFFFFFFFFFFFFFFFFFFFFFF AND PUSH20 0xFFFFFFFFFFFFFFFFFFFFFFFFFFFFFFFFFFFFFFFF AND CALLER PUSH20 0xFFFFFFFFFFFFFFFFFFFFFFFFFFFFFFFFFFFFFFFF AND EQ PUSH2 0x3F4 JUMPI PUSH1 0x40 MLOAD PUSH32 0x8C379A000000000000000000000000000000000000000000000000000000000 DUP2 MSTORE PUSH1 0x4 ADD PUSH2 0x3EB SWAP1 PUSH2 0x1035 JUMP JUMPDEST PUSH1 0x40 MLOAD DUP1 SWAP2 SUB SWAP1 REVERT JUMPDEST PUSH2 0x3FE DUP3 DUP3 PUSH2 0x7D9 JUMP JUMPDEST POP POP JUMP JUMPDEST PUSH0 PUSH0 PUSH0 DUP4 PUSH20 0xFFFFFFFFFFFFFFFFFFFFFFFFFFFFFFFFFFFFFFFF AND PUSH20 0xFFFFFFFFFFFFFFFFFFFFFFFFFFFFFFFFFFFFFFFF AND DUP2 MSTORE PUSH1 0x20 ADD SWAP1 DUP2 MSTORE PUSH1 0x20 ADD PUSH0 KECCAK256 SLOAD SWAP1 POP SWAP2 SWAP1 POP JUMP JUMPDEST PUSH1 0x5 PUSH0 SWAP1 SLOAD SWAP1 PUSH2 0x100 EXP SWAP1 DIV PUSH20 0xFFFFFFFFFFFFFFFFFFFFFFFFFFFFFFFFFFFFFFFF AND DUP2 JUMP JUMPDEST PUSH1 0x60 PUSH1 0x4 DUP1 SLOAD PUSH2 0x47B SWAP1 PUSH2 0xFBB JUMP JUMPDEST DUP1 PUSH1 0x1F ADD PUSH1 0x20 DUP1 SWAP2 DIV MUL PUSH1 0x20 ADD PUSH1 0x40 MLOAD SWAP1 DUP2 ADD PUSH1 0x40 MSTORE DUP1 SWAP3 SWAP2 SWAP1 DUP2 DUP2 MSTORE PUSH1 0x20 ADD DUP3 DUP1 SLOAD PUSH2 0x4A7 SWAP1 PUSH2 0xFBB JUMP JUMPDEST DUP1 ISZERO PUSH2 0x4F2 JUMPI DUP1 PUSH1 0x1F LT PUSH2 0x4C9 JUMPI PUSH2 0x100 DUP1 DUP4 SLOAD DIV MUL DUP4 MSTORE SWAP2 PUSH1 0x20 ADD SWAP2 PUSH2 0x4F2 JUMP JUMPDEST DUP3 ADD SWAP2 SWAP1 PUSH0 MSTORE PUSH1 0x20 PUSH0 KECCAK256 SWAP1 JUMPDEST DUP2 SLOAD DUP2 MSTORE SWAP1 PUSH1 0x1 ADD SWAP1 PUSH1 0x20 ADD DUP1 DUP4 GT PUSH2 0x4D5 JUMPI DUP3 SWAP1 SUB PUSH1 0x1F AND DUP3 ADD SWAP2 JUMPDEST POP POP POP POP POP SWAP1 POP SWAP1 JUMP JUMPDEST PUSH1 0x5 PUSH0 SWAP1 SLOAD SWAP1 PUSH2 0x100 EXP SWAP1 DIV PUSH20 0xFFFFFFFFFFFFFFFFFFFFFFFFFFFFFFFFFFFFFFFF AND PUSH20 0xFFFFFFFFFFFFFFFFFFFFFFFFFFFFFFFFFFFFFFFF AND CALLER PUSH20 0xFFFFFFFFFFFFFFFFFFFFFFFFFFFFFFFFFFFFFFFF AND EQ PUSH2 0x58B JUMPI PUSH1 0x40 MLOAD PUSH32 0x8C379A000000000000000000000000000000000000000000000000000000000 DUP2 MSTORE PUSH1 0x4 ADD PUSH2 0x582 SWAP1 PUSH2 0x1035 JUMP JUMPDEST PUSH1 0x40 MLOAD DUP1 SWAP2 SUB SWAP1 REVERT JUMPDEST PUSH2 0x595 DUP3 DUP3 PUSH2 0x858 JUMP JUMPDEST POP POP JUMP JUMPDEST PUSH0 PUSH0 PUSH2 0x5A3 PUSH2 0x63D JUMP JUMPDEST SWAP1 POP PUSH2 0x5B0 DUP2 DUP6 DUP6 PUSH2 0x6E9 JUMP JUMPDEST PUSH1 0x1 SWAP2 POP POP SWAP3 SWAP2 POP POP JUMP JUMPDEST PUSH0 PUSH1 0x1 PUSH0 DUP5 PUSH20 0xFFFFFFFFFFFFFFFFFFFFFFFFFFFFFFFFFFFFFFFF AND PUSH20 0xFFFFFFFFFFFFFFFFFFFFFFFFFFFFFFFFFFFFFFFF AND DUP2 MSTORE PUSH1 0x20 ADD SWAP1 DUP2 MSTORE PUSH1 0x20 ADD PUSH0 KECCAK256 PUSH0 DUP4 PUSH20 0xFFFFFFFFFFFFFFFFFFFFFFFFFFFFFFFFFFFFFFFF AND PUSH20 0xFFFFFFFFFFFFFFFFFFFFFFFFFFFFFFFFFFFFFFFF AND DUP2 MSTORE PUSH1 0x20 ADD SWAP1 DUP2 MSTORE PUSH1 0x20 ADD PUSH0 KECCAK256 SLOAD SWAP1 POP SWAP3 SWAP2 POP POP JUMP JUMPDEST PUSH0 CALLER SWAP1 POP SWAP1 JUMP JUMPDEST PUSH2 0x651 DUP4 DUP4 DUP4 PUSH1 0x1 PUSH2 0x8D7 JUMP JUMPDEST POP POP POP JUMP JUMPDEST PUSH0 PUSH2 0x661 DUP5 DUP5 PUSH2 0x5BB JUMP JUMPDEST SWAP1 POP PUSH32 0xFFFFFFFFFFFFFFFFFFFFFFFFFFFFFFFFFFFFFFFFFFFFFFFFFFFFFFFFFFFFFFFF DUP2 LT ISZERO PUSH2 0x6E3 JUMPI DUP2 DUP2 LT ISZERO PUSH2 0x6D4 JUMPI DUP3 DUP2 DUP4 PUSH1 0x40 MLOAD PUSH32 0xFB8F41B200000000000000000000000000000000000000000000000000000000 DUP2 MSTORE PUSH1 0x4 ADD PUSH2 0x6CB SWAP4 SWAP3 SWAP2 SWAP1 PUSH2 0x1053 JUMP JUMPDEST PUSH1 0x40 MLOAD DUP1 SWAP2 SUB SWAP1 REVERT JUMPDEST PUSH2 0x6E2 DUP5 DUP5 DUP5 DUP5 SUB PUSH0 PUSH2 0x8D7 JUMP JUMPDEST JUMPDEST POP POP POP POP JUMP JUMPDEST PUSH0 PUSH20 0xFFFFFFFFFFFFFFFFFFFFFFFFFFFFFFFFFFFFFFFF AND DUP4 PUSH20 0xFFFFFFFFFFFFFFFFFFFFFFFFFFFFFFFFFFFFFFFF AND SUB PUSH2 0x759 JUMPI PUSH0 PUSH1 0x40 MLOAD PUSH32 0x96C6FD1E00000000000000000000000000000000000000000000000000000000 DUP2 MSTORE PUSH1 0x4 ADD PUSH2 0x750 SWAP2 SWAP1 PUSH2 0xF37 JUMP JUMPDEST PUSH1 0x40 MLOAD DUP1 SWAP2 SUB SWAP1 REVERT JUMPDEST PUSH0 PUSH20 0xFFFFFFFFFFFFFFFFFFFFFFFFFFFFFFFFFFFFFFFF AND DUP3 PUSH20 0xFFFFFFFFFFFFFFFFFFFFFFFFFFFFFFFFFFFFFFFF AND SUB PUSH2 0x7C9 JUMPI PUSH0 PUSH1 0x40 MLOAD PUSH32 0xEC442F0500000000000000000000000000000000000000000000000000000000 DUP2 MSTORE PUSH1 0x4 ADD PUSH2 0x7C0 SWAP2 SWAP1 PUSH2 0xF37 JUMP JUMPDEST PUSH1 0x40 MLOAD DUP1 SWAP2 SUB SWAP1 REVERT JUMPDEST PUSH2 0x7D4 DUP4 DUP4 DUP4 PUSH2 0xAA6 JUMP JUMPDEST POP POP POP JUMP JUMPDEST PUSH0 PUSH20 0xFFFFFFFFFFFFFFFFFFFFFFFFFFFFFFFFFFFFFFFF AND DUP3 PUSH20 0xFFFFFFFFFFFFFFFFFFFFFFFFFFFFFFFFFFFFFFFF AND SUB PUSH2 0x849 JUMPI PUSH0 PUSH1 0x40 MLOAD PUSH32 0xEC442F0500000000000000000000000000000000000000000000000000000000 DUP2 MSTORE PUSH1 0x4 ADD PUSH2 0x840 SWAP2 SWAP1 PUSH2 0xF37 JUMP JUMPDEST PUSH1 0x40 MLOAD DUP1 SWAP2 SUB SWAP1 REVERT JUMPDEST PUSH2 0x854 PUSH0 DUP4 DUP4 PUSH2 0xAA6 JUMP JUMPDEST POP POP JUMP JUMPDEST PUSH0 PUSH20 0xFFFFFFFFFFFFFFFFFFFFFFFFFFFFFFFFFFFFFFFF AND DUP3 PUSH20 0xFFFFFFFFFFFFFFFFFFFFFFFFFFFFFFFFFFFFFFFF AND SUB PUSH2 0x8C8 JUMPI PUSH0 PUSH1 0x40 MLOAD PUSH32 0x96C6FD1E00000000000000000000000000000000000000000000000000000000 DUP2 MSTORE PUSH1 0x4 ADD PUSH2 0x8BF SWAP2 SWAP1 PUSH2 0xF37 JUMP JUMPDEST PUSH1 0x40 MLOAD DUP1 SWAP2 SUB SWAP1 REVERT JUMPDEST PUSH2 0x8D3 DUP3 PUSH0 DUP4 PUSH2 0xAA6 JUMP JUMPDEST POP POP JUMP JUMPDEST PUSH0 PUSH20 0xFFFFFFFFFFFFFFFFFFFFFFFFFFFFFFFFFFFFFFFF AND DUP5 PUSH20 0xFFFFFFFFFFFFFFFFFFFFFFFFFFFFFFFFFFFFFFFF AND SUB PUSH2 0x947 JUMPI PUSH0 PUSH1 0x40 MLOAD PUSH32 0xE602DF0500000000000000000000000000000000000000000000000000000000 DUP2 MSTORE PUSH1 0x4 ADD PUSH2 0x93E SWAP2 SWAP1 PUSH2 0xF37 JUMP JUMPDEST PUSH1 0x40 MLOAD DUP1 SWAP2 SUB SWAP1 REVERT JUMPDEST PUSH0 PUSH20 0xFFFFFFFFFFFFFFFFFFFFFFFFFFFFFFFFFFFFFFFF AND DUP4 PUSH20 0xFFFFFFFFFFFFFFFFFFFFFFFFFFFFFFFFFFFFFFFF AND SUB PUSH2 0x9B7 JUMPI PUSH0 PUSH1 0x40 MLOAD PUSH32 0x94280D6200000000000000000000000000000000000000000000000000000000 DUP2 MSTORE PUSH1 0x4 ADD PUSH2 0x9AE SWAP2 SWAP1 PUSH2 0xF37 JUMP JUMPDEST PUSH1 0x40 MLOAD DUP1 SWAP2 SUB SWAP1 REVERT JUMPDEST DUP2 PUSH1 0x1 PUSH0 DUP7 PUSH20 0xFFFFFFFFFFFFFFFFFFFFFFFFFFFFFFFFFFFFFFFF AND PUSH20 0xFFFFFFFFFFFFFFFFFFFFFFFFFFFFFFFFFFFFFFFF AND DUP2 MSTORE PUSH1 0x20 ADD SWAP1 DUP2 MSTORE PUSH1 0x20 ADD PUSH0 KECCAK256 PUSH0 DUP6 PUSH20 0xFFFFFFFFFFFFFFFFFFFFFFFFFFFFFFFFFFFFFFFF AND PUSH20 0xFFFFFFFFFFFFFFFFFFFFFFFFFFFFFFFFFFFFFFFF AND DUP2 MSTORE PUSH1 0x20 ADD SWAP1 DUP2 MSTORE PUSH1 0x20 ADD PUSH0 KECCAK256 DUP2 SWAP1 SSTORE POP DUP1 ISZERO PUSH2 0xAA0 JUMPI DUP3 PUSH20 0xFFFFFFFFFFFFFFFFFFFFFFFFFFFFFFFFFFFFFFFF AND DUP5 PUSH20 0xFFFFFFFFFFFFFFFFFFFFFFFFFFFFFFFFFFFFFFFF AND PUSH32 0x8C5BE1E5EBEC7D5BD14F71427D1E84F3DD0314C0F7B2291E5B200AC8C7C3B925 DUP5 PUSH1 0x40 MLOAD PUSH2 0xA97 SWAP2 SWAP1 PUSH2 0xE60 JUMP JUMPDEST PUSH1 0x40 MLOAD DUP1 SWAP2 SUB SWAP1 LOG3 JUMPDEST POP POP POP POP JUMP JUMPDEST PUSH0 PUSH20 0xFFFFFFFFFFFFFFFFFFFFFFFFFFFFFFFFFFFFFFFF AND DUP4 PUSH20 0xFFFFFFFFFFFFFFFFFFFFFFFFFFFFFFFFFFFFFFFF AND SUB PUSH2 0xAF6 JUMPI DUP1 PUSH1 0x2 PUSH0 DUP3 DUP3 SLOAD PUSH2 0xAEA SWAP2 SWAP1 PUSH2 0x10B5 JUMP JUMPDEST SWAP3 POP POP DUP2 SWAP1 SSTORE POP PUSH2 0xBC4 JUMP JUMPDEST PUSH0 PUSH0 PUSH0 DUP6 PUSH20 0xFFFFFFFFFFFFFFFFFFFFFFFFFFFFFFFFFFFFFFFF AND PUSH20 0xFFFFFFFFFFFFFFFFFFFFFFFFFFFFFFFFFFFFFFFF AND DUP2 MSTORE PUSH1 0x20 ADD SWAP1 DUP2 MSTORE PUSH1 0x20 ADD PUSH0 KECCAK256 SLOAD SWAP1 POP DUP2 DUP2 LT ISZERO PUSH2 0xB7F JUMPI DUP4 DUP2 DUP4 PUSH1 0x40 MLOAD PUSH32 0xE450D38C00000000000000000000000000000000000000000000000000000000 DUP2 MSTORE PUSH1 0x4 ADD PUSH2 0xB76 SWAP4 SWAP3 SWAP2 SWAP1 PUSH2 0x1053 JUMP JUMPDEST PUSH1 0x40 MLOAD DUP1 SWAP2 SUB SWAP1 REVERT JUMPDEST DUP2 DUP2 SUB PUSH0 PUSH0 DUP7 PUSH20 0xFFFFFFFFFFFFFFFFFFFFFFFFFFFFFFFFFFFFFFFF AND PUSH20 0xFFFFFFFFFFFFFFFFFFFFFFFFFFFFFFFFFFFFFFFF AND DUP2 MSTORE PUSH1 0x20 ADD SWAP1 DUP2 MSTORE PUSH1 0x20 ADD PUSH0 KECCAK256 DUP2 SWAP1 SSTORE POP POP JUMPDEST PUSH0 PUSH20 0xFFFFFFFFFFFFFFFFFFFFFFFFFFFFFFFFFFFFFFFF AND DUP3 PUSH20 0xFFFFFFFFFFFFFFFFFFFFFFFFFFFFFFFFFFFFFFFF AND SUB PUSH2 0xC0B JUMPI DUP1 PUSH1 0x2 PUSH0 DUP3 DUP3 SLOAD SUB SWAP3 POP POP DUP2 SWAP1 SSTORE POP PUSH2 0xC55 JUMP JUMPDEST DUP1 PUSH0 PUSH0 DUP5 PUSH20 0xFFFFFFFFFFFFFFFFFFFFFFFFFFFFFFFFFFFFFFFF AND PUSH20 0xFFFFFFFFFFFFFFFFFFFFFFFFFFFFFFFFFFFFFFFF AND DUP2 MSTORE PUSH1 0x20 ADD SWAP1 DUP2 MSTORE PUSH1 0x20 ADD PUSH0 KECCAK256 PUSH0 DUP3 DUP3 SLOAD ADD SWAP3 POP POP DUP2 SWAP1 SSTORE POP JUMPDEST DUP2 PUSH20 0xFFFFFFFFFFFFFFFFFFFFFFFFFFFFFFFFFFFFFFFF AND DUP4 PUSH20 0xFFFFFFFFFFFFFFFFFFFFFFFFFFFFFFFFFFFFFFFF AND PUSH32 0xDDF252AD1BE2C89B69C2B068FC378DAA952BA7F163C4A11628F55A4DF523B3EF DUP4 PUSH1 0x40 MLOAD PUSH2 0xCB2 SWAP2 SWAP1 PUSH2 0xE60 JUMP JUMPDEST PUSH1 0x40 MLOAD DUP1 SWAP2 SUB SWAP1 LOG3 POP POP POP JUMP JUMPDEST PUSH0 DUP2 MLOAD SWAP1 POP SWAP2 SWAP1 POP JUMP JUMPDEST PUSH0 DUP3 DUP3 MSTORE PUSH1 0x20 DUP3 ADD SWAP1 POP SWAP3 SWAP2 POP POP JUMP JUMPDEST DUP3 DUP2 DUP4 MCOPY PUSH0 DUP4 DUP4 ADD MSTORE POP POP POP JUMP JUMPDEST PUSH0 PUSH1 0x1F NOT PUSH1 0x1F DUP4 ADD AND SWAP1 POP SWAP2 SWAP1 POP JUMP JUMPDEST PUSH0 PUSH2 0xD01 DUP3 PUSH2 0xCBF JUMP JUMPDEST PUSH2 0xD0B DUP2 DUP6 PUSH2 0xCC9 JUMP JUMPDEST SWAP4 POP PUSH2 0xD1B DUP2 DUP6 PUSH1 0x20 DUP7 ADD PUSH2 0xCD9 JUMP JUMPDEST PUSH2 0xD24 DUP2 PUSH2 0xCE7 JUMP JUMPDEST DUP5 ADD SWAP2 POP POP SWAP3 SWAP2 POP POP JUMP JUMPDEST PUSH0 PUSH1 0x20 DUP3 ADD SWAP1 POP DUP2 DUP2 SUB PUSH0 DUP4 ADD MSTORE PUSH2 0xD47 DUP2 DUP5 PUSH2 0xCF7 JUMP JUMPDEST SWAP1 POP SWAP3 SWAP2 POP POP JUMP JUMPDEST PUSH0 PUSH0 REVERT JUMPDEST PUSH0 PUSH20 0xFFFFFFFFFFFFFFFFFFFFFFFFFFFFFFFFFFFFFFFF DUP3 AND SWAP1 POP SWAP2 SWAP1 POP JUMP JUMPDEST PUSH0 PUSH2 0xD7C DUP3 PUSH2 0xD53 JUMP JUMPDEST SWAP1 POP SWAP2 SWAP1 POP JUMP JUMPDEST PUSH2 0xD8C DUP2 PUSH2 0xD72 JUMP JUMPDEST DUP2 EQ PUSH2 0xD96 JUMPI PUSH0 PUSH0 REVERT JUMPDEST POP JUMP JUMPDEST PUSH0 DUP2 CALLDATALOAD SWAP1 POP PUSH2 0xDA7 DUP2 PUSH2 0xD83 JUMP JUMPDEST SWAP3 SWAP2 POP POP JUMP JUMPDEST PUSH0 DUP2 SWAP1 POP SWAP2 SWAP1 POP JUMP JUMPDEST PUSH2 0xDBF DUP2 PUSH2 0xDAD JUMP JUMPDEST DUP2 EQ PUSH2 0xDC9 JUMPI PUSH0 PUSH0 REVERT JUMPDEST POP JUMP JUMPDEST PUSH0 DUP2 CALLDATALOAD SWAP1 POP PUSH2 0xDDA DUP2 PUSH2 0xDB6 JUMP JUMPDEST SWAP3 SWAP2 POP POP JUMP JUMPDEST PUSH0 PUSH0 PUSH1 0x40 DUP4 DUP6 SUB SLT ISZERO PUSH2 0xDF6 JUMPI PUSH2 0xDF5 PUSH2 0xD4F JUMP JUMPDEST JUMPDEST PUSH0 PUSH2 0xE03 DUP6 DUP3 DUP7 ADD PUSH2 0xD99 JUMP JUMPDEST SWAP3 POP POP PUSH1 0x20 PUSH2 0xE14 DUP6 DUP3 DUP7 ADD PUSH2 0xDCC JUMP JUMPDEST SWAP2 POP POP SWAP3 POP SWAP3 SWAP1 POP JUMP JUMPDEST PUSH0 DUP2 ISZERO ISZERO SWAP1 POP SWAP2 SWAP1 POP JUMP JUMPDEST PUSH2 0xE32 DUP2 PUSH2 0xE1E JUMP JUMPDEST DUP3 MSTORE POP POP JUMP JUMPDEST PUSH0 PUSH1 0x20 DUP3 ADD SWAP1 POP PUSH2 0xE4B PUSH0 DUP4 ADD DUP5 PUSH2 0xE29 JUMP JUMPDEST SWAP3 SWAP2 POP POP JUMP JUMPDEST PUSH2 0xE5A DUP2 PUSH2 0xDAD JUMP JUMPDEST DUP3 MSTORE POP POP JUMP JUMPDEST PUSH0 PUSH1 0x20 DUP3 ADD SWAP1 POP PUSH2 0xE73 PUSH0 DUP4 ADD DUP5 PUSH2 0xE51 JUMP JUMPDEST SWAP3 SWAP2 POP POP JUMP JUMPDEST PUSH0 PUSH0 PUSH0 PUSH1 0x60 DUP5 DUP7 SUB SLT ISZERO PUSH2 0xE90 JUMPI PUSH2 0xE8F PUSH2 0xD4F JUMP JUMPDEST JUMPDEST PUSH0 PUSH2 0xE9D DUP7 DUP3 DUP8 ADD PUSH2 0xD99 JUMP JUMPDEST SWAP4 POP POP PUSH1 0x20 PUSH2 0xEAE DUP7 DUP3 DUP8 ADD PUSH2 0xD99 JUMP JUMPDEST SWAP3 POP POP PUSH1 0x40 PUSH2 0xEBF DUP7 DUP3 DUP8 ADD PUSH2 0xDCC JUMP JUMPDEST SWAP2 POP POP SWAP3 POP SWAP3 POP SWAP3 JUMP JUMPDEST PUSH0 PUSH1 0xFF DUP3 AND SWAP1 POP SWAP2 SWAP1 POP JUMP JUMPDEST PUSH2 0xEDE DUP2 PUSH2 0xEC9 JUMP JUMPDEST DUP3 MSTORE POP POP JUMP JUMPDEST PUSH0 PUSH1 0x20 DUP3 ADD SWAP1 POP PUSH2 0xEF7 PUSH0 DUP4 ADD DUP5 PUSH2 0xED5 JUMP JUMPDEST SWAP3 SWAP2 POP POP JUMP JUMPDEST PUSH0 PUSH1 0x20 DUP3 DUP5 SUB SLT ISZERO PUSH2 0xF12 JUMPI PUSH2 0xF11 PUSH2 0xD4F JUMP JUMPDEST JUMPDEST PUSH0 PUSH2 0xF1F DUP5 DUP3 DUP6 ADD PUSH2 0xD99 JUMP JUMPDEST SWAP2 POP POP SWAP3 SWAP2 POP POP JUMP JUMPDEST PUSH2 0xF31 DUP2 PUSH2 0xD72 JUMP JUMPDEST DUP3 MSTORE POP POP JUMP JUMPDEST PUSH0 PUSH1 0x20 DUP3 ADD SWAP1 POP PUSH2 0xF4A PUSH0 DUP4 ADD DUP5 PUSH2 0xF28 JUMP JUMPDEST SWAP3 SWAP2 POP POP JUMP JUMPDEST PUSH0 PUSH0 PUSH1 0x40 DUP4 DUP6 SUB SLT ISZERO PUSH2 0xF66 JUMPI PUSH2 0xF65 PUSH2 0xD4F JUMP JUMPDEST JUMPDEST PUSH0 PUSH2 0xF73 DUP6 DUP3 DUP7 ADD PUSH2 0xD99 JUMP JUMPDEST SWAP3 POP POP PUSH1 0x20 PUSH2 0xF84 DUP6 DUP3 DUP7 ADD PUSH2 0xD99 JUMP JUMPDEST SWAP2 POP POP SWAP3 POP SWAP3 SWAP1 POP JUMP JUMPDEST PUSH32 0x4E487B7100000000000000000000000000000000000000000000000000000000 PUSH0 MSTORE PUSH1 0x22 PUSH1 0x4 MSTORE PUSH1 0x24 PUSH0 REVERT JUMPDEST PUSH0 PUSH1 0x2 DUP3 DIV SWAP1 POP PUSH1 0x1 DUP3 AND DUP1 PUSH2 0xFD2 JUMPI PUSH1 0x7F DUP3 AND SWAP2 POP JUMPDEST PUSH1 0x20 DUP3 LT DUP2 SUB PUSH2 0xFE5 JUMPI PUSH2 0xFE4 PUSH2 0xF8E JUMP JUMPDEST JUMPDEST POP SWAP2 SWAP1 POP JUMP JUMPDEST PUSH32 0x4F6E6C792053696D706C65537761702063616E206D696E742F6275726E000000 PUSH0 DUP3 ADD MSTORE POP JUMP JUMPDEST PUSH0 PUSH2 0x101F PUSH1 0x1D DUP4 PUSH2 0xCC9 JUMP JUMPDEST SWAP2 POP PUSH2 0x102A DUP3 PUSH2 0xFEB JUMP JUMPDEST PUSH1 0x20 DUP3 ADD SWAP1 POP SWAP2 SWAP1 POP JUMP JUMPDEST PUSH0 PUSH1 0x20 DUP3 ADD SWAP1 POP DUP2 DUP2 SUB PUSH0 DUP4 ADD MSTORE PUSH2 0x104C DUP2 PUSH2 0x1013 JUMP JUMPDEST SWAP1 POP SWAP2 SWAP1 POP JUMP JUMPDEST PUSH0 PUSH1 0x60 DUP3 ADD SWAP1 POP PUSH2 0x1066 PUSH0 DUP4 ADD DUP7 PUSH2 0xF28 JUMP JUMPDEST PUSH2 0x1073 PUSH1 0x20 DUP4 ADD DUP6 PUSH2 0xE51 JUMP JUMPDEST PUSH2 0x1080 PUSH1 0x40 DUP4 ADD DUP5 PUSH2 0xE51 JUMP JUMPDEST SWAP5 SWAP4 POP POP POP POP JUMP JUMPDEST PUSH32 0x4E487B7100000000000000000000000000000000000000000000000000000000 PUSH0 MSTORE PUSH1 0x11 PUSH1 0x4 MSTORE PUSH1 0x24 PUSH0 REVERT JUMPDEST PUSH0 PUSH2 0x10BF DUP3 PUSH2 0xDAD JUMP JUMPDEST SWAP2 POP PUSH2 0x10CA DUP4 PUSH2 0xDAD JUMP JUMPDEST SWAP3 POP DUP3 DUP3 ADD SWAP1 POP DUP1 DUP3 GT ISZERO PUSH2 0x10E2 JUMPI PUSH2 0x10E1 PUSH2 0x1088 JUMP JUMPDEST JUMPDEST SWAP3 SWAP2 POP POP JUMP INVALID LOG2 PUSH5 0x6970667358 0x22 SLT KECCAK256 0xC4 0xC3 PUSH2 0xFC0F 0xD5 SWAP9 TSTORE PUSH5 0xD15FB18CA5 0xEB SWAP16 0x21 DUP6 0x26 0x4B SWAP16 0xDB SWAP8 0xDD PUSH20 0x65357C6D99DE7B64736F6C634300081E0033A264 PUSH10 0x706673582212200B5B49 DUP12 PC SMOD 0xCA RETF COINBASE ADDMOD PUSH22 0x174E7EAB0C7C38FA662F379013BC68EE66C3FF97DF64 PUSH20 0x6F6C634300081E00330000000000000000000000 "
				},
				"gasEstimates": {
					"creation": {
						"codeDepositCost": "2879600",
						"executionCost": "3144",
						"totalCost": "2882744"
					},
					"external": {
						"addLiquidity(address,address,uint256,uint256,uint256,uint256,address,uint256)": "infinite",
						"getAmountOut(uint256,uint256,uint256)": "infinite",
						"getPrice(address,address)": "infinite",
						"pairs(address,address)": "infinite",
						"removeLiquidity(address,address,uint256,uint256,uint256,address,uint256)": "infinite",
						"swapExactTokensForTokens(uint256,uint256,address[],address,uint256)": "infinite"
					},
					"internal": {
						"sqrt(uint256)": "infinite"
					}
				},
				"methodIdentifiers": {
					"addLiquidity(address,address,uint256,uint256,uint256,uint256,address,uint256)": "e8e33700",
					"getAmountOut(uint256,uint256,uint256)": "054d50d4",
					"getPrice(address,address)": "ac41865a",
					"pairs(address,address)": "69454b86",
					"removeLiquidity(address,address,uint256,uint256,uint256,address,uint256)": "baa2abde",
					"swapExactTokensForTokens(uint256,uint256,address[],address,uint256)": "38ed1739"
				}
			},
			"storageLayout": {
				"storage": [
					{
						"astId": 850,
						"contract": "SimpleSwap_flattened.sol:SimpleSwap",
						"label": "pairs",
						"offset": 0,
						"slot": "0",
						"type": "t_mapping(t_address,t_mapping(t_address,t_struct(Pair)843_storage))"
					}
				],
				"types": {
					"t_address": {
						"encoding": "inplace",
						"label": "address",
						"numberOfBytes": "20"
					},
					"t_contract(LiquidityToken)833": {
						"encoding": "inplace",
						"label": "contract LiquidityToken",
						"numberOfBytes": "20"
					},
					"t_mapping(t_address,t_mapping(t_address,t_struct(Pair)843_storage))": {
						"encoding": "mapping",
						"key": "t_address",
						"label": "mapping(address => mapping(address => struct SimpleSwap.Pair))",
						"numberOfBytes": "32",
						"value": "t_mapping(t_address,t_struct(Pair)843_storage)"
					},
					"t_mapping(t_address,t_struct(Pair)843_storage)": {
						"encoding": "mapping",
						"key": "t_address",
						"label": "mapping(address => struct SimpleSwap.Pair)",
						"numberOfBytes": "32",
						"value": "t_struct(Pair)843_storage"
					},
					"t_struct(Pair)843_storage": {
						"encoding": "inplace",
						"label": "struct SimpleSwap.Pair",
						"members": [
							{
								"astId": 837,
								"contract": "SimpleSwap_flattened.sol:SimpleSwap",
								"label": "reserveA",
								"offset": 0,
								"slot": "0",
								"type": "t_uint256"
							},
							{
								"astId": 839,
								"contract": "SimpleSwap_flattened.sol:SimpleSwap",
								"label": "reserveB",
								"offset": 0,
								"slot": "1",
								"type": "t_uint256"
							},
							{
								"astId": 842,
								"contract": "SimpleSwap_flattened.sol:SimpleSwap",
								"label": "liquidityToken",
								"offset": 0,
								"slot": "2",
								"type": "t_contract(LiquidityToken)833"
							}
						],
						"numberOfBytes": "96"
					},
					"t_uint256": {
						"encoding": "inplace",
						"label": "uint256",
						"numberOfBytes": "32"
					}
				}
			},
			"userdoc": {
				"kind": "user",
				"methods": {},
				"version": 1
			}
		}
	}
}